:020000040800F2
:10000000C0090020390500083D0300083F0300082F
:1000100043030008470300084B03000800000000EA
:100020000000000000000000000000004F03000876
:1000300051030008000000005303000855030008A6
:100040005305000853050008530500085305000830
:100050005305000853050008530500085305000820
:100060005305000853050008530500085305000810
:100070005305000853050008530500085305000800
:1000800053050008530500085305000853050008F0
:1000900053050008530500085305000853050008E0
:1000A00053050008530500085305000853050008D0
:1000B000A52900085305000853050008530500084A
:1000C00053050008530500085305000853050008B0
:1000D00053050008032100085305000853050008D4
:1000E0005305000853050008530500085305000890
:1000F0005305000853050008530500085305000880
:10010000530500085305000849730008530500080B
:10011000530500085305000853050008530500085F
:10012000530500085305000853050008530500084F
:1001300000F002F800F06BF80AA090E8000C82448E
:100140008344AAF10107DA4501D100F060F8AFF26B
:10015000090EBAE80F0013F0010F18BFFB1A43F0A5
:1001600001031847C4B10000E4B100000A444FF095
:10017000000C10F8013B13F0070408BF10F8014B06
:100180001D1108BF10F8015B641E05D010F8016B4B
:10019000641E01F8016BF9D113F0080F1EBF10F8AF
:1001A000014BAD1C0C1B09D16D1E58BF01F801CBD2
:1001B000FAD505E014F8016B01F8016B6D1EF9D555
:1001C0009142D6D37047000000230024002500266A
:1001D000103A28BF78C1FBD8520728BF30C148BFAA
:1001E0000B607047642907F0AD86752907F0AA8671
:1001F000782907F0E386632908F0ED80732908F079
:10020000F280002070471FB51FBD10B510BD08F06B
:100210006FF91146FFF7F7FF00F02CF808F08DF9A1
:1002200003B4FFF7F2FF03BC01F010FF10B5044662
:10023000204608F0F5FF384A03C210BD10B501F0A2
:100240009BFE4FF4A06000F097F94FF4165001F0B8
:100250000CFF324841684820884701F0ADFF01F0AB
:1002600095FF02F063FE02F04FFD03F06EFA03F01B
:10027000DCF810BDFFF7E2FF21E0C82001F0B9FE75
:100280002748006808B9012000E0002024490860E0
:100290002448D0F8A40108B9012000E0002020493A
:1002A000091D08601F48D0F8A80108B9012000E026
:1002B00000201B4908310860C82001F09AFE05F0B3
:1002C00079FC0028D9D1002140F6B83002F08EFD2B
:1002D000002140F6B83002F0D5FD4FF47A7001F0FD
:1002E00088FE4FF47A7001F084FE4FF47A7001F0CA
:1002F00080FE10E00C4A0D490D4805F0A5FC0C48A5
:1003000001680C4809F016FE044609F0E9FA0A4AA9
:1003100003C206F069FCEDE7180000201C01002074
:10032000A001224200002242100000200C00002008
:10033000080000200000B44220000020704700BFE9
:10034000FEE700BFFEE700BFFEE700BFFEE7704725
:1003500070477047704700000CB500200190009076
:100360006C48006840F480306A49086000BF694802
:10037000006800F4003000900198401C0190009843
:1003800018B90198B0F5A06FF1D16248006800F487
:10039000003010B10120009001E000200090009892
:1003A000012843D15C48006840F010005A490860B9
:1003B0000846006820F0030008600846006840F026
:1003C0000200086053484068524948600846406847
:1003D00048600846406840F48060486008464068CD
:1003E00020F47C1048600846406840F4E8104860FB
:1003F0000846006840F08070086000BF454800680B
:1004000000F000700028F9D04248406820F0030056
:10041000404948600846406840F00200486000BF1C
:100420003C48406800F00C000828F9D10CBD10B51C
:10043000FFF792FF10BD10B53648006840F001008C
:1004400034490860084640683449084031494860EA
:1004500008460068324908402E490860084600688E
:1004600020F4802008600846406820F4FE004860C0
:100470004FF41F008860FFF7DAFF4FF00060294952
:10048000086010BD10B5002100200022214B5B68E0
:1004900003F00C0121B1042906D0082928D107E076
:1004A000214B224C236027E01F4B204C236023E08C
:1004B000184B5B6803F47010164B5B6803F48032D2
:1004C000022303EB904022B9194B4343174C23609E
:1004D0000DE0104B5B6803F4003323B1144B43432E
:1004E000124C236003E0104B4343104C236003E0A5
:1004F0000D4B0E4C236000BF00BF064B5B68C3F37F
:1005000003130C4CE15C094B1B68CB40074C236088
:1005100010BD000000100240002002400000FFF863
:10052000FFFFF6FE08ED00E000127A002C0000202C
:1005300000093D0030000020094880470948004775
:10054000FEE7FEE7FEE7FEE7FEE7FEE7FEE7FEE783
:10055000FEE7FEE704480549054A064B70470000E0
:100560003704000831010008C0030020C009002042
:10057000C0050020C005002031490143314A116007
:10058000704770B5002100230F22C47804B32D4CAE
:10059000246804F4E064C4F5E064210AC1F10403B2
:1005A000CA40447804FA03F18478144021430901D5
:1005B000254C0678A155047804F01F050124AC40B1
:1005C00005786D11AD0005F1E025C5F8004109E0A1
:1005D000047804F01F050124AC401C4D0678761108
:1005E00045F8264070BD1A4A0A400243154B1B1FAE
:1005F0001A60704739B1134A121D12680243114B39
:100600001B1D1A6006E00F4A121D126882430D4B33
:100610001B1D1A607047042808D14FF0E0210969BA
:1006200041F004014FF0E022116107E04FF0E021BA
:10063000096921F004014FF0E022116170470000C8
:100640000000FA050CED00E000E400E080E100E0CD
:1006500080FFFF1F10B50446CC48844208D1012119
:10066000042001F03FFC0021042001F03BFC46E0A7
:10067000C748844208D10121082001F033FC002141
:10068000082001F02FFC3AE0C248844208D1012141
:10069000102001F027FC0021102001F023FC2EE0A7
:1006A000BD48844208D10121202001F01BFC00211B
:1006B000202001F017FC22E0B848844208D1012133
:1006C000402001F00FFC0021402001F00BFC16E05F
:1006D000B348844208D10121802001F003FC0021AD
:1006E000802001F0FFFB0AE0AE48844207D10121DF
:1006F000801501F0F7FB0021A01501F0F3FB10BD00
:1007000010B50121084601F0EDFB0021012001F0A8
:10071000E9FB10BD2DE9F04102460025002600202E
:1007200000230024002791F803C00CF00F0591F876
:1007300003C00CF0100CBCF1000F03D091F802C004
:100740004CEA050591F800C0BCF1000F31D01468E7
:1007500000202BE04FF0010C0CFA00F3B1F800C0C0
:100760000CEA03069E4220D183004FF00F0C0CFAD6
:1007700003F7BC4305FA03FC4CEA040491F803C0F8
:10078000BCF1280F06D14FF0010C0CFA00FCC2F8A6
:1007900014C00AE091F803C0BCF1480F05D14FF036
:1007A000010C0CFA00FCC2F810C0401C0828D1D380
:1007B0001460B1F800C0BCF1FF0F34DD54680020B4
:1007C0002EE000F1080C4FF0010808FA0CF3B1F824
:1007D00000C00CEA03069E4221D183004FF00F0CAB
:1007E0000CFA03F7BC4305FA03FC4CEA040491F845
:1007F00003C0BCF1280F05D100F1080C08FA0CF871
:10080000C2F8148091F803C0BCF1480F07D100F181
:10081000080C4FF0010808FA0CF8C2F81080401CD0
:100820000828CED35460BDE8F0814FF6FF710180F7
:10083000022181700421C170704702460020936834
:100840000B400BB1012000E0002070470146886892
:1008500080B2704702460020D3680B400BB10120E4
:1008600000E0002070470146C86880B2704701610F
:100870007047416170470AB1016100E04161704712
:10088000C16070474FF480320A43826181618261A6
:1008900082698269704702460020434B18684FF610
:1008A0008073184040EA021008433F4B18607047BD
:1008B0003E49C8617047F0B50A4600230024002174
:1008C000002500F00046B6F1004F02D1364EF16926
:1008D00001E0354E7168C0F3034583B200F4401661
:1008E000B6F5401F08D121F070612F4E766826F0D2
:1008F00070662D4F7E6012E000F48016B6F5801F02
:1009000006D1032606FA05F4A14341F0706106E022
:10091000460D360103FA06F6B14341F0706122B18B
:10092000460D360103FA06F6314300F00046B6F1F3
:10093000004F02D11C4EF16101E01B4E7160F0BD11
:1009400030B500228B071C0F0F2303FA04F2164B5D
:1009500008338C1053F824309343134C08348D1013
:1009600044F8253023468C1053F824308C07240F8C
:1009700000FA04F423430C4C08348D1044F825305D
:1009800030BD0A49DC3108607047000000080140B2
:10099000000C01400010014000140140001801400B
:1009A000001C0140002001400000014000002042E6
:1009B00010B50446FE48844208D10121C01401F05C
:1009C00091FA0021E01401F08DFAC4E0B4F1804FF7
:1009D00008D10121084601F092FA0021012001F01E
:1009E0008EFAB8E0F348844208D10121022001F0D8
:1009F00086FA0021022001F082FAACE0EE4884423F
:100A000008D10121042001F07AFA0021042001F02C
:100A100076FAA0E0E948844208D10121082001F0DB
:100A20006EFA0021082001F06AFA94E0E44884425A
:100A300008D10121102001F062FA0021102001F0FC
:100A40005EFA88E0DF48844208D10121202001F0CD
:100A500056FA0021202001F052FA7CE0DA48844264
:100A600008D10121401401F03DFA0021601401F089
:100A700039FA70E0D548844209D10121C80401F057
:100A800031FA00214FF4002001F02CFA63E0D04845
:100A9000844209D10121080501F024FA00214FF414
:100AA000801001F01FFA56E0CA48844209D10121A2
:100AB000480501F017FA00214FF4001001F012FA76
:100AC00049E0C548844208D10121402001F017FACD
:100AD0000021402001F013FA3DE0C048844208D1D3
:100AE0000121802001F00BFA0021802001F007FA9B
:100AF00031E0BB48844208D10121801501F0FFF9A3
:100B00000021A01501F0FBF925E0B648844209D187
:100B10000121080401F0E6F900214FF4803001F0D2
:100B2000E1F918E0B048844209D10121480401F0FC
:100B3000D9F900214FF4003001F0D4F90BE0AB48B3
:100B4000844208D10121880401F0CCF900214FF43E
:100B5000802001F0C7F910BD00220288944B984212
:100B60000ED0994B98420BD0B0F1804F08D0914BEA
:100B7000984205D0904B984202D0904B984204D1B5
:100B80004FF68F731A404B881A438D4B984207D00B
:100B90008C4B984204D04FF6FF431A40CB881A433F
:100BA00002808B8883850B880385814B98420BD00C
:100BB000854B984208D08B4B984205D08A4B98427F
:100BC00002D08A4B984201D10B7A0386012383829B
:100BD000704770B5002400220023058C4FF6FE7686
:100BE00035400584028C8388048B4FF68F752C402A
:100BF000B51E2C400D882C43751E2A400D892A43B2
:100C00004D882A436A4DA8420BD06F4DA84208D0A8
:100C1000744DA84205D0744DA84202D0734DA8422D
:100C200013D14FF6F7752A404D892A434FF6FB75CD
:100C30002A408D882A434FF6FF652B404FF6FF551B
:100C40002B408D892B43CD892B4383800483CD8812
:100C50008586028470BD70B5002400220023058CB7
:100C60004FF6EF7635400584028C8388048B48F676
:100C7000FF752C404FF6FF452C400D884FF6FF7650
:100C800006EA05252C434FF6DF752A400D8906EA52
:100C900005152A434D8806EA05152A43444DA84206
:100CA00002D0494DA8421DD14FF67F752A404D898B
:100CB0004FF6FF7606EA05152A434FF6BF752A4020
:100CC0008D8806EA05152A434FF6FF352B404FF273
:100CD000FF752B408D8906EA85052B43CD8906EAF1
:100CE00085052B4383800483CD880587028470BDEE
:100CF00070B5002400220023058C4FF6FF663540B6
:100D00000584028C8388848B4FF68F752C404FF6B8
:100D1000FC752C400D882C434FF6FF552A400D8959
:100D20004FF6FF7606EA05252A434D8806EA052593
:100D30002A431F4DA84202D0234DA8421DD14FF295
:100D4000FF752A404D894FF6FF7606EA05252A43AE
:100D50004FF6FF352A408D8806EA05252A434EF6D0
:100D6000FF752B404DF6FF752B408D8906EA051562
:100D70002B43CD8906EA05152B4383808483CD88D8
:100D80008587028470BD70B5002200230024058C85
:100D90004EF6FF7635400584038C8488828B48F6B6
:100DA000FF752A404FF6FF452A400D8820E00000DD
:100DB000002C01400004004000080040000C0040EE
:100DC000001000400014004000340140004C01407D
:100DD000005001400054014000180040001C004039
:100DE0000020004000400140004401400048014014
:100DF0004FF6FF7606EA05252A434DF6FF752B4090
:100E00000D8906EA05352B434D8806EA05352B4347
:100E1000FA4DA84202D0FA4DA84208D14BF6FF7510
:100E20002C408D894FF6FF7606EA85152C43848089
:100E30008283CD88A0F84050038470BD828B4FF22E
:100E4000FF331A408283828B4FF6FF7303EA01233C
:100E50001A4382837047F0B50C46154600220021E4
:100E60000026078C4EF6FF7C07EA0C070784828B6E
:100E7000018C4FF6FF7707EA043640F6FF473A4009
:100E80004FF6FF7707EA05273A434FF6FF7707EA61
:100E900003373A43D94FB8420ED0D94FB8420BD09E
:100EA000B0F1804F08D0D74FB84205D0D64FB842E6
:100EB00002D0D64FB84206D14DF6FF77394046F4FE
:100EC0008057394305E047F6FF57394044F48057CF
:100ED000394382830184F0BD828B4FF6F3731A404D
:100EE0008283828B0A4382837047F0B50C46154695
:100EF000002200210026078C4FF6FF6C07EA0C0742
:100F00000784828B018C4FF6FF7707EA04264FF6A1
:100F10000C773A404FF6FF7707EA03172F433A431F
:100F2000B64FB8420ED0B64FB8420BD0B0F1804F9A
:100F300008D0B44FB84205D0B34FB84202D0B34F37
:100F4000B84206D14FF6FF57394046F4807739430F
:100F500005E04FF2FF57394044F4807739438283EC
:100F60000184F0BD028B4FF2FF331A400283028BE3
:100F70004FF6FF7303EA01231A4302837047F0B56B
:100F80000C461546002200210026078C4FF6EF7C08
:100F900007EA0C070784028B018C4FF6FF7707EAFC
:100FA000041640F6FF473A404FF6FF7707EA03374B
:100FB0003A434FF6FF7707EA05273A438F4FB84287
:100FC0000ED08F4FB8420BD0B0F1804F08D08D4F6C
:100FD000B84205D08C4FB84202D08C4FB84206D1EF
:100FE0004FF6DF77394046F01007394305E04FF6FA
:100FF0005F77394044F01007394302830184F0BD24
:10100000028B4FF6F3731A400283028B0A4302836A
:101010007047F0B50C46154600220021068C4FF6AD
:10102000FE773E400684028B018C4FF60C763240F0
:101030007E1C06EA03162E433243704EB0420ED099
:101040006F4EB0420BD0B0F1804F08D06D4EB04221
:1010500005D06D4EB04202D06C4EB04206D14FF674
:10106000FD76314044F00106314305E04FF6F57658
:10107000314044F00106314302830184F0BD70B574
:1010800005460C465D4885420ED05D4885420BD032
:10109000B5F1804F08D05B48854205D05A4885425B
:1010A00002D05A48854200D100E000BF208850B9E4
:1010B0002389A28861882846FFF7ABFFE18828468C
:1010C000FFF79EFF25E0208804280AD12389A28803
:1010D00061882846FFF753FFE1882846FFF742FF63
:1010E00017E0208808280AD12389A2886188284629
:1010F000FFF7FBFEE1882846FFF7EEFE09E02389B3
:10110000A28861882846FFF7A6FEE1882846FFF7F7
:1011100095FE70BD2DE9F04105460C4600260127DD
:10112000608808B9022600E00026A088012801D1C5
:10113000022700E001272088A0B92389A2886188BE
:101140002846FFF766FFE1882846FFF759FF238905
:101150003A4631462846FFF712FFE1882846FFF756
:1011600001FF13E02389A28861882846FFF707FF63
:10117000E1882846FFF7F6FE23893A46314628469D
:10118000FFF747FFE1882846FFF73AFFBDE8F08107
:101190000A884B881A438B881A43CB881A430B89D9
:1011A0001A434B891A438B891A43A0F8442070478D
:1011B0004FF6FF71818000210180C1804180017262
:1011C00070470021018041808180C180018141817F
:1011D0008181C1817047002101804180012181808E
:1011E0000021C18001817047002101804180818000
:1011F000C18001814181818170470000002C014044
:10120000003401400004004000080040000C004091
:1012100021B1028842F00102028004E002884FF608
:10122000FE731A400280704731B1B0F8442042F496
:101230000042A0F8442005E0B0F84420C2F30E02BA
:10124000A0F8442070471AB183890B43838102E0E0
:1012500083898B43838170478182704741EA02030F
:10126000A0F8483070471AB183890B43838102E0AC
:1012700083898B438381704701894FF6F87211404F
:10128000018170470A46002101894FF68F7319408A
:1012900011430181704730B504460D46294620466A
:1012A000FFF7F0FF208940F00700208130BD2DE9D5
:1012B000F04104460D4616461F46602D06D13B46BA
:1012C000012231462046FFF75AFE05E03B46012247
:1012D00031462046FFF79DFE29462046FFF7D2FF04
:1012E000208940F007002081BDE8F08130B50C4630
:1012F00000210189C9B24FF6FF7505EA03251543A0
:1013000025432943018130BD2DE9F04105460E46B4
:1013100017469846002443463A4631462846FFF78A
:10132000E5FF2C894FF6F870044044F007044FF6AF
:101330008F70044044F070042C81BDE8F081F0B55A
:1013400004460D4616461F463B4632462946204671
:10135000FFF7CCFF208940F480402081F0BD01855B
:10136000828270470A46002101884FF68F73194028
:10137000114301807047F0B50C4615461E4600210A
:10138000002200230189028B038C4FF6F877394045
:1013900021434FF6FC473A4040F201173A434FF6DB
:1013A000DD773B404FF6FF7707EA06172F433B43B5
:1013B000018102830384F0BD0A460021018B4FF6B0
:1013C0008F7319401143018370470A460021018B36
:1013D00048F6FF7319404FF6FF7303EA02231943DF
:1013E000018370470A460021818B4FF68F731940A5
:1013F0001143818370470A460021818B48F6FF73B1
:1014000019404FF6FF7303EA0223194381837047A3
:1014100021B1028842F08002028004E002884FF687
:101420007F731A400280704721B1828842F0040223
:10143000828004E082884FF6FB731A4082807047F6
:1014400021B1828842F00802828004E082884FF64F
:10145000F7731A408280704721B1828842F00102FE
:10146000828004E082884FF6FE731A4082807047C3
:101470000A460021018B4FF6F7731940114301838F
:1014800070470A460021018B4FF2FF7319404FF657
:10149000FF7303EA02231943018370470A460021C0
:1014A000818B4FF6F77319401143818370470A46C9
:1014B0000021818B4FF2FF7319404FF6FF7303EA4F
:1014C00002231943818370470A460021018B4FF69E
:1014D000FB7319401143018370470A460021018BB9
:1014E0004FF6FF3319404FF6FF7303EA0223194307
:1014F000018370470A460021818B4FF6FB73194028
:101500001143818370470A460021818B4FF6FF33D8
:1015100019404FF6FF7303EA022319438183704792
:101520000A460021018B4FF67F7319401143018356
:1015300070470A460021018BC1F30E014FF6FF737D
:1015400003EA02231943018370470A460021818B75
:101550004FF67F7319401143818370470A4600217B
:10156000818BC1F30E014FF6FF7303EA0223194387
:10157000818370470A460021018C4FF6FD731940A4
:101580001143018470470A460021018C4FF6F7731E
:1015900019401143018470470A460021018C4FF61F
:1015A000DF7319404FF6FF7303EA021319430184F6
:1015B00070470A460021018C4FF67F7319404FF6A1
:1015C000FF7303EA02131943018470470A4600219E
:1015D000018C4FF6FF5319404FF6FF7303EA0223C5
:1015E0001943018470470A460021018C4FF2FF73B2
:1015F00019404FF6FF7303EA022319430184704731
:101600000A460021018C4DF6FF7319404FF6FF7317
:1016100003EA023319430184704730B500230124E3
:101620008C40A3B2048C9C430484048C02FA01F520
:10163000ADB22C43048430BD30B5002304248C406B
:10164000A3B2048C9C430484048C02FA01F5ADB26D
:101650002C43048430BD70B5034600200024184696
:10166000183001258D40ACB21D8CA5431D8409B1F5
:10167000082909D100EB6100056825F070050560B7
:101680000568154305600EE00D1FC5F34E0528449F
:10169000056825F4E045056005684FF6FF7606EA23
:1016A00002263543056070BD21B1028842F0020276
:1016B000028004E002884FF6FD731A4002807047F2
:1016C00021B1028842F00402028004E002884FF651
:1016D000FB731A400280704721B1828842F0800279
:1016E000828004E082884FF67F731A4082807047C0
:1016F00002884FF6F7731A40028002880A4302807C
:10170000704782884FF68F731A40828082880A431E
:101710008280704702894FF6F8731A40028102896D
:101720000A430281704702894FF67F731A40028193
:1017300002890A430281704781847047818570471E
:10174000818670470187704781877047A0F84010F5
:10175000704702884FF6FF431A40028002880A430E
:10176000028070470146888E70470146088F704797
:101770000146888F70470146B1F840007047014626
:10178000888C70470146088D704702460020138AF6
:101790000B400BB1012000E000207047CA430282D9
:1017A000704730B50246002000230024158A05EA60
:1017B0000103958905EA010413B10CB1012000E091
:1017C000002030BDCA4302827047000010B50446B5
:1017D000FB48844209D10121880300F083FB0021EA
:1017E0004FF4804000F07EFB32E0F648844209D19D
:1017F0000121480400F083FB00214FF4003000F089
:101800007EFB25E0F048844209D10121880400F0E4
:1018100076FB00214FF4802000F071FB18E0EB48CC
:10182000844209D10121C80400F069FB00214FF472
:10183000002000F064FB0BE0E548844208D1012160
:10184000080500F05CFB00214FF4801000F057FB0E
:1018500010BD2DE9F04786B005460E460024A2468D
:1018600000BFA1460027B08900B100BF2F462C8AD7
:101870004CF6FF700440F08804432C82AC894EF68D
:10188000F3100440B0883189084371890843044348
:10189000AC81AC8A4FF6FF400440B0890443AC826F
:1018A00001A800F098FAC648874202D1DDF810A0DE
:1018B00001E0DDF80CA0A88900F4004040B10AEB7B
:1018C000CA0000EB0A1031684900B0FBF1F807E0EC
:1018D0000AEBCA0000EB0A1031688900B0FBF1F88E
:1018E0006420B8FBF0F004012009642101FB108999
:1018F000A88900F4004040B1322000EBC900B0FBE1
:10190000F1F000F00700044308E0322000EB09107A
:101910006421B0FBF1F000F00F0004432C8106B00D
:10192000BDE8F0874FF41651016000218180C1802D
:1019300001810C21418100218181704710B502464F
:101940000020108A4FF2FF0318400B884C88234375
:101950008C882343CC8823431843108210BD002178
:10196000018041808180C180704721B1828942F429
:101970000052828104E082894DF6FF731A40828111
:101980007047F0B50346002400260025002040F6ED
:101990006A17B94200D100BF1846C1F3421401F0E2
:1019A0001F06012707FA06F5012C01D10C3004E0CF
:1019B000022C01D1103000E014301AB107682F4317
:1019C000076002E00768AF430760F0BD1AB1838A81
:1019D0000B43838202E0838A8B4383827047028AAF
:1019E0004FF6F0731A400282028A0A43028270475D
:1019F00082894FF2FF731A40828182890A43828171
:101A0000704721B1828942F00202828104E082891A
:101A10004FF6FD731A4082817047028A4FF6DF73DA
:101A20001A400282028A0A430282704721B1028A66
:101A300042F48042028204E0028A4BF6FF731A40AD
:101A400002827047C1F3080282807047014688888D
:101A5000C0F308007047818941F00101818170471E
:101A6000028BD2B20283028B42EA012202837047C8
:101A7000028B02F47F420283028B0A430283704787
:101A800021B1828A42F02002828204E0828A4FF6EB
:101A9000DF731A408282704721B1828A42F01002BD
:101AA000828204E0828A4FF6EF731A408282704786
:101AB00021B1828A42F00802828204E0828A4FF6D3
:101AC000F7731A408282704721B1828942F4004242
:101AD000828103E08289C2F30E028281704721B1C4
:101AE000828A42F40062828204E0828A4FF2FF73AB
:101AF0001A4082827047828A4FF6FB731A408282B4
:101B0000828A0A438282704721B1828A42F00202AD
:101B1000828204E0828A4FF6FD731A408282704707
:101B200002460020B1F5007F00D100BF13880B40B2
:101B30000BB1012000E00020704701F40072B2F503
:101B4000007F00D100BFCA430280704770B50246D3
:101B5000002400230025002040F66A16B14200D17F
:101B600000BFC1F3421501F01F03012606FA03F37B
:101B7000012D02D19689334006E0022D02D1168A4A
:101B8000334001E0968A33400C12012606FA04F431
:101B90001688344013B10CB1012000E0002070BD64
:101BA00010B50022002340F66A14A14200D100BF04
:101BB0000A1201249440A3B2DC43048010BD00004B
:101BC000003801400044004000480040004C004004
:101BD00000500040DF48006840F00100DD49086027
:101BE00008464068DC490840DA4948600846006811
:101BF000DA490840D74908600846006820F4802088
:101C000008600846406820F4FE0048604FF41F005A
:101C100088607047CF49096821F48031CD4A11604E
:101C20001146096821F480211160B0F5803F03D08E
:101C3000B0F5802F0ED106E0C649096841F4803125
:101C4000C44A116007E0C349096841F4A021C14AB0
:101C5000116000E000BF00BF704710B501460022D0
:101C6000002300204A11012A02D1BA4C236806E061
:101C7000022A02D1B74C236A01E0B64C636A01F034
:101C80001F02012494401C400CB1012000E0002000
:101C900010BD38B5002000900024002500BF312081
:101CA000FFF7DBFF05460098401C00900098B0F558
:101CB000A06F01D0002DF2D03120FFF7CEFF08B188
:101CC000012400E00024204638BD01460020A14A3E
:101CD000106820F0F80040EAC10010607047A04989
:101CE00008607047024600209A4B586820F47C1028
:101CF00042EA01031843974B5860704798490866B9
:101D0000704701460020934A506820F003000843C2
:101D1000506070478F48406800F00C0070470146E3
:101D200000208C4A506820F0F00008435060704753
:101D300001460020874A506820F4E0600843506064
:101D4000704701460020834A506820F4605040EA02
:101D5000C1005060704729B17E4A527A02437D4BE0
:101D60005A7204E07B4A527A82437A4B5A72704725
:101D70007B49D8310860704701460020754A506899
:101D800020F440400843506070470021714A2032DF
:101D90001170704A82F82010012802D004280AD15C
:101DA00004E001216B4A2032117005E00521694AE7
:101DB0002032117000E000BF00BF70476949086021
:101DC00070476449096A0143624A11627047654974
:101DD00044390860704730B50021002200240023F8
:101DE0005C4D6D6805F00C0121B1042905D008296E
:101DF00023D105E05C4D056022E05B4D05601FE0EE
:101E0000544D6D6805F47012524D6D6805F48034C0
:101E1000022505EB92421CB9544D554305600BE079
:101E20004C4D6D6805F400351DB1504D55430560AE
:101E300002E04D4D5543056002E04B4D056000BF8B
:101E400000BF444D6D6805F0F0010909484D6B5C19
:101E50000568DD4045603F4D6D6805F4E061090AA5
:101E6000434D6B5C4568DD4085603A4D6D6805F417
:101E70006051C90A3E4D6B5C4568DD40C560354D1B
:101E80006D6805F44041890B3A4D6B5CC568B5FB44
:101E9000F3F5056130BD29B12E4A526902432D4B3D
:101EA0005A6104E02B4A526982432A4B5A617047B7
:101EB00029B1284A92690243264B9A6104E0254AD7
:101EC00092698243234B9A61704729B1214AD269B2
:101ED0000243204BDA6104E01E4AD26982431D4B63
:101EE000DA61704729B11B4AD2680243194BDA60A4
:101EF00004E0184AD2688243164BDA60704729B171
:101F0000144A12690243134B1A6104E0114A126920
:101F10008243104B1A61704712494039086070477C
:101F20000F49C86470470B49C87170470948406A37
:101F300040F0807007494862704701460020054A1A
:101F400092680A400AB1012000E000207047014970
:101F500088727047001002400000FFF8FFFFF6FE95
:101F6000000042428004424200127A0000093D0013
:101F7000400000205000002010B56FF00400FEF774
:101F80004AFB2E4800682E49B0FBF1F02D4908703D
:101F90000846007800EB4001C1EBC0104FF6FF711E
:101FA00001EAC0002849088010BD0146254A127880
:101FB0004A434FF0E0235A6100229A611A4612699F
:101FC00042F001021A6100BF4FF0E022106900F0F8
:101FD00001021AB100F48032002AF5D04FF0E0225D
:101FE000126922F001024FF0E0231A6100229A6187
:101FF00070470146144A12884A434FF0E0235A6161
:1020000000229A611A46126942F001021A6100BF69
:102010004FF0E022106900F001021AB100F48032A2
:10202000002AF5D04FF0E022126922F001024FF0B1
:10203000E0231A6100229A61704700002C00002002
:1020400000127A005400002056000020014600BF14
:10205000704700BF494A128802F04002002AF9D0B6
:10206000C2B2464B1B1D1A80704710B586B004469D
:10207000012144F20400FFF71BFF4FF40070ADF89C
:10208000140003208DF8160018208DF8170005A9FC
:102090003B48FEF73FFB4FF48060ADF8140004208E
:1020A0008DF8170005A93648FEF734FB25208DF87A
:1020B000000003208DF801008DF8020001208DF84A
:1020C00003006846FEF75DFA01940020ADF80800B1
:1020D000ADF80A00ADF80C00ADF810000C20ADF81A
:1020E0000E0001A92548FFF7B4FB012240F225515B
:1020F0002248FFF746FC01212048FFF736FC06B0D6
:1021000010BD10B540F225511C48FFF71FFD10B35C
:102110001A48FFF79BFCC4B21A48008800F400403C
:10212000C8B91848008800F4804060B10A2C03D078
:1021300000201449088020E01248008840F4004044
:102140001049088019E00D2C06D10E48008840F493
:1021500080400C49088010E00A480088C0F30D0058
:1021600009490C5407480088401C06490880084665
:102170000088C72801DD0020088010BD003801401C
:10218000000801405C0000201002002008B5012179
:102190001020FFF78DFE4FF4E060ADF80000102036
:1021A0008DF8030003208DF8020069460148FEF710
:1021B000B1FA08BD0010014008B501210820FFF761
:1021C00077FE0121F948FEF776FB4FF4FC50ADF89D
:1021D000000048208DF803006946F548FEF79AFA9A
:1021E00008BD10B5F348007800285DD08021F04884
:1021F000FEF723FB012822D04FF48071EC48FEF754
:102200001CFB01281BD04FF40071E948FEF715FBB9
:10221000012814D04FF48061E548FEF70EFB012839
:102220000DD04FF40061E248FEF707FB012806D00D
:102230004FF48051DE48FEF700FB012834D10A201C
:10224000FFF7D7FE0020DB4908708021D848FEF751
:10225000F4FA08B9012010BD4FF48071D448FEF79C
:10226000ECFA08B90220F6E74FF40071D048FEF707
:10227000E4FA08B90320EEE74FF48061CC48FEF79A
:10228000DCFA08B90420E6E74FF40061C848FEF71D
:10229000D4FA08B90520DEE74FF48051C448FEF7B0
:1022A000CCFA38BB0620D6E78021C148FEF7C5FA34
:1022B00001281FD10102BE48FEF7BFFA012819D13B
:1022C0004102BB48FEF7B9FA012813D18102B84890
:1022D000FEF7B3FA01280DD1C102B548FEF7ADFAF9
:1022E000012807D10103B248FEF7A7FA012801D15E
:1022F000B04908700020AEE7AF490978012906D13E
:102300000178642925DD01786439017021E0AA494A
:10231000097802290ED10178642291FBF2F302FBC5
:1023200013110A2291FBF2F1002912DD01780A391A
:1023300001700EE0A049097803290AD101780A2228
:1023400091FBF2F302FB1311002902DD0178491E13
:102350000170704710B59948006808B9012000E085
:102360000020964908609648D0F8A40108B90120D9
:1023700000E000209149091D08609148D0F8A801AB
:1023800008B9012000E000208C49083108608D4820
:1023900000780B284CD2DFE800F04B06154B252EB9
:1023A0004B1D4B3841008849087800EBD07149102B
:1023B000A0EB4101491C844A11701046007800F0DE
:1023C000CBFD36E08148FFF797FF7B48007800F0AF
:1023D0001CFE2EE07D48FFF78FFF7748007800F065
:1023E00014FE26E07A48FFF787FF00217248007844
:1023F00000F091FE1DE07648401CFFF77DFF0121B3
:102400006D48007800F087FE13E07148FFF774FF15
:1024100000216948007800F07EFE0AE06C48401C0C
:10242000FFF76AFF01216448007800F074FE00E0C5
:1024300000BF00BF10BD60490978012906D10178AD
:10244000502943DA0178643101703FE05A49097834
:10245000022929D10178642291FBF2F1012910D1DE
:10246000017891FBF2F302FB1311462909DA017896
:1024700091FBF2F302FB13110A2291FBF2F10929FD
:102480000EDB0178642291FBF2F1F9B9017891FB3E
:10249000F2F302FB13110A2291FBF2F1092915DA7A
:1024A00001780A31017011E04349097803290DD1FF
:1024B0000178B4290ADA01780A2291FBF2F302FBCF
:1024C0001311092902DA0178491C0170704710B50F
:1024D0003A48006808B9012000E000203749086048
:1024E0003748D0F8A40108B9012000E000203349A2
:1024F000091D08603248D0F8A80108B9012000E0A1
:1025000000202E49083108602E4800780B2861D23F
:10251000DFE800F060061560252E601D6038410080
:102520002949087800EBD0714910A0EB4101C91C82
:10253000254A11701046007800F00EFD4BE023484C
:10254000FFF779FF1C48007800F05FFD43E01F486B
:10255000FFF771FF1848007800F057FD3BE01C487A
:10256000FFF769FF00211448007800F0D4FD32E045
:102570001748401CFFF75FFF01210F48007800F06B
:10258000CAFD28E01248FFF756FF00210A480078EC
:1025900000F0C1FD1FE00E48401CFFF74CFF012179
:1025A0000548007800F0B7FD15E013E000023000A8
:1025B000000C01405E00002005000020A001224226
:1025C0000000224200000020010000200200002044
:1025D0000300002000BF00BF10BD10B5D148007837
:1025E000012806D002280FD0032816D0042825D1B0
:1025F0001BE00220CC490870CC48007800F005FDB3
:102600000120CA4908701AE00420C7490870002157
:10261000C648007800F07FFD11E00720C24908702D
:10262000C248007800F0F1FC09E00920BE490870BA
:102630000021BE48007800F06EFD00E000BF00BF42
:1026400010BD10B5BA48006808B9012000E00020AC
:10265000B7490860B748D0F8A40108B9012000E0E4
:102660000020B349091D0860B248D0F8A80108B994
:10267000012000E00020AE4908310860AA48007837
:102680000B283ED2DFE800F03D06093D17233D1040
:102690003D2A3600FFF7A1FF34E00320A24908706D
:1026A000012000F009FD2DE008209F49087002205C
:1026B00000F002FD26E005209B49087001209B499F
:1026C000087001219948007800F025FD1AE00620E5
:1026D00095490870012000F07DFD13E00A20924921
:1026E000087001209149087001219048007800F09D
:1026F00012FD07E00B208C490870022000F06AFDF3
:1027000000E000BF00BF10BD10B58948006808B9DF
:10271000012000E00020864908608648D0F8A40126
:1027200008B9012000E000208149091D08608148A6
:10273000D0F8A80108B9012000E000207C49083148
:10274000086079480078801E082851D2DFE800F040
:102750000450172A5005503D00BF744800780321EB
:1027600090FBF1F201FB12007049087008460078F6
:10277000401C08700846007800F047FC39E06B48C0
:102780000078032190FBF1F201FB12006749087009
:1027900008460078401C087000216448007800F06A
:1027A000BAFC26E061480078032190FBF1F201FBBE
:1027B00012005E49087008460078401C087001212C
:1027C0005A48007800F0A7FC13E05848007803212D
:1027D00090FBF1F201FB12005449087008460078A2
:1027E000401C087000215148007800F094FC00E083
:1027F00000BF00BF10BD10B54D48006808B90120EA
:1028000000E000204A4908604A48D0F8A40108B90D
:10281000012000E000204649091D08604548D0F825
:10282000A80108B9012000E00020414908310860F2
:102830003D480078032806D006280BD0082810D081
:102840000B281CD114E00C2037490870012000F03F
:10285000F8FC15E00D2034490870012000F022FD3D
:102860000EE00E2030490870022000F0EAFC07E07C
:102870000F202D490870022000F014FD00E000BF79
:1028800000BF10BD10B52A48006808B9012000E05B
:102890000020274908602748D0F8A40108B9012082
:1028A00000E000202249091D08602248D0F8A80154
:1028B00008B9012000E000201D49083108601A48CD
:1028C0000078C01E0D2829D2DFE800F0072828096B
:1028D000280828280A0B0C0D0E0000BF00BF00BFFF
:1028E00000BF00BF00BF00BF01200F4908700D49A5
:1028F00008700E4908700B48007800F02DFB00208E
:102900000D4908700D490870487000210C48FEF709
:1029100017FF00210B48FEF713FF00E000BF00BFC8
:1029200010BD000001000020000000200500002074
:10293000A0012242000022420200002003000020E9
:1029400000040040000800407FB505460C46012108
:102950000846FFF7BAFAADF80850ADF80440002079
:10296000ADF80A00ADF8060001A94FF08040FEF76F
:10297000F3F801218807FEF74BFC1C208DF80000BE
:1029800000208DF8010003208DF8020001208DF851
:1029900003006846FDF7F5FD012211469007FEF79A
:1029A00052FC7FBD10B501218807FEF7FAFEE8B1A1
:1029B000FFF717FC072817D2DFE800F01604070A14
:1029C0000D101300FFF7C6FC0FE0FFF780FD0CE0D1
:1029D000FFF737FE09E0FFF797FE06E0FFF70BFF72
:1029E00003E0FFF74FFF00E000BF00BF01218807B1
:1029F000FEF7E8FE10BD000070B50446002500BFDC
:102A000017E08021F648FDF734FF04F0800020B184
:102A10004021F348FDF72BFF03E04021F048FDF78C
:102A200028FF8021EE48FDF722FF6006040E681C97
:102A3000C5B2082DE5DB70BD10B504462021E8487D
:102A4000FDF717FF2046FFF7D7FF10BD10B504466E
:102A50002021E348FDF70BFF2046FFF7CDFF10BD17
:102A600070B505460C460821DD48FDF702FF681EDB
:102A7000C5B2601EC4B205F1B001C8B2FFF7DCFFF9
:102A8000102101EB1410FFF7D7FF04F00F00FFF740
:102A9000D3FF70BD2DE9F041064688461746082150
:102AA000CF48FDF7E6FE002418E03119C8B24146D0
:102AB000FFF7D6FF00250DE0A7F13001C94A182322
:102AC00003FB01210C2202FB0411485DFFF7BEFF4E
:102AD000681CC5B20C2DEFDB601CC4B2022CE4DB19
:102AE0000821BF48FDF7C3FEBDE8F0812DE9F041A4
:102AF0000646884617460821B948FDF7BAFE002465
:102B00001AE03119C8B24146FFF7AAFF00250FE0CD
:102B1000A7F13001B34A182303FB01210C2202FB69
:102B20000411495DC943C8B2FFF790FF681CC5B2E4
:102B30000C2DEDDB601CC4B2022CE2DB0821A8489E
:102B4000FDF795FEBDE8F0812DE9F04107460E4600
:102B50001546002409E02A5D0D2000FB0460C1B287
:102B60003846FFF797FF601CC4B2285D0028F2D1F9
:102B7000BDE8F0812DE9F04107460E4615460024D8
:102B800009E02A5D0D2000FB0460C1B23846FFF762
:102B9000ADFF601CC4B2285D0028F2D1BDE8F08111
:102BA00070B5054608218E48FDF763FE00240AE053
:102BB000A5F120018C4A052303FB0121085DFFF7E5
:102BC00045FF601CC4B2052CF2DB08218448FDF7E8
:102BD0004EFE70BD70B5054608218148FDF749FEDF
:102BE00000240CE0A5F120017F4A052303FB01210D
:102BF000095DC943C8B2FFF729FF601CC4B2052CA8
:102C0000F0DB08217648FDF732FE70BD70B5044652
:102C1000002504E0605DFFF7C3FF681CC5B2605D7E
:102C20000028F7D170BD70B50446002504E0605D52
:102C3000FFF7D0FF681CC5B2605D0028F7D170BDFA
:102C40003EB505460024002000900190029000BF90
:102C50000CE00A2095FBF0F100FB1150C0B20DF81A
:102C600004000A2095FBF0F5601CC4B2002DF0DCD6
:102C70001CB93020FFF794FF3EBD601EC4B200BFF8
:102C80001DF804103031C8B2FFF78AFF002C02DDB6
:102C9000601EC4B2F4E700BFEEE770B508215048EB
:102CA000FDF7E7FD002415E004F1B001C8B2FFF71D
:102CB000C3FE1020FFF7C0FE0020FFF7BDFE002579
:102CC00004E00020FFF7C2FE681CC5B2842DF8DBCB
:102CD000601CC4B2092CE7DB08214148FDF7C7FDA1
:102CE00070BD08B501211020FFF7E2F8F820ADF81B
:102CF000000010208DF8030003208DF802006946C3
:102D00003748FDF707FD08BD10B5FFF7EAFF0821BA
:102D10003348FDF7AEFD10213148FDF7AAFD142020
:102D2000FFF743F910212E48FDF7A1FD1420FFF70E
:102D30003CF9E220FFF780FE0520FFF736F92C2052
:102D4000FFF77AFE0520FFF730F92E20FFF774FE1B
:102D50000520FFF72AF92F20FFF76EFE0520FFF769
:102D600024F92320FFF768FE8120FFF765FE2F205E
:102D7000FFF762FEA220FFF75FFEC820FFF75CFEB0
:102D8000A020FFF759FE4020FFF756FEAF20FFF7C7
:102D900053FEFFF782FF08211148FDF768FD10BDC3
:102DA00070B5044608210E48FDF763FD04F1AF013C
:102DB000C8B2FFF741FE1020FFF73EFE0020FFF7EC
:102DC0003BFE002504E00020FFF740FE681CC5B272
:102DD000842DF8DB08210248FDF749FD70BD000095
:102DE000001001400EA100088EA2000830B589B085
:102DF00005460C4601210420FFF75AF80121022064
:102E0000FFF763F84020ADF8200018208DF823006C
:102E100003208DF8220008A94048FDF77BFCADF89F
:102E20001850ADF814400020ADF81A00ADF81600A7
:102E300005A93B48FDF790FE01213948FEF7E8F966
:102E40007020ADF804000120ADF806000220ADF8B6
:102E50000C000020ADF80A0001A93148FDF7B9FEC9
:102E600008212F48FEF704FB01212D48FEF7D0FA78
:102E700001212B48FEF7D8F900212948FEF760FC14
:102E800009B030BD30B589B005460C460121082097
:102E9000FFF70EF801210420FFF717F84020ADF8E6
:102EA000200018208DF8230003208DF8220008A9A7
:102EB0001C48FDF72FFCADF81850ADF81440002069
:102EC000ADF81A00ADF8160005A91748FDF744FE45
:102ED00001211548FEF79CF97020ADF8040001208F
:102EE000ADF806000220ADF80C000020ADF80A0095
:102EF00001A90D48FDF76DFE08210B48FEF7B8FA51
:102F000001210948FEF784FA01210748FEF78CF9F0
:102F100000210548FEF714FC09B030BD000801404F
:102F200000040040000C01400008004008B50121E9
:102F30001020FEF7BDFF0220ADF8000010208DF834
:102F4000030003208DF8020069460248FDF7E2FB0A
:102F500008BD00000010014010B50446FFF79DFEBB
:102F6000FEA219210120FFF7EFFDFEA2142104208B
:102F7000FFF7EAFD3120FFF713FEFAA250210420EB
:102F8000FFF7E2FD3220FFF70BFEF7A21421072026
:102F9000FFF7DAFD3120FFF703FEF3A250210720EF
:102FA000FFF7D2FD3220FFF7FBFD012C06D0022CEB
:102FB0000DD0032C14D0042C24D11AE0E9A2142142
:102FC0000420FFF7D7FD3120FFF704FE1BE0E5A248
:102FD00050210420FFF7CEFD3220FFF7FBFD12E069
:102FE000E1A214210720FFF7C5FD3120FFF7F2FD14
:102FF00009E0DDA250210720FFF7BCFD3220FFF7DA
:10300000E9FD00E000BF00BF10BD70B50446FFF74A
:1030100044FED6A223210120FFF796FD3221052090
:10302000FFF71EFDD3480078642190FBF1F5284698
:10303000FFF706FECF480078642190FBF1F201FB18
:1030400012000A2190FBF1F52846FFF7F9FDC94867
:1030500000780A2190FBF1F201FB12052846FFF7E8
:10306000EFFD012C04D0022C0DD0032C21D115E052
:103070000420FFF795FE32210420FFF7F1FC212008
:10308000FFF78EFD16E00420FFF78AFE37210420AB
:10309000FFF7E6FC2120FFF783FD0BE00420FFF79C
:1030A0007FFE3C210420FFF7DBFC2120FFF778FDA9
:1030B00000E000BF00BF70BD10B50446FFF7EDFD96
:1030C000012C05D1A7A223210220FFF73DFD06E038
:1030D000022C04D1A4A223210220FFF735FD3E21BA
:1030E0000220FFF7BDFC0120FFF7AAFDA2A24621A6
:1030F0000220FFF729FD23210520FFF7B1FC9FA047
:10310000FFF784FD32210720FFF7AAFC99480078D9
:10311000FFF796FD10BD70B505460C46FFF7BDFDE7
:1031200092A223210120FFF70FFD64210120FFF768
:1031300097FC601CFFF784FD32210520FFF790FC0F
:103140009148005D642190FBF1F63046FFF778FD71
:103150008D48005D642190FBF1F201FB12000A2111
:1031600090FBF1F63046FFF76BFD8748005D0A21C2
:1031700090FBF1F201FB12063046FFF761FD012DD5
:1031800004D0022D0DD0032D21D115E00420FFF72E
:1031900007FE32210420FFF763FC2120FFF700FD2A
:1031A00016E00420FFF7FCFD37210420FFF758FC50
:1031B0002120FFF7F5FC0BE00420FFF7F1FD3C2197
:1031C0000420FFF74DFC2120FFF7EAFC00E000BFE0
:1031D00000BF70BD10B50446FFF75FFD012C05D19F
:1031E00060A223210220FFF7AFFC06E0022C04D1ED
:1031F0005DA223210220FFF7A7FC3E210220FFF75A
:103200002FFC0220FFF71CFD5BA246210220FFF7E6
:103210009BFC0F210520FFF723FC5CA0FFF7F6FCC9
:1032200023210720FFF71CFC57490878FFF708FD0A
:103230005A210720FFF714FC53494878FFF700FD97
:1032400010BD10B50446FFF728FD012C05D145A29D
:1032500023210220FFF778FC06E0022C04D142A2D1
:1032600023210220FFF770FC3E210220FFF7F8FB2C
:103270000120FFF7E5FC46210220FFF7F1FB48A003
:10328000FFF7C4FC23210520FFF7EAFB3BA0FFF773
:10329000BDFC32210720FFF7E3FB36480078FFF73B
:1032A000CFFC10BD10B50446FFF7F7FC012C05D18B
:1032B0002CA223210120FFF747FC06E0022C04D1B9
:1032C00029A223210120FFF73FFC46210120FFF71F
:1032D000C7FB33A0FFF79AFC3E210120FFF7C0FB9C
:1032E0000220FFF7ADFC0F210520FFF7B9FB27A057
:1032F000FFF78CFC23210720FFF7B2FB2249087857
:10330000FFF79EFC5A210720FFF7AAFB1E494878C9
:10331000FFF796FC10BD70B50320FFF741FD322189
:103320000320FFF79DFB20480168204806F002FEBD
:10333000054606F065FC0446FFF782FC0420FFF713
:103340002FFD19210420FFF78BFB194903C905F054
:10335000F3FE0446FFF774FC41212BE03031323399
:103360003435000036370000383900003A3B3C3D28
:1033700000000000020000203E3F00005441524780
:103380004554204441544100030000202020444182
:10339000544131202020202044415441320000007B
:1033A00052554E4E494E4700080000200000B442DE
:1033B000700000200420FFF753FB044903C905F007
:1033C000BBFE0446FFF73CFC70BD00007800002007
:1033D0008A4A10608A4A116070472DE9F0418046A0
:1033E0000C461546404605F004FF06460022854B74
:1033F00005F04AFD844AC2E90201204605F0F9FEC3
:1034000006460022814B05F03FFD7F4AC2E90401D8
:10341000284605F0EEFE064600227D4B05F034FD01
:10342000794AC2E90601BDE8F08110B5002076496D
:1034300008600021744A116251629162D162916008
:10344000D160116151619161D16141F64C521721F6
:1034500040F2DE30FFF7C1FF10BD2DE9F04F8DB017
:103460008046894692469B4652465B4640464946C0
:1034700006F04CF904460D466349086805F0B9FEAC
:1034800022462B46CDE9080105F042FCCDE90A01B0
:1034900005F052FE5C4908600846006849F6404164
:1034A000884203DD08465849086007E0564800682E
:1034B0005849884202DA0846534908605248416A2E
:1034C000006A22462B46CDE9040106F02DF8CDE92D
:1034D00006014D48C1698069CDE90401DDE9062393
:1034E00005F0EEFECDE90A014749086805F081FEC6
:1034F000CDE902014449D1E90401CDE90001DDE94A
:10350000022305F0DDFECDE906013F48C168806871
:1035100022462B46CDE9020105F0D2FECDE9040199
:10352000DDE9062305F0F4FBCDE90801DDE90A2316
:1035300005F0EEFB06460F463348C0E90845304625
:1035400039460DB0BDE8F08F2DE9F04732480168EB
:10355000324806F0EFFC064606F0C2F90446224661
:103560000B462F4903C9FFF778FF2E4A03C20022FA
:1035700013462C4903C905F067FE1DD82949D1E936
:10358000006121F000472848006805F032FE8046BF
:1035900032463B4605F0BCFB044605F0FDFD1FFA34
:1035A00080FA51462148FEF7CBF82148008881B2C5
:1035B0002048FEF7C5F81EE000221346194903C94A
:1035C00005F07CFF17D21A48006805F012FE054688
:1035D00014480CC8284605F09BFB074605F0DCFDA7
:1035E00084B221461348FEF7ABF80F48008881B239
:1035F0000E48FEF7A5F8BDE8F0870000680000203F
:103600006C00002000005940D80200200088C34010
:1036100000002440C063FFFF080000200000B44207
:103620001800002070000020640000200008004006
:10363000600000200004004070B505460C4600F014
:10364000CDF9D02000F074FA00F005FA18B100F0BE
:10365000E3F9012070BD284600F06AFA00F0FBF99A
:10366000204600F065FA00F0F6F918B100F0D4F940
:103670000120EFE700F0D0F90020EBE770B5044639
:103680000025BC2C01DB012510E0622C01DB0225AA
:103690000CE02A2C01DB032508E0142C01DB0425B7
:1036A00004E00A2C01DB052500E0062529461A2046
:1036B000FFF7C2FF70BD70B50446B4F57A7F01DD37
:1036C0004FF47A74042C00DA04244FF47A7090FBDF
:1036D000F4F0401EC5B229461920FFF7ADFF05469C
:1036E000264604EBD671C1F34F00FFF7C7FF70BD4C
:1036F00070B5044600F072F9D02000F019FA00F01D
:10370000AAF9204600F014FA00F0A5F900F066F9D5
:10371000D12000F00DFA00F09EF9002000F031FAFF
:10372000054600F079F9284670BD10B50446E0065C
:10373000010E1C20FFF780FF10BD10B50446E00607
:10374000010E1B20FFF778FF10BD10B500F02DF91A
:1037500080216B20FFF770FF6420FEF74AFC0021F8
:103760006B20FFF769FF0320FFF7E7FF0020FFF75B
:10377000DCFF3220FFF79FFF00213820FFF75CFFBE
:1037800000216A20FFF758FF00212320FFF754FF94
:1037900080213720FFF750FF7520FFF7A9FF04466F
:1037A000682C0BD101216B20FFF746FF00216C2014
:1037B000FFF742FF3220FFF77EFF01E0012010BD3E
:1037C0000020FCE72DE9F04106460F4614461D4651
:1037D00000F004F9002141EA4601C8B200F0A8F95E
:1037E00000F039F920B100F017F90120BDE8F081AF
:1037F000384600F09DF900F02EF900F0EFF80121B5
:1038000001EB4601C8B200F093F900F024F90DE095
:10381000012C04D1002000F0B4F9287003E001204D
:1038200000F0AFF92870601EC4B26D1C002CEFD1FF
:1038300000F0F2F80020D9E72DE9F84F6B4602229C
:1038400041216820FFF7BEFF9DF801009DF80010A0
:1038500040EA01200FFA80FA504605F0CAFC804683
:1038600000224B4B05F010FB06464A4A4A4B05F036
:103870004FFA044605F01AFA83464849584606F0BE
:103880005BFA044606F0BCF900B2BDE8F88F2DE9FA
:10389000FC4104460D4616466B460622432168202D
:1038A000FFF790FF0746BFB99DF801009DF8001093
:1038B00040EA012000B220809DF803009DF802102C
:1038C00040EA012000B228809DF805009DF8041010
:1038D00040EA012000B230803846BDE8FC812DE985
:1038E000FC4104460D4616466B4606223B216820E5
:1038F000FFF768FF0746BFB99DF801009DF800106B
:1039000040EA012000B220809DF803009DF80210DB
:1039100040EA012000B228809DF805009DF80410BF
:1039200040EA012000B230803846BDE8FC812DE934
:10393000F04105460E461746984600F04FF8002124
:1039400041EA4501C8B200F0F3F800F084F820B174
:1039500000F062F80120BDE8F081304600F0E8F8A0
:1039600000F079F800240CE018F8040000F0E0F80A
:1039700000F071F818B100F04FF80120EBE7601C7F
:10398000C4B2BC42F0DB00F047F80020E3E70000DF
:1039900000407540A4703D0AD74342400000C84231
:1039A00010B50220FEF701FB10BD08B50121102063
:1039B000FEF77EFA4FF4C050ADF8000010208DF8ED
:1039C000030003208DF8020069468648FCF7A2FE3A
:1039D0004FF4C0518348FCF74AFF08BD10B5814839
:1039E000406820F470407F4948600846406840F4D1
:1039F0004050486001207C4908607C49C1F8B00112
:103A0000FFF7CEFF002078490860FFF7C9FF0020CC
:103A10007649C1F8B00110BD10B57248406820F475
:103A20007040704948600846406840F44050486023
:103A300000206D49091D08606C49C1F8AC01FFF711
:103A4000AFFF01206849091D08606849C1F8AC0151
:103A5000FFF7A6FF10BD10B500246248406820F4AF
:103A60007040604948600846406840F40040486043
:103A700001205D490860FFF793FF01205B49C1F811
:103A8000B001FFF78DFF07E0601CC4B2FA2C03DD24
:103A9000FFF7C2FF012010BD53488038006800289E
:103AA000F2D15149091D086000BFF4E710B50020AC
:103AB0004D49091D08604B48406820F47040494951
:103AC00048600846406840F440504860002047493C
:103AD000C1F8AC01FFF764FF01204349091D0860EC
:103AE000FFF75EFF00204149C1F8B00110BD10B5DD
:103AF00000203D49091D08603A48406820F47040A4
:103B0000384948600846406840F440504860012009
:103B10003649C1F8AC01FFF743FF01203249091DC6
:103B20000860FFF73DFF00203049C1F8B00110BD2B
:103B300070B504462B48406820F47040294948601D
:103B40000846406840F44050486000202649091D5E
:103B50000860002512E0E009234908606006040EB1
:103B600001202249C1F8B001FFF71AFF00201E49C9
:103B7000091D0860FFF714FF681CC5B2082DEADBB9
:103B800070BD70B5054600241648406820F47040AA
:103B9000144948600846406840F4004048600026E8
:103BA00015E000201049091D0860FFF7F9FE01200B
:103BB0000E49C1F8B0016006040E0B488038006859
:103BC00008B1601CC4B2FFF7EBFE701CC6B2082E31
:103BD000E7DB15B9FFF78BFF01E0FFF767FF204632
:103BE00070BD000000100140AC01224200002242E2
:103BF00038B50446F74890F82400C0B114B102204B
:103C0000009001E000200090F24A1268D17BF14A56
:103C1000526810786B460122FFF789FE10B14FF011
:103C2000FF3038BD9DF80010EA48417423E0E948B0
:103C3000807A10B94FF0FF30F3E724B1E548407CBB
:103C400008B10020EDE714B10120009001E0002050
:103C50000090E04A1268D17BDE4A526810786B46C9
:103C60000122FFF764FE10B14FF0FF30D9E79DF855
:103C70000010D84841740020D3E738B500241FE075
:103C8000D4480068C07AA04204D0D2480068407D81
:103C9000A04200D112E0CF49496808786B46012262
:103CA0002146FFF78FFD10B14FF0FF3038BD9DF872
:103CB00000202146C8A004F0E9F800BF601CC4B28F
:103CC000C44840680079A042DADC0020EEE770B515
:103CD00004460D46BF480068C07AA04204D0BD48E3
:103CE0000068407DA04202D14FF0FF3070BDB9485E
:103CF00040680079A04202DC4FF0FF30F6E7B5499A
:103D0000496808782B4601222146FFF75BFDEDE765
:103D100038B50446AF4890F82300A04201D10020F6
:103D200038BD14B13020009001E000200090A94877
:103D3000807C20B19DF8000040F002000090A54872
:103D400090F8220020B19DF8000040F08000009023
:103D5000A04A1268117D9F4A526810786B46012272
:103D6000FFF7E5FD10B14FF0FF30D9E7994880F833
:103D700023400020D4E738B5044604F0700010B1A9
:103D80000120009005E014B10020009001E04020E7
:103D90000090904A1268917C8E4A526810786B4667
:103DA0000122FFF7C4FD20B100218A488172481E1C
:103DB00038BD9DF8000020F04001864801730020C6
:103DC000009004F0400020B99DF8000040F004008D
:103DD000009004F0200020B99DF8000040F002009F
:103DE000009004F0100020B99DF8000040F00100A0
:103DF000009004F0080020B99DF8000040F0380061
:103E00000090744A1268D17C724A526810786B46EE
:103E10000122FFF78CFD20B100216E488172481EFF
:103E2000C6E724B1082C02D00020FFF771FF6948D3
:103E30008472002101753220FEF7DBF80020B7E71D
:103E400038B504466348807CA04201D1002038BDCB
:103E5000002C46D05F4A126811795E4A5268107889
:103E60006B460122FFF7AEFC10B14FF0FF30EEE7DA
:103E70009DF8000020F020000090564A1268117949
:103E8000544A526810786B460122FFF750FD10B17A
:103E90004FF0FF30DBE70320FEF7ABF80220009085
:103EA0004C4890F8220020B19DF8000040F08000BE
:103EB0000090484890F8230020B19DF8000040F0A1
:103EC00030000090434A1268117D424A52681078CF
:103ED0006B460122FFF72BFD002851D04FF0FF3039
:103EE000B5E73C4A126811793A4A526810786B4635
:103EF0000122FFF767FC10B14FF0FF30A7E735480C
:103F0000807A00F0010028B19DF8000040F0200008
:103F1000009004E09DF8000020F0200000902D4A61
:103F2000126811792B4A526810786B460122FFF70C
:103F3000FEFC10B14FF0FF3089E70320FEF759F87F
:103F4000244890F8220010B18020009001E0002069
:103F50000090204890F8230020B19DF8000040F028
:103F6000300000901B4A1268117D1A4A526810787E
:103F70006B460122FFF7DBFC10B14FF0FF3066E724
:103F800014488474002062E708B51248807A10B99A
:103F90004FF0FF3008BD002000900E4A1268D17B20
:103FA0000C4A526810786B460122FFF7C0FC10B132
:103FB0004FF0FF30EEE7074A12685179054A526820
:103FC00010786B460122FFF7B2FC68B14FF0FF306A
:103FD000E0E7000080000020252335783A202523E3
:103FE00035780D0A00000000F84A12681179F74A86
:103FF000526810786B460122FFF799FC10B14FF020
:10400000FF30C7E7F14890F82400002853D00C2077
:104010000090EE4A12681179EC4A526810786B46AB
:104020000122FFF784FC10B14FF0FF30B2E73220DD
:10403000FDF7DFFFC0200090E448807A00F0010027
:1040400020B19DF8000040F020000090DF4A126887
:104050001179DE4A526810786B460122FFF767FC3F
:1040600010B14FF0FF3095E7D848407C10B10220E6
:10407000009001E000200090D44A1268D17BD34A1E
:10408000526810786B460122FFF751FC10B14FF0D7
:10409000FF307FE700200090CC4A12685179CB4A6C
:1040A000526810786B460122FFF741FC002855D07A
:1040B0004FF0FF306EE704200090C44A1268117977
:1040C000C24A526810786B460122FFF730FC10B1EB
:1040D0004FF0FF305EE7BD48807C20B9BB48807A56
:1040E00000F0010010B94020009001E06020009035
:1040F000B64A12681179B54A526810786B460122A7
:10410000FFF715FC10B14FF0FF3043E73220FDF709
:1041100070FFAE48407C10B10120009001E000200B
:104120000090AA4A1268D17BA84A526810786B4660
:104130000122FFF7FCFB10B14FF0FF302AE7A34A42
:1041400012685179A14A52681078A04B10330122AD
:10415000FFF7EDFB10B14FF0FF301BE7002019E730
:1041600070B50446002624F00104984890F8240015
:1041700008B1002070BD9548807A10B94FF0FF302B
:10418000F8E79248057C807A2040904908740846F8
:10419000007CA04202D04FF0FF3600E0002614B9A8
:1041A0008A48007D18B10120FFF722FD02E00020BF
:1041B000FFF71EFD3CB1FFF7E7FE20B18348057411
:1041C0004FF0FF30D6E73046D4E738B504467F4895
:1041D000807A10B94FF0FF3038BDBC2C02DB0120D3
:1041E000009015E0622C02DB0220009010E02A2CE7
:1041F00002DB032000900BE0142C02DB0420009073
:1042000006E00A2C02DB0520009001E00620009069
:104210006E48C07A9DF80010884201D10020DBE78B
:104220006A4A12689178694A526810786B4601228E
:10423000FFF77DFB10B14FF0FF30CDE79DF8001088
:104240006248C1720020C7E738B50446282C02DD59
:104250004FF0FF3038BDDCB90020FFF759FD0020DA
:104260008DF8000007208DF80100584A1268917CF3
:10427000564A526810786B460222FFF758FB10B17D
:104280004FF0FF30E6E70021504801750020E1E7DC
:104290000120FFF73DFD20208DF80000012C06D104
:1042A00000208DF801000520FFF78FFF17E0052C97
:1042B00006DC01208DF801000520FFF786FF0EE0E7
:1042C000142C06DC02208DF801000A20FFF77DFF88
:1042D00005E003208DF801001420FFF776FF9DF81C
:1042E0000100072101EB8010C0B28DF80100374AB0
:1042F0001268917C354A526810786B460222FFF7AB
:1043000016FB10B14FF0FF30A4E708212F4881724F
:1043100000210173012101750020FFF721FF00201A
:1043200098E738B504462948807A10B94FF0FF3035
:1043300038BD264890F8240010B14FF0FF30F7E761
:104340002248007D50B134B1282C04DCE0B2FFF7E4
:104350007BFF0020ECE70020FFF776FF042C01DA5A
:10436000042404E0B4F57A7F01DD4FF47A744FF44D
:104370007A7090FBF4F0401EC0B20090134A1268AD
:104380005178124A526810786B460122FFF7CFFA33
:1043900010B14FF0FF30CBE79DF80000401C4FF408
:1043A0007A7191FBF0F081B20848C1810146C98958
:1043B0004810FFF70AFF0020BAE738B50446034863
:1043C000807A28B94FF0FF3038BD0000800000200F
:1043D000022C06D0042C07D0082C08D0102C0CD1AD
:1043E00008E0002000900BE00820009008E010207A
:1043F000009005E01820009002E04FF0FF30E3E766
:1044000000BFF948407A9DF80010B0EBE10F01D1F0
:104410000020D9E7F44A1268D179F34A526810783B
:104420006B460122FFF783FA10B14FF0FF30CBE764
:104430009DF80000C110EC4841720020C4E738B577
:104440000446E948807A10B94FF0FF3038BDFA2CA5
:1044500009D0B4F5FA7F09D0B4F57A7F09D0B4F564
:10446000FA6F0CD108E0002000900BE008200090CB
:1044700008E01020009005E01820009002E04FF0C6
:10448000FF30E3E700BFD848007A9DF80010B0EB9A
:10449000E10F01D10020D9E7D34A12689179D24ABD
:1044A000526810786B460122FFF741FA10B14FF0C5
:1044B000FF30CBE79DF80000C010CB490872002008
:1044C000C4E71CB580208DF80000C74A1268917CB3
:1044D000C54A526810786B460122FFF728FA10B1DE
:1044E0004FF0FF301CBD6420FDF783FD00208DF8E8
:1044F0000000BD4A1268917CBB4A526810786B4636
:104500000122FFF714FA10B14FF0FF30EAE7B64A84
:104510001268917DB44A526810786B460622FFF704
:1045200051F910B14FF0FF30DCE79DF80500C007EE
:10453000400F9DF8031001F0010140EA41009DF891
:10454000011001F0010140EA010494B1012C03D1F2
:104550000121A548C17431E0022C03D10021A248F9
:10456000C1742BE02146A1A003F090FC4FF0FF3076
:10457000B8E79D4A1268D1789B4A526810786B461A
:104580000122FFF71FF910B14FF0FF30AAE79DF8A5
:10459000000000F00F042CB99E4803F077FC4FF0A8
:1045A000FF309FE7042C06D19BA003F06FFC012194
:1045B0008D48C17402E000218B48C174FF218A48F4
:1045C0008172FF2088490872FF2187484172C172B9
:1045D0004FF6FF71C181FF210174817401210173C4
:1045E00080F82210002180F82310417501751630E3
:1045F000016041608160163880F8241080F8251031
:10460000C1844FF4FA60FFF71AFF10B14FF0FF308A
:1046100068E70220FFF7D1FE10B14FF0FF3061E7ED
:104620002A20FFF7D2FD10B14FF0FF305AE73220B9
:10463000FFF777FE10B14FF0FF3053E70020FFF790
:104640008FFD10B14FF0FF304CE70020FFF7F8FB73
:1046500010B14FF0FF3045E70020FFF78CFB002042
:1046600040E770477CB504460D465F48807A00F00D
:10467000700010B94FF0FF307CBD5B4A1268117BAF
:10468000594A526810786B460622FFF79BF810B122
:104690004FF0FF30F0E79DF801009DF8001040EA70
:1046A000012000B220809DF803009DF8021040EA2E
:1046B000012000B260809DF805009DF8041040EADA
:1046C000012000B2A08015B12846FFF7CAFF0020E4
:1046D000D2E77CB504460D464348807A00F00800D6
:1046E00010B94FF0FF307CBD3F4A1268517B3E4A03
:1046F000526810786B460622FFF764F810B14FF04D
:10470000FF30F0E79DF801009DF8001040EA01201D
:1047100000B220809DF803009DF8021040EA0120BD
:1047200000B260809DF805009DF8041040EA012069
:1047300000B2A08015B12846FFF793FF0020D2E712
:104740002DE9FE4F05460C462748807A18B94FF0F0
:10475000FF30BDE8FE8F244A1268917B224A5268DE
:10476000107802AB0222FFF72DF810B14FF0FF30A6
:10477000EFE79DF809009DF8081040EA012006B215
:1047800014B12046FFF76DFF17494968C88805F046
:104790008BFA154901904968B1F9080005F06CFAE7
:1047A0008346304605F068FA5946009005F0C2FB92
:1047B0008246019905F02EF981461F4905F0BCF8A3
:1047C00080464FF08F4105F0B7FA074605F018FA1A
:1047D00028600020BDE710B588B004461CB94FF032
:1047E000FF3008B010BD29E080000020556E7375C1
:1047F00070706F7274656420736F66747761726530
:104800002070726F64756374207265762025642E43
:104810000A000000E8B1000848616C662073656E0C
:104820007369746976697479207061727420666F37
:10483000756E642E0A00000000000C42206830B93A
:10484000606820B9A06810B9002008B010BDFA490E
:104850004968087806AB03221146FEF7B3FF10B192
:104860004FF0FF30F1E79DF81800082101EB201010
:1048700000F00F00ADF800009DF8190001EB2010CA
:1048800000F00F00ADF802009DF81A0001EB2010B7
:1048900000F00F00ADF8040020684100BDF90000F1
:1048A000403091FBF0F000B2ADF8100060684100BC
:1048B000BDF90200403091FBF0F000B2ADF81200FB
:1048C000A0684100BDF90400403091FBF0F000B257
:1048D000ADF81400D8494968087806AB062211469D
:1048E000FEF770FF10B14FF0FF30AEE79DF81900F2
:1048F0009DF8181040EA012000B2ADF808009DF8BC
:104900001B009DF81A1040EA012000B2ADF80A0021
:104910009DF81D009DF81C1040EA012000B2ADF882
:104920000C00BDF81000BDF80810084400B2ADF846
:104930001000BDF81200BDF80A10084400B2ADF82E
:104940001200BDF81400BDF80C10084400B2ADF818
:104950001400BDF81000000A8DF81800BDF8100012
:10496000C0B28DF81900BDF81200000A8DF81A00C7
:10497000BDF81200C0B28DF81B00BDF81400000A8B
:104980008DF81C00BDF81400C0B28DF81D00AA49B6
:104990004968087806AB06221146FEF7C8FF10B139
:1049A0004FF0FF3051E700204FE70146A248007A60
:1049B00030B1012807D0022809D003280FD10AE01E
:1049C000FA2008800EE04FF4FA7008800AE04FF4F5
:1049D0007A70088006E04FF4FA60088002E0002058
:1049E000088000BF00BF0020704701469248407A0F
:1049F00030B1012807D0022808D003280CD108E0E4
:104A0000022008700BE00420087008E008200870FD
:104A100005E01020087002E04FF0FF30704700BF43
:104A20008548C07C18B108784006000E0870002048
:104A3000F4E701468048C07A082817D2DFE800F082
:104A40001704070A0D101318BC20088013E0622019
:104A5000088010E02A2008800DE0142008800AE079
:104A60000A20088007E00520088004E000BF00BF9E
:104A70000020088000BF00BF0020704701466E483C
:104A800090F8240010B14FF0FF3070476A48C08999
:104A900008800020F9E7014600200880401E70478A
:104AA00001464FF0FF30704701466348007A30B14D
:104AB000012807D0022808D003280CD108E05F485D
:104AC00008600BE05E48086008E05E48086005E0AA
:104AD0005D48086002E04FF0FF30704700BF0020E3
:104AE000FBE701465448407A30B1012808D002283B
:104AF0000AD0032810D10BE04FF4804008800EE06C
:104B000041F69C7008800AE04FF48050088006E06F
:104B10004FF40060088002E04FF0FF30704700BFA4
:104B20004548C07C10B10888401008800020F5E797
:104B300001464148007C08700020704701463E480D
:104B4000807A10B10120087001E000200870002078
:104B5000704738B504463848807A10B94FF0FF30B6
:104B600038BD354A1268117C334A526810786B465A
:104B70000222FEF727FE10B14FF0FF30F0E79DF85C
:104B800001009DF8001040EA012000B220800020C2
:104B9000E6E72DE9FE4F0746884692461D46DDF8BA
:104BA00030B000260024244890F8240010B1601E84
:104BB000BDE8FE8F002028701F48807A10B94FF0A2
:104BC000FF30F5E71C48007C10B94FF0FF30EFE7ED
:104BD0001948007C00F0400008B1B01CC6B216486D
:104BE000007C00F0200008B1B01CC6B21248007C66
:104BF00000F0100008B1B01CC6B20F48007C00F0F5
:104C0000080008B1B01DC6B20B4A1268917A0A4A70
:104C1000526810786B460222FEF7D4FD10B14FF0B7
:104C2000FF30C5E79DF801009DF8001040EA01291A
:104C3000B1450BDA0020BBE78000002000000343F1
:104C4000000083423333034233338341FC484068DE
:104C50004088B9EB600F17DDF94A1268517CF84AB9
:104C6000526810786B460122FEF7ACFD10B14FF090
:104C7000FF309DE79DF8000000F0100020B1FFF725
:104C800083F96FF0010093E75046FFF7EAFCEC4A26
:104C90001268D17AEA4A526810786B463246FEF7BB
:104CA00091FD10B14FF0FF3082E799FBF6F0401E06
:104CB0008BF8000000202870B4422AD0E048007C25
:104CC00000F0080028B3601C1DF800001DF8041057
:104CD00040EA012000B2A8F80000E01C1DF8001016
:104CE000A01C1DF8000041EA002000B2A8F8020054
:104CF000601D1DF80010201D1DF8000041EA002075
:104D000000B2A8F80400287840F008002870A01D20
:104D100084B2B44213D0CA48007C00F0400070B1A5
:104D2000601C1DF800001DF8041040EA012000B2CC
:104D30003880287840F040002870A01C84B2B4422B
:104D400013D0BF48007C00F0200070B1601C1DF83B
:104D500000001DF8041040EA012000B27880287895
:104D600040F020002870A01C84B2B44213D0B44894
:104D7000007C00F0100070B1601C1DF800001DF8F0
:104D8000041040EA012000B2B880287840F01000FA
:104D90002870A01C84B200200AE7F8B504460F462C
:104DA0001646A74890F8240010B94FF0FF30F8BD20
:104DB000A348807A10B94FF0FF30F8E7A04A126894
:104DC000917A9F4A526810786B460222FEF7FAFCED
:104DD00010B14FF0FF30EAE79DF801009DF8001098
:104DE00040EA0125A54203DA00203070401EDEE7CC
:104DF000934840684088B5EB600F17DD904A126811
:104E0000517C8F4A526810786B460122FEF7DAFC1B
:104E100010B14FF0FF30CAE79DF8000000F010001D
:104E200020B1FFF7B1F86FF00100C0E7E2B2844BA8
:104E30001B68D97A824B5B6818783B46FEF7C2FC48
:104E400010B14FF0FF30B2E795FBF4F0401E307028
:104E50000020ACE701467A4880F822100020704715
:104E60007CB5054676494968087801AB04220D21D6
:104E7000FEF7A8FC08B107207CBD9DF80700C0F331
:104E800001109DF8041001F0E00140EAE1008DF806
:104E900000009DF80700C0F381009DF8051001F0A7
:104EA000E00140EAE1008DF801009DF8070000F004
:104EB00003009DF8061001F0E00140EAE1008DF8E2
:104EC000020000241CE01DF8040018B9002045F879
:104ED000240013E05B4845F8240006E055F8240060
:104EE000594904F029FF45F824001DF80400401E2C
:104EF000C0B20DF804000028F0D100BF601CC4B29D
:104F0000032CE0DB0020B7E72DE9FE4F06460F46F5
:104F100000256846FFF7A4FF002442E056F824006D
:104F200057F82410A0EB010ABAF1000F01DB51463B
:104F300001E0CAF10001084604F09EFE83464FF0EE
:104F40008F4104F067FD80465DF82400002104F0E5
:104F500023FE16D05DF82410404604F05BFD824627
:104F60004FF07E5104F0E6FF814629F0004A3748B1
:104F7000416A504604F0ACFF12D20120A040054324
:104F80000EE03248C169404604F0A2FE05D32F4826
:104F9000016A404604F09CFF02D20120A040054374
:104FA000641C032CBADB2846BDE8FE8F2DE9FC5FAC
:104FB00006460F46002522494968087801AB0322BE
:104FC0000D21FEF7FFFB10B10720BDE8FC9F9DF807
:104FD000040000F01F008DF804009DF8050000F0AB
:104FE0001F008DF805009DF8060000F01F008DF8E9
:104FF0000600002462E056F8240057F82410A0EBC5
:10500000010BBBF1000F01DB594601E0CBF10001C0
:10501000084604F031FE4FF08F41009004F0FAFC96
:10502000814601A8005DC0B30849086804F03CFE51
:1050300083465946064804F0EDFC80460FE0000028
:10504000800000207B14AE3E1D5A843F9CA40008C3
:1050500000B04C45FE49404604F06EFE804601A873
:10506000005D401EC0B201A908550028F2D141469A
:10507000484604F0CFFC83464FF07E5104F05AFFBF
:1050800082462AF0004BF3488169584604F020FF1D
:1050900013D20120A04005430FE0FFE7ED4801696E
:1050A000484604F015FE05D3EA484169484604F035
:1050B0000FFF02D20120A0400543641C032C9ADBA1
:1050C000284682E72DE9F04F87B005460C46914609
:1050D00001208DF8100000208DF81100DE4A1268C2
:1050E000917CDD4A5268107804AB0222FEF71FFC67
:1050F00020B14FF0FF3007B0BDE8F08FC820FCF7BB
:1051000078FF00208DF81000D34A1268D17BD24A74
:105110005268107804AB0122FEF709FC10B14FF081
:10512000FF30E8E7CC4A12685179CB4A52681078D0
:1051300004AB0122FEF7FBFB10B14FF0FF30DAE7C2
:10514000C54A1268917CC44A5268107804AB0122A7
:10515000FEF7EDFB10B14FF0FF30CCE7BE4A12680E
:10516000D17DBD4A5268107804AB0122FEF7DFFB07
:1051700010B14FF0FF30BEE7B74A12681179B64A56
:105180005268107804AB0122FEF7D1FB10B14FF04A
:10519000FF30B0E70C208DF81000AF4A126811798B
:1051A000AD4A5268107804AB0122FEF7C0FB10B183
:1051B0004FF0FF309FE70F20FCF71BFFA648806AE7
:1051C000407A8DF81000A44A12689178A24A526879
:1051D000107804AB0122FEF7AAFB10B14FF0FF30AC
:1051E00089E79D48806A007A8DF810009A4A126813
:1051F0005178994A5268107804AB0122FEF797FB68
:1052000010B14FF0FF3076E7B9F1000F07D09248A8
:10521000806A807A40F0E0008DF8100004E08E484B
:10522000806A807A8DF810008B4A126891798A4AD8
:105230005268107804AB0122FEF779FB10B14FF0F1
:10524000FF3058E7B9F1000F07D08348806AC07A71
:1052500040F0E0008DF8100003E07E48C07A8DF841
:1052600010007D4A1268D1797B4A5268107804ABED
:105270000122FEF75CFB10B14FF0FF303BE7B9F1C4
:10528000000F02D0C820FCF7B4FE40208DF81000BB
:10529000714A12681179704A5268107804AB012281
:1052A000FEF745FB10B14FF0FF3024E778208DF872
:1052B0001000694A12685179674A5268107804AB45
:1052C0000122FEF734FB10B14FF0FF3013E76149C4
:1052D0008889FCF78EFE00208DF810005E4A126867
:1052E00051795D4A5268107804AB0122FEF71FFB2A
:1052F00010B14FF0FF30FEE6574A1268917A564AD5
:105300005268107804AB0222FEF75CFA10B14FF03D
:10531000FF30F0E69DF811009DF8101040EA012BD7
:105320000C209BFBF0F0C6B20020A86068602860EB
:10533000A06060602060824665E0474A1268D17ACA
:10534000454A5268107804AB0C22FEF73BFA10B1C4
:105350004FF0FF30CFE69DF811009DF8101040EAA5
:10536000012000B2ADF808009DF813009DF812105E
:1053700040EA012000B2ADF80A009DF815009DF842
:10538000141040EA012000B2ADF80C00BDF908107D
:10539000206808442060BDF90A1060680844606015
:1053A000BDF90C10A0680844A0609DF817009DF896
:1053B000161040EA012000B2ADF800009DF8190077
:1053C0009DF8181040EA012000B2ADF802009DF8E7
:1053D0001B009DF81A1040EA012000B2ADF804004D
:1053E000BDF90010286808442860BDF902106868FB
:1053F00008446860BDF90410A8680844A8600AF170
:10540000010000F0FF0AB24597DB1248D0F800C057
:105410002868C117090441EA1041070462460023C5
:10542000384602F00EFD32460023CDE9020102F0BB
:1054300008FD28600748D0F800C06868C117090453
:1054400041EA1041070462460023384606E00000A6
:1054500054E3853F9CA400088000002002F0F1FC8A
:1054600032460023CDE9020102F0EBFC6860FE4801
:10547000D0F800C0A868C117090441EA1041070428
:1054800062460023384602F0DCFC32460023CDE9B8
:10549000020102F0D6FCA860F348D0F804C02168ED
:1054A000C817000440EA11480F046246002338463A
:1054B000414602F0C6FC32460023CDE9020102F06B
:1054C000C0FC2060E848D0F804C06068C117090437
:1054D00041EA1041070462460023384602F0B1FC5D
:1054E00032460023CDE9020102F0ABFC6060DE48E9
:1054F000D0F804C0A068C117090441EA10410704AC
:1055000062460023384602F09CFC32460023CDE977
:10551000020102F096FCA060A068002804DDA068EB
:10552000A0F58030A06003E0A06800F58030A060A6
:105530000020E0E538B50446CC4890F82400A042AD
:1055400001D1002038BD24B3C84890F8250010B917
:105550004FF0FF30F6E70020FEF74AFB0020FEF791
:105560006FFCC249C88CFEF7DCFE00200090BF49EA
:10557000496808786B4601222321FEF7D8F90121FA
:10558000BA4880F824100120FEF732FBFEF7FCFC3D
:1055900013E00020FEF72CFBB448007C0090B349D8
:1055A000496808786B4601222321FEF7C0F90021E3
:1055B000AE4880F82410FEF7E7FC0020C2E72DE992
:1055C000F04F8DB083460F4602200C90A74890F80C
:1055D000240020B10020FFF7ADFF012600E00026E7
:1055E00003A8FFF7E2F905A8FFF7FFF901A8FFF705
:1055F00020FA02A8FFF742FA9C4890F80AA004A8F3
:10560000FFF796FA002407E0002239465846FFF7D4
:1056100059FD00B902E0641C022CF5DB00BF022C2E
:1056200001D1002528E0002407E0012206A909A8ED
:10563000FFF748FD00B902E0641C022CF5DB00BF57
:10564000022C01D1002517E006A93846FFF75CFCC3
:1056500000F0FF0809A95846FFF7A8FC00F0FF0971
:105660000025B9F1000F01D145F00105B8F1000F97
:1056700001D145F0020500BFFF207C490872FF21DF
:105680007A484172C1724FF6FF71C181FF21817268
:10569000017401210173BDF80C00FEF7D0FE9DF8E6
:1056A0001400FEF78AFEBDF80400FEF78EFDBDF87B
:1056B0000800FEF736FE5046FEF75DFB9DF8100031
:1056C000FEF74EFD16B10120FFF734FF28460DB05E
:1056D000BDE8F08FF8B504460D46164616B94FF0F2
:1056E000FF30F8BD6148807A10B94FF0FF30F8E71D
:1056F00020128DF80000E0B28DF801009DF8010045
:1057000028445A4949684989884202DD4FF0FF30F0
:10571000E7E7564A1268117E544A526810786B4681
:105720000222FEF704F910B14FF0FF30D9E7EAB2D8
:105730004E4B1B68597D4D4B5B6818783346FEF71E
:10574000F6F810B14FF0FF30CBE70020C9E7F8B50D
:1057500004460D46164616B94FF0FF30F8BD4348D3
:10576000807A10B94FF0FF30F8E720128DF8000072
:10577000E0B28DF801009DF8010028443B494968DA
:105780004989884202DD4FF0FF30E7E7374A126867
:10579000117E364A526810786B460222FEF7C7F82F
:1057A00010B14FF0FF30D9E7EAB2304B1B68597D9A
:1057B0002E4B5B6818783346FEF704F810B14FF0B3
:1057C000FF30CBE70020C9E72DE9F04385B005465F
:1057D0000E4690469946254890F8250020B14FF096
:1057E000FF3005B0BDE8F08316B94FF0FF30F8E7A1
:1057F000002423E0281B102801DD102000E0281BD6
:1058000087B2321939462046FFF764FF10B14FF0D6
:10581000FF30E6E701AA39462046FFF798FF10B1AE
:105820004FF0FF30DDE730193A4601A902F0B6FC2F
:1058300010B16FF00100D4E7E01984B2AC42D9DBBB
:105840004FEA28208DF8000008F0FF008DF80100D5
:10585000064A1268917E054A526810786B46022209
:10586000FEF765F838B103E09CA400088000002032
:105870004FF0FF30B5E70121FE4880F82510A0F871
:1058800026900020ADE70146FA4890F82400087001
:10589000002070474FF0FF30704702464FF0FF3056
:1058A000704701464FF0FF307047F8B505460F4688
:1058B0001446002C70D0B5F5FF5F01DDFF2605E032
:1058C000202D01DA012601E0C5F3471607B90127AB
:1058D000282C02DD4FF0FF30F8BDE648407D28BBA4
:1058E000E44890F8240038B10020FFF723FE01219E
:1058F000E04880F8201003E00021DE4880F8201006
:10590000DC481630FFF751F8DA481830FFF76DF829
:10591000D8481A30FFF78DF8D6481C30FFF7AEF89C
:10592000D448817A81771F30FFF702F90020FEF713
:105930005FF90020FEF788FC00208DF80000CD4ABA
:1059400012689178CB4A526810786B460122FDF7B5
:10595000EEFF10B14FF0FF30BEE740208DF80000A1
:10596000C44A1268D17BC34A526810786B46012240
:10597000FDF7DDFF00B165E08DF800608DF8017086
:10598000BC4A1268117ABB4A526810786B460222F0
:10599000FDF7CDFF08B155E047E00520FCF729FBF6
:1059A000B448407A072101EBC000C0B28DF8000076
:1059B000B04A1268D179AF4A526810786B4601221A
:1059C000FDF7B5FF00B13DE020208DF80000012C6F
:1059D00003D100208DF801000EE0052C03DC01202E
:1059E0008DF8010008E0142C03DC02208DF8010082
:1059F00002E003208DF801009DF80100072101EB72
:105A00008010C0B28DF801009A4A1268917C994AC0
:105A1000526810786B460222FDF789FF00B111E051
:105A2000012194484175002056E7924A1632002120
:105A300003E0505C00B105E0491C0C29F9D34FF09C
:105A4000FF3049E7FF208B490872FF2189484172E6
:105A5000C1724FF6FF71C181FF2181720174012172
:105A600001730146887FFEF786F98249C88AFEF7EE
:105A7000E6FC8049087EFEF7A0FC7E49488BFEF7D5
:105A8000A4FB7C49888BFEF74CFC7A49C87FFEF763
:105A900067FB784890F8200010B10120FFF74AFD1D
:105AA000002174484175002016E770B588B002A93E
:105AB00005A8FFF784FD0446032C3ED101A8FEF79C
:105AC000F3FF059804F0D8F80646019904F034F97C
:105AD000054604F095F80590069804F0CDF80646C2
