:020000040800F2
:1000000010BF002021020008250200082702000876
:10001000290200082B0200082D0200080000000041
:100020000000000000000000000000002F02000897
:100030003102000800000000330200083502000809
:1000400037020008370200083702000837020008AC
:10005000370200083702000837020008370200089C
:10006000370200083702000837020008370200088C
:10007000370200083702000837020008370200087C
:10008000370200083702000837020008370200086C
:10009000370200083702000837020008370200085C
:1000A000370200083702000837020008370200084C
:1000B000370200083702000837020008370200083C
:1000C000370200083702000837020008370200082C
:1000D00037020008F55E0008370200083702000802
:1000E000A10500083702000837020008370200089F
:1000F00037020008370200083702000837020008FC
:1001000037020008370200083702000837020008EB
:1001100037020008370200083702000837020008DB
:1001200037020008370200083702000837020008CB
:1001300000F002F800F065F80AA090E8000C824494
:100140008344AAF10107DA4501D100F05AF8AFF271
:10015000090EBAE80F0013F0010F18BFFB1A43F0A5
:1001600001031847AC550300CC5503000A444FF077
:10017000000C10F8013B13F0070408BF10F8014B06
:100180001D1108BF10F8015B641E05D010F8016B4B
:10019000641E01F8016BF9D113F0080F1EBF10F8AF
:1001A000014BAD1C0C1B09D16D1E58BF01F801CBD2
:1001B000FAD505E014F8016B01F8016B6D1EF9D555
:1001C0009142D6D37047000000230024002500266A
:1001D000103A28BF78C1FBD8520728BF30C148BFAA
:1001E0000B607047642900F0A380782900F0DA8062
:1001F000632900F06A81002070471FB51FBD10B54C
:1002000010BD00F09DF91146FFF7F7FF07F036FD2E
:1002100000F0BBF903B4FFF7F2FF03BC05F0ACFE3E
:1002200008480047FEE7FEE7FEE7FEE7FEE7FEE7D9
:10023000FEE7FEE7FEE7FEE703480449044A054BF4
:10024000704700003101000810B9002010BF0020E5
:1002500010BB002010BB0020704700000FB4044901
:1002600010B503AA029800F03DF910BC5DF814FB2C
:10027000040000202DE9F0410E46044600202062D3
:100280002046E168884730B3252805D0D4E901210C
:100290009047206A401CF2E7E16820460027884723
:1002A000050018D0A5F14100192802D820354FF4D7
:1002B00000673246294620462760FFF793FF40B18A
:1002C000012804D0F61D26F007060836D8E7361DAB
:1002D000D6E72846DAE7206ABDE8F08170B50C461B
:1002E0000546012A05D02878800600D5EA69002352
:1002F00002E0012305E05B1C934202D2E05C00288F
:10030000F9D1A869E618C01AA861286A18442862B9
:100310002846AFF3008004E0D5E9012114F8010B71
:100320009047B442F8D32846AFF3008070BD000078
:100330002DE9F0410646002410687529314615A5BF
:1003400010D0AFF30080002802DA404212A507E087
:1003500031688A0701D511A502E0490704D510A527
:10036000012401E0AFF3008000210A2306F12407F5
:1003700007E0B0FBF3F203FB120030307854104674
:10038000491C0028F5D123462A463046BDE8F041F5
:1003900000F038B8000000002D0000002B00000025
:1003A0002000000070B504460D4621461068AFF3EA
:1003B00000802188090502D50F4A7A4402E00E4ADE
:1003C0007A440E32002104F1240305E000F00F0608
:1003D0000009965D5E54491C0028F7D1207800235F
:1003E000000704D5702D02D009B102231132204636
:1003F000BDE8704000F006B8C45203007047704773
:10040000704770472DE9F0470D46994692460446DD
:1004100000F124080168880604D5E06921F0100184
:10042000216000E00120A84201DD471B00E0002719
:10043000A1697A1902EB0900081AA0612078C006A8
:1004400002D42046AFF30080002608E0D4E9012161
:100450001AF806009047206A401C761C20624E4520
:10046000F4DB2078C0060AD52046AFF3008006E012
:10047000D4E9012130209047206A401C2062381EB8
:10048000A7F10107F4DC07E0D4E9012118F8050021
:100490009047206A401C2062281EA5F10105F3DC6C
:1004A0002046AFF300802078000602D50220BDE888
:1004B000F0870120FBE710B5436913B1AFF300806B
:1004C00001E0FFF70BFF012010BD127800F12401BD
:1004D0000A7000224A700122EDE711684FF0FF32E6
:1004E000E9E70000074B70B50D467B4400F011F8BA
:1004F0000446284600F020F810B14FF0FF3070BDE0
:10050000204670BD5375000001694A1C02610878DD
:10051000704700B58FB0CDE9013100210591054943
:100520007944CDE9031011466846FFF7A3FE0FB0EA
:1005300000BD0000E5FFFFFF007B00F0800070477A
:10054000754600F029F8AE4605006946534620F08E
:100550000700854618B020B5FFF76EFEBDE82040C5
:100560004FF000064FF000074FF000084FF0000B6F
:1005700021F00701AC46ACE8C009ACE8C009ACE822
:10058000C009ACE8C0098D4670470446AFF300804F
:100590002046FFF73FFE000000487047B0B800203B
:1005A00010B51948006800F40040F0B11748007811
:1005B000022816DA1548007850B90020144908605E
:1005C00001201449C1F8800111493031086003E06D
:1005D00000200F49303108600C480078401C0B495E
:1005E00008704FF40040084908600748006800F4AC
:1005F000005040B108A0FFF731FE01200B49087000
:1006000040030149086010BD140401400E000020A1
:100610008001214200002142504331332069732080
:10062000636F6D6520312D300A0000000F0000203F
:1006300010B52448806940F00400224988610846CA
:10064000806940F010008861012000F091F81E4898
:10065000006820F070401C4908600846006840F0BF
:100660000040086018480830006840F4004016490F
:10067000083108601548406820F47000134948604C
:100680000846406840F4000048600846C06840F4EE
:100690000050C86001220F21002000F019F8022349
:1006A00028220121184604F0FDFC01220D21022020
:1006B00000F00EF8022328220121184604F0F2FC73
:1006C00010BD00000010024004080140001001406D
:1006D00070B504460B46CE1701EB9676C6F387003D
:1006E000CE1701EB9676B610A1EB8606B606350E50
:1006F0001C4B9B6943F001031A4EB3614FEAB633BA
:1007000053F820300F26AE40B343174E46F8203042
:10071000334653F8203004FA05F61E43124B43F8D3
:100720002060124B1B6801268E4033430F4E33600E
:1007300002F0010343B10D4B0C331B6801268E40C0
:1007400033430A4E0C36336002F0020343B1074BC9
:1007500008331E6801238B401E43044B08331E6080
:1007600070BD00000010024008000140000401407C
:1007700001464906084A926942F00102064B9A6115
:10078000064A526822F0E062044B5A601A465268E8
:100790000A435A6070470000001002400000014008
:1007A00070B5044600261D480588408845431B480F
:1007B000808846F60401884216D1184880790128BD
:1007C00012D10020154988712A2048812B20888168
:1007D0000021084604F014FA0120104988712B20EA
:1007E00048812A20888103E00021084604F008FAA5
:1007F00004F004FC00260DE04FF480700849086105
:10080000400048610748046080204861086180001A
:100810000861761CAE42EFD370BD0000A0980020A6
:10082000001001400C0C014010B50446002C60D1B2
:1008300066498871F02008804FF4A070488008460F
:10084000808849F2413188420BD06048808846F662
:100850000401884205D05D48808845F21031884205
:100860001AD12C20594908812A2048812B208881BF
:100870000846808846F60401884205D0534880889F
:1008800045F21031884206D14FF4A0704F490880DC
:100890004FF4F070488095E04C48808848F6891104
:1008A000884207D12220494908814E2048814F20A3
:1008B000888187E04548808845F21051884210D1F0
:1008C0004FF43050414908814FF4285048814FF48B
:1008D0002C5088814FF4F07008804FF448704880A5
:1008E00070E0222039490881202048812120888118
:1008F00068E00120354988714FF4A0700880F0202D
:1009000048800846808849F24131884205D02F4806
:10091000808845F21031884207D12C202B4908816C
:100920002A2048812B20888139E02848808846F693
:100930000401884207D12C20244908812B204881BA
:100940002A2088812BE02148808848F68911884236
:1009500007D122201D4908814F2048814E208881DF
:100960001DE01A48808845F21051884210D14FF49A
:100970003050164908814FF4285048814FF42C50CC
:1009800088814FF4487008804FF4F070488006E08A
:1009900022200E49088121204881202088810B488F
:1009A000808846F60401884205D00848808845F2D0
:1009B0001031884206D14FF4F070044908804FF49A
:1009C000A0704880002003F001FF10BDA098002017
:1009D00070B504460D4616469148808849F241316B
:1009E000884205D08E48808845F21031884240D137
:1009F0008B49488904F0F0FA4FF480708949086106
:100A0000400048612012884908608020854948617B
:100A10000861800008614010086140004861E0B250
:100A20008149086080207F49486108618000086131
:100A30007B49888904F0D0FA4FF4807079490861C5
:100A40004000486128127849086080207549486153
:100A50000861800008614010086140004861E8B208
:100A60007149086080206F49486108618000086111
:100A7000B9E06B48808845F21051884250D16849EE
:100A8000488904F0A9FA4FF4807066490861400073
:100A90004861201264490860802062494861086109
:100AA000800008615E494989491C88B204F094FAC3
:100AB0004FF480705B49086140004861E0B25A49D8
:100AC00008608020574948610861800008615449E6
:100AD000888904F081FA4FF480705249086140001F
:100AE000486128125049086080204E4948610861D9
:100AF000800008614A498989491C88B204F06CFA6F
:100B00004FF480704749086140004861E8B24649A7
:100B1000086080204349486108618000086162E004
:100B20003F48808846F60401884249D13C48807994
:100B3000012804D13A480088401E001B84B238497D
:100B4000488904F049FA4FF4807036490861400042
:100B500048612012344908608020324948610861A8
:100B6000800008614010086140004861E0B22E49F1
:100B7000086080202B49486108618000086128498D
:100B8000888904F029FA4FF48070264908614000F2
:100B90004861281224490860802022494861086180
:100BA000800008614010086140004861E8B21E49B9
:100BB000086080201B49486108618000086112E0DC
:100BC00017488079012804D115480088401E001B71
:100BD00084B213494889214604F018FA10498889DB
:100BE000294604F013FA4FF480700E494861400022
:100BF00048610B4800890C49086080200949486118
:100C000008618000086140100861400048610648A2
:100C100006608020486108618000086170BD0000A6
:100C2000A0980020001001400C0C01402DE9FC4F61
:100C300005460E4617469846DDF82C900020019098
:100C40002C48808846F60401884229D129488079B9
:100C5000012825D1AB46354626480088C01B401EDA
:100C600086B2474623480088A0EB0B00401E1FFABF
:100C700080F800201F4988712A2048812B20888114
:100C800043463A4631462846CDF80090FFF7CEFF5E
:100C90000120184988712B2048812A20888127E06B
:100CA000781B401C80B2019034461FE02146284644
:100CB00003F0A6FF04F0A2F94FF0000A11E04FF490
:100CC00080700D490861400048610C48C0F80090F0
:100CD000802048610861800008610AF101001FFA64
:100CE00080FA01988245EADB601C84B24445DDDD70
:100CF000BDE8FC8FA0980020001001400C0C0140C2
:100D000010B5FE48806940F00800FC49886108463B
:100D1000806940F0100088610846806940F0010059
:100D200088610120FFF724FDF54840686FF30B0050
:100D3000F34948600846406840F233310843F049BF
:100D400048600846006820F07F4008600846006858
:100D500040F04C5008600846C06840F4F860C86035
:100D60004FF03330E7490860091F08604FF6FF7005
:100D7000E44908310860322005F0E8FB0121002039
:100D800004F044F9322005F0E1FB002003F016FDE9
:100D9000DD49888008468088FF280ADB084680886D
:100DA0004FF6FF71884204D0D7488088B0F5134FC2
:100DB0007ED1D32004F010F903F0C8FC03F0C6FC88
:100DC00003F0C4FCD0498880084680884FF6FF7144
:100DD00001EA0020CC49888003F0B8FCCA49898820
:100DE0000843C94988800846808849F241318842D1
:100DF0006CD0BF2004F0F0F803F0A8FC03F0A6FCD0
:100E000003F0A4FC03F0A2FCBF4988800846808858
:100E10004FF6FF7101EA0020BB49888003F096FC81
:100E2000B94989880843B84988800846808846F6C9
:100E3000040188424AD0D42004F0CEF803F086FCA6
:100E400003F084FC03F082FCAF4988800846808868
:100E50004FF6FF7101EA0020AB49888003F076FC71
:100E6000A94989880843A84988800846808845F2AE
:100E7000103188422AD04FF45A4004F0ADF803F004
:100E800065FC4FF45B4004F0A7F803F05FFC9E495B
:100E90008880084680884FF6FF7101EA00209A4951
:100EA00088804FF45C4004F097F803F04FFC00E0BA
:100EB0000CE09549898808439349888008468088D2
:100EC000B0F5004F02D145F2105088808E488188DD
:100ED0008EA0FFF7C3F98C48808849F241318842DF
:100EE0007ED1CF2004F078F8002004F063F8C12010
:100EF00004F060F8302004F05DF8ED2004F06CF8A8
:100F0000642004F057F8032004F054F8122004F091
:100F100051F8812004F04EF8E82004F05DF88520B7
:100F200004F048F8102004F045F87A2004F042F864
:100F3000CB2004F051F8392004F03CF82C2004F0C8
:100F400039F8002004F036F8342004F033F8022099
:100F500004F030F8F72004F03FF8202004F02AF8DD
:100F6000EA2004F039F8002004F024F8002004F00E
:100F700021F8C02004F030F81B2004F01BF8C12039
:100F800004F02AF8012004F015F8C52004F024F834
:100F9000302004F00FF8302004F00CF8C72004F0E3
:100FA0001BF8B72004F006F8362004F015F84820A6
:100FB00004F000F83A2004F00FF8552003F0FAFF8F
:100FC000B12004F009F8002003F0F4FF1A2003F028
:100FD000F1FFB62004F000F80A2003F0EBFF00E078
:100FE000A9E0A22003F0E6FFF22003F0F5FF0020C5
:100FF00003F0E0FF262003F0EFFF012003F0DAFF0B
:10100000E02003F0E9FF0F2003F0D4FF2A2003F0D3
:10101000D1FF282003F0CEFF082003F0CBFF0E20E5
:1010200003F0C8FF082003F0C5FF542003F0C2FFFF
:10103000A92003F0BFFF432003F0BCFF0A2003F008
:10104000B9FF0F2003F0B6FF002003F0B3FF00202C
:1010500003F0B0FF002003F0ADFF002003F0AAFF73
:10106000E12003F0B9FF002003F0A4FF152003F0F6
:10107000A1FF172003F09EFF072003F09BFF112024
:1010800003F098FF062003F095FF2B2003F092FF5A
:10109000562003F08FFF3C2003F08CFF052003F067
:1010A00089FF102003F086FF0F2003F083FF3F200D
:1010B00003F080FF3F2003F07DFF0F2003F07AFF55
:1010C0002B2003F089FF002003F074FF002003F0C1
:1010D00071FF012003F06EFF3F2003F06BFF2A2019
:1010E00003F07AFF002003F065FF002003F062FFA9
:1010F000002003F05FFFEF2010E00000001002402E
:1011000000100140040C0140A0980020204C4344F2
:101110002049443A25780D0A0000000003F04AFFF8
:10112000112003F059FF782005F010FA292003F070
:1011300053FF03F0FBBAFE48808846F6040188425C
:101140007ED1112003F048FF142005F0FFF9D020D4
:1011500003F042FF072003F02DFF422003F02AFF97
:101160001D2003F027FFD12003F036FF002003F0FD
:1011700021FF1A2003F01EFF092003F01BFFD220DD
:1011800003F02AFF012003F015FF222003F012FFD5
:10119000C02003F021FF102003F00CFF3B2003F0E0
:1011A00009FF002003F006FF022003F003FF1120D7
:1011B00003F000FFC52003F00FFF032003F0FAFE49
:1011C000C82003F009FF002003F0F4FE252003F0FF
:1011D000F1FE212003F0EEFE052003F0EBFE0020DF
:1011E00003F0E8FE0A2003F0E5FE652003F0E2FECE
:1011F000252003F0DFFE772003F0DCFE502003F013
:10120000D9FE0F2003F0D6FE002003F0D3FEF82015
:1012100003F0E2FE012003F0CDFEFE2003F0DCFE31
:10122000002003F0C7FE022003F0C4FE202003F0DC
:10123000D3FE362003F0D0FE082003F0BBFE00E012
:101240002AE03A2003F0C8FE552003F0B3FE2B201D
:1012500003F0C2FE002003F0ADFE002003F0AAFE62
:10126000012003F0A7FE3F2003F0A4FE2A2003F094
:10127000B3FE002003F09EFE002003F09BFE012041
:1012800003F098FEDF2003F095FE782005F05EF96C
:10129000292003F0A1FE4CE7A548808845F21031D3
:1012A000884240F07C87ED2003F096FE012003F099
:1012B00081FEFE2003F07EFEEE2003F08DFEDE2098
:1012C00003F078FE212003F075FEF12003F084FE88
:1012D000012003F06FFEDF2003F07EFE102003F0FC
:1012E00069FEC42003F078FE8F2003F063FEC62061
:1012F00003F072FE002003F05DFEE22003F05AFED0
:10130000E22003F057FEE22003F054FEBF2003F07A
:1013100063FEAA2003F04EFEB02003F05DFE0D2018
:1013200003F048FE002003F045FE0D2003F042FECE
:10133000002003F03FFE112003F03CFE002003F0EC
:1013400039FE192003F036FE002003F033FE212081
:1013500003F030FE002003F02DFE2D2003F02AFEC6
:10136000002003F027FE3D2003F024FE002003F0C0
:1013700021FE5D2003F01EFE002003F01BFE5D2019
:1013800003F018FE002003F015FEB12003F024FE48
:10139000802003F00FFE002003F00CFE8B2003F0F2
:1013A00009FE002003F006FE962003F003FE002055
:1013B00003F000FEB22003F00FFE002003F0FAFD60
:1013C000002003F0F7FD022003F0F4FD002003F0FD
:1013D000F1FD032003F0EEFD002003F0EBFDB32050
:1013E00003F0FAFD002003F0E5FD002003F0E2FD2C
:1013F000002003F0DFFD002003F0DCFD002003F0FF
:10140000D9FD002003F0D6FD002003F0D3FD00201D
:1014100003F0D0FD002003F0CDFD002003F0CAFD55
:10142000002003F0C7FD002003F0C4FD002003F0FE
:10143000C1FD002003F0BEFD002003F0BBFD002035
:1014400003F0B8FD002003F0B5FD002003F0B2FD6D
:10145000002003F0AFFD002003F0ACFD002003F0FE
:10146000A9FD002003F0A6FD002003F0A3FD00204D
:1014700003F0A0FDB42003F0AFFD8B2003F09AFD34
:10148000002003F097FD962003F094FD002003F068
:1014900091FDA12003F08EFD002003F08BFDB5200F
:1014A00003F09AFD022003F085FD002003F082FD89
:1014B000032003F07FFD002003F07CFD042003F0F7
:1014C00079FD002003F076FDB62003F085FD0020B5
:1014D00003F070FD002003F06DFDB72003F07CFDEC
:1014E000002003F067FD002003F064FD3F2003F0BF
:1014F00061FD002003F05EFD5E2003F05BFD002037
:1015000003F058FD642003F055FD002003F052FD68
:101510008C2003F04FFD002003F04CFDAC2003F0C5
:1015200049FD002003F046FDDC2003F043FD01E00F
:10153000A0980020002003F03DFD702003F03AFD4C
:10154000002003F037FD902003F034FD002003F06D
:1015500031FDEB2003F02EFD002003F02BFDDC20FD
:1015600003F028FD002003F025FDB82003F034FD32
:10157000002003F01FFD002003F01CFD002003F0FD
:1015800019FD002003F016FD002003F013FD0020DC
:1015900003F010FD002003F00DFD002003F00AFD14
:1015A000BA2003F019FD242003F004FD002003F00D
:1015B00001FD002003F0FEFC002003F0FBFCC12035
:1015C00003F00AFD202003F0F5FC002003F0F2FCFC
:1015D000542003F0EFFC002003F0ECFCFF2003F0AC
:1015E000E9FC002003F0E6FCC22003F0F5FC0A2031
:1015F00003F0E0FC002003F0DDFC042003F0DAFC43
:10160000002003F0D7FCC32003F0E6FC3C2003F0ED
:10161000D1FC002003F0CEFC3A2003F0CBFC0020EC
:1016200003F0C8FC392003F0C5FC002003F0C2FC25
:10163000372003F0BFFC002003F0BCFC3C2003F08B
:10164000B9FC002003F0B6FC362003F0B3FC002008
:1016500003F0B0FC322003F0ADFC002003F0AAFC44
:101660002F2003F0A7FC002003F0A4FC2C2003F0A3
:10167000A1FC002003F09EFC292003F09BFC00202D
:1016800003F098FC262003F095FC002003F092FC68
:10169000242003F08FFC002003F08CFC242003F0B6
:1016A00089FC002003F086FC232003F083FC00204B
:1016B00003F080FC3C2003F07DFC002003F07AFC6A
:1016C000362003F077FC002003F074FC322003F096
:1016D00071FC002003F06EFC2F2003F06BFC002057
:1016E00003F068FC2C2003F065FC002003F062FC92
:1016F000292003F05FFC002003F05CFC262003F0AF
:1017000059FC002003F056FC242003F053FC002079
:1017100003F050FC242003F04DFC002003F04AFCB1
:10172000232003F047FC002003F044FCC42003F016
:1017300053FC622003F03EFC002003F03BFC05203C
:1017400003F038FC002003F035FC842003F032FC69
:10175000002003F02FFCF02003F02CFC002003F00D
:1017600029FC182003F026FC002003F023FCA42011
:1017700003F020FC002003F01DFC182003F01AFCED
:10178000002003F017FC502003F014FC002003F0AD
:1017900011FC0C2003F00EFC002003F00BFC1720C2
:1017A00003F008FC002003F005FC952003F002FC88
:1017B000002003F0FFFBF32003F0FCFB002003F00C
:1017C000F9FBE62003F0F6FB002003F0F3FBC52055
:1017D00003F002FC322003F0EDFB002003F0EAFBF3
:1017E000442003F0E7FB002003F0E4FB652003F056
:1017F000E1FB002003F0DEFB762003F0DBFB0020A2
:1018000003F0D8FB882003F0D5FB002003F0D2FBC7
:10181000C62003F0E1FB202003F0CCFB002003F006
:10182000C9FB172003F0C6FB002003F0C3FB012017
:1018300003F0C0FB002003F0BDFBC72003F0CCFB8E
:10184000002003F0B7FB002003F0B4FB002003F0FE
:10185000B1FB002003F0AEFBC82003F0BDFB00206D
:1018600003F0A8FB002003F0A5FB002003F0A2FB7F
:10187000002003F09FFBC92003F0AEFB002003F023
:1018800099FB002003F096FB002003F093FB00205F
:1018900003F090FB002003F08DFB002003F08AFB97
:1018A000002003F087FB002003F084FB002003F0FE
:1018B00081FB002003F07EFB002003F07BFB002077
:1018C00003F078FB002003F075FB002003F072FBAF
:1018D000002003F06FFB002003F06CFBE02003F01E
:1018E0007BFB162003F066FB002003F063FB1C204B
:1018F00003F060FB002003F05DFB212003F05AFBA6
:10190000002003F057FB362003F054FB002003F0C7
:1019100051FB462003F04EFB002003F04BFB52200E
:1019200003F048FB002003F045FB642003F042FB7A
:10193000002003F03FFB7A2003F03CFB002003F083
:1019400039FB8B2003F036FB002003F033FB99209A
:1019500003F030FB002003F02DFBA82003F02AFB4E
:10196000002003F027FBB92003F024FB002003F044
:1019700021FBC42003F01EFB002003F01BFBCA2048
:1019800003F018FB002003F015FBD22003F012FB3C
:10199000002003F00FFBD92003F00CFB002003F024
:1019A00009FBE02003F006FB002003F003FBF3201B
:1019B00003F000FB002003F0FDFAE12003F00CFB34
:1019C000162003F0F7FA002003F0F4FA1C2003F0CD
:1019D000F1FA002003F0EEFA222003F0EBFA0020E7
:1019E00003F0E8FA362003F0E5FA002003F0E2FA0B
:1019F000452003F0DFFA002003F0DCFA522003F068
:101A0000D9FA002003F0D6FA642003F0D3FA0020BC
:101A100003F0D0FA7A2003F0CDFA002003F0CAFADE
:101A20008B2003F0C7FA002003F0C4FA992003F0DA
:101A3000C1FA002003F0BEFAA82003F0BBFA002090
:101A400003F0B8FAB92003F0B5FA002003F0B2FAB7
:101A5000C42003F0AFFA002003F0ACFACA2003F070
:101A6000A9FA002003F0A6FAD22003F0A3FA00207E
:101A700003F0A0FAD82003F09DFA002003F09AFAB0
:101A8000E02003F097FA002003F094FAF32003F02B
:101A900091FA002003F08EFAE22003F09DFA05206F
:101AA00003F088FA002003F085FA0B2003F082FA95
:101AB000002003F07FFA1B2003F07CFA002003F0E3
:101AC00079FA342003F076FA002003F073FA442008
:101AD00003F070FA002003F06DFA4F2003F06AFA69
:101AE000002003F067FA612003F064FA002003F09D
:101AF00061FA792003F05EFA002003F05BFA882097
:101B000003F058FA002003F055FA972003F052FA38
:101B1000002003F04FFAA62003F04CFA002003F057
:101B200049FAB72003F046FA002003F043FAC22036
:101B300003F040FA002003F03DFAC72003F03AFA20
:101B4000002003F037FAD12003F034FA002003F02C
:101B500031FAD62003F02EFA002003F02BFADD2014
:101B600003F028FA002003F025FAF32003F022FA0C
:101B7000002003F01FFAE32003F02EFA052003F003
:101B800019FA002003F016FA0A2003F013FA0020D5
:101B900003F010FA1C2003F00DFA002003F00AFAFB
:101BA000332003F007FA002003F004FA442003F086
:101BB00001FA002003F0FEF9502003F0FBF90020A9
:101BC00003F0F8F9622003F0F5F9002003F0F2F9D0
:101BD000782003F0EFF9002003F0ECF9882003F0FF
:101BE000E9F9002003F0E6F9972003F0E3F900207B
:101BF00003F0E0F9A62003F0DDF9002003F0DAF9A4
:101C0000B72003F0D7F9002003F0D4F9C22003F085
:101C1000D1F9002003F0CEF9C72003F0CBF9002062
:101C200003F0C8F9D12003F0C5F9002003F0C2F990
:101C3000D52003F0BFF9002003F0BCF9DD2003F04C
:101C4000B9F9002003F0B6F9F32003F0B3F900204E
:101C500003F0B0F9E42003F0BFF9012003F0AAF982
:101C6000002003F0A7F9012003F0A4F9002003F0FD
:101C7000A1F9022003F09EF9002003F09BF92A202D
:101C800003F098F9002003F095F93C2003F092F955
:101C9000002003F08FF94B2003F08CF9002003F0B3
:101CA00089F95D2003F086F9002003F083F97420A0
:101CB00003F080F9002003F07DF9842003F07AF925
:101CC000002003F077F9932003F074F9002003F06B
:101CD00071F9A22003F06EF9002003F06BF9B32034
:101CE00003F068F9002003F065F9BE2003F062F903
:101CF000002003F05FF9C42003F05CF9002003F03A
:101D000059F9CD2003F056F9002003F053F9D32000
:101D100003F050F9002003F04DF9DD2003F04AF9FB
:101D2000002003F047F9F32003F044F9002003F00A
:101D300041F9E52003F050F9002003F03BF90020C1
:101D400003F038F9002003F035F9002003F032F9F0
:101D5000022003F02FF9002003F02CF9292003F0D2
:101D600029F9002003F026F93C2003F023F9002094
:101D700003F020F94B2003F01DF9002003F01AF9BD
:101D80005D2003F017F9002003F014F9742003F02C
:101D900011F9002003F00EF9842003F00BF9002064
:101DA00003F008F9932003F005F9002003F002F98D
:101DB000A22003F0FFF8002003F0FCF8B32003F0AA
:101DC000F9F8002003F0F6F8BE2003F0F3F8002045
:101DD00003F0F0F8C42003F0EDF8002003F0EAF877
:101DE000CD2003F0E7F8002003F0E4F8D32003F05F
:101DF000E1F8002003F0DEF8DC2003F0DBF800203F
:101E000003F0D8F8F32003F0D5F8002003F0D2F85F
:101E1000E62003F0E1F8112003F0CCF8002003F0F5
:101E2000C9F8342003F0C6F8002003F0C3F85620A8
:101E300003F0C0F8002003F0BDF8762003F0BAF8F4
:101E4000002003F0B7F8772003F0B4F8002003F087
:101E5000B1F8662003F0AEF8002003F0ABF888205C
:101E600003F0A8F8002003F0A5F8992003F0A2F8E9
:101E7000002003F09FF8BB2003F09CF8002003F043
:101E800099F8992003F096F8002003F093F8662063
:101E900003F090F8002003F08DF8552003F08AF845
:101EA000002003F087F8552003F084F8002003F0A9
:101EB00081F8452003F07EF8002003F07BF84320F2
:101EC00003F078F8002003F075F8442003F072F86E
:101ED000002003F06FF8E72003F07EF8322003F0D3
:101EE00069F8002003F066F8552003F063F800203D
:101EF00003F060F8762003F05DF8002003F05AF854
:101F0000662003F057F8002003F054F8672003F030
:101F100051F8002003F04EF8672003F04BF8002042
:101F200003F048F8872003F045F8002003F042F85A
:101F3000992003F03FF8002003F03CF8BB2003F0A9
:101F400039F8002003F036F8992003F033F8002028
:101F500003F030F8772003F02DF8002003F02AF882
:101F6000442003F027F8002003F024F8562003F063
:101F700021F8002003F01EF8232003F01BF80020B6
:101F800003F018F8332003F015F8002003F012F8DE
:101F9000452003F00FF8002003F00CF8E82003F0D0
:101FA0001BF8002003F006F8002003F003F8992046
:101FB00003F000F8002002F0FDFF872002F0FAFF96
:101FC000002002F0F7FF882002F0F4FF002002F06A
:101FD000F1FF772002F0EEFF002002F0EBFF662019
:101FE00002F0E8FF002002F0E5FF882002F0E2FFA7
:101FF000002002F0DFFFAA2002F0DCFF002002F048
:10200000D9FFBB2002F0D6FF002002F0D3FF9920B9
:1020100002F0D0FF002002F0CDFF662002F0CAFFE0
:10202000002002F0C7FF552002F0C4FF002002F09C
:10203000C1FF552002F0BEFF002002F0BBFF44208C
:1020400002F0B8FF002002F0B5FF442002F0B2FF1A
:10205000002002F0AFFF552002F0ACFF002002F09C
:10206000A9FFE92002F0B8FFAA2002F0A3FF002098
:1020700002F0A0FF002002F09DFF002002F09AFF76
:10208000002002F0A9FFAA2002F094FFCF2002F066
:10209000A3FF002002F08EFF002002F08BFF002043
:1020A00002F088FF002002F085FF002002F082FF8E
:1020B000002002F07FFF002002F07CFF002002F0F1
:1020C00079FF002002F076FF002002F073FF00206D
:1020D00002F070FF002002F06DFF002002F06AFFA6
:1020E000002002F067FF002002F064FF002002F0F1
:1020F00061FF002002F05EFFF02002F06DFF002083
:1021000002F058FF502002F055FF002002F052FF6D
:10211000002002F04FFF002002F04CFFF32002F0FD
:102120005BFF002002F046FFF92002F055FF062079
:1021300002F040FF102002F03DFF292002F03AFF9C
:10214000002002F037FF3A2002F046FF552002F04F
:1021500031FF112002F040FF642004F0F7F929203C
:1021600002F03AFF352002F037FF002002F022FF94
:10217000512002F031FFFF2002F01CFF532002F03B
:102180002BFF2C2002F016FF552002F025FF8220A5
:1021900002F010FF2C2002F01FFF02F0C7BAFE4829
:1021A000808845F2105188427ED155214FF470400D
:1021B00002F02CFFAA214FF2010002F027FF52216A
:1021C0004FF2020002F022FF08214FF2030002F05A
:1021D0001DFF01214FF2040002F018FF0D214FF402
:1021E000304002F013FF0D214BF2010002F00EFF10
:1021F0000D214BF2020002F009FF34214FF436406A
:1022000002F004FF34214BF2016002F0FFFE3421A2
:102210004BF2026002F0FAFE0D214FF4314002F061
:10222000F5FE0D214BF2011002F0F0FE0D214BF2F4
:10223000021002F0EBFE34214FF4374002F0E6FECC
:1022400034214BF2017002F0E1FE34214BF20270B6
:1022500002F0DCFE00214FF4324002F0D7FE0021F4
:102260004BF2012002F0D2FE00214BF2022002F0DC
:10227000CDFE24214FF4384002F0C8FE24214BF655
:10228000010002F0C3FE24214BF6020002F0BEFE64
:1022900001214FF43F4002F0B9FE0F214FF43340CB
:1022A00002F0B4FE0F2100E0FEE34BF2013002F039
:1022B000ADFE0F214BF2023002F0A8FE34214FF4A4
:1022C000394002F0A3FE34214BF6011002F09EFECD
:1022D00034214BF6021002F099FE08214FF43540EC
:1022E00002F094FE08214BF2015002F08FFE08210B
:1022F0004BF2025002F08AFE03214FF4424002F0FA
:1023000085FE24214FF43A4002F080FE24214BF652
:10231000012002F07BFE24214BF6022002F076FE23
:1023200000214FF43C4002F071FE78214BF6014051
:1023300002F06CFE00214BF6024002F067FE002125
:102340004FF43D4002F062FE78214BF6015002F05E
:102350005DFE00214BF6025002F058FE00214FF4C2
:102360003E4002F053FE64214BF6016002F04EFE47
:1023700000214FF4514002F049FE33214DF201108B
:1023800002F044FE00214DF2021002F03FFE342123
:102390004DF2031002F03AFE00214DF2041002F05B
:1023A00035FE3A214DF2051002F030FE00214DF2CB
:1023B000061002F02BFE4A214DF2071002F026FE15
:1023C00000214DF2081002F021FE5C214DF20910AF
:1023D00002F01CFE00214DF20A1002F017FE8121CE
:1023E0004DF20B1002F012FE00214DF20C1002F023
:1023F0000DFEA6214DF20D1002F008FE00214DF257
:102400000E1002F003FEE5214DF20F1002F0FEFD6A
:1024100001214DF2101002F0F9FD13214DF21110BF
:1024200002F0F4FD01214DF2121002F0EFFD5421F3
:102430004DF2131002F0EAFD01214DF2141002F0EA
:10244000E5FD82214DF2151002F0E0FD01214DF273
:10245000161002F0DBFDCA214DF2171002F0D6FD76
:1024600002214DF2181002F0D1FD00214DF2191099
:1024700002F0CCFD02214DF21A1002F0C7FD01213D
:102480004DF21B1002F0C2FD02214DF21C1002F0B1
:10249000BDFD34214DF21D1002F0B8FD02214DF2B8
:1024A0001E1002F0B3FD67214DF21F1002F0AEFDC9
:1024B00002214DF2201002F0A9FD84214DF22110DD
:1024C00002F0A4FD02214DF2221002F09FFDA42192
:1024D0004DF2231002F09AFD02214DF2241002F079
:1024E00095FDB7214DF2251002F090FD02214DF22D
:1024F000261002F08BFDCF214DF2271002F086FD51
:1025000002214DF2281002F081FDDE214DF229104A
:1025100002F07CFD02214DF22A1002F077FDF2213B
:102520004DF22B1002F072FD02214DF22C1002F040
:102530006DFDFE214DF22D1002F068FD03214DF2DC
:102540002E1002F063FD10214DF22F1002F05EFDFF
:1025500003214DF2301002F059FD33214DF23110BC
:1025600002F054FD03214DF2321002F04FFD6D21B7
:102570004DF2331002F04AFD00214FF4524002F0B8
:1025800045FD33214DF2012002F040FD00214DF2C6
:10259000022002F03BFD01E0A098002034214DF222
:1025A000032002F033FD00214DF2042002F02EFD45
:1025B0003A214DF2052002F029FD00214DF20620BE
:1025C00002F024FD4A214DF2072002F01FFD0021F8
:1025D0004DF2082002F01AFD5C214DF2092002F0B4
:1025E00015FD00214DF20A2002F010FD81214DF26F
:1025F0000B2002F00BFD00214DF20C2002F006FD35
:10260000A6214DF20D2002F001FD00214DF20E2019
:1026100002F0FCFCE5214DF20F2002F0F7FC012155
:102620004DF2102002F0F2FC13214DF2112002F0C5
:10263000EDFC01214DF2122002F0E8FC54214DF294
:10264000132002F0E3FC01214DF2142002F0DEFC25
:1026500082214DF2152002F0D9FC01214DF2162005
:1026600002F0D4FCCA214DF2172002F0CFFC022167
:102670004DF2182002F0CAFC00214DF2192002F0A0
:10268000C5FC02214DF21A2002F0C0FC01214DF2DE
:102690001B2002F0BBFC02214DF21C2002F0B6FC14
:1026A00034214DF21D2002F0B1FC02214DF21E201A
:1026B00002F0ACFC67214DF21F2002F0A7FC0221C2
:1026C0004DF2202002F0A2FC84214DF2212002F0E4
:1026D0009DFC02214DF2222002F098FCA4214DF233
:1026E000232002F093FC02214DF2242002F08EFC04
:1026F000B7214DF2252002F089FC02214DF226205F
:1027000002F084FCCF214DF2272002F07FFC022151
:102710004DF2282002F07AFCDE214DF2292002F051
:1027200075FC02214DF22A2002F070FCF2214DF2DC
:102730002B2002F06BFC02214DF22C2002F066FCF3
:10274000FE214DF22D2002F061FC03214DF22E20DE
:1027500002F05CFC10214DF22F2002F057FC032107
:102760004DF2302002F052FC33214DF2312002F0C4
:102770004DFC03214DF2322002F048FC6D214DF258
:10278000332002F043FC00214FF4534002F03EFCA2
:1027900033214DF2013002F039FC00214DF20230BC
:1027A00002F034FC34214DF2033002F02FFC002102
:1027B0004DF2043002F02AFC3A214DF2053002F0CD
:1027C00025FC00214DF2063002F020FC4A214DF29A
:1027D000073002F01BFC00214DF2083002F016FC1D
:1027E0005C214DF2093002F011FC00214DF20A305B
:1027F00002F00CFC81214DF20B3002F007FC0021AD
:102800004DF20C3002F002FCA6214DF20D3002F028
:10281000FDFB00214DF20E3002F0F8FBE5214DF2F8
:102820000F3002F0F3FB01214DF2103002F0EEFB0D
:1028300013214DF2113002F0E9FB01214DF212306B
:1028400002F0E4FB54214DF2133002F0DFFB0121D2
:102850004DF2143002F0DAFB82214DF2153002F015
:10286000D5FB01214DF2163002F0D0FBCA214DF20A
:10287000173002F0CBFB02214DF2183002F0C6FBFC
:1028800000214DF2193002F0C1FB02214DF21A3045
:1028900002F0BCFB01214DF21B3002F0B7FB02211C
:1028A0004DF21C3002F0B2FB34214DF21D3002F02B
:1028B000ADFB02214DF21E3002F0A8FB67214DF264
:1028C0001F3002F0A3FB02214DF2203002F09EFBEC
:1028D00084214DF2213002F099FB02214DF2223089
:1028E00002F094FBA4214DF2233002F08FFB022171
:1028F0004DF2243002F08AFBB7214DF2253002F070
:1029000085FB02214DF2263002F080FBCF214DF2F3
:10291000273002F07BFB02214DF2283002F076FBDB
:10292000DE214DF2293002F071FB02214DF22A30F6
:1029300002F06CFBF2214DF22B3002F067FB02211A
:102940004DF22C3002F062FBFE214DF22D3002F0F0
:102950005DFB03214DF22E3002F058FB10214DF2A9
:102960002F3002F053FB03214DF2303002F04EFBCA
:1029700033214DF2313002F049FB03214DF2323068
:1029800002F044FB6D214DF2333002F03FFB002199
:102990004FF4544002F03AFB33214DF2014002F073
:1029A00035FB00214DF2024002F030FB34214DF2A4
:1029B000034002F02BFB00214DF2044002F026FB05
:1029C0003A214DF2054002F021FB00214DF2064074
:1029D00002F01CFB4A214DF2074002F017FB0021D8
:1029E0004DF2084002F012FB5C214DF2094002F06A
:1029F0000DFB00214DF20A4002F008FB81214DF24F
:102A00000B4002F003FB00214DF20C4002F0FEFAF5
:102A1000A6214DF20D4002F0F9FA00214DF20E40D0
:102A200002F0F4FAE5214DF20F4002F0EFFA012135
:102A30004DF2104002F0EAFA13214DF2114002F07B
:102A4000E5FA01214DF2124002F0E0FA54214DF274
:102A5000134002F0DBFA01214DF2144002F0D6FAE5
:102A600082214DF2154002F0D1FA01214DF21640BB
:102A700002F0CCFACA214DF2174002F0C7FA022147
:102A80004DF2184002F0C2FA00214DF2194002F056
:102A9000BDFA02214DF21A4002F0B8FA01214DF2BE
:102AA0001B4002F0B3FA00E004E302214DF21C40A7
:102AB00002F0ACFA34214DF21D4002F0A7FA0221D7
:102AC0004DF21E4002F0A2FA67214DF21F4002F0C3
:102AD0009DFA02214DF2204002F098FA84214DF235
:102AE000214002F093FA02214DF2224002F08EFAC8
:102AF000A4214DF2234002F089FA02214DF2244034
:102B000002F084FAB7214DF2254002F07FFA02214B
:102B10004DF2264002F07AFACF214DF2274002F022
:102B200075FA02214DF2284002F070FADE214DF2D2
:102B3000294002F06BFA02214DF22A4002F066FAB7
:102B4000F2214DF22B4002F061FA02214DF22C40AD
:102B500002F05CFAFE214DF22D4002F057FA0321FB
:102B60004DF22E4002F052FA10214DF22F4002F0A9
:102B70004DFA03214DF2304002F048FA33214DF274
:102B8000314002F043FA03214DF2324002F03EFAA6
:102B90006D214DF2334002F039FA00214FF45540D7
:102BA00002F034FA33214DF2015002F02FFA0021E5
:102BB0004DF2025002F02AFA34214DF2035002F095
:102BC00025FA00214DF2045002F020FA3A214DF28C
:102BD000055002F01BFA00214DF2065002F016FAE1
:102BE0004A214DF2075002F011FA00214DF208502F
:102BF00002F00CFA5C214DF2095002F007FA0021B4
:102C00004DF20A5002F002FA81214DF20B5002F00F
:102C1000FDF900214DF20C5002F0F8F9A6214DF219
:102C20000D5002F0F3F900214DF20E5002F0EEF9D2
:102C3000E5214DF20F5002F0E9F901214DF210505B
:102C400002F0E4F913214DF2115002F0DFF90121F5
:102C50004DF2125002F0DAF954214DF2135002F005
:102C6000D5F901214DF2145002F0D0F982214DF234
:102C7000155002F0CBF901214DF2165002F0C6F9C1
:102C8000CA214DF2175002F0C1F902214DF218503D
:102C900002F0BCF900214DF2195002F0B7F90221FF
:102CA0004DF21A5002F0B2F901214DF21B5002F020
:102CB000ADF902214DF21C5002F0A8F934214DF279
:102CC0001D5002F0A3F902214DF21E5002F09EF9B0
:102CD00067214DF21F5002F099F902214DF2205068
:102CE00002F094F984214DF2215002F08FF9022173
:102CF0004DF2225002F08AF9A4214DF2235002F045
:102D000085F902214DF2245002F080F9B7214DF2ED
:102D1000255002F07BF902214DF2265002F076F99F
:102D2000CF214DF2275002F071F902214DF22850C7
:102D300002F06CF9DE214DF2295002F067F9022110
:102D40004DF22A5002F062F9F2214DF22B5002F0BE
:102D50005DF902214DF22C5002F058F9FE214DF29E
:102D60002D5002F053F903214DF22E5002F04EF98E
:102D700010214DF22F5002F049F903214DF230504D
:102D800002F044F933214DF2315002F03FF90321B2
:102D90004DF2325002F03AF96D214DF2335002F00B
:102DA00035F900214FF4564002F030F933214DF24D
:102DB000016002F02BF900214DF2026002F026F9C9
:102DC00034214DF2036002F021F900214DF204603C
:102DD00002F01CF93A214DF2056002F017F90021CA
:102DE0004DF2066002F012F94A214DF2076002F03E
:102DF0000DF900214DF2086002F008F95C214DF256
:102E0000096002F003F900214DF20A6002F0FEF8B9
:102E100081214DF20B6002F0F9F800214DF20C60B7
:102E200002F0F4F8A6214DF20D6002F0EFF8002157
:102E30004DF20E6002F0EAF8E5214DF20F6002F06B
:102E4000E5F801214DF2106002F0E0F813214DF297
:102E5000116002F0DBF801214DF2126002F0D6F8A9
:102E600054214DF2136002F0D1F801214DF21460AB
:102E700002F0CCF882214DF2156002F0C7F8012172
:102E80004DF2166002F0C2F8CA214DF2176002F04E
:102E9000BDF802214DF2186002F0B8F800214DF2A1
:102EA000196002F0B3F802214DF21A6002F0AEF898
:102EB00001214DF21B6002F0A9F802214DF21C60C5
:102EC00002F0A4F834214DF21D6002F09FF80221B7
:102ED0004DF21E6002F09AF867214DF21F6002F079
:102EE00095F802214DF2206002F090F884214DF215
:102EF000216002F08BF802214DF2226002F086F888
:102F0000A4214DF2236002F081F802214DF22460E9
:102F100002F07CF8B7214DF2256002F077F802212B
:102F20004DF2266002F072F8CF214DF2276002F0D8
:102F30006DF802214DF2286002F068F8DE214DF2B2
:102F4000296002F063F802214DF22A6002F05EF877
:102F5000F2214DF22B6002F059F802214DF22C6063
:102F600002F054F8FE214DF22D6002F04FF80321DB
:102F70004DF22E6002F04AF810214DF22F6002F05F
:102F800045F803214DF2306002F040F833214DF254
:102F9000316002F03BF803214DF2326002F036F866
:102FA0006D214DF2336002F031F855214FF470403D
:102FB00002F02CF8AA214FF2010002F027F852216A
:102FC0004FF2020002F022F808214FF2030002F053
:102FD0001DF800214FF2040002F018F8CC214FF444
:102FE000314002F013F800214BF2011002F00EF80C
:102FF00005214FF4364002F009F870214FF43740B4
:1030000002F004F870214BF2017001F0FFFF012182
:103010004FF4384001F0FAFF03214BF6010001F0B4
:10302000F5FF03214BF6020001F0F0FF03214BF600
:10303000030001F0EBFF02214FF43C4001F0E6FFFA
:1030400000214BF6014001F0E1FF00214BF6024068
:1030500001F0DCFFD0214FF4494001F0D7FF0221FD
:103060004CF6011001F0D2FF50214CF6021001F095
:10307000CDFF50214CF6031001F0C8FF50214CF653
:10308000041001F0C3FF00214FF4545001F0BEFFC3
:1030900055214FF4685001F0B9FF4FF4885001F00A
:1030A0009BFF782003F070FA4FF4245001F094FF56
:1030B00001F03CBBFE48808849F2253188427DD131
:1030C00047F6F001E52001F0A1FF4FF480710120E7
:1030D00001F09CFF4FF4E061022001F097FF41F204
:1030E0003001032001F092FF0021042001F08EFF47
:1030F00040F20221082001F089FF0021092001F09F
:1031000085FF00210A2001F081FF00210C2001F041
:103110007DFF00210D2001F079FF00210F2001F03B
:1031200075FF0021102001F071FF0721112001F02F
:103130006DFF0021122001F069FF0021132001F032
:1031400065FF0021072001F061FF41F2906110202E
:1031500001F05CFF40F22721112001F057FF9D2173
:10316000122001F053FF4FF4C851132001F04EFF1D
:103170002521292001F04AFF0D212B2001F046FFD7
:103180000721302001F042FF40F20331312001F0ED
:103190003DFF0321322001F039FF40F206213520A6
:1031A00001F034FF0821362001F030FF40F20641E3
:1031B000372001F02BFF4FF4417100E058E0382038
:1031C00001F024FF0721392001F020FF40F20261C5
:1031D0003C2001F01BFF08213D2001F017FF0021DA
:1031E000502001F013FFEF21512001F00FFF0021CB
:1031F000522001F00BFF40F23F11532001F006FF77
:103200004FF42741602001F001FF0121612001F00E
:10321000FDFE00216A2001F0F9FE0021802001F06E
:10322000F5FE0021812001F0F1FE0021822001F055
:10323000EDFE0021832001F0E9FE0021842001F051
:10324000E5FE0021852001F0E1FE1021902001F033
:10325000DDFE4FF4C061922001F0D8FE40F2331140
:10326000072001F0D3FE2221002001F0CFFE1FE74E
:103270008F48808849F2283188427DD141F28F0100
:10328000EC2001F0C3FE41F23421EF2001F0BEFE3C
:103290004FF48071012001F0B9FE4FF4E06102208B
:1032A00001F0B4FE41F23001032001F0AFFE002135
:1032B000042001F0ABFE40F20221082001F0A6FE3E
:1032C0000021092001F0A2FE00210A2001F09EFE4B
:1032D00001210C2001F09AFE00210D2001F096FE44
:1032E00000210F2001F092FE0021102001F08EFE3F
:1032F0000721112001F08AFE0021122001F086FE34
:103300000021132001F082FE0121072001F07EFE42
:10331000322003F01BF941F29041102001F076FEBB
:1033200040F22721112001F071FE322003F00EF946
:103330008A21122001F06AFE322003F007F94FF4CF
:10334000D051132001F062FE0621292001F05EFE1B
:103350000D212B2001F05AFE322003F0F7F8002156
:10336000202001F053FE0021212001F04FFE3220E9
:1033700003F0ECF8002100E075E0302001F046FE9B
:1033800040F20461312001F041FE40F2053132206B
:1033900001F03CFE0021352001F038FE40F60941E5
:1033A000362001F033FE4FF40171372001F02EFE7C
:1033B00040F20131382001F029FE40F20771392036
:1033C00001F024FE00213C2001F020FE40F60A21FD
:1033D0003D2001F01BFE322003F0B8F80021502000
:1033E00001F014FEEF21512001F010FE00215220C7
:1033F00001F00CFE40F23F11532001F007FE4FF4A4
:103400002741602001F002FE0121612001F0FEFD54
:1034100000216A2001F0FAFD0021802001F0F6FD74
:103420000021812001F0F2FD0021822001F0EEFD5B
:103430000021832001F0EAFD0021842001F0E6FD57
:103440000021852001F0E2FD1021902001F0DEFD39
:103450004FF4C061922001F0D9FD40F233110720F2
:1034600001F0D4FD24E61248808849F225318842D3
:103470007ED147F6F001E52001F0C8FD4FF48071E0
:10348000012001F0C3FD4FF4E061022001F0BEFD18
:1034900041F23001032001F0B9FD0021042001F0C8
:1034A000B5FD40F20221082001F0B0FD002101E04D
:1034B000A0980020092001F0A9FD00210A2001F0B8
:1034C000A5FD00210C2001F0A1FD00210D2001F03F
:1034D0009DFD00210F2001F099FD0021102001F039
:1034E00095FD0721112001F091FD0021122001F02E
:1034F0008DFD0021132001F089FD0021072001F03E
:1035000085FD41F29061102001F080FD40F22721FD
:10351000112001F07BFD9D21122001F077FD4FF479
:10352000C851132001F072FD2521292001F06EFD04
:103530000D212B2001F06AFD0721302001F066FDEE
:1035400040F20331312001F061FD0321322001F00E
:103550005DFD40F20621352001F058FD082136209E
:1035600001F054FD40F20641372001F04FFD00E02C
:103570005AE04FF44171382001F048FD072139200D
:1035800001F044FD40F202613C2001F03FFD0821C2
:103590003D2001F03BFD0021502001F037FDEF21DF
:1035A000512001F033FD0021522001F02FFD40F2A7
:1035B0003F11532001F02AFD4FF42741602001F014
:1035C00025FD0121612001F021FD00216A2001F08B
:1035D0001DFD0021802001F019FD0021812001F056
:1035E00015FD0021822001F011FD0021832001F052
:1035F0000DFD0021842001F009FD0021852001F04E
:1036000005FD1021902001F001FD4FF4C0619220D2
:1036100001F0FCFC40F23311072001F0F7FC2221FD
:10362000002001F0F3FC43E5FE48808849F2283190
:1036300088427DD141F28F01EC2001F0E7FC41F29C
:103640003421EF2001F0E2FC4FF48071012001F001
:10365000DDFC4FF4E061022001F0D8FC41F23001C2
:10366000032001F0D3FC0021042001F0CFFC40F244
:103670000221082001F0CAFC0021092001F0C6FC4B
:1036800000210A2001F0C2FC01210C2001F0BEFC47
:1036900000210D2001F0BAFC00210F2001F0B6FC42
:1036A0000021102001F0B2FC0721112001F0AEFC36
:1036B0000021122001F0AAFC0021132001F0A6FC39
:1036C0000121072001F0A2FC322002F03FFF41F26D
:1036D0009041102001F09AFC40F22721112001F0C6
:1036E00095FC322002F032FF8A21122001F08EFC7C
:1036F000322002F02BFF4FF4D051132001F086FC52
:103700000621292001F082FC0D212B2001F07EFCF6
:10371000322002F01BFF0021202001F077FC002165
:10372000212001F073FC322002F010FF002100E0A4
:1037300075E0302001F06AFC40F20461312001F0B4
:1037400065FC40F20531322001F060FC002135209B
:1037500001F05CFC40F60941362001F057FC4FF4C3
:103760000171372001F052FC40F20131382001F0A4
:103770004DFC40F20771392001F048FC00213C204B
:1037800001F044FC40F60A213D2001F03FFC3220CC
:1037900002F0DCFE0021502001F038FCEF21512026
:1037A00001F034FC0021522001F030FC40F23F11C6
:1037B000532001F02BFC4FF42741602001F026FC40
:1037C0000121612001F022FC00216A2001F01EFC91
:1037D0000021802001F01AFC0021812001F016FC5C
:1037E0000021822001F012FC0021832001F00EFC58
:1037F0000021842001F00AFC0021852001F006FC54
:103800001021902001F002FC4FF4C061922001F0E1
:10381000FDFB40F23311072001F0F8FB48E481483A
:10382000808849F2203188427ED10021084601F08B
:10383000EDFB4FF48071012001F0E8FB4FF4E061F3
:10384000022001F0E3FB41F23001032001F0DEFB36
:103850000021042001F0DAFB40F20221082001F0EF
:10386000D5FB0021092001F0D1FB00210A2001F045
:10387000CDFB01210C2001F0C9FB00210D2001F03E
:10388000C5FB00210F2001F0C1FB322002F05EFEDB
:1038900040F20111072001F0B9FB322002F056FE80
:1038A0004FF48651102001F0B1FB0721112001F0E7
:1038B000ADFB4FF48871122001F0A8FB4FF430618A
:1038C000132001F0A3FB0021292001F09FFB44F20B
:1038D00010012B2001F09AFB0021502001F096FBF3
:1038E000EF21512001F092FB0021522001F08EFBCC
:1038F00040F23F11532001F089FB4FF41C5160202E
:1039000001F084FB0121612001F080FB00216A208D
:1039100001F07CFB0021802001F078FB0021812058
:1039200001F074FB002100E02DE0822001F06EFB2D
:103930000021832001F06AFB0021842001F066FB56
:103940000021852001F062FB1021902001F05EFB38
:103950000021922001F05AFB0121932001F056FB37
:103960004FF48871952001F051FB0021972001F060
:103970004DFB0021982001F049FB40F27311072014
:1039800001F044FB73E42748808849F231318842D2
:103990007DD141F21401E72001F038FB4FF4807132
:1039A000012001F033FB4FF40071022001F02EFBE7
:1039B00041F23801032001F029FB40F202210820E6
:1039C00001F024FB0021092001F020FB00210A2046
:1039D00001F01CFB00210C2001F018FB00210D2040
:1039E00001F014FB00210F2001F010FB002110203A
:1039F00001F00CFB0721112001F008FB002112202F
:103A000001F004FB0021132001F000FBC82002F0AC
:103A10009DFD41F29061102001F0F8FA40F227215B
:103A2000112001E0A098002001F0F0FA322002F00D
:103A30008DFD0C21122001F0E9FA322002F086FD02
:103A40004FF40061132001F0E1FA1121292001F067
:103A5000DDFA0B212B2001F0D9FA322002F076FD9D
:103A60000021202001F0D2FA40F23F11212001F084
:103A7000CDFA0021302001F0C9FA4FF483713120D2
:103A800001F0C4FA0021322001F0C0FA00E067E042
:103A90004FF40171352001F0B9FA41F20A61362084
:103AA00001F0B4FA40F20771372001F0AFFA4FF499
:103AB0008371382001F0AAFA40F20771392001F031
:103AC000A5FA40F202413C2001F0A0FA40F60F4175
:103AD0003D2001F09BFA0021502001F097FAEF21E0
:103AE000512001F093FA0021522001F08FFA40F2A8
:103AF0003F11532001F08AFA4FF41C51602001F06D
:103B000085FA0121612001F081FA00216A2001F08B
:103B10007DFA0021802001F079FA0021812001F056
:103B200075FA0021822001F071FA0021832001F052
:103B30006DFA0021842001F069FA0021852001F04E
:103B400065FA1021902001F061FA4FF4C0619220D3
:103B500001F05CFA40F23311072001F057FA81E4DA
:103B6000FE48808845F2084188427DD14FF480713B
:103B7000012001F04BFA4FF4E061022001F046FA17
:103B800041F23001032001F041FA0021042001F04C
:103B90003DFA40F20721082001F038FA00210920FF
:103BA00001F034FA00210A2001F030FA00210C2043
:103BB00001F02CFA00210D2001F028FA00210F203D
:103BC00001F024FA142002F0C1FC41F2B06110208F
:103BD00001F01CFA0121112001F018FA012117202F
:103BE00001F014FA4FF49C71122001F00FFA4FF417
:103BF0000061132001F00AFA0921292001F006FAD8
:103C000009212A2001F002FA0021A42001F0FEF986
:103C10000021502001F0FAF9EF21512001F0F6F9CE
:103C20000021522001F0F2F940F23F11532001F03F
:103C3000EDF94FF41C51602001F0E8F901216120F9
:103C400001F0E4F900216A2001F0E0F90021802070
:103C500001F0DCF90021812001F0D8F90021822057
:103C600001F0D4F9002100E024E0832001F0CEF936
:103C70000021842001F0CAF90021852001F0C6F955
:103C80001321902001F0C2F90021922001F0BEF929
:103C90000321932001F0BAF94FF48871952001F0C7
:103CA000B5F940F27311072001F0B0F9322002F0AB
:103CB0004DFCB8E4A948808841F2055188427DD185
:103CC0000021072001F0A2F9322002F03FFC4FF45E
:103CD0008E71122001F09AF90121A42001F096F9C9
:103CE0000F21082001F092F908210A2001F08EF935
:103CF00008210D2001F08AF940F20771302001F00F
:103D000085F90721312001F081F940F20361322069
:103D100001F07CF94FF4E061332001F077F940F2D3
:103D20000221342001F072F90221352001F06EF9F0
:103D300041F60F71362001F069F940F20771372022
:103D400001F064F90021382001F060F900213920E8
:103D500001F05CF940F207713A2001F057F90021B7
:103D60003B2001F053F907213C2001F04FF90021DD
:103D70003D2001F04BF9322002F0E8FB0121072041
:103D800001F044F90121172001F040F9322002F03E
:103D9000DDFB4FF4BD51102001F038F940F217213E
:103DA000112001F033F94FF48F71122001F02EF938
:103DB0004FF47061132001F029F900E095E0002133
:103DC0002A2001F023F90A21292001F01FF94FF4DC
:103DD0009F71122001F01AF90021502001F016F90C
:103DE000EF21512001F012F90021522001F00EF9CB
:103DF00040F23F11532001F009F94FF41C516020AB
:103E000001F004F90121612001F000F900216A208C
:103E100001F0FCF80021802001F0F8F80021812059
:103E200001F0F4F80021822001F0F0F80021832055
:103E300001F0ECF80021842001F0E8F80021852051
:103E400001F0E4F81321902001F0E0F84FF4407104
:103E5000922001F0DBF80521932001F0D7F8002132
:103E6000952001F0D3F80021972001F0CFF8002130
:103E7000982001F0CBF84FF48071012001F0C6F8D2
:103E80004FF4E061022001F0C1F841F23801032053
:103E900001F0BCF80021042001F0B8F800210C204A
:103EA00001F0B4F800210F2001F0B0F8002120202B
:103EB00001F0ACF80021212001F0A8F82121072011
:103EC00001F0A4F8142002F041FB6121072001F069
:103ED0009DF8142002F03AFB40F27311072001F024
:103EE00095F8142002F032FB98E41C4880884BF2CD
:103EF000055188427ED10021084601F087F8002153
:103F0000084601F083F80021084601F07FF80021FF
:103F1000084601F07BF80121A42001F077F8142075
:103F200002F014FB4FF41C51602001F06FF840F2D6
:103F30000221082001F06AF84FF40571302001F0E9
:103F400065F843F21571312001F060F840F2046128
:103F5000322001F05BF840F6166101E0A0980020E5
:103F6000332001F053F842F21121342001F04EF8D1
:103F70004FF4A851352001F049F848F20751362096
:103F800001F044F841F20741372001F03FF841F2D7
:103F90000341382001F03AF82021392001F036F8A9
:103FA0001A21902001F032F80021102001F02EF8A3
:103FB0000721112001F02AF80021122001F026F833
:103FC0000021132001F022F8142002F0BFFA4FF470
:103FD000E661102001F01AF840F23711112001F0CB
:103FE00015F8142002F0B2FA4FF4DC71122001F03F
:103FF0000DF800E086E0142002F0A8FA4FF470619A
:10400000132001F003F880212A2000F0FFFF48214F
:10401000292000F0FBFF142002F098FA4FF4807181
:10402000012000F0F3FF4FF4E061022000F0EEFF0A
:1040300041F23801032000F0E9FF40F2022108209C
:1040400000F0E4FF00210A2000F0E0FF00210C2036
:1040500000F0DCFF00210D2000F0D8FF30210E2001
:1040600000F0D4FF0021502000F0D0FFEF215120BC
:1040700000F0CCFF0021522000F0C8FF40F23F11B9
:10408000532000F0C3FF4FF41C51602000F0BEFF2E
:104090000121612000F0BAFF00216A2000F0B6FF84
:1040A0001121902000F0B2FF4FF4C061922000F087
:1040B000ADFF40F20241932000F0A8FF02219420BE
:1040C00000F0A4FF142002F041FA0121072000F0C3
:1040D0009DFF142002F03AFA6121072000F096FFBC
:1040E00040F27311072000F091FF0021202000F022
:1040F0008DFF0021212000F089FF2221002000F007
:1041000085FF13E3FE4880884CF2055188427CD13C
:104110000021084600F07AFF0021084600F076FFF3
:10412000142002F013FA0021084600F06FFF00216E
:10413000084600F06BFF0021084600F067FF0021F1
:10414000084600F063FF0121A42000F05FFF142067
:1041500002F0FCF94FF41C51602000F057FF40F6CC
:104160000601082000F052FF40F20371302000F0F9
:104170004DFF0121312000F049FF0421322000F0E1
:1041800045FF4FF48171332000F040FF4FF4407140
:10419000342000F03BFF40F20311352000F036FFE1
:1041A0001F21362000F032FF40F20371372000F06B
:1041B0002DFF0121382000F029FF0421392000F0D3
:1041C00025FF1521902000F021FF4FF4826110207F
:1041D00000F01CFF40F24721112000F017FF4FF4C0
:1041E000DE71122000F012FF4FF46061132000F026
:1041F0000DFF782002F0AAF94FF48071012000F041
:1042000005FF4FF40071022000E052E000F0FEFED6
:1042100041F23001032000F0F9FE08210A2000F0ED
:10422000F5FE00210C2000F0F1FE20210E2000F010
:10423000EDFE00210F2000F0E9FE0021202000F01B
:10424000E5FE0021212000F0E1FE3D212A2000F0C2
:10425000DDFE142002F07AF92D21292000F0D6FE8F
:104260000021502000F0D2FE4DF2EF01512000F06D
:10427000CDFE0021522000F0C9FE40F23F11532034
:1042800000F0C4FE0021612000F0C0FE00216A2081
:1042900000F0BCFE4FF44071922000F0B7FE052103
:1042A000932000F0B3FE4FF48071072000F0AEFEC3
:1042B0003CE29348808848F6891188427DD10121EB
:1042C000002000F0A3FE4AF6A401032000F09EFEA9
:1042D00000210C2000F09AFE40F60C010D2000F0A9
:1042E00095FE4FF42C510E2000F090FEB0211E20C0
:1042F00000F08CFE42F63F31012000F087FE4FF4C3
:10430000C061022000F082FE0021102000F07EFE3D
:1043100046F27801112000F079FE0021052000F01E
:1043200075FE0021062000F071FE4EF61C7116206D
:1043300000F06CFE0321172000F068FE40F23321EC
:10434000072000F063FE00210B2000F05FFE00213B
:104350000F2000F05BFE0021412000F057FE0021FD
:10436000422000F053FE0021482000F04FFE40F2B2
:104370003F11492000F04AFE00214A2000F046FE8D
:1043800000214B2000F042FE4FF46F41442000F02A
:104390003DFE0021452000F039FE40F23F1146204D
:1043A00000F034FE40F20771302000F02FFE4FF491
:1043B0000171312000F02AFE00E03DE04FF4017170
:1043C000322000F023FE40F20251332000F01EFEA6
:1043D00040F20751342000F019FE4FF401713520EE
:1043E00000F014FE4FF40171362000F00FFE40F291
:1043F0000251372000F00AFE40F202313A2000F06C
:1044000005FE40F202313B2000F000FE0021232097
:1044100000F0FCFD0021242000F0F8FD4FF40041E5
:10442000252000F0F3FD00214F2000F0EFFD0021DA
:104430004E2000F0EBFD79E13148808844F23151A3
:1044400088427CD10121002000F0E0FD0A2002F02A
:104450007DF841F22861102000F0D8FD0E211220D5
:1044600000F0D4FD40F63921132000F0CFFD0A20E2
:1044700002F06CF84021112000F0C8FD50211520F9
:1044800000F0C4FD0A2002F061F81E21122000F0A5
:10449000BDFD0A2002F05AF84FF4B151102000F08F
:1044A000B5FD42F63921132000F0B0FD0A2002F0DC
:1044B0004DF84FF48071012000F0A8FD4FF44071D9
:1044C000022000F0A3FD41F23801032000F09EFD20
:1044D00040F20221082000F099FD08210A2000F096
:1044E00095FD0021302000F091FD40F20241312085
:1044F00000F08CFD4FF48371322000F087FD01E065
:10450000A098002040F20351332000F07FFD4FF4CB
:104510008271342000F07AFD40F20131352000F044
:1045200075FD40F20771362000F070FD40F2053154
:10453000372000F06BFD4FF40271382000E040E0BE
:1045400000F064FD40F60B71392000F05FFD0221A0
:10455000412000F05BFD4FF41C51602000F056FD3F
:104560000121612000F052FD4FF40471902000F011
:104570004DFD4FF48571922000F048FD04219320F9
:1045800000F044FD4FF48071A02000F03FFD0121B8
:10459000072000F03BFD2121072000F037FD2321FB
:1045A000072000F033FD3321072000F02FFD40F2FB
:1045B0003311072000F02AFD0021A02000F026FD85
:1045C000B4E06048808844F235518842F8D1302107
:1045D000152000F01BFD10219A2000F017FD20216E
:1045E000112000F013FD43F22841102000F00EFDD1
:1045F0000221122000F00AFD41F23801132000F0E0
:1046000005FD282001F0A2FF1221084600F0FEFC63
:10461000282001F09BFF43F22041102000F0F6FC1F
:1046200043F23801132000F0F1FC462001F08EFF28
:104630000021302000F0EAFC40F20241312000F07D
:10464000E5FC40F20731322000F0E0FC4FF441710C
:10465000332000F0DBFC0421342000F0D7FC40F2D2
:104660000141352000F0D2FC40F20771362000F005
:10467000CDFC40F20531372000F0C8FC4FF4C26198
:10468000382000F0C3FC4FF4C261392000F0BEFCBA
:104690004FF48071012000F0B9FC4FF4407102200A
:1046A00000F0B4FC41F23001032000F0AFFC40F612
:1046B0000801082000F0AAFC08210A2000F0A6FC4E
:1046C0004FF41C51602000F0A1FC0121612000F09A
:1046D0009DFC4FF49F71902000F098FC4FF4807186
:1046E000922000F093FC4FF48071932000F08EFC38
:1046F0004FF44051A02000F089FC1021A32000F0CD
:1047000085FC0121072000F081FC2121072000F019
:104710007DFC2321072000F079FC3321072000F0E5
:1047200075FC40F23311072000F070FC0020FCF70C
:104730007BF80120044908604FF6FF70FCF730F861
:1047400010BD0000A0980020A801224210B54FF033
:10475000883017490860091D0860002014490C3191
:10476000086088151349086140004861402048618D
:104770001148808848F68911884202D1022001F050
:1047800003FF0B480830006884B2402009490861E3
:10479000C00008614FF0333005490860091D08600A
:1047A0004FF6FF7002490C310860204610BD000032
:1047B000000C014000100140A098002010B50446F4
:1047C000204600F009FCFFF7C1FF10BDF0B505461B
:1047D00000240027F748807901281ED1F5488088F9
:1047E00046F60401884218D0082D15D2DFE805F0FE
:1047F0000406080A0C0E101206250DE007250BE032
:10480000042509E0052507E0012505E0002503E072
:10481000032501E0022500BF00BFE648808849F279
:104820004131884211D0E348808846F6040188422D
:104830000BD0E048808845F21031884205D0DD4831
:10484000808845F2105188427ED1082D1CD2DFE8C5
:1048500005F00406090C0F12151800BF14E044F00F
:10486000800411E044F040040EE044F0C0040BE08A
:1048700044F0200408E044F0600405E044F0A004A3
:1048800002E044F0E00400BF00BFCA48808845F25F
:104890001051884202D14FF4585700E03627C548DE
:1048A000808845F21031884207D0C248808845F29E
:1048B0001051884201D044F00804BE48808846F672
:1048C0000401884201D144F002042146384600F038
:1048D0009DFB04F0200068B1B6480088B5494988BE
:1048E000884214DAB34806884088B24908800846EE
:1048F00046800CE0AF480088AE494988884206DD12
:10490000AC4806884088AB49088008464680A948DC
:10491000808845F2105188427ED1A649488900F02E
:104920005BFB4FF48070A44908614000486100209F
:10493000A24908608020A0494861086180000861A0
:104940009C494989491C00E01DE188B200F044FB04
:104950004FF48070984908614000486100209749F1
:10496000086080209449486108618000086191498D
:104970004989891C88B200F02FFB4FF480708E4962
:104980000861400048618B480088401E00128B4936
:104990000860802088494861086180000861854975
:1049A0004989C91C88B200F017FB4FF48070824916
:1049B0000861400048617F480078401EC0B27F49CE
:1049C000086080207C49486108618000086179495D
:1049D000888900F001FB4FF480707749086140003E
:1049E000486100207549086080207349486108616A
:1049F000800008616F498989491C88B200F0ECFA8F
:104A00004FF480706C4908614000486100206B4998
:104A100008608020684900E034E048610861800057
:104A2000086164498989891C88B200F0D5FA4FF47D
:104A3000807061490861400048615E484088401EBE
:104A400000125E49086080205B494861086180006F
:104A5000086158498989C91C88B200F0BDFA4FF431
:104A60008070554908614000486152488078401E76
:104A7000C0B25249086080204F49486108618000F7
:104A80000861B9E04B49488900F0A6FA4FF48070FC
:104A90004949086140004861002048490860802079
:104AA0004549486108618000086140100861400084
:104AB000486100204149086080203F494861086101
:104AC0008000086140100861400048613948008852
:104AD000401E00123949086080203749486108614A
:104AE000800008614010086140004861314800784A
:104AF000401EC0B23149086080202F4948610861DA
:104B0000800008612B49888900F066FA4FF48070B4
:104B10002949086140004861002028490860802038
:104B20002549486108618000086140100861400023
:104B3000486100202149086080201F4948610861C0
:104B400080000861401008614000486119484088B1
:104B5000401E001219490860802017494861086109
:104B60008000086140100861400048611148807869
:104B7000401EC0B21149086080200F494861086199
:104B80008000086138E0082D23D2DFE805F0040733
:104B90000A0D0F191C1F44F030041AE044F01004F1
:104BA00017E044F0200414E000BF12E044F03804A1
:104BB0000FE00000A0980020001001400C0C014004
:104BC00044F0280405E044F0180402E044F008042E
:104BD00000BF00BF0948808848F68911884204D187
:104BE000112746F24000044302E0032744F48054B6
:104BF0002146384600F00AFAF0BD0000A0980020D7
:104C000030B504460D468448808849F241318842D7
:104C100005D08148808845F21031884240D17E49D4
:104C2000488900F0D9F94FF480707C490861400050
:104C3000486120127A4908608020784948610861FB
:104C4000800008614010086140004861E0B274498A
:104C500008608020714948610861800008616E49E0
:104C6000888900F0B9F94FF480706C490861400000
:104C7000486128126A4908608020684948610861D3
:104C8000800008614010086140004861E8B2644952
:104C90000860802061494861086180000861B9E0CE
:104CA0005D48808846F60401884249D15A48807997
:104CB000012804D158480088401E001B84B2564980
:104CC000488900F089F94FF4807054490861400028
:104CD00048612012524908608020504948610861AB
:104CE000800008614010086140004861E0B24C4912
:104CF0000860802049494861086180000861464990
:104D0000888900F069F94FF48070444908614000D7
:104D10004861281242490860802040494861086182
:104D2000800008614010086140004861E8B23C49D9
:104D3000086080203949486108618000086169E0A5
:104D40003548808845F21051884250D1324948890F
:104D500000F042F94FF4807030490861400048612A
:104D600020122F49086080202C494861086180008A
:104D7000086129494989491C88B200F02DF94FF48E
:104D800080702649086140004861E0B2244908600B
:104D90008020224948610861800008611E49888995
:104DA00000F01AF94FF480701C4908614000486116
:104DB00028121B490860802018494861086180005A
:104DC000086115498989491C88B200F005F94FF43A
:104DD00080701249086140004861E8B210490860DB
:104DE00080200E49486108618000086112E00A488D
:104DF0008079012804D108480088401E001B84B235
:104E000005494889214600F001F903498889294666
:104E100000F0FCF830BD0000A09800200010014018
:104E20000C0C01402DE9F84F0746884616461C46F3
:104E3000C3462046E31704EB5373DB1021464FEAC9
:104E4000E47C04EB5C7C4FEAEC0CA4EBCC0CBCF1F6
:104E5000000F02D04FF0010C01E04FF0000C634452
:104E6000224604EBD27C4FEA6C0C03FB0CF3DBB262
:104E70000093A6F12000C6B2002556E00C2C07D105
:104E800006EB46002B4901EB800010F8059013E07B
:104E9000102C05D1284800EB061010F805900BE007
:104EA000182C07D106EBC600244901EB800010F84E
:104EB000059001E0BDE8F88F4FF0000A2FE009F0FF
:104EC000800030B11E48028841463846FBF780FD1D
:104ED00007E00A9828B91B48028841463846FBF784
:104EE00077FD4FEA49604FEA106908F101001FFAA7
:104EF00080F815480088B84200DCDBE7A8EB0B001F
:104F0000A04208D1D846781C87B20F480088B84222
:104F100000DCCFE706E00AF1010000F0FF0ABAF179
:104F2000080FCCDB00BF681CC5B200988542A5DB2A
:104F300000BFBFE7DA9000084E9500083E9B0008CE
:104F40000A0000200C000020A09800202DE9F8475E
:104F500004460D4690469946DDE9096704F0FF0ACC
:104F600008EB04001FFA80F809EB05001FFA80F92E
:104F700016E0444502DB5446A81985B24D4500DBD6
:104F800014E0002000903A78334629462046FFF787
:104F900049FF304606EBD07104EB61018CB27F1CF7
:104FA00038787E2802DC38782028E2DA00BFBDE8B5
:104FB000F88700004FF48071054A11614900516182
:104FC00004490860802151611161890011617047B5
:104FD000001001400C0C01404FF48071054A5161F2
:104FE00049005161044908608021516111618900C3
:104FF00011617047001001400C0C014000B50249DE
:105000000889FFF7E9FF00BDA098002010B504460D
:105010000B462046FFF7E0FF4FF48070054908611A
:1050200040004861044803608020486108618000B6
:10503000086110BD001001400C0C014000B50020BB
:1050400015490861C8601420486100208861C86162
:105050000846006840F001000860084640680F49B3
:1050600008400D494860084600680D4908400A4953
:1050700008600846006820F4802008600846406800
:1050800020F4FE0048600020886000214FF000609E
:1050900000F058F800BD0000001002400000FFF8CA
:1050A000FFFFF6FE2DE9F0410746884614461D46EF
:1050B000284600F033F8C5F1040007FA00F60F2087
:1050C000284100EA0800064306F00F06E21704EB49
:1050D000D2625211920002F1E022D2F80021214660
:1050E000E31704EBD3635B11A4EB431C012303FA26
:1050F0000CF31A432046E31704EBD3635B119B00C8
:1051000003F1E023C3F800210348005D40EA0610E4
:1051100001490855BDE8F08100E400E0014607239D
:1051200023EA01021202054B18684FF6FF031840EC
:10513000034B18431043014B186070470CED00E01F
:105140000000FA05024A0A400243024B1A60704707
:1051500080FFFF1F08ED00E02DE9F041002400254D
:105160003C48806940F004003A49886108468069FB
:1051700040F00800886138480068384908403649DE
:1051800008600846006836490843334908603248D9
:105190000C30006840F010002F490C3108600846C0
:1051A000006840F0030008602B48001D00682D498E
:1051B00008402949091D0860084600682A49084333
:1051C0002549091D086024480C30006840F440401F
:1051D00021490C3108600846006840F4C05008605E
:1051E00000F04AF8322001F0B1F90B2000F0C4F8C9
:1051F0000646732E02D00220BDE8F0810A2000F09E
:10520000BBF80646762E01D00220F5E700250DE01A
:10521000164A02EB45025178144A12F8150000F0C4
:105220005DF9022001F092F9681C85B2732DEFD36D
:1052300000240AE0204600F09FF807463A4621463F
:105240000BA0FBF70BF8601CC4B22F2CF2DB002084
:10525000D2E70000001002400008014000FFF0FF0C
:1052600033000300FF0FF000003003839AA800080A
:1052700025782025780A00001048806940F0100049
:105280000E4988610E48006820F47F000C490860D0
:105290000846006840F44C1008600846C06840F0BA
:1052A0003000C8600846006820F4700008600846B6
:1052B000006840F440100860704700000010024091
:1052C0000010014010B5322001F05EF901200B49B9
:1052D00008600B49C1F89001322001F055F9002017
:1052E0000649091F0860322001F04EF900200449E8
:1052F000C1F89401322001F047F910BD9401224217
:105300000000224270B500241848006820F47000A4
:10531000164908600846006840F400000860082547
:1053200015E0322001F030F90120114908606006D3
:10533000040E1048D0F8140108B1601CC4B2322029
:1053400001F022F900200A490860681EC5B2002D4C
:10535000E7DC0648006820F470000449086008464D
:10536000006840F440100860204670BD0010014005
:10537000900122420000224270B50446002500F050
:1053800023F8422000F054F8642001F0FDF8204694
:1053900000F04EF8642001F0F7F800F02FF86420D8
:1053A00001F0F2F800F010F8432000F041F864201A
:1053B00001F0EAF8FFF7A6FF0546FFF783FF00F0CC
:1053C0001DF8284670BD000010B50120094908608D
:1053D0000949C1F89001322001F0D6F800200549B2
:1053E0000860322001F0D0F800200349C1F8900194
:1053F00010BD0000940122420000224210B500209E
:1054000009490860322001F0BFF801200749C1F8BE
:105410009001322001F0B8F80120034908603220E1
:1054200001F0B2F810BD00009401224200002242B7
:1054300070B5044600261BE004F0800018B101207E
:105440002349086002E00020214908606006040E3C
:10545000322001F099F801201D49091F086032200F
:1054600001F092F800201B49C1F89001701CC6B2EF
:10547000082EE1DB1848006820F470001649086027
:105480000846006840F400000860322001F07CF813
:1054900001200F49091F0860322001F075F80D48FE
:1054A000D0F8140108B1012500E0002500200849CA
:1054B000091F08600848006820F470000649086069
:1054C0000846006840F440100860284670BD00009F
:1054D00094012242000022420010014070B50546AE
:1054E0000C460026FFF770FF4220FFF7A1FF00B136
:1054F0000126642001F048F82846FFF799FF00B123
:105500000126642001F040F82046FFF791FF00B12A
:105510000126FFF773FF304670BD000010B5012073
:1055200002490860FF2000F0ADF910BD8C01214256
:1055300070B5054601220021092000F0ECF904466F
:1055400024B91021284600F055F90446FFF7E6FF7C
:105550000CB1012070BD0020FCE770B505464FF688
:10556000FF7401E0601E84B2FF2000F08BF9A842B6
:1055700001D0002CF6D10CB9FF2070BD0020FCE753
:105580007FB56846FFF7D4FF10B1002004B070BDAE
:105590009DF8000000F0C000402809D19DF80900E6
:1055A0009DF8081000EB0120401C84B2A50220E009
:1055B0009DF8050000F00F009DF80A1000EBD110D7
:1055C0009DF8091001F0030100EB4100861C9DF8D5
:1055D000080080119DF8071000EB81009DF806106F
:1055E00001F0030100EB8120441CA6F1090004FA3C
:1055F00000F52846CAE70000F8B500F017F900F0FA
:105600004CF9002504E0FF2000F03CF9681C85B24D
:105610000A2DF8DB142600BF95220021084600F071
:105620007AF90446012C04D03000A6F101018EB2B3
:10563000F2D1002051490870012C4AD187224FF441
:10564000D571082000F067F9012847D1002506E050
:10565000FF2000F017F90DF80500681C85B2042D35
:10566000F6DB9DF80200012879D19DF80300AA28F5
:1056700075D14FF6FE7600BF01220021372000F0E1
:105680004AF901229107292000F045F9044624B186
:105690003000A6F101018EB2EED1002E5FD00122C2
:1056A00000213A2000F037F9002858D1002506E003
:1056B000FF2000F0E7F80DF80500681C85B2042D06
:1056C000F6DB9DF8000000F0400018B106202B49E1
:1056D000087044E004202949087040E001220021BC
:1056E000372000F018F901220021292000F013F9D9
:1056F0000446012C17DC0220204908704FF6FE7684
:1057000000BF01220021372000F005F9012200210D
:10571000292000F000F90446BCB13000A6F10101D7
:105720008EB2EED111E00120144908704FF6FE76DA
:1057300000BF01220021104600F0EDF8044624B11C
:105740003000A6F101018EB2F3D12EB10122510237
:10575000102000F0E0F810B1002008490870FFF7B1
:10576000DDFE00F095F80548007808B10020F8BD8E
:105770000CB12046FBE7AA20F9E70000300000202A
:105780002DE9F04106460F461546194800780628CF
:1057900000D07F02012D0CD101223946112000F0EA
:1057A000BAF80446FCB96902304600F023F8044612
:1057B00019E001223946122000F0ADF8044600BF7E
:1057C0004FF40071304600F015F8044606F50076F7
:1057D000681EC0B2050001D0002CF1D001220021CA
:1057E0000C2000F098F8FFF799FE2046BDE8F08104
:1057F0003000002070B504460D46FE20FFF7ADFED8
:1058000008B1012070BD04E0FF2000F073F92070A2
:10581000641C2800A5F101018DB2F5D1FF2000F034
:1058200031F8FF2000F02EF80020EBE710B510480B
:10583000806940F004000E4988610E4800680E49F6
:1058400008400C490860084600680C4908430949AB
:10585000086008480C30006840F01C0005490C3115
:10586000086000F0EDF801200549086010BD000057
:105870000010024000080140FF00F0FF0033030069
:105880008C01214210B50446204600F033F910BDCA
:1058900010B5002000F058F910BD10B5072000F039
:1058A00053F910BD10B500200549086000F06FF8ED
:1058B00008B9002010BDFFF731FE0120FAE7000013
:1058C0008C01214270B506460D4600F060F808B123
:1058D000012070BD2846FFF7D5FFFD2D19D000240B
:1058E00004E0305D00F006F9601C84B2B4F5007F7E
:1058F000F7DBFF20FFF7C6FFFF20FFF7C3FFFF2006
:10590000FFF7C0FF044604F01F00052801D0022065
:10591000DFE70020DDE72DE9F04105460C4617469C
:105920004FF00008FFF7FAFDFFF7BCFF10B1FF20B2
:10593000BDE8F08145F04000FFF7A4FF200EFFF71F
:10594000A1FFC4F30740FFF79DFFC4F30720FFF753
:1059500099FFE0B2FFF796FF3846FFF793FF0C2D53
:1059600002D1FF20FFF78EFF4FF01F0800BFFF207E
:10597000FFF788FF064606F0800030B15FEA0800B6
:10598000A8F1010101F0FF08F1D13046D0E710B5D0
:10599000002400BFFF20FFF775FFFF2801D1002082
:1059A00010BD641C6FF07F408442F3D30120F7E701
:1059B0002DE9F04106460F46154620480078062896
:1059C00000D07F02012D0CD1012239461820FFF7AB
:1059D000A2FF04466CBBFE213046FFF773FF04466E
:1059E00027E016480078012809D00122002137203D
:1059F000FFF791FF012229461720FFF78CFF0122B4
:105A000039461920FFF787FF044694B900BFFC21EF
:105A10003046FFF757FF044606F50076681EC0B211
:105A2000050001D0002CF2D0FD210020FFF74AFF35
:105A30000446FFF773FD2046BDE8F08130000020EA
:105A400000B52848806940F004002649886108466E
:105A5000806940F48050886123480068C0F31300D7
:105A60002149086008460068204908431E4908602B
:105A70001D480C30006840F0E0001B490C31086004
:105A80001B48008840F0010019490880084600883A
:105A900040F0020008800846008840F004000880BA
:105AA0000846008840F0380008800846008840F02A
:105AB000400008800846008808800846008840F4B6
:105AC000807008800846008840F40070088008460E
:105AD00000880880084600880880FF2000F00AF847
