:020000040800F2
:1000000030080020D11D0008990200089B0200085A
:100010009F020008A3020008A702000800000000D9
:10002000000000000000000000000000AB0200081B
:10003000AD02000800000000AF020008B102000895
:10004000EB1D0008EB1D0008EB1D0008EB1D000870
:10005000EB1D0008EB1D0008EB1D0008EB1D000860
:10006000EB1D0008EB1D0008EB1D0008EB1D000850
:10007000EB1D0008EB1D0008EB1D0008EB1D000840
:10008000EB1D0008EB1D0008EB1D0008EB1D000830
:10009000EB1D0008EB1D0008EB1D0008EB1D000820
:1000A000EB1D0008EB1D0008EB1D0008EB1D000810
:1000B000AD140008B505000887140008EB1D000802
:1000C000EB1D0008EB1D0008EB1D0008EB1D0008F0
:1000D000EB1D0008471D0008EB1D0008EB1D000884
:1000E0006D1B0008EB1D0008EB1D0008EB1D000850
:1000F000EB1D0008EB1D0008EB1D0008EB1D0008C0
:10010000EB1D0008EB1D0008D5050008EB1D0008DD
:10011000EB1D0008EB1D0008EB1D0008EB1D00089F
:10012000EB1D0008EB1D0008EB1D0008EB1D00088F
:1001300000F002F800F03AF80AA090E8000C8244BF
:100140008344AAF10107DA4501D100F02FF8AFF29C
:10015000090EBAE80F0013F0010F18BFFB1A43F0A5
:10016000010318475C4100007C410000103A24BFA5
:1001700078C878C1FAD8520724BF30C830C144BF0C
:1001800004680C607047000000230024002500264E
:10019000103A28BF78C1FBD8520728BF30C148BFEA
:1001A0000B6070471FB51FBD10B510BD03F0C3FB3A
:1001B0001146FFF7F7FF00F009F803F0E1FB03B485
:1001C000FFF7F2FF03BC01F063FD000001F0F6FC55
:1001D0004FF4A06002F09CF900F05CF901F0F4FB30
:1001E00001F074FC01F001FC24212348008801F097
:1001F000A3F824212148008801F0F0F848214FF4A9
:100200007A7000F0AAF901F041F801F071F901F0FB
:100210007EFB01F04BF801F082F840F2DC5001F077
:100220000AFD4FF4E15142F2107000F069F902202A
:1002300001F0CBFA12490860042001F0C6FA114916
:100240000860002001F0C1FA0F490860062001F0A3
:10025000BCFA0E4908600B48006809490968401A51
:100260000B4908600948006807490968401A0949AC
:10027000086000BFFEE70000740000207600002048
:10028000580000205C000020540000206000002086
:100290006C00002070000020704700BFFEE700BF28
:1002A000FEE700BFFEE700BFFEE7704770477047FC
:1002B000704700000CB50020019000906C48006869
:1002C00040F480306A49086000BF6948006800F463
:1002D000003000900198401C0190009818B90198D6
:1002E000B0F5A06FF1D16248006800F4003010B1A1
:1002F0000120009001E0002000900098012843D1E7
:100300005C48006840F010005A49086008460068E0
:1003100020F0030008600846006840F00200086012
:10032000534840685249486008464068486008465B
:10033000406840F4806048600846406820F47C10C3
:1003400048600846406840F4E81048600846006885
:1003500040F08070086000BF4548006800F0007001
:100360000028F9D04248406820F003004049486026
:100370000846406840F00200486000BF3C484068C2
:1003800000F00C000828F9D10CBD10B5FFF792FF62
:1003900010BD10B53648006840F0010034490860CF
:1003A00008464068344908403149486008460068BA
:1003B000324908402E4908600846006820F4802031
:1003C00008600846406820F4FE0048604FF41F00B3
:1003D0008860FFF7DAFF4FF000602949086010BD20
:1003E00010B5002100200022214B5B6803F00C01B6
:1003F00021B1042906D0082928D107E0214B224C3D
:10040000236027E01F4B204C236023E0184B5B68E0
:1004100003F47010164B5B6803F48032022303EB85
:10042000904022B9194B4343174C23600DE0104B09
:100430005B6803F4003323B1144B4343124C236035
:1004400003E0104B4343104C236003E00D4B0E4C74
:10045000236000BF00BF064B5B68C3F303130C4C63
:10046000E15C094B1B68CB40074C236010BD0000CA
:1004700000100240002002400000FFF8FFFFF6FEDF
:1004800008ED00E000127A008C00002000093D0019
:100490009000002008B50121102001F0D5FF4FF495
:1004A0008070ADF8000010208DF8030003208DF857
:1004B00002006946114801F00BFD4FF480710F48AE
:1004C00001F0B5FD4FF40070ADF8000069460B482F
:1004D00001F0FEFC4FF40071084801F0A8FD4FF454
:1004E0008060ADF800006946044801F0F1FC4FF46B
:1004F0008061024801F09BFD08BD00000010014032
:100500007FB505460C460121022001F0AAFFADF897
:100510000850ADF804400020ADF80A00ADF8060020
:1005200001A9524802F03AFB012211464F4802F05D
:10053000ACFE1D208DF8000000208DF80100032086
:100540008DF8020001208DF80300684601F0E5FFF8
:100550000121464802F07EFE7FBD7FB505460C4670
:100560000121082001F07DFFADF80850ADF80440EE
:100570000020ADF80A00ADF8060001A93C4802F0E1
:100580000DFB012211463A4802F07FFE32208DF821
:10059000000000208DF8010002208DF802000120EB
:1005A0008DF80300684601F0B8FF0121304802F0E1
:1005B00051FE7FBD10B501212C4803F014F940B164
:1005C00001212A4803F020F92A480068401C2949E3
:1005D000086010BD10B50121254803F004F900287A
:1005E00043D00121224803F00FF923480088234912
:1005F0000988884204DD204800880A381E4908809E
:100600001D4800881D490988884204DA1A48008874
:100610000A30194908801848008818490988884212
:1006200003D11648008814490880154800881549E8
:100630000988884204DD124800880A381049088079
:100640000F4800880F490988884204DA0C4800885E
:100650000A300B4908800A4800880A4909888842FC
:1006600003D1084800880649088010BD00040040F6
:10067000000C0040200000207400002078000020C2
:10068000760000207A00002008B50121182001F032
:10069000DBFE0820ADF8000001208DF802001020DC
:1006A0008DF803006946F94801F012FC1020ADF8FE
:1006B00000006946F54801F00BFC2020ADF8000071
:1006C0006946F24801F004FC4020ADF8000069469C
:1006D000EE4801F0FDFB8020ADF800006946EB48D4
:1006E00001F0F6FB08BD70B504462021E74801F093
:1006F0009EFC002516E08021E44801F098FC04F0FF
:10070000800020B14021E14801F08FFC03E040214E
:10071000DE4801F08CFC8021DC4801F086FC64009E
:10072000681CC5B2082DE6DB70BD70B504462021FB
:10073000D64801F07AFC002516E08021D34801F06C
:1007400076FC04F0800020B14021D04801F06DFC1F
:1007500003E04021CD4801F06AFC8021CB4801F044
:1007600064FC6400681CC5B2082DE6DB70BD002186
:1007700005E0002200E0521C6E2AFCDB491C81428D
:10078000F7DB704710B50821C04801F050FC10217C
:10079000BE4801F04CFC1420FFF7E9FF1021BB48D4
:1007A00001F043FC1420FFF7E2FFE220FFF79BFF7C
:1007B0000520FFF7DCFF2C20FFF795FF0520FFF752
:1007C000D6FF2E20FFF78FFF0520FFF7D0FF2F2049
:1007D000FFF789FF0520FFF7CAFF2320FFF783FFFC
:1007E0008120FFF780FF2F20FFF77DFFA220FFF77A
:1007F0007AFFC820FFF777FFA020FFF774FF4020A3
:10080000FFF771FFAF20FFF76EFF08219F4801F04F
:100810000CFC10BD70B505460C46641E05F1AF001A
:10082000FFF761FFC4F3031101F11000FFF75BFF55
:1008300004F00F00FFF757FF70BD70B50821934813
:1008400001F0F5FB002414E004F1B000FFF74BFFCA
:100850001020FFF748FF0020FFF745FF002504E0C8
:100860000020FFF762FF681CC5B2842DF8DB601C16
:10087000C4B2092CE8DB0821844801F0D6FB70BD26
:1008800070B504460821814801F0D1FB00250DE038
:100890000121681CFFF7BEFF002604E02078FFF767
:1008A00044FF641C761C802EF8D36D1C082DEFD3FA
:1008B0000821764801F0B9FB70BD2DE9F0410646EC
:1008C000884614460821714801F0B1FB00250DE06F
:1008D00070194146FFF79EFF002704E02078FFF7DC
:1008E00024FF641C7F1C102FF8D36D1C022DEFD346
:1008F0000821664801F099FBBDE8F0812DE9F0413F
:100900000646884614460821604801F090FB002501
:100910000DE070194146FFF77DFF002704E02078C5
:10092000FFF703FF641C7F1C082FF8D36D1C022DFA
:10093000EFD30821554801F078FBBDE8F0812DE99F
:10094000F04706460C46154606F1AF0000F0FF08DA
:1009500008214E4801F06BFB04F00F00401E00F030
:10096000FF09102000EB141A4046FFF7BCFE50466A
:10097000FFF7B9FE4846FFF7B6FE002704E02878E7
:10098000FFF7D3FE6D1C7F1C062FF8D308213F48CC
:1009900001F04BFBBDE8F0872DE9F04106460F461C
:1009A00015460821394801F042FB39463046FFF729
:1009B00031FF002409E0A5F12001354A052303FB9E
:1009C0000121085DFFF7B1FE641C052CF3D308215B
:1009D0002E4801F02AFBBDE8F0812DE9F0410746E1
:1009E0000E461546002408E02A5D04EB84008119B8
:1009F0003846FFF7D1FF601CC4B2285D0028F3D150
:100A0000BDE8F0812DE9FE4380460D4616460024E0
:100A10000027002000900190029000BF0BE00A2008
:100A2000B6FBF0F100FB11600DF804000A20B6FBE4
:100A3000F0F6601CC4B2002EF1D16CB904EB840056
:100A4000411930224046FFF7A7FF04EB84002844F9
:100A500010490870BDE8FE83601EC4B200BF1DF8D7
:100A600004003030C2B207EB870041194046FFF75F
:100A700093FF07EB8700284406490870781CC7B22B
:100A8000002C09DD601EC4B2E9E70000001001403F
:100A9000D8400008A000002000BFDBE770B5044686
:100AA0000821F94801F0C3FA04F1AF00FFF71BFE7B
:100AB0001020FFF718FE0020FFF715FE002504E0C8
:100AC0000020FFF732FE681CC5B2842DF8DB082138
:100AD000ED4801F0AAFA70BD2DE9FF5F82B00F4624
:100AE00015461E46DDF840B04FF0000A4FF00109F0
:100AF000BBF1000F1ED00022E44B2846314603F024
:100B0000C1F8CDE9000103F029F804466420B4FBE4
:100B1000F0F100FB11440A20B4FBF0F100FB11449A
:100B2000052C07D3DA4ADB4B2846314602F032FF68
:100B300005460E462846314602F0E0FF8046002278
:100B4000D54B2846314603F09DF8CDE9000103F06E
:100B500005F804460A20B4FBF0F100FB1144C2463C
:100B600006E009F1010000F0FF090A20BAFBF0FAE3
:100B7000BAF10A0FF5D2424639460298FFF742FF12
:100B8000052000FB09712E220298FFF705FF0520C2
:100B900000FB0970411D22460298FFF733FF06B0A3
:100BA000BDE8F09F2DE9FF5F82B00D4617469846DD
:100BB000DDF840B04FF0000A0126BBF1000F1FD056
:100BC0000022B64B3846414603F05CF8CDE90001FF
:100BD00002F0C4FF04464FF47A70B4FBF0F100FB5E
:100BE00011440A20B4FBF0F100FB1144052C07D39B
:100BF000AB4AAC4B3846414602F0CCFE074688462D
:100C00003846414602F07AFF814600229F4B384623
:100C1000414603F037F8CDE9000102F09FFF04469A
:100C20006420B4FBF0F100FB1144CA4604E0701CE0
:100C3000C6B20A20BAFBF0FABAF10A0FF7D24A4656
:100C400029460298FFF7DEFE052000FB06512E2202
:100C50000298FFF7A1FE0A2C11D2052000FB0650D6
:100C6000411D30220298FFF797FE052000FB065039
:100C700000F10A0122460298FFF7C4FE07E00520B2
:100C800000FB0650411D22460298FFF7BBFE06B04E
:100C9000BDE8F09F2DE9FF5F82B00C4617469846ED
:100CA000DDF840B04FF0000A0126BBF1000F1FD065
:100CB00000227D4B3846414602F0E4FFCDE90001B9
:100CC00002F04CFF054642F21070B5FBF0F100FB5C
:100CD00011550A20B5FBF0F100FB1155052D07D386
:100CE000724A734B3846414602F054FE0746884626
:100CF0003846414602F002FF81460022674B3846E3
:100D0000414602F0BFFFCDE9000102F027FF054692
:100D10004FF47A70B5FBF0F100FB1155CA4604E0C0
:100D2000701CC6B20A20BAFBF0FABAF10A0FF7D269
:100D30004A4621460298FFF765FE052000FB064162
:100D40002E220298FFF728FE0A2D11D2052000FB63
:100D50000640411D57A20298FFF73FFE052000FB09
:100D6000064000F10F012A460298FFF74BFE1BE0F8
:100D7000642D11D2052000FB0640411D302202984F
:100D8000FFF70AFE052000FB064000F10A012A4693
:100D90000298FFF737FE07E0052000FB0640411DE3
:100DA0002A460298FFF72EFE06B0BDE8F09F2DE917
:100DB000FF5F82B00C4617469846DDF840B04FF012
:100DC000000A0125BBF1000F1ED000223A4B384625
:100DD000414602F057FFCDE9000102F0BFFE064692
:100DE0003648B6FBF0F100FB11660A20B6FBF0F1C5
:100DF00000FB1166052E07D3314A324B3846414677
:100E000002F0C8FD074688463846414602F076FEA5
:100E100081460022244B3846414602F033FFCDE99B
:100E2000000102F09BFE064642F21070B6FBF0F1A4
:100E300000FB1166CA4604E0681CC5B20A20BAFB72
:100E4000F0FABAF10A0FF7D24A4621460298FFF7A4
:100E5000D9FD052000FB05412E220298FFF79CFDDD
:100E60000A2E33D2052000FB0540411D16A2029830
:100E7000FFF7B3FD052000FB054000F114013246E9
:100E80000298FFF7BFFD53E00010014000005940F9
:100E90009A9999999999B93F0000244000408F4050
:100EA0007B14AE47E17A843F0088C340FCA9F1D2AD
:100EB0004D62503F30300000006AF840A0860100CB
:100EC0002D431CEBE2361A3F30303000642E12D234
:100ED000052000FB0540411DAFF228020298FFF7F4
:100EE0007CFD052000FB054000F10F013246029811
:100EF000FFF788FD1CE0B6F57A7F11D2052000FBD4
:100F00000540411D30220298FFF746FD052000FBF9
:100F1000054000F10A0132460298FFF773FD07E031
:100F2000052000FB0540411D32460298FFF76AFD8F
:100F300006B0BDE8F09F2DE9F84F82460E461446F4
:100F40001D46DDF82890002213462046294602F06F
:100F500097FF0DD22B2231465046FFF71DFD22464A
:100F60002B46711D5046CDF80090FFF7B5FD1EE0F1
:100F7000002213462046294602F048FE0FD22D22B9
:100F800031465046FFF708FD85F0004327463A46B4
:100F9000711D5046CDF80090FFF79EFD07E02246F8
:100FA0002B4631465046CDF80090FFF795FDBDE841
:100FB000F88F2DE9F84F82460E4614461D46DDF89F
:100FC0002890002213462046294602F059FF0DD2F0
:100FD0002B2231465046FFF7DFFC22462B46711D7F
:100FE0005046CDF80090FFF7DDFD1EE000221346CD
:100FF0002046294602F00AFE0FD22D2231465046E5
:10100000FFF7CAFC85F0004327463A46711D50465B
:10101000CDF80090FFF7C6FD07E022462B4631468B
:101020005046CDF80090FFF7BDFDBDE8F88F2DE9E3
:10103000F84F82460E4614461D46DDF828900022E1
:1010400013462046294602F01BFF0DD22B223146C3
:101050005046FFF7A1FC22462B46711D5046CDF8A5
:101060000090FFF717FE1EE0002213462046294697
:1010700002F0CCFD0FD22D2231465046FFF78CFCFA
:1010800085F0004327463A46711D5046CDF8009042
:10109000FFF700FE07E022462B4631465046CDF8CA
:1010A0000090FFF7F7FDBDE8F88F2DE9F84F824675
:1010B0000E4614461D46DDF82890002213462046B1
:1010C000294602F0DDFE0DD22B2231465046FFF7B5
:1010D00063FC22462B46711D5046CDF80090FFF769
:1010E00066FE1EE0002213462046294602F08EFDD1
:1010F0000FD22D2231465046FFF74EFC85F00043BB
:1011000027463A46711D5046CDF80090FFF74FFE36
:1011100007E022462B4631465046CDF80090FFF7B7
:1011200046FEBDE8F88F2DE9FF5F8AB014461D46E4
:10113000DDF860804FF00009CA46CB4600200990D8
:10114000089000260127002213462046294602F077
:10115000D9FE524A524BCDE9060102F057FD11D299
:1011600022462B460020014602F0CCFE04460D46E6
:101170000998401C09902046294602F0BFFCC0F1A6
:10118000000A04E02046294602F0B8FC8246524696
:10119000DDE90A01FFF736FC2E2242480178491D9D
:1011A0000A98FFF7F9FB4FF0000904E007EB87000E
:1011B000470009F10109C145F8D3384602F012FD94
:1011C000CDE90401504602F0F6FC22462B46CDE95B
:1011D000000102F08BFECDE90201DDE9042302F0FB
:1011E00051FDCDE9060102F089FC8346CDF820B01F
:1011F00014E006EB86022B4800780A3011183022E2
:101200000A98FFF7C9FB089800EB8000400008909F
:10121000A8F10100B04200D806E0761C0A20B7FB16
:10122000F0F108988142E4D800BF06EB86021D4821
:1012300000780A3011185A460A98FFF7E3FB00209D
:10124000184908700EB0BDE8F09F70B506460C4610
:101250000821154800F0EBFE2546E11704EB51711B
:10126000C910C1F108003146FFF7D4FAE11704EBC9
:101270005171C910A4EBC102802141FA02F0FFF7BD
:1012800054FA0821084800F0D0FE70BD10B5FFF7F1
:10129000FBF9FFF777FAFFF7D0FA10BDF168E388A2
:1012A000B5F8E43EA00000200010014008B501217F
:1012B000042001F0C9F81020ADF800008DF80300FB
:1012C00003208DF8020069461A4800F001FE202034
:1012D000ADF800006946174800F0FAFD4020ADF86F
:1012E00000006946134800F0F3FD8020ADF80000CF
:1012F0006946104800F0ECFD08BD10B510210D48FE
:1013000000F095FE40210B4800F091FE2021094895
:1013100000F08DFE8021074800F089FE10BD10B559
:101320001021044800F081FE4021024800F07DFEBB
:1013300010BD00000008014030B589B005460C46DC
:101340000121042001F08DF80121082001F07CF832
:101350004020ADF8200018208DF8230003208DF8E0
:10136000220008A95B4800F0B3FDADF81850ADF8B5
:1013700014400020ADF81A00ADF8160005A9564833
:1013800001F00CFC6020ADF804000120ADF806006F
:101390000020ADF80A00ADF80C0001A94E4801F09C
:1013A0003AFC08214C4802F085F8012211469007CA
:1013B00001F06BFF1C208DF8000000208DF801006B
:1013C00001208DF802008DF80300684601F0A5F8B1
:1013D0000121414801F03EFF09B030BD30B589B070
:1013E00005460C460121084601F03BF80121042086
:1013F00001F02AF80220ADF8200018208DF8230013
:1014000003208DF8220008A9344800F061FDADF8F2
:101410001850ADF814400020ADF81A00ADF81600D1
:1014200005A94FF0804001F0B9FB6020ADF8040041
:101430000120ADF806000020ADF80A00ADF80C0060
:1014400001A94FF0804001F028FC0821C80602F0F5
:101450003AF801221146900701F017FF1C208DF881
:10146000000000208DF8010004208DF8020001200A
:101470008DF80300684601F050F80121880701F05B
:10148000E9FE09B030BD10B50121134802F0ABF9F7
:1014900058B10121104802F0B7F91148006820B195
:1014A00010480068401C0F49086010BD10B50121AC
:1014B000880702F098F958B10121880702F0A4F9D1
:1014C0000948006820B109480068401C07490860C5
:1014D00010BD0000000C0140000800400008014061
:1014E0007C0000203C000020800000204000002004
:1014F00008B50121082000F0A7FF4FF44060ADF8C7
:10150000000010208DF8030003208DF802006946CA
:101510009B4800F0DDFC4FF44061994800F085FDE8
:1015200008BD10B59648001D006820F4704094492D
:10153000091D08600846006840F44050086001201A
:10154000904908609049C1F8A801022000F04FFBC3
:1015500000208C490860022000F049FB00208A49E5
:10156000C1F8A80110BD10B58548001D006820F421
:1015700070408349091D08600846006840F44050E7
:10158000086000207F49091F08607F49C1F8AC014D
:10159000022000F02CFB01207A49091F08607A49DB
:1015A000C1F8AC01022000F022FB10BD10B50024F0
:1015B0007348001D006820F470407149091D0860DF
:1015C0000846006840F40040086001206D4908604A
:1015D00000F00DFB01206C49C1F8A80100F007FBE9
:1015E00007E0601CC4B2FA2C03DDFFF7BCFF01204A
:1015F00010BD6448803800680028F2D16149091F95
:10160000086000BFF4E710B500205E49091F0860BC
:101610005B48001D006820F470405949091D0860AE
:101620000846006840F44050086000205649C1F860
:10163000AC01022000F0DBFA01205249091F0860CA
:10164000022000F0D4FA00204F49C1F8A80110BDD3
:1016500010B500204B49091F08604948001D00686B
:1016600020F470404649091D08600846006840F4AF
:101670004050086001204449C1F8AC01022000F04C
:10168000B6FA01203F49091F0860022000F0AFFAB6
:1016900000203D49C1F8A80110BD70B50546384885
:1016A000001D006820F470403549091D0860084697
:1016B000006840F44050086000203249091F08606B
:1016C00000241EE005FA04F000F0800018B10120AB
:1016D0002C49086002E000202A490860022000F03E
:1016E00086FA01202749091F0860022000F07FFACE
:1016F00000202549C1F8A801022000F078FA601CFA
:10170000C4B2082CDEDB70BD70B5054600241C4851
:10171000001D006820F470401949091D0860084642
:10172000006840F40040086000261EE001201549D2
:10173000091F0860022000F05AFA01201249C1F87E
:10174000A8016006040E0F488038006808B1601CCC
:10175000C4B2022000F04BFA00200A49091F0860B9
:10176000022000F044FA701CC6B2082EDEDB15B968
:10177000FFF76EFF01E0FFF746FF204670BD000057
:10178000000C0140AC8121420080214270B5054629
:101790000C46FFF7C6FE5420FFF77FFFFFF706FF5A
:1017A0002846FFF77AFFFFF701FF2012FFF775FFCA
:1017B000FFF7FCFEE0B2FFF770FFFFF7F7FEFFF761
:1017C000D2FE0A2000F037FA70BD2DE9F041044640
:1017D000FFF7A7FE5420FFF760FFFFF7E7FE204664
:1017E000FFF75BFFFFF7E2FEFFF79BFE5520FFF7D9
:1017F00054FFFFF7DBFE0120FFF786FF06460020BF
:10180000FFF782FF074607EB062085B2FFF7ABFE26
:101810002846BDE8F08110B5002440F2D6410820EA
:10182000FFF7B4FF40F2D6410820FFF7AFFF40F2C8
:10183000D6410820FFF7AAFF40F2D6410820FFF763
:10184000A5FF0A211020FFF7A1FF0A211020FFF7B2
:101850009DFF0A211020FFF799FF0A211020FFF7B2
:1018600095FF41F202011420FFF790FF41F20201BF
:101870001420FFF78BFF41F202011420FFF786FFCF
:1018800041F202011420FFF781FF00211920FFF728
:101890007DFF00211920FFF779FF00211920FFF7B4
:1018A00075FF00211920FFF771FF4FF403711B2012
:1018B000FFF76CFF4FF403711B20FFF767FF4FF436
:1018C00003711B20FFF762FF4FF403711B20FFF72A
:1018D0005DFF4FF410411E20FFF758FF4FF41041F9
:1018E0001E20FFF753FF4FF410411E20FFF74EFF5D
:1018F0004FF410411E20FFF749FF0820FFF765FF56
:10190000044641F201411A20FFF740FF10BD10B517
:1019100040F2D6410820FFF739FF40F2D6410920B6
:10192000FFF734FF40F2D6410A20FFF72FFF40F2C5
:10193000D6410B20FFF72AFF0A211020FFF726FFD0
:101940000A211120FFF722FF0A211220FFF71EFFB4
:101950000A211320FFF71AFF41F202011420FFF7BA
:1019600015FF41F202011520FFF710FF41F20201BD
:101970001620FFF70BFF41F202011720FFF706FFC9
:1019800000211920FFF702FF4CF20C211B20FFF76A
:10199000FDFE4FF4E0411E20FFF7F8FE4FF4E0415A
:1019A0001F20FFF7F3FE4FF4E0412020FFF7EEFE8B
:1019B0004FF4E0412120FFF7E9FE41F201411A20F6
:1019C000FFF7E4FE10BD000008B50121082000F07B
:1019D0003BFD4FF46040ADF8000048208DF8030057
:1019E0006946374800F074FA08BD08B50121102097
:1019F00000F02AFD4FF48050ADF8000010208DF863
:101A0000030003208DF8020069462E4800F060FABA
:101A10004FF480512B4800F00AFB08BD10B5044676
:101A200014B10120284908702748007878B34FF492
:101A30000051234800F0DFFA58B14FF480412048AC
:101A400000F0D9FA28B14FF400411D4800F0D3FA54
:101A5000E8B90A2000F0EFF800201B4908704FF4A5
:101A60000051174800F0C7FA08B9012010BD4FF423
:101A70008041134800F0BFFA08B90220F6E74FF49E
:101A800000410F4800F0B7FAB8B90320EEE7FFE7CE
:101A90004FF400510A4800F0AEFA01280DD181033D
:101AA000074800F0A8FA012807D1C103044800F054
:101AB000A2FA012801D1044908700020D6E70000ED
:101AC000000C014000100140E10000200EB5012192
:101AD000084600F0B9FCFFF777FF0D21012000F068
:101AE0000DFB4FF40050019000208DF808000C20F1
:101AF0008DF8090001208DF80A0001A801F096FE7A
:101B00000E21012000F0FAFA4FF4804001900020ED
:101B10008DF808000C208DF8090001208DF80A00CE
:101B200001A801F083FE0F21012000F0E7FA4FF435
:101B30000040019000208DF808000C208DF809006D
:101B400001208DF80A0001A801F070FE28208DF810
:101B5000000002208DF8010000208DF80200012015
:101B60008DF80300684600F0D8FC0EBD10B50A20C1
:101B700000F061F84FF400510E4800F03CFA4FF4C9
:101B800080410C4800F037FA10B902200A49086079
:101B90004FF40041074800F02EFA4FF4005001F0D6
:101BA000BCFE4FF4804001F0B8FE4FF4004001F05D
:101BB000B4FE10BD000C01408800002010B56FF08D
:101BC000040000F0F4FC2E4800682E49B0FBF1F050
:101BD0002D4908700846007800EB4001C1EBC010A9
:101BE0004FF6FF7101EAC0002849088010BD014688
:101BF000254A12784A434FF0E0235A6100229A6145
:101C00001A46126942F001021A6100BF4FF0E02249
:101C1000106900F001021AB100F48032002AF5D0F8
:101C20004FF0E022126922F001024FF0E0231A6126
:101C300000229A6170470146144A12884A434FF0C5
:101C4000E0235A6100229A611A46126942F00102A9
:101C50001A6100BF4FF0E022106900F001021AB1D2
:101C600000F48032002AF5D04FF0E022126922F011
:101C700001024FF0E0231A6100229A6170470000D0
:101C80008C00002000127A00E2000020E400002016
:101C9000014600BF704700BF494A128802F0400267
:101CA000002AF9D0C2B2464B1B1D1A80704710B5EE
:101CB00086B00446012144F2040000F0C5FB4FF455
:101CC0000070ADF8140003208DF8160018208DF870
:101CD000170005A93B4800F0FBF84FF48060ADF811
:101CE000140004208DF8170005A9364800F0F0F81C
:101CF00025208DF8000003208DF801008DF80200EA
:101D000001208DF80300684600F007FC01940020D4
:101D1000ADF80800ADF80A00ADF80C00ADF8100001
:101D20000C20ADF80E0001A9254800F0A2FC01220C
:101D300040F22551224800F034FD0121204800F0F6
:101D400024FD06B010BD10B540F225511C4800F02E
:101D50000DFE10B31A4800F089FDC4B21A4800887D
:101D600000F40040C8B91848008800F4804060B111
:101D70000A2C03D000201449088020E01248008873
:101D800040F400401049088019E00D2C06D10E489F
:101D9000008840F480400C49088010E00A48008820
:101DA000C0F30D0009490C5407480088401C06493F
:101DB000088008460088C72801DD0020088010BD83
:101DC0000038014000080140EC0000200401002020
:101DD0000948804709480047FEE7FEE7FEE7FEE7BF
:101DE000FEE7FEE7FEE7FEE7FEE7FEE704480549FB
:101DF000054A064B704700009303000831010008B4
:101E00003002002030080020300400203004002080
:101E100010B50446CC48844208D10121042000F0CA
:101E20002DFB0021042000F029FB46E0C748844236
:101E300008D10121082000F021FB0021082000F03A
:101E40001DFB3AE0C248844208D10121102000F075
:101E500015FB0021102000F011FB2EE0BD4884424C
:101E600008D10121202000F009FB0021202000F0F2
:101E700005FB22E0B848844208D10121402000F04F
:101E8000FDFA0021402000F0F9FA16E0B348844240
:101E900008D10121802000F0F1FA0021802000F01B
:101EA000EDFA0AE0AE48844207D10121801500F026
:101EB000E5FA0021A01500F0E1FA10BD10B50121EE
:101EC000084600F0DBFA0021012000F0D7FA10BD2F
:101ED0002DE9F041024600250026002000230024C1
:101EE000002791F803C00CF00F0591F803C00CF027
:101EF000100CBCF1000F03D091F802C04CEA0505AC
:101F000091F800C0BCF1000F31D0146800202BE024
:101F10004FF0010C0CFA00F3B1F800C00CEA030614
:101F20009E4220D183004FF00F0C0CFA03F7BC4304
:101F300005FA03FC4CEA040491F803C0BCF1280F35
:101F400006D14FF0010C0CFA00FCC2F814C00AE0F4
:101F500091F803C0BCF1480F05D14FF0010C0CFA09
:101F600000FCC2F810C0401C0828D1D31460B1F89E
:101F700000C0BCF1FF0F34DD546800202EE000F1FA
:101F8000080C4FF0010808FA0CF3B1F800C00CEA95
:101F900003069E4221D183004FF00F0C0CFA03F789
:101FA000BC4305FA03FC4CEA040491F803C0BCF1FD
:101FB000280F05D100F1080C08FA0CF8C2F81480BB
:101FC00091F803C0BCF1480F07D100F1080C4FF0A5
:101FD000010808FA0CF8C2F81080401C0828CED37B
:101FE0005460BDE8F0814FF6FF71018002218170DD
:101FF0000421C17070470246002093680B400BB16A
:10200000012000E0002070470146886880B27047D8
:1020100002460020D3680B400BB1012000E00020F5
:1020200070470146C86880B27047016170474161DE
:1020300070470AB1016100E041617047C1607047BB
:102040004FF480320A4382618161826182698269D0
:10205000704702460020434B18684FF680731840C3
:1020600040EA021008433F4B186070473E49C86180
:102070007047F0B50A46002300240021002500F037
:102080000046B6F1004F02D1364EF16901E0354EFF
:102090007168C0F3034583B200F44016B6F5401FE3
:1020A00008D121F070612F4E766826F070662D4FB2
:1020B0007E6012E000F48016B6F5801F06D103267C
:1020C00006FA05F4A14341F0706106E0460D3601C1
:1020D00003FA06F6B14341F0706122B1460D3601B4
:1020E00003FA06F6314300F00046B6F1004F02D184
:1020F0001C4EF16101E01B4E7160F0BD30B5002255
:102100008B071C0F0F2303FA04F2164B08338C10B5
:1021100053F824309343134C08348D1044F8253081
:1021200023468C1053F824308C07240F00FA04F453
:1021300023430C4C08348D1044F8253030BD0A4937
:10214000DC3108607047000000080140000C0140CD
:10215000001001400014014000180140001C014023
:10216000002001400000014000002042DF480068DC
:1021700040F00100DD49086008464068DC4908403D
:10218000DA49486008460068DA490840D7490860DB
:102190000846006820F4802008600846406820F463
:1021A000FE0048604FF41F0088607047CF490968FF
:1021B00021F48031CD4A11601146096821F4802153
:1021C0001160B0F5803F03D0B0F5802F0ED106E04E
:1021D000C649096841F48031C44A116007E0C34927
:1021E000096841F4A021C14A116000E000BF00BFAE
:1021F000704710B501460022002300204A11012A31
:1022000002D1BA4C236806E0022A02D1B74C236AF5
:1022100001E0B64C636A01F01F02012494401C40A7
:102220000CB1012000E0002010BD38B50020009066
:102230000024002500BF3120FFF7DBFF0546009892
:10224000401C00900098B0F5A06F01D0002DF2D096
:102250003120FFF7CEFF08B1012400E00024204622
:1022600038BD01460020A14A106820F0F80040EA7D
:10227000C10010607047A049086070470246002006
:102280009A4B586820F47C1042EA01031843974B9C
:102290005860704798490866704701460020934A85
:1022A000506820F003000843506070478F48406832
:1022B00000F00C007047014600208C4A506820F066
:1022C000F00008435060704701460020874A50687C
:1022D00020F4E06008435060704701460020834AC4
:1022E000506820F4605040EAC1005060704729B146
:1022F0007E4A527A02437D4B5A7204E07B4A527AFC
:1023000082437A4B5A7270477B49D83108607047D4
:1023100001460020754A506820F440400843506050
:1023200070470021714A20321170704A82F82010E3
:10233000012802D004280AD104E001216B4A20328E
:10234000117005E00521694A2032117000E000BFDC
:1023500000BF70476949086070476449096A0143D2
:10236000624A11627047654944390860704730B568
:1023700000210022002400235C4D6D6805F00C0153
:1023800021B1042905D0082923D105E05C4D056061
:1023900022E05B4D05601FE0544D6D6805F470123E
:1023A000524D6D6805F48034022505EB92421CB94C
:1023B000544D554305600BE04C4D6D6805F40035F8
:1023C0001DB1504D5543056002E04D4D554305602C
:1023D00002E04B4D056000BF00BF444D6D6805F045
:1023E000F0010909484D6B5C0568DD4045603F4DD3
:1023F0006D6805F4E061090A434D6B5C4568DD409A
:1024000085603A4D6D6805F46051C90A3E4D6B5CBC
:102410004568DD40C560354D6D6805F44041890B68
:102420003A4D6B5CC568B5FBF3F5056130BD29B16C
:102430002E4A526902432D4B5A6104E02B4A5269DD
:1024400082432A4B5A61704729B1284A9269024354
:10245000264B9A6104E0254A92698243234B9A6194
:10246000704729B1214AD2690243204BDA6104E066
:102470001E4AD26982431D4BDA61704729B11B4A5B
:10248000D2680243194BDA6004E0184AD2688243EA
:10249000164BDA60704729B1144A12690243134B94
:1024A0001A6104E0114A12698243104B1A617047A5
:1024B00012494039086070470F49C86470470B499A
:1024C000C87170470948406A40F080700749486207
:1024D000704701460020054A92680A400AB101206F
:1024E00000E00020704701498872704700100240E8
:1024F0000000FFF8FFFFF6FE000042428004424267
:1025000000127A0000093D00EE000020FE000020CD
:1025100031490143314A1160704770B500210023F1
:102520000F22C47804B32D4C246804F4E064C4F58D
:10253000E064210AC1F10403CA40447804FA03F1BB
:102540008478144021430901254C0678A15504786C
:1025500004F01F050124AC4005786D11AD0005F1B4
:10256000E025C5F8004109E0047804F01F050124C6
:10257000AC401C4D0678761145F8264070BD1A4ACD
:102580000A400243154B1B1F1A60704739B1134AAA
:10259000121D12680243114B1B1D1A6006E00F4A00
:1025A000121D126882430D4B1B1D1A6070470428D0
:1025B00008D14FF0E021096941F004014FF0E02219
:1025C000116107E04FF0E021096921F004014FF0AB
:1025D000E0221161704700000000FA050CED00E0F8
:1025E00000E400E080E100E080FFFF1F10B504463A
:1025F000FB48844209D101218803FFF73FFF0021F6
:102600004FF48040FFF73AFF32E0F648844209D1A8
:1026100001214804FFF73FFF00214FF40030FFF78E
:102620003AFF25E0F048844209D101218804FFF7F0
:1026300032FF00214FF48020FFF72DFF18E0EB4818
:10264000844209D10121C804FFF725FF00214FF47E
:102650000020FFF720FF0BE0E548844208D101216C
:102660000805FFF718FF00214FF48010FFF713FF54
:1026700010BD2DE9F04786B005460E460024A2465F
:1026800000BFA1460027B08900B100BF2F462C8AA9
:102690004CF6FF700440F08804432C82AC894EF65F
:1026A000F3100440B088318908437189084304431A
:1026B000AC81AC8A4FF6FF400440B0890443AC8241
:1026C00001A8FFF754FEC648874202D1DDF810A0EA
:1026D00001E0DDF80CA0A88900F4004040B10AEB4D
:1026E000CA0000EB0A1031684900B0FBF1F807E0BE
:1026F0000AEBCA0000EB0A1031688900B0FBF1F860
:102700006420B8FBF0F004012009642101FB10896A
:10271000A88900F4004040B1322000EBC900B0FBB2
:10272000F1F000F00700044308E0322000EB09104C
:102730006421B0FBF1F000F00F0004432C8106B0DF
:10274000BDE8F0874FF41651016000218180C180FF
:1027500001810C21418100218181704710B5024621
:102760000020108A4FF2FF0318400B884C88234347
:102770008C882343CC8823431843108210BD00214A
:10278000018041808180C180704721B1828942F4FB
:102790000052828104E082894DF6FF731A408281E3
:1027A0007047F0B50346002400260025002040F6BF
:1027B0006A17B94200D100BF1846C1F3421401F0B4
:1027C0001F06012707FA06F5012C01D10C3004E0A1
:1027D000022C01D1103000E014301AB107682F43E9
:1027E000076002E00768AF430760F0BD1AB1838A53
:1027F0000B43838202E0838A8B4383827047028A81
:102800004FF6F0731A400282028A0A43028270472E
:1028100082894FF2FF731A40828182890A43828142
:10282000704721B1828942F00202828104E08289EC
:102830004FF6FD731A4082817047028A4FF6DF73AC
:102840001A400282028A0A430282704721B1028A38
:1028500042F48042028204E0028A4BF6FF731A407F
:1028600002827047C1F3080282807047014688885F
:10287000C0F308007047818941F0010181817047F0
:10288000028BD2B20283028B42EA0122028370479A
:10289000028B02F47F420283028B0A430283704759
:1028A00021B1828A42F02002828204E0828A4FF6BD
:1028B000DF731A408282704721B1828A42F010028F
:1028C000828204E0828A4FF6EF731A408282704758
:1028D00021B1828A42F00802828204E0828A4FF6A5
:1028E000F7731A408282704721B1828942F4004214
:1028F000828103E08289C2F30E028281704721B196
:10290000828A42F40062828204E0828A4FF2FF737C
:102910001A4082827047828A4FF6FB731A40828285
:10292000828A0A438282704721B1828A42F002027F
:10293000828204E0828A4FF6FD731A4082827047D9
:1029400002460020B1F5007F00D100BF13880B4084
:102950000BB1012000E00020704701F40072B2F5D5
:10296000007F00D100BFCA430280704770B50246A5
:10297000002400230025002040F66A16B14200D151
:1029800000BFC1F3421501F01F03012606FA03F34D
:10299000012D02D19689334006E0022D02D1168A1C
:1029A000334001E0968A33400C12012606FA04F403
:1029B0001688344013B10CB1012000E0002070BD36
:1029C00010B50022002340F66A14A14200D100BFD6
:1029D0000A1201249440A3B2DC43048010BD00001D
:1029E000003801400044004000480040004C0040D6
:1029F0000050004010B50446FE48844208D1012131
:102A0000C014FFF73BFD0021E014FFF737FDC4E0E1
:102A1000B4F1804F08D101210846FFF73CFD0021A9
:102A20000120FFF738FDB8E0F348844208D10121C6
:102A30000220FFF730FD00210220FFF72CFDACE063
:102A4000EE48844208D101210420FFF724FD002133
:102A50000420FFF720FDA0E0E948844208D10121CD
:102A60000820FFF718FD00210820FFF714FD94E06F
:102A7000E448844208D101211020FFF70CFD002119
:102A80001020FFF708FD88E0DF48844208D10121CB
:102A90002020FFF700FD00212020FFF7FCFC7CE058
:102AA000DA48844208D101214014FFF7E7FC0021F5
:102AB0006014FFF7E3FC70E0D548844209D101219E
:102AC000C804FFF7DBFC00214FF40020FFF7D6FC21
:102AD00063E0D048844209D101210805FFF7CEFC0C
:102AE00000214FF48010FFF7C9FC56E0CA48844229
:102AF00009D101214805FFF7C1FC00214FF4001066
:102B0000FFF7BCFC49E0C548844208D101214020C0
:102B1000FFF7C1FC00214020FFF7BDFC3DE0C048AD
:102B2000844208D101218020FFF7B5FC00218020DC
:102B3000FFF7B1FC31E0BB48844208D10121801588
:102B4000FFF7A9FC0021A015FFF7A5FC25E0B6487A
:102B5000844209D101210804FFF790FC00214FF4C1
:102B60008030FFF78BFC18E0B048844209D1012186
:102B70004804FFF783FC00214FF40030FFF77EFC90
:102B80000BE0AB48844208D101218804FFF776FCB2
:102B900000214FF48020FFF771FC10BD0022028855
:102BA000944B98420ED0994B98420BD0B0F1804F85
:102BB00008D0914B984205D0904B984202D0904B50
:102BC000984204D14FF68F731A404B881A438D4BAD
:102BD000984207D08C4B984204D04FF6FF431A40DE
:102BE000CB881A4302808B8883850B880385814BB1
:102BF00098420BD0854B984208D08B4B984205D019
:102C00008A4B984202D08A4B984201D10B7A0386B4
:102C100001238382704770B5002400220023058CB5
:102C20004FF6FE7635400584028C8388048B4FF680
:102C30008F752C40B51E2C400D882C43751E2A40E4
:102C40000D892A434D882A436A4DA8420BD06F4D07
:102C5000A84208D0744DA84205D0744DA84202D0B5
:102C6000734DA84213D14FF6F7752A404D892A4378
:102C70004FF6FB752A408D882A434FF6FF652B409F
:102C80004FF6FF552B408D892B43CD892B438380F5
:102C90000483CD888586028470BD70B5002400222F
:102CA0000023058C4FF6EF7635400584028C83882F
:102CB000048B48F6FF752C404FF6FF452C400D88DD
:102CC0004FF6FF7606EA05252C434FF6DF752A40BE
:102CD0000D8906EA05152A434D8806EA05152A439B
:102CE000444DA84202D0494DA8421DD14FF67F75F0
:102CF0002A404D894FF6FF7606EA05152A434FF61E
:102D0000BF752A408D8806EA05152A434FF6FF3520
:102D10002B404FF2FF752B408D8906EA85052B432A
:102D2000CD8906EA85052B4383800483CD880587FA
:102D3000028470BD70B5002400220023058C4FF67C
:102D4000FF6635400584028C8388848B4FF68F752F
:102D50002C404FF6FC752C400D882C434FF6FF5548
:102D60002A400D894FF6FF7606EA05252A434D884D
:102D700006EA05252A431F4DA84202D0234DA8424A
:102D80001DD14FF2FF752A404D894FF6FF7606EAB6
:102D900005252A434FF6FF352A408D8806EA05258A
:102DA0002A434EF6FF752B404DF6FF752B408D895B
:102DB00006EA05152B43CD8906EA05152B438380CA
:102DC0008483CD888587028470BD70B5002200237E
:102DD0000024058C4EF6FF7635400584038C8488EC
:102DE000828B48F6FF752A404FF6FF452A400D8832
:102DF00020E00000002C01400004004000080040DA
:102E0000000C00400010004000140040003401405D
:102E1000004C0140005001400054014000180040A7
:102E2000001C0040002000400040014000440140E0
:102E3000004801404FF6FF7606EA05252A434DF685
:102E4000FF752B400D8906EA05352B434D8806EAB0
:102E500005352B43FA4DA84202D0FA4DA84208D1BD
:102E60004BF6FF752C408D894FF6FF7606EA8515E7
:102E70002C4384808283CD88A0F84050038470BDA9
:102E8000828B4FF2FF331A408283828B4FF6FF739F
:102E900003EA01231A4382837047F0B50C461546B6
:102EA000002200210026078C4EF6FF7C07EA0C0763
:102EB0000784828B018C4FF6FF7707EA043640F6D1
:102EC000FF473A404FF6FF7707EA05273A434FF6A8
:102ED000FF7707EA03373A43D94FB8420ED0D94FAC
:102EE000B8420BD0B0F1804F08D0D74FB84205D0D0
:102EF000D64FB84202D0D64FB84206D14DF6FF7732
:102F0000394046F48057394305E047F6FF573940CA
:102F100044F48057394382830184F0BD828B4FF69D
:102F2000F3731A408283828B0A4382837047F0B521
:102F30000C461546002200210026078C4FF6FF6C38
:102F400007EA0C070784828B018C4FF6FF7707EAAC
:102F500004264FF60C773A404FF6FF7707EA03173F
:102F60002F433A43B64FB8420ED0B64FB8420BD0BB
:102F7000B0F1804F08D0B44FB84205D0B34FB8423B
:102F800002D0B34FB84206D14FF6FF57394046F44E
:102F90008077394305E04FF2FF57394044F480779A
:102FA000394382830184F0BD028B4FF2FF331A4014
:102FB0000283028B4FF6FF7303EA01231A43028355
:102FC0007047F0B50C461546002200210026078CFC
:102FD0004FF6EF7C07EA0C070784028B018C4FF653
:102FE000FF7707EA041640F6FF473A404FF6FF77AF
:102FF00007EA03373A434FF6FF7707EA05273A43D4
:103000008F4FB8420ED08F4FB8420BD0B0F1804FE7
:1030100008D08D4FB84205D08C4FB84202D08C4FAB
:10302000B84206D14FF6DF77394046F010073943F2
:1030300005E04FF65F77394044F0100739430283CB
:103040000184F0BD028B4FF6F3731A400283028BAA
:103050000A4302837047F0B50C4615460022002152
:10306000068C4FF6FE773E400684028B018C4FF6AD
:103070000C7632407E1C06EA03162E433243704E15
:10308000B0420ED06F4EB0420BD0B0F1804F08D09E
:103090006D4EB04205D06D4EB04202D06C4EB04283
:1030A00006D14FF6FD76314044F00106314305E08C
:1030B0004FF6F576314044F0010631430283018436
:1030C000F0BD70B505460C465D4885420ED05D48A2
:1030D00085420BD0B5F1804F08D05B48854205D0C2
:1030E0005A48854202D05A48854200D100E000BFCC
:1030F000208850B92389A28861882846FFF7ABFF52
:10310000E1882846FFF79EFF25E0208804280AD1A1
:103110002389A28861882846FFF753FFE188284663
:10312000FFF742FF17E0208808280AD12389A288E8
:1031300061882846FFF7FBFEE1882846FFF7EEFE90
:1031400009E02389A28861882846FFF7A6FEE18866
:103150002846FFF795FE70BD2DE9F04105460C4667
:1031600000260127608808B9022600E00026A08812
:10317000012801D1022700E001272088A0B9238976
:10318000A28861882846FFF766FFE1882846FFF796
:1031900059FF23893A4631462846FFF712FFE18856
:1031A0002846FFF701FF13E02389A288618828469B
:1031B000FFF707FFE1882846FFF7F6FE23893A4626
:1031C00031462846FFF747FFE1882846FFF73AFFD8
:1031D000BDE8F0810A884B881A438B881A43CB8854
:1031E0001A430B891A434B891A438B891A43A0F857
:1031F000442070474FF6FF71818000210180C1801B
:103200004180017270470021018041808180C1802E
:10321000018141818181C18170470021018041800C
:10322000012181800021C18001817047002101803E
:1032300041808180C180018141818181704700008E
:10324000002C014000340140000400400008004010
:10325000000C004021B1028842F00102028004E02B
:1032600002884FF6FE731A400280704731B1B0F801
:10327000442042F40042A0F8442005E0B0F8442085
:10328000C2F30E02A0F8442070471AB183890B43A1
:10329000838102E083898B438381704781827047F9
:1032A00041EA0203A0F8483070471AB183890B4302
:1032B000838102E083898B438381704701894FF6C4
:1032C000F8721140018170470A46002101894FF6CA
:1032D0008F73194011430181704730B504460D4684
:1032E00029462046FFF7F0FF208940F007002081A3
:1032F00030BD2DE9F04104460D4616461F46602DAF
:1033000006D13B46012231462046FFF75AFE05E032
:103310003B46012231462046FFF79DFE29462046C6
:10332000FFF7D2FF208940F007002081BDE8F0813F
:1033300030B50C4600210189C9B24FF6FF7505EA88
:103340000325154325432943018130BD2DE9F04173
:1033500005460E4617469846002443463A463146EF
:103360002846FFF7E5FF2C894FF6F870044044F03B
:1033700007044FF68F70044044F070042C81BDE8C0
:10338000F081F0B504460D4616461F463B463246D0
:1033900029462046FFF7CCFF208940F48040208159
:1033A000F0BD0185828270470A46002101884FF6F0
:1033B0008F731940114301807047F0B50C461546D4
:1033C0001E460021002200230189028B038C4FF648
:1033D000F877394021434FF6FC473A4040F2011755
:1033E0003A434FF6DD773B404FF6FF7707EA061783
:1033F0002F433B43018102830384F0BD0A46002131
:10340000018B4FF68F7319401143018370470A46B1
:103410000021018B48F6FF7319404FF6FF7303EA52
:1034200002231943018370470A460021818B4FF61E
:103430008F7319401143818370470A460021818BA5
:1034400048F6FF7319404FF6FF7303EA022319434E
:103450008183704721B1028842F08002028004E03B
:1034600002884FF67F731A400280704721B182882C
:1034700042F00402828004E082884FF6FB731A4017
:103480008280704721B1828842F00802828004E085
:1034900082884FF6F7731A408280704721B1828884
:1034A00042F00102828004E082884FF6FE731A40E7
:1034B000828070470A460021018B4FF6F77319404E
:1034C0001143018370470A460021018B4FF2FF73BD
:1034D00019404FF6FF7303EA022319430183704733
:1034E0000A460021818B4FF6F773194011438183FF
:1034F00070470A460021818B4FF2FF7319404FF647
:10350000FF7303EA02231943818370470A460021AF
:10351000018B4FF6FB7319401143018370470A4634
:103520000021018B4FF6FF3319404FF6FF7303EA7A
:1035300002231943018370470A460021818B4FF60D
:10354000FB7319401143818370470A460021818B28
:103550004FF6FF3319404FF6FF7303EA0223194376
:10356000818370470A460021018B4FF67F73194013
:103570001143018370470A460021018BC1F30E01FC
:103580004FF6FF7303EA02231943018370470A468B
:103590000021818B4FF67F7319401143818370475F
:1035A0000A460021818BC1F30E014FF6FF7303EA37
:1035B00002231943818370470A460021018C4FF68C
:1035C000FD7319401143018470470A460021018CA4
:1035D0004FF6F77319401143018470470A460021E2
:1035E000018C4FF6DF7319404FF6FF7303EA0213A5
:1035F0001943018470470A460021018C4FF67F73FE
:1036000019404FF6FF7303EA021319430184704710
:103610000A460021018C4FF6FF5319404FF6FF7305
:1036200003EA02231943018470470A460021018CF2
:103630004FF2FF7319404FF6FF7303EA0223194359
:10364000018470470A460021018C4DF6FF73194032
:103650004FF6FF7303EA023319430184704730B514
:10366000002301248C40A3B2048C9C430484048C6A
:1036700002FA01F5ADB22C43048430BD30B500230D
:1036800004248C40A3B2048C9C430484048C02FA6E
:1036900001F5ADB22C43048430BD70B50346002063
:1036A00000241846183001258D40ACB21D8CA5436E
:1036B0001D8409B1082909D100EB6100056825F0D6
:1036C000700505600568154305600EE00D1FC5F324
:1036D0004E052844056825F4E045056005684FF669
:1036E000FF7606EA02263543056070BD21B10288E7
:1036F00042F00202028004E002884FF6FD731A4095
:103700000280704721B1028842F00402028004E086
:1037100002884FF6FB731A400280704721B18288FD
:1037200042F08002828004E082884FF67F731A4064
:103730008280704702884FF6F7731A400280028831
:103740000A430280704782884FF68F731A40828046
:1037500082880A438280704702894FF6F8731A40C4
:10376000028102890A430281704702894FF67F7302
:103770001A40028102890A4302817047818470479E
:1037800081857047818670470187704781877047C0
:10379000A0F84010704702884FF6FF431A4002809D
:1037A00002880A43028070470146888E70470146AE
:1037B000088F70470146888F70470146B1F8400076
:1037C00070470146888C70470146088D7047024655
:1037D0000020138A0B400BB1012000E0002070474D
:1037E000CA430282704730B50246002000230024FD
:1037F000158A05EA0103958905EA010413B10CB1A4
:10380000012000E0002030BDCA4302827047000062
:10381000002044490860091D0860091D0860091D51
:10382000086041483F4914310860704700213D4914
:103830008279002A3AD00A46126803689A430B46F6
:103840001A600A1D126803689A430B1D1A600279F8
:1038500011440A6803681A430A60324A083212683F
:1038600003689A432F4B08331A601A1D12680368C5
:103870009A432C4B0C331A604279102A0ED11A1F2E
:10388000126803681A43274B08331A601A1D12681E
:1038900003681A43234B0C331A600DE02149427927
:1038A00011440A6803681A430A6005E0027911446A
:1038B0000A6803689A430A60704700210160017139
:1038C0000C2141710021817170471649103109683E
:1038D0000143144A10321160704701460020114A1A
:1038E000143212680A400AB1012000E0002070473B
:1038F0000C49143108607047014600200022094B32
:103900001B6803EA0102074B14331B680B4013B119
:103910000AB1012000E0002070470249143108601C
:103920007047000000040140FFFF0F007047704720
:10393000704770477047754600F028F8AE4605009E
:103940006946534620F00700854618B020B5FEF7BB
:103950004DFABDE820404FF000064FF000074FF051
:1039600000084FF0000B21F00701AC46ACE8C0099D
:10397000ACE8C009ACE8C009ACE8C0098D467047A6
:103980000446AFF300802046FCF719FC004870475E
:10399000CC01002010B591EA030F48BF83F000432B
:1039A00000F1B882841A71EB030C05D2121943EBB3
:1039B0000C03001B61EB0C01DFF824E14FEA11540A
:1039C000A4EB135C1EEA430F18BF9EEA445F73D05A
:1039D00023EA0E03DCF1200E21EA045143F48013A4
:1039E00032D322FA0CFE10EB0E0023FA0CFE41EB50
:1039F0000E01CCF1200E03FA0EFE10EB0E0051F179
:103A00000001B1F5801FCCF1200E32D201EB045140
:103A100012FA0EF2BDE8104058BF7047401C38BF84
:103A20005FEA420218BF7047002814BF20F001006F
:103A300041F100014FEA410313F5001F38BF704701
:103A4000A1F1C04100F016BA012A43EB0302ACF128
:103A5000200CDCF11F0E32BF4FF0000E23FA0CF3E6
:103A600010EB030041EB0451B4EB115FD0D0A1EB9C
:103A7000045101F5801149085FEA300001EB04515F
:103A80000ED350F1000038BF12FA0EFE08D1BDE887
:103A90001040C9E7401C38BF5FEA4202CAD1C3E701
:103AA000BDE810404FEA410313F5001F38BF7047CF
:103AB000A1F1C04100F0DEB99EEA445F08D011EAEE
:103AC0005E0FBDE8104004BF01F0004100207047C8
:103AD000BDE8104070B500F07FF900BF64FBBE3E4A
:103AE0000000E0FF491058BFC1F140415B1058BFD2
:103AF000C3F140438B42EFF3008070474FEA41032C
:103B00004FEA5353A3F58063D3F11E03C8BFD3F12B
:103B1000210C0CDD4FF0004242EAC12242EA505231
:103B200032FA03FC8CEAE17CACEBE1707047102BBD
:103B3000C4BF0020704703F5787CBCF1FF3F04D080
:103B40006FF0004282EA2100704770B500F044F93E
:103B50004992248000207047F2E700004FEA115399
:103B6000A3F58063D3F11E03A8BFD3F1200C08DBBB
:103B70004FF0004242EAC12252EA505232FA03F0B8
:103B8000704709420BD4102BC4BF0020704703F5C7
:103B9000787CBCF1FF3F05D04FF0FF3070474FF00D
:103BA0000000704770B500F017F900BF49922480FB
:103BB00000207047F0E710F0004248BF4042B0FAE2
:103BC00080F310FA03F10AD0C3F11D0303F58063FB
:103BD0004FEA415002EB035202EBD12170474FF004
:103BE00000007047B0FA80F310FA03F10AD0C3F175
:103BF0001D0303F580634FEA41504FEA035202EB85
:103C0000D12170474FF000007047000051EA030CCB
:103C100017D41CF5801F58BFBCF5801F00F106802B
:103C2000994218BF704708BF9042704707D711F5F7
:103C3000801F58BF13F5801F19D4994270478942DD
:103C400070471CF5801F08D5BCF5801FF7D58B4247
:103C500018BF704708BF824270474FF4001C1CEB2E
:103C6000410F38BF1CEB430F01D28B42704770B538
:103C700000F0B2F8922449004FF000514FF0805309
:103C8000FFF730BFDFF848C170B51CEA111E1EBF38
:103C90001CEA13159EEA0C0F95EA0C0F00F06F80DA
:103CA00081EA030423EA4C134EEAD47E21EA4C1144
:103CB00041F4801143F48013AE44A1FB024CA0FBFD
:103CC0000365AEF17F7E361955EB0C05A1FB034C65
:103CD0004CF10003A0FB021C16EB0C06654153F1EE
:103CE0000003094218BF46F0010613F4007F0BD110
:103CF0004FEA03314FEA0530340341EA155140EAF7
:103D000016506FF003020AE04FEAC3214FEAC520C4
:103D1000F40241EA555140EA56506FF0020202EBBC
:103D20002E4201EB025585EACE710AD05FEA440CBF
:103D300018BF24F0004450F1000041F1000120EAD6
:103D4000D47040F2FE7C624500D270BDA84214BF20
:103D50004FF080444FF04044002E08BF0024BEF1D5
:103D6000806FA8BFA1F1C041BDE8704080F28280A1
:103D70004FF0000001F1C04101F0004170479EEAA0
:103D80000C0F0CEA131518BF95EA0C0F06D04FF074
:103D9000000081EA030E0EF0004170BD00F01CF837
:103DA0008900013E00F007B800F009B84FEA430C63
:103DB0005FEA5C5C08D081EA030100F05BB84FEA7F
:103DC000410C5FEA5C5CF6D14FF00000014970479E
:103DD0000000FF070000F87F0EF1020E2EF0030E28
:103DE0005EF8046B364205D4012A43EB030515F552
:103DF000001F12D8012841EB010C1CF5001F0CD844
:103E00000ED14FEAD17C15F5001F0CEB4C0C0CF1D8
:103E1000020C08BF4CEBD37C04E04FF0080C01E02F
:103E20004FEAD37C0CEB4C0526FA05F606F00706A4
:103E3000B6F1040C06D20EEB860CBDE870404CF0D7
:103E4000010C6047DFE80CF0090B02024FF0004163
:103E50004FF00000A1F5002170BD19461046012861
:103E600051EB010418BFD4F5001484BF002001F009
:103E7000004170BD0808A0F500114FEA31017047FC
:103E800053EA010C17D41CF5801F58BFBCF5801FE6
:103E900000F106808B4218BF704708BF824270470E
:103EA00007D713F5801F58BF11F5801F19D48B4217
:103EB00070479B4270471CF5801F08D5BCF5801FDA
:103EC000F7D5994218BF704708BF904270474FF42A
:103ED000001C1CEB430F38BF1CEB410F01D2994271
:103EE00070470FB40CBC03BCFFF7C1BE91EA030FCF
:103EF00010B581F000413FF555AD83F0004300F06F
:103F000009B8000010B591EA030F48BF83F00043E1
:103F10003FF548AD841A71EB030C07D212198CF0EF
:103F2000004C43EB0C03001B61EB0C01DFF8A4E138
:103F30004FEA1154A4EB135C1EEA430F18BF9EEA2C
:103F4000445F00F0B08023EA6E03524221EA04513C
:103F5000C3EB6E0338BF5B1EDCF1200E25D322FAC3
:103F60000CFE10EB0E0043FA0CFE41EB0E01CCF1FF
:103F7000200E03FA0EFE10EB0E0051F10001CCF101
:103F8000200E29D412FA0EF201EB0451BDE81040C4
:103F900058BF7047401C1CBFB2F1004F704700284B
:103FA0000CBF491C20F00100704712EB020E43EBDE
:103FB000030218BF4FF0010E4EEA4202ACF1200C92
:103FC000DCF11E0E54D943FA0CFE10EB0E0051F139
:103FD000FF31CCF11E0ED5D50EF1010E12FA0EFEF8
:103FE000404141EB010101EB445C5FEA5C5C10D9AC
:103FF00010EBDE7001EB045138BFBEF1004FBDE89D
:10400000104018BF704700280CBF491C20F0010069
:10401000704730D24FEAD42C11F5001124F400641B
:104020001BD0B1FA81F20B3AA41AA41ED2F12003DC
:10403000914030FA03F31943904001EBCC71002C0E
:1040400001EB0451BDE81040A8BF704701F1C04129
:104050004FF0000001F000417047B0FA80F310FA11
:1040600003F100D110BDE41A173C4805C90AE4E782
:1040700001EB045110BD491001EB0451BDE81040A3
:104080004FEA300002E04FF0000170474A0008BFDD
:104090000042F8D0B2F5001F28BF704701F0004180
:1040A0004FF0000070479EEA445F07D011EA5E0FB0
:1040B000BDE8104004BF002100207047BDE810405B
:1040C00070B5FFF789FE00BF40DFF63E83F0004188
:1040D000104670470000E0FF000000000000005F95
:1040E00000000007000700147F147F14242E7B2A91
:1040F000122313086462364956205000040301005D
:10410000001C2241000041221C0022147F142208BE
:10411000087F080840301000000808080808006000
:1041200060000020100804023E5149453E00427FD5
:10413000400062514949462141494D331814127FCC
:104140001027454545393C4A494931017109050364
:104150003649494936464949291E0036360000404D
:1041600036360000081422410014141414140041BF
:1041700022140802015905023E415D555E7C121170
:10418000127C7F494949363E414141227F414141AC
:104190003E7F494949417F090909013E4151517218
:1041A0007F0808087F00417F41002040413F017F98
:1041B000081422417F404040407F020C027F7F0470
:1041C00008107F3E4141413E7F090909063E4151A9
:1041D000215E7F09192946264949493201017F019B
:1041E000013F4040403F1F2040201F7F2018207F7C
:1041F0006314081463030478040361514945437F41
:104200007F41410002040810200041417F7F0402E9
:104210007F0204081C2A08080000010204245454E8
:1042200038407F28444438384444440838444428BB
:104230007F3854545408087E09090298A4A4A4782D
:104240007F08040478000079000000808879007FEE
:104250001028444000417F400078047804780478B6
:104260000404783844444438FC24242418182424B2
:1042700024FC04780404084854545424043F44445F
:10428000243C40403C401C2040201C3C403C403CE6
:1042900044281028449CA0A0907C4464544C4408BA
:1042A0003641000000007700000000413608060992
:1042B0000906000804081008552A552A5500000070
:1042C000E042000800000020040100006C0100082A
:1042D000E4430008040100202C07000088010008C6
:1042E0006E6F772074696D65000064697374616E28
:1042F00063650000737065656400000000000000E5
:1043000000000000000000000000000000000000AD
:10431000000000000000000000000000000000009D
:10432000000000000000000000000000000000008D
:10433000000000000000000000000000000000007D
:10434000000000000000000000000000000000006D
:1043500000000000D007D007E803E80300000000D9
:1043600000000000000000000100000000A24A045C
:104370000000000000000000010203040607080915
:104380000000FE8242A29E8A82868AB26202FE00FB
:1043900000007F40407F40404040407F40407F00E1
:1043A00000808080BFA5A5A53FA5A5A5BF80808072
:1043B000007F24243F24247F007F24243F24247F63
:1043C00000010000000000000000000000000000EC
:1043D00000000102030401020304060708090204A5
:0443E00006080000CB
:0400000508000131BD
:00000001FF
