:020000040800F2
:10000000B0070020CD0100081D060008B505000856
:1000100019060008E902000893100008000000001B
:1000200000000000000000000000000009090008B6
:100030000D03000800000000910600081D0A0008DA
:10004000E7010008E7010008E7010008E7010008F0
:10005000E7010008E7010008E7010008E7010008E0
:10006000E7010008E7010008E7010008E7010008D0
:10007000E7010008E7010008E7010008E7010008C0
:10008000E7010008E7010008E7010008E7010008B0
:10009000E7010008E7010008E7010008E7010008A0
:1000A000E7010008E7010008E7010008E701000890
:1000B000E7010008810A0008C50B0008E7010008F5
:1000C000E7010008E7010008E7010008E701000870
:1000D000E7010008510D0008750D0008990D000892
:1000E000E7010008E7010008E7010008E701000850
:1000F000E7010008E7010008E7010008E701000840
:10010000E7010008E7010008E7010008E70100082F
:10011000E7010008E7010008E7010008E70100081F
:10012000E7010008E7010008E7010008E70100080F
:1001300000F002F800F03AF80AA090E8000C8244BF
:100140008344AAF10107DA4501D100F02FF8AFF29C
:10015000090EBAE80F0013F0010F18BFFB1A43F0A5
:1001600001031847901C0000B01C0000103A24BF87
:1001700078C878C1FAD8520724BF30C830C144BF0C
:1001800004680C607047000000230024002500264E
:10019000103A28BF78C1FBD8520728BF30C148BFEA
:1001A0000B6070471FB51FBD10B510BD00F038F8CB
:1001B0001146FFF7F7FF01F0BBF900F056F803B462
:1001C000FFF7F2FF03BC01F055F800000948804733
:1001D00009480047FEE7FEE7FEE7FEE7FEE7FEE729
:1001E000FEE7FEE7FEE7FEE704480549054A064B41
:1001F00070470000210A000831010008B00100200A
:10020000B0070020B0030020B00300207047704703
:100210007047704770470000004870475001002049
:100220007546FFF7F9FFAE4605006946534620F0D4
:100230000700854618B020B5FFF7D6FFBDE820407F
:100240004FF000064FF000074FF000084FF0000B92
:1002500021F00701AC46ACE8C009ACE8C009ACE845
:10026000C009ACE8C0098D4670470446AFF3008072
:100270002046FFF7A4FF000008B50121302000F060
:1002800029FA4FF4A840ADF8000010208DF80300C3
:1002900003208DF802006946114800F038F84FF449
:1002A000A040ADF8000010208DF8030003208DF869
:1002B000020069460B4800F02AF84FF48070ADF850
:1002C00000006946064800F022F84FF480610448B7
:1002D00000F0B3F84FF48051024800F0AEF808BDCA
:1002E00000140140000C014000BFFEE70146002061
:1002F00000BF02E000220A54401C6328FADD0022FD
:10030000014B1A8070470000D400002070472DE98F
:10031000F04102460025002600200023002400278B
:1003200091F803C00CF00F0591F803C00CF0100C0D
:10033000BCF1000F03D091F802C04CEA050591F81A
:1003400000C0BCF1000F31D0146800202BE04FF04A
:10035000010C0CFA00F3B1F800C00CEA03069E424F
:1003600020D183004FF00F0C0CFA03F7BC4305FAC1
:1003700003FC4CEA040491F803C0BCF1280F06D139
:100380004FF0010C0CFA00FCC2F814C00AE091F81E
:1003900003C0BCF1480F05D14FF0010C0CFA00FC72
:1003A000C2F810C0401C0828D1D31460B1F800C0B6
:1003B000BCF1FF0F34DD546800202EE000F1080C82
:1003C0004FF0010808FA0CF3B1F800C00CEA03067C
:1003D0009E4221D183004FF00F0C0CFA03F7BC436F
:1003E00005FA03FC4CEA040491F803C0BCF1280FA1
:1003F00005D100F1080C08FA0CF8C2F8148091F845
:1004000003C0BCF1480F07D100F1080C4FF0010800
:1004100008FA0CF8C2F81080401C0828CED35460AB
:10042000BDE8F0810246002093680B400BB101202B
:1004300000E0002070474161704701617047000093
:1004400008B50121202000F045F92020ADF800007A
:1004500028208DF8030003208DF802006946024829
:10046000FFF755FF08BD00000014014010B5044619
:100470004FF480510C48FFF7DEFF4FF480410A48EB
:10048000FFF7DBFF4FF480710848FFF7D6FF2046E7
:1004900000F0A4FF4FF480710448FFF7CCFF204622
:1004A00000F09CFF10BD0000000C01400014014052
:1004B00010B504464FF480510C48FFF7BCFF4FF4D1
:1004C00080410A48FFF7B7FF4FF480710848FFF7F3
:1004D000B4FF204600F082FF4FF480710448FFF71C
:1004E000AAFF204600F07AFF10BD0000000C01407A
:1004F0000014014008B50121502000F0EBF8042061
:10050000ADF8000028208DF8030003208DF80200CC
:1005100069460648FFF7FBFE4FF40040ADF80000C7
:1005200069460348FFF7F3FE08BD000000180140CC
:100530000010014010B504464FF480610C48FFF7ED
:100540007AFF4FF480510A48FFF775FF4FF480415E
:100550000748FFF772FF204600F040FF4FF480414C
:100560000348FFF768FF204600F038FF10BD000089
:100570000014014010B504464FF480610C48FFF7A9
:100580005AFF4FF480510A48FFF757FF4FF480415C
:100590000748FFF752FF204600F020FF4FF480414C
:1005A0000348FFF748FF204600F018FF10BD000089
:1005B0000014014000BFFEE708B50121042000F04F
:1005C00089F80120ADF8000048208DF80300694645
:1005D0000148FFF79CFE08BD0008014008B5012155
:1005E000082000F077F86020ADF8000010208DF8AA
:1005F000030003208DF8020069460648FFF787FED6
:1006000020210448FFF717FF40210248FFF713FF9E
:1006100008BD0000000C014000BFFEE7704700006D
:1006200070B5002100230F22C47804B3154C246850
:1006300004F4E064C4F5E064210AC1F10403CA4093
:10064000447804FA03F184781440214309010E4CE4
:100650000678A155047804F01F050124AC40057804
:100660006D11AD0005F1E025C5F8004109E0047801
:1006700004F01F050124AC40044D0678761145F8BE
:10068000264070BD0CED00E000E400E080E100E0F9
:100690007047000029B1064AD2690243044BDA616F
:1006A00004E0034AD2698243014BDA6170470000DB
:1006B0000010024029B1064A12690243044B1A6134
:1006C00004E0034A12698243014B1A61704700003B
:1006D0000010024029B1064A92690243044B9A6114
:1006E00004E0034A92698243014B9A61704700001B
:1006F0000010024029B1064AD2680243044BDA6076
:1007000004E0034AD2688243014BDA60704700007C
:100710000010024030B500210022002400232D4D9E
:100720006D6805F00C0121B1042905D0082923D1F9
:1007300005E0294D056022E0274D05601FE0254DAD
:100740006D6805F47012234D6D6805F48034022540
:1007500005EB92421CB9214D554305600BE01D4D40
:100760006D6805F400351DB11C4D5543056002E070
:10077000194D5543056002E0174D056000BF00BFED
:10078000144D6D6805F0F0010909154D6B5C0568A5
:10079000DD4045600F4D6D6805F4E061090A104DBC
:1007A0006B5C4568DD4085600A4D6D6805F46051FD
:1007B000C90A0B4D6B5C4568DD40C560054D6D6831
:1007C00005F44041890B074D6B5CC568B5FBF3F53B
:1007D000056130BD0010024000127A0000093D00A2
:1007E000D8000020E800002010B54148007801281A
:1007F00079D100203F49086007E0C82001F028F8BF
:100800003C480068401C3B4908603A48006840F694
:10081000B8318842F1DB0020364908600EE06420E0
:10082000FFF7A8FE04213448FFF7FCFD012800D1A2
:100830000AE030480068401C2E4908602D480068D6
:1008400042F210718842EADB00BF002029490860AB
:1008500007E06420FFF76EFE26480068401C25492B
:10086000086024480068C828F3DB0020214908609C
:100870000EE06420FFF7FAFD20212048FFF7D2FDAB
:10088000012800D10AE01B480068401C1949086093
:100890001848006847F230518842EADB00BF002068
:1008A0001449086007E06420FFF702FE1148006861
:1008B000401C104908600F48006840F6B831884273
:1008C000F1DB05200E4908704FF480710D48FFF7E9
:1008D000B4FD04210B48FFF7B0FD10210748FFF7D6
:1008E000ACFD03E0FFE7C82000F092FF10BD000060
:1008F0004200002054000020001801400014014074
:100900003800002000200140704710B500F002F8C8
:1009100010BD00000CB50020019000903348006825
:1009200040F480303149086000BF3048006800F46E
:10093000003000900198401C0190009818B901986F
:10094000B0F5A06FF1D12948006800F4003010B173
:100950000120009001E0002000900098012843D180
:100960002348006840F010002149086008460068EC
:1009700020F0030008600846006840F002000860AC
:100980001A48406819494860084640684860084667
:10099000406840F4806048600846406820F47C105D
:1009A00048600846406840F4E8104860084600681F
:1009B00040F08070086000BF0C48006800F00070D4
:1009C0000028F9D00948406820F003000749486032
:1009D0000846406840F00200486000BF0348406895
:1009E00000F00C000828F9D10CBD000000100240F6
:1009F00000200240042808D14FF0E021096941F0AD
:100A000004014FF0E022116107E04FF0E021096995
:100A100021F004014FF0E02211617047704700009F
:100A200010B51348006840F00100114908600846FD
:100A30004068104908400E494860084600680E4961
:100A400008400B4908600846006820F480200860D0
:100A50000846406820F4FE0048604FF41F0088609C
:100A6000FFF753FF4FF000600449086010BD00001D
:100A7000001002400000FFF8FFFFF6FE08ED00E066
:100A800010B50121294800F0F6F800284DD00121C9
:100A9000264800F0E1F880212548FFF7C3FC012833
:100AA00006D12449087000202349086023490860C2
:100AB00040212348FFF7B6FC01280BD102201D4935
:100AC000087001201F4908701F4908601A49086012
:100AD0001A4908604FF480611C48FFF7A3FC012805
:100AE00001D11B4908704FF480411848FFF79AFC68
:100AF000012808D102201649087001201549087004
:100B00000220154908604FF400411448FFF78AFCA1
:100B1000012802D103201249086004210848FFF788
:100B200081FC012801D10E49086010BD000400407D
:100B3000001C014040000020480000204C00002024
:100B40000018014041000020B400002000200140B6
:100B50003C00002042000020500000200010014016
:100B60009C0000207FB505460C4601210220FFF7BE
:100B700091FDADF80850ADF804400020ADF80A0032
:100B8000ADF8060001A90E4800F090F801221146C8
:100B90000B4800F081F81D208DF8000000208DF832
:100BA000010003208DF8020001208DF80300684643
:100BB000FFF736FD0121024800F051F87FBD00002B
:100BC0000004004010B50121094800F054F868B154
:100BD0000121074800F040F806480068032805DBBB
:100BE00004480068072801DA00F084FE10BD000008
:100BF00000080040380000207FB505460C46012162
:100C00000420FFF747FDADF80850ADF80440002080
:100C1000ADF80A00ADF8060001A90E4800F046F84C
:100C2000012211460B4800F037F81E208DF8000015
:100C300000208DF8010003208DF8020001208DF8BE
:100C400003006846FFF7ECFC0121024800F007F8BA
:100C50007FBD000000080040CA430282704721B1F6
:100C6000028842F00102028004E002884FF6FE731F
:100C70001A400280704730B502460020002300244D
:100C8000158A05EA0103958905EA010413B10CB13F
:100C9000012000E0002030BD1AB183890B4383811D
:100CA00002E083898B438381704700000022028821
:100CB0001D4B98420ED01D4B98420BD0B0F1804F87
:100CC00008D01B4B984205D01A4B984202D01A4BC1
:100CD000984204D14FF68F731A404B881A43174B32
:100CE000984207D0164B984204D04FF6FF431A4063
:100CF000CB881A4302808B8883850B8803850A4B37
:100D000098420BD0094B984208D00E4B984205D020
:100D10000D4B984202D00D4B984201D10B7A0386BD
:100D20000123838270470000002C01400034014001
:100D30000004004000080040000C0040001000408B
:100D400000140040004001400044014000480140C0
:100D500010B540F22551054800F0DAF828B10348F3
:100D600000F092F9C4B20248047010BD003801408E
:100D7000EC00002010B540F22551054800F0C8F8FD
:100D800020B1034800F080F90249087010BD00004E
:100D900000440040CE00002010B540F225512B4801
:100DA00000F0B6F800284FD0284800F06DF9C4B222
:100DB0002748007800F0010058B3452C0ED10020E0
:100DC000244908802248007820F00100204908705A
:100DD0000846007840F00200087035E01D480088A1
:100DE00063280FDC1C481B490988445419480088B3
:100DF000401C184908801648007840F0100014493B
:100E0000087021E01248007840F004001049087092
:100E100010BD532C18D10E48007800F0100040B1DE
:100E20000D48FFF763FA0A48007820F010000849DF
:100E300008700748007840F001000549087008462E
:100E4000007820F00200087000BFE1E70048004091
:100E5000D7000020D4000020EC00002021B18289BE
:100E600042F40052828104E082894DF6FF731A40F9
:100E70008281704710B504462048844209D101217F
:100E80008803FFF737FC00214FF48040FFF732FC66
:100E900032E01B48844209D101214804FFF70AFCD3
:100EA00000214FF40030FFF705FC25E0154884428F
:100EB00009D101218804FFF7FDFB00214FF48020B8
:100EC000FFF7F8FB18E01048844209D10121C8045B
:100ED000FFF7F0FB00214FF40020FFF7EBFB0BE0E6
:100EE0000A48844208D101210805FFF7E3FB0021ED
:100EF0004FF48010FFF7DEFB10BD0000003801400A
:100F00000044004000480040004C004000500040B9
:100F100070B50246002400230025002040F66A1622
:100F2000B14200D100BFC1F3421501F01F030126F9
:100F300006FA03F3012D02D19689334006E0022D13
:100F400002D1168A334001E0968A33400C12012602
:100F500006FA04F41688344013B10CB1012000E005
:100F6000002070BDF0B503460024002600250020B7
:100F700040F66A17B94200D100BF1846C1F34214C7
:100F800001F01F06012707FA06F5012C01D10C30EC
:100F900004E0022C01D1103000E014301AB10768CF
:100FA0002F43076002E00768AF430760F0BD000011
:100FB0002DE9F04786B005460E460024A24600BF44
:100FC000A1460027B08900B100BF2F462C8A4CF6FD
:100FD000FF700440F08804432C82AC894EF6F31075
:100FE0000440B08831890843718908430443AC81C7
:100FF000AC8A4FF6FF400440B0890443AC8201A89C
:10100000FFF788FB1F48874202D1DDF810A001E0FE
:10101000DDF80CA0A88900F4004040B10AEBCA003A
:1010200000EB0A1031684900B0FBF1F807E00AEB69
:10103000CA0000EB0A1031688900B0FBF1F86420A7
:10104000B8FBF0F004012009642101FB1089A88994
:1010500000F4004040B1322000EBC900B0FBF1F0D9
:1010600000F00700044308E0322000EB091064217F
:10107000B0FBF1F000F00F0004432C8106B0BDE896
:10108000F08700000038014001468888C0F308005E
:10109000704700BFFEE7000010B551480068012806
:1010A00078D15048006828BB00204F49086008E00C
:1010B0004FF4C87000F04AFC4B480068401C4A4995
:1010C000086049480068B0F5FA6FF1DB0020464936
:1010D000086007E0C82000F0BBFB43480068401CE4
:1010E0004149086040480068B0F57A7FF2DB012092
:1010F0003C490860502000F05BFE3C480068012835
:101100006DD100203849086007E0502000F034FE1F
:1011100035480068401C344908603348006844F68C
:1011200020618842F1DB00202F4908600EE0642036
:10113000FFF720FA04212E48FFF774F9012800D1A7
:1011400009E029480068401C2749086026480068D3
:1011500028498842EBDB00BF00202349086007E0F4
:101160006420FFF7E7F920480068401C1E4908602A
:101170001D480068C828F3DB00201B4908600FE009
:101180006420FFF773F920211B48FFF74BF9012872
:1011900001D10BE020E014480068401C12490860AF
:1011A0001148006847F230518842E9DB00BF002057
:1011B0000D49086007E06420FFF77AF90A480068E3
:1011C000401C0949086008480068B0F57A6FF2DBF6
:1011D00001200A49086002E0C82000F019FB10BD98
:1011E00042000020B8000020BC000020B400002015
:1011F00000180140A08601000014014038000020C2
:1012000010B54FF400611648FFF717F9154800684C
:1012100020B91548006800F01BFB07E01148006882
:10122000012803D11048006800F0F2FA0D48006868
:10123000022813D100200D49086008E00A48006820
:1012400000F006FB09480068401C08490860074890
:1012500000686428F2DB03200549086010BD000027
:10126000001001403C000020C4000020C00000200D
:1012700038000020014600BF7047000000200B49E5
:1012800008700B4908600B4908600B4908600B495E
:1012900008600B4908700B4908700B4908600B493E
:1012A00008600B4908600B49086070474200002045
:1012B000B8000020B40000209C0000203C0000206A
:1012C0004000002041000020440000204800002091
:1012D0004C0000205000002010B54FF4006117486A
:1012E000FFF7ABF81648006818B9C82000F0B0FA4C
:1012F00022E013480068012803D1C82000F088FAD2
:101300001AE00F480068022816D100200D49086035
:1013100007E0C82000F09CFA0A480068401C094910
:10132000086008480068B0F5FA7FF2DB0120064942
:10133000087000200249086010BD00000010014044
:101340003C000020640000204100002010B56FF038
:101350000400FFF74FFB0A4800680A49B0FBF1F0B0
:10136000094908700846007800EB4001C1EBC01045
:101370004FF6FF7101EAC0000449088010BD00006B
:101380001000002000127A00C8000020CA000020CF
:101390000146114A12884A434FF0E0235A61002265
:1013A0009A611A46126942F001021A6100BF4FF0B9
:1013B000E022106900F001021AB100F48032002A24
:1013C000F5D04FF0E022126922F001024FF0E02345
:1013D0001A6100229A617047CA0000200146114A32
:1013E00012784A434FF0E0235A6100229A611A466C
:1013F000126942F001021A6100BF4FF0E022106949
:1014000000F001021AB100F48032002AF5D04FF04A
:10141000E022126922F001024FF0E0231A6100225B
:101420009A617047C800002010B53C48006830B190
:10143000012808D0022828D003286CD148E0642075
:10144000FFF798F867E000203549086015E0334859
:101450000068012802D16420FFF708F820213148F4
:10146000FEF7E0FF012803D102202C4908600AE0C2
:101470002B480068401C2A4908602948006847F248
:1014800030518842E3DB00BF00BF002024490860E0
:1014900017E0CD20FFF70CF800202349086007E093
:1014A0009620FFF747F820480068401C1E49086056
:1014B0001D4800680228F3DB19480068401C1849E1
:1014C000086017480068194909688842E1DB22E092
:1014D00000201349086017E0C320FEF7C7FF002073
:1014E0001149086007E09620FFF744F80E480068AD
:1014F000401C0D4908600C4800680228F3DB0848CE
:101500000068401C064908600548006807490968EA
:101510008842E1DB00BF00BF10BD00009C0000203E
:10152000AC00002000140140B0000020A00000200A
:10153000FFF70CFFFFF752F8FFF73EF800F084FAD0
:1015400020219F48FEF777FF40219D48FEF773FF5B
:1015500000F0F4FB00F046F900F0B6F9FEF7CAFF20
:10156000FEF76EFFFEF788FE00F092F9472142F287
:101570000F70FFF7F7FA472141F28730FFF73CFB86
:101580004FF4165000F0B8FA4FF49670FFF700FFD2
:1015900015E18C4800788C4908708C48007889499E
:1015A0000870894800780978884218D00120884955
:1015B000086001028748FEF740FF04218548FEF7D6
:1015C0003CFF10218448FEF738FF4FF480618248C9
:1015D000FEF733FF4FF480517948FEF72EFF79482C
:1015E0000078012806D0022842D003287CD00428A5
:1015F0003DD196E079480078092837D2DFE800F03D
:1016000005080E11171A2A2D3300FFF745FD2DE0AE
:10161000FFF734FE02207149087027E0FFF7F0FD64
:1016200024E0FFF72BFE04206C4908701EE0FFF752
:10163000DBF81BE0FFF722FE0620684908704FF434
:1016400080616548FEF7F9FE4FF480515C48FEF773
:10165000F4FE0BE000F0A8FA08E0FFF70FFE082008
:101660005E49087002E0FFF7DFFE00BF00BFA5E0A3
:101670005748006830B1FFF701FE00205449086068
:101680005649087055480078092840D2DFE800F034
:1016900005080E12181C2D313700FFF7FDFC36E04F
:1016A000FFF7ECFD02204D49087030E003204B4964
:1016B00008702CE0FFF7E2FD04204849087026E09E
:1016C00005204649087022E0FFF7D8FD062043496F
:1016D00008704FF480614048FEF7AFFE4FF4805130
:1016E0003748FEF7AAFE12E013E007203B490870D6
:1016F0000DE0FFF7C3FD08203849087007E04FF4FC
:1017000000613748FEF797FEFFF78EFE00BF00BF6F
:1017100054E04FF400613248FEF78DFE00F0DEF930
:101720004CE02B48006858B1FFF7A8FD4FF400616A
:101730002B48FEF780FE00202549086027490870E5
:1017400026480078092837D2DFE800F005080E1295
:10175000181C2C303300FFF79FFC2DE0FFF78EFDA7
:1017600002201E49087027E003201C49087023E06E
:10177000FFF784FD0420194908701DE00520174972
:10178000087019E0FFF77AFD0620144908704FF43D
:1017900080611148FEF751FE4FF480510848FEF772
:1017A0004CFE09E007200D49087005E0FFF766FDD3
:1017B00002E000F093F900BF00BF00BF00BFE8E601
:1017C000000C01400000002001000020CE0000209D
:1017D0000C000020002001400014014038000020CF
:1017E0000010014008B501210802FEF773FF4FF415
:1017F0008840ADF8000028208DF8030003208DF804
:10180000020069460148FEF782FD08BD0020014044
:1018100010B504464FF480710B48FEF70CFE802192
:101820000A48FEF708FE4FF400710848FEF705FE6F
:101830002046FFF7D3FD4FF400710448FEF7FBFD8F
:101840002046FFF7CBFD10BD0020014000100140F5
:1018500010B504464FF480710B48FEF7ECFD802173
:101860000A48FEF7EAFD4FF400710848FEF7E5FD6F
:101870002046FFF7B3FD4FF400710448FEF7DBFD8F
:101880002046FFF7ABFD10BD0020014000100140D5
:1018900008B501211020FEF71DFF4FF40060ADF8E0
:1018A000000010208DF8030003208DF80200694627
:1018B0000448FEF72CFD4FF400610248FEF7BBFD23
:1018C00008BD00000010014008B501218020FEF78E
:1018D00001FF0820ADF8000028208DF80300032048
:1018E0008DF8020069460248FEF711FD08BD0000B0
:1018F000001C014010B5642000F044F80821104895
:10190000FEF790FD012801D10E4908600D480068DE
:10191000012813D100200C49086008E04FF4C8707A
:1019200000F014F808480068401C074908600648A1
:1019300000680228F2DB00200249086010BD0000A8
:10194000001C0140880000208C00002010B50446D7
:1019500010210B48FEF76FFD04210948FEF76BFDCF
:1019600001210748FEF769FD2046FFF737FD0121F9
:101970000348FEF760FD2046FFF730FD10BD000074
:101980000014014070B5054610210E48FEF753FDC6
:1019900004210C48FEF751FD01210A48FEF74DFDD8
:1019A000002400E0641CB4F57A7FFBDB01210548CC
:1019B000FEF741FD002400E0641CB4F57A7FFBDBF8
:1019C00070BD00000014014010B500201A490860E5
:1019D0000CE0C820FFF73CFF4FF400611748FEF70A
:1019E0002CFD15480068401C134908601248006827
:1019F000134909688842ECDB4FF47A70FFF7C8FCA2
:101A00004FF4FA70FFF7C4FC00200E4908600CE0A8
:101A1000C820FFF7FDFE4FF400610848FEF70DFDFA
:101A200008480068401C07490860064800680449E7
:101A300009688842ECDB10BD5C000020001001400A
:101A4000580000206000002008B5012140F2351048
:101A5000FEF740FE4FF42070ADF8000010208DF826
:101A6000030003208DF8020069461948FEF74FFC79
:101A70004FF48070ADF8000069461648FEF747FC49
:101A80005420ADF8000010208DF8030003208DF8DD
:101A9000020069460F48FEF73AFC1520ADF8000039
:101AA00010208DF8030003208DF8020069460A48D3
:101AB000FEF72DFC4FF480710648FEF7BEFC0421B2
:101AC0000448FEF7BAFC10210348FEF7B6FC08BD37
:101AD00000100140002001400014014010B54FF4F7
:101AE00080710448FEF7A7FC4FF480410148FEF7DF
:101AF000A2FC10BD0014014010B586B004460121BF
:101B00000420FEF7E7FD01214804FEF7C3FD244849
:101B1000FFF7B0F90420ADF8140018208DF8170075
:101B200003208DF8160005A91E48FEF7F0FB0820DB
:101B3000ADF8140004208DF8170003208DF816006E
:101B400005A91848FEF7E3FB26208DF800000320C6
:101B50008DF801008DF8020001208DF80300684621
:101B6000FEF75EFD01940020ADF80800ADF80A0014
:101B7000ADF80C00ADF810000C20ADF80E0001A976
:101B80000748FFF715FA012240F225510448FFF7F4
:101B9000E9F901210248FFF761F906B010BD000024
:101BA000004400400008014010B54FF40061574860
:101BB000FEF743FC5648007818B9322000F0F8F8D8
:101BC000A2E05348007801286AD1524800680128F1
:101BD00014D100205049086007E0C82000F0CCF87C
:101BE0004D480068401C4C4908604B4800684B4910
:101BF00009688842F1DB00204649086048480078BF
:101C0000022819D100204449086007E0C82000F0EC
:101C1000B3F841480068401C3F4908603E480068EE
:101C20003E4909688842F1DB3E4800683B49096843
:101C300008443C49086024E039480078012820D154
:101C400000203949086007E0C82000F0B1F83648A4
:101C50000068401C34490860334800682F4909680F
:101C60008842F1DB2F4800682C490968401A2D4949
:101C7000086008460068B0F5FA6F02DA00202B49C8
:101C800008602A480068012803D102202049087012
:101C90003AE02648006868BB03201D49087033E01D
:101CA0001B480078022826D11E4800682049096890
:101CB000884205DAFFF788FE01201549087023E005
:101CC000184800681B490968884205DDFFF77CFE5B
:101CD00001200F49087017E012480068144909688C
:101CE000884211DB0F4800681249096888420BDC02
:101CF000FFF7F2FA08E006480078032804D1FFF75E
:101D0000EDFE07200C49087010BD000000100140D6
:101D10004100002070000020680000202800002002
:101D200040000020340000206C00002074000020DF
:101D30002C000020300000203800002008B50121D0
:101D4000C020FEF7C7FC4020ADF8000028208DF829
:101D5000030003208DF8020069460548FEF7D7FA14
:101D60008020ADF8000069460248FEF7D0FA08BDB1
:101D700000180140001C014010B5044604210B4826
:101D8000FEF759FB10210948FEF757FB4021074891
:101D9000FEF753FB2046FFF721FB40210348FEF7E7
:101DA0004AFB2046FFF71AFB10BD0000002001404F
:101DB00010B504460D480068401C0C490860042119
:101DC0000B48FEF738FB10210948FEF734FB402191
:101DD0000748FEF732FB2046FFF700FB402104488E
:101DE000FEF729FB2046FFF7F9FA10BD240000207A
:101DF00000200140141E000800000020EC0000003C
:101E00006C010008001F0008EC000020C406000060
:101E10008801000800000000000000000000000031
:101E20000100000000A24A040000000000000000C1
:101E3000010203040607080900000000B80B0000B7
:101E4000A00F0000B0B30000000000000000000080
:101E50000000000000000000000000000000000082
:101E6000000000000000000000000000E02E000064
:101E70000000000000000000000000000000000062
:101E80000000000001000000010000000000000050
:101E90000000000000000000000000000000000042
:101EA0000000000000000000000000000000000032
:101EB00000000000E8030000D00700000000000060
:101EC0000000000000000000000000000000000012
:101ED0000000000000000000C8000000000000003A
:101EE00000000000000000000000000000000000F2
:101EF000010203040102030406070809020406089C
:04000005080001CD21
:00000001FF
