:020000040800F2
:10000000904B002035050008390300083B03000829
:100010003F030008430300084703000800000000F6
:100020000000000000000000000000004B0300087A
:100030004D030008000000004F03000851030008B2
:100040004F0500084F0500084F0500084F05000840
:100050004F0500084F0500084F0500084F05000830
:100060004F0500084F0500084F0500084F05000820
:100070004F0500084F0500084F0500084F05000810
:100080004F0500084F0500084F0500084F05000800
:100090004F0500084F0500084F0500084F050008F0
:1000A0004F0500084F0500084F0500084F050008E0
:1000B0004F0500084F0500084F0500084F050008D0
:1000C0004F0500084F0500084F0500084F050008C0
:1000D0004F050008C51200084F0500084F0500082D
:1000E0004F0500084F0500084F0500084F050008A0
:1000F0004F0500084F0500084F0500084F05000890
:100100004F0500084F0500084F0500084F0500087F
:100110004F0500084F0500084F0500084F0500086F
:100120004F0500084F0500084F0500084F0500085F
:1001300000F002F800F05AF80AA090E8000C82449F
:100140008344AAF10107DA4501D100F04FF8AFF27C
:10015000090EBAE80F0013F0010F18BFFB1A43F0A5
:1001600001031847105A0000305A0000103A24BF0B
:1001700078C878C1FAD8520724BF30C830C144BF0C
:1001800004680C607047000000230024002500264E
:10019000103A28BF78C1FBD8520728BF30C148BFEA
:1001A0000B607047662905F0B683652905F0B383B7
:1001B000642902F0A984782902F0E28400207047C3
:1001C0001FB59DE8030002F0CFFE03F0C9F904005B
:1001D0000020002104F05CFD401C60600020002134
:1001E00004F06CFDE0601FBD10B510BD03F0D6FA41
:1001F0001146FFF7E5FF00F045F803F0F4FA03B409
:10020000FFF7F2FF03BC03F061FB000070B5064688
:10021000304601F0D7FE0546002D2FD036A12846E6
:1002200002F033F940693649086008460068C8287A
:1002300024D134A1284602F028F90446F4B133A1B0
:10024000204602F022F940693149086031A1204678
:1002500002F01BF900692E49486030A1204602F0E7
:1002600014F9007D2A4908732EA1204602F00DF9E9
:10027000006927498860204601F098F9284601F076
:1002800095F970BDADF57A7D002500F065FF4FF45E
:10029000A06000F06FF94FF4165000F0C7FF01F0B6
:1002A0006EF827E0002600242148008800F4004072
:1002B000D0B1CDB91E480088C0F30D0600BF03E0E1
:1002C00000200DF80400641CB4F57A7FF8DB0024EC
:1002D00004E01848005D0DF80400641CB442F8DB2B
:1002E00001250020124908801DB16846FFF78EFFE6
:1002F000002500BFD6E70000636F646500000000C2
:1003000000000020726573756C7400006964000061
:10031000540000206E616D6500000000737461740C
:10032000757300006461746574696D650000000098
:100330003000002064000020704700BFFEE700BFCF
:10034000FEE700BFFEE700BFFEE77047704770475B
:10035000704700000CB50020019000906C480068C8
:1003600040F480306A49086000BF6948006800F4C2
:10037000003000900198401C0190009818B9019835
:10038000B0F5A06FF1D16248006800F4003010B100
:100390000120009001E0002000900098012843D146
:1003A0005C48006840F010005A4908600846006840
:1003B00020F0030008600846006840F00200086072
:1003C00053484068524948600846406848600846BB
:1003D000406840F4806048600846406820F47C1023
:1003E00048600846406840F4E810486008460068E5
:1003F00040F08070086000BF4548006800F0007061
:100400000028F9D04248406820F003004049486085
:100410000846406840F00200486000BF3C48406821
:1004200000F00C000828F9D10CBD10B5FFF792FFC1
:1004300010BD10B53648006840F00100344908602E
:100440000846406834490840314948600846006819
:10045000324908402E4908600846006820F4802090
:1004600008600846406820F4FE0048604FF41F0012
:100470008860FFF7DAFF4FF000602949086010BD7F
:1004800010B5002100200022214B5B6803F00C0115
:1004900021B1042906D0082928D107E0214B224C9C
:1004A000236027E01F4B204C236023E0184B5B6840
:1004B00003F47010164B5B6803F48032022303EBE5
:1004C000904022B9194B4343174C23600DE0104B69
:1004D0005B6803F4003323B1144B4343124C236095
:1004E00003E0104B4343104C236003E00D4B0E4CD4
:1004F000236000BF00BF064B5B68C3F303130C4CC3
:10050000E15C094B1B68CB40074C236010BD000029
:1005100000100240002002400000FFF8FFFFF6FE3E
:1005200008ED00E000127A000400002000093D0000
:10053000080000200948804709480047FEE7FEE719
:10054000FEE7FEE7FEE7FEE7FEE7FEE7FEE7FEE783
:1005500004480549054A064B70470000330400086B
:100560003101000890450020904B0020904700206A
:100570009047002031490143314A1160704770B5FE
:10058000002100230F22C47804B32D4C246804F406
:10059000E064C4F5E064210AC1F10403CA40447870
:1005A00004FA03F18478144021430901254C0678AC
:1005B000A155047804F01F050124AC4005786D11A5
:1005C000AD0005F1E025C5F8004109E0047804F02C
:1005D0001F050124AC401C4D0678761145F82640D5
:1005E00070BD1A4A0A400243154B1B1F1A60704720
:1005F00039B1134A121D12680243114B1B1D1A60B8
:1006000006E00F4A121D126882430D4B1B1D1A6033
:100610007047042808D14FF0E021096941F0040136
:100620004FF0E022116107E04FF0E021096921F06D
:1006300004014FF0E0221161704700000000FA054C
:100640000CED00E000E400E080E100E080FFFF1F2F
:1006500010B50446CC48844208D10121042000F0A2
:1006600031FD0021042000F02DFD46E0C748844202
:1006700008D10121082000F025FD0021082000F00C
:1006800021FD3AE0C248844208D10121102000F047
:1006900019FD0021102000F015FD2EE0BD48844218
:1006A00008D10121202000F00DFD0021202000F0C4
:1006B00009FD22E0B848844208D10121402000F021
:1006C00001FD0021402000F0FDFC16E0B34884420B
:1006D00008D10121802000F0F5FC0021802000F0ED
:1006E000F1FC0AE0AE48844207D10121801500F0F8
:1006F000E9FC0021A01500F0E5FC10BD10B50121BA
:10070000084600F0DFFC0021012000F0DBFC10BDFA
:100710002DE9F04102460025002600200023002498
:10072000002791F803C00CF00F0591F803C00CF0FE
:10073000100CBCF1000F03D091F802C04CEA050583
:1007400091F800C0BCF1000F31D0146800202BE0FC
:100750004FF0010C0CFA00F3B1F800C00CEA0306EC
:100760009E4220D183004FF00F0C0CFA03F7BC43DC
:1007700005FA03FC4CEA040491F803C0BCF1280F0D
:1007800006D14FF0010C0CFA00FCC2F814C00AE0CC
:1007900091F803C0BCF1480F05D14FF0010C0CFAE1
:1007A00000FCC2F810C0401C0828D1D31460B1F876
:1007B00000C0BCF1FF0F34DD546800202EE000F1D2
:1007C000080C4FF0010808FA0CF3B1F800C00CEA6D
:1007D00003069E4221D183004FF00F0C0CFA03F761
:1007E000BC4305FA03FC4CEA040491F803C0BCF1D5
:1007F000280F05D100F1080C08FA0CF8C2F8148093
:1008000091F803C0BCF1480F07D100F1080C4FF07C
:10081000010808FA0CF8C2F81080401C0828CED352
:100820005460BDE8F0814FF6FF71018002218170B4
:100830000421C17070470246002093680B400BB141
:10084000012000E0002070470146886880B27047B0
:1008500002460020D3680B400BB1012000E00020CD
:1008600070470146C86880B27047016170474161B6
:1008700070470AB1016100E041617047C160704793
:100880004FF480320A4382618161826182698269A8
:10089000704702460020434B18684FF6807318409B
:1008A00040EA021008433F4B186070473E49C86158
:1008B0007047F0B50A46002300240021002500F00F
:1008C0000046B6F1004F02D1364EF16901E0354ED7
:1008D0007168C0F3034583B200F44016B6F5401FBB
:1008E00008D121F070612F4E766826F070662D4F8A
:1008F0007E6012E000F48016B6F5801F06D1032654
:1009000006FA05F4A14341F0706106E0460D360198
:1009100003FA06F6B14341F0706122B1460D36018B
:1009200003FA06F6314300F00046B6F1004F02D15B
:100930001C4EF16101E01B4E7160F0BD30B500222C
:100940008B071C0F0F2303FA04F2164B08338C108D
:1009500053F824309343134C08348D1044F8253059
:1009600023468C1053F824308C07240F00FA04F42B
:1009700023430C4C08348D1044F8253030BD0A490F
:10098000DC3108607047000000080140000C0140A5
:10099000001001400014014000180140001C0140FB
:1009A00000200140000001400000204210B5044634
:1009B000FB48844209D10121880300F083FB002118
:1009C0004FF4804000F07EFB32E0F648844209D1CB
:1009D0000121480400F083FB00214FF4003000F0B7
:1009E0007EFB25E0F048844209D10121880400F013
:1009F00076FB00214FF4802000F071FB18E0EB48FB
:100A0000844209D10121C80400F069FB00214FF4A0
:100A1000002000F064FB0BE0E548844208D101218E
:100A2000080500F05CFB00214FF4801000F057FB3C
:100A300010BD2DE9F04786B005460E460024A246BB
:100A400000BFA1460027B08900B100BF2F462C8A05
:100A50004CF6FF700440F08804432C82AC894EF6BB
:100A6000F3100440B0883189084371890843044376
:100A7000AC81AC8A4FF6FF400440B0890443AC829D
:100A800001A800F098FAC648874202D1DDF810A00C
:100A900001E0DDF80CA0A88900F4004040B10AEBA9
:100AA000CA0000EB0A1031684900B0FBF1F807E01A
:100AB0000AEBCA0000EB0A1031688900B0FBF1F8BC
:100AC0006420B8FBF0F004012009642101FB1089C7
:100AD000A88900F4004040B1322000EBC900B0FB0F
:100AE000F1F000F00700044308E0322000EB0910A9
:100AF0006421B0FBF1F000F00F0004432C8106B03C
:100B0000BDE8F0874FF41651016000218180C1805B
:100B100001810C21418100218181704710B502467D
:100B20000020108A4FF2FF0318400B884C882343A3
:100B30008C882343CC8823431843108210BD0021A6
:100B4000018041808180C180704721B1828942F457
:100B50000052828104E082894DF6FF731A4082813F
:100B60007047F0B50346002400260025002040F61B
:100B70006A17B94200D100BF1846C1F3421401F010
:100B80001F06012707FA06F5012C01D10C3004E0FD
:100B9000022C01D1103000E014301AB107682F4345
:100BA000076002E00768AF430760F0BD1AB1838AAF
:100BB0000B43838202E0838A8B4383827047028ADD
:100BC0004FF6F0731A400282028A0A43028270478B
:100BD00082894FF2FF731A40828182890A4382819F
:100BE000704721B1828942F00202828104E0828949
:100BF0004FF6FD731A4082817047028A4FF6DF7309
:100C00001A400282028A0A430282704721B1028A94
:100C100042F48042028204E0028A4BF6FF731A40DB
:100C200002827047C1F308028280704701468888BB
:100C3000C0F308007047818941F00101818170474C
:100C4000028BD2B20283028B42EA012202837047F6
:100C5000028B02F47F420283028B0A4302837047B5
:100C600021B1828A42F02002828204E0828A4FF619
:100C7000DF731A408282704721B1828A42F01002EB
:100C8000828204E0828A4FF6EF731A4082827047B4
:100C900021B1828A42F00802828204E0828A4FF601
:100CA000F7731A408282704721B1828942F4004270
:100CB000828103E08289C2F30E028281704721B1F2
:100CC000828A42F40062828204E0828A4FF2FF73D9
:100CD0001A4082827047828A4FF6FB731A408282E2
:100CE000828A0A438282704721B1828A42F00202DC
:100CF000828204E0828A4FF6FD731A408282704736
:100D000002460020B1F5007F00D100BF13880B40E0
:100D10000BB1012000E00020704701F40072B2F531
:100D2000007F00D100BFCA430280704770B5024601
:100D3000002400230025002040F66A16B14200D1AD
:100D400000BFC1F3421501F01F03012606FA03F3A9
:100D5000012D02D19689334006E0022D02D1168A78
:100D6000334001E0968A33400C12012606FA04F45F
:100D70001688344013B10CB1012000E0002070BD92
:100D800010B50022002340F66A14A14200D100BF32
:100D90000A1201249440A3B2DC43048010BD000079
:100DA000003801400044004000480040004C004032
:100DB00000500040DF48006840F00100DD49086055
:100DC00008464068DC490840DA494860084600683F
:100DD000DA490840D74908600846006820F48020B6
:100DE00008600846406820F4FE0048604FF41F0089
:100DF00088607047CF49096821F48031CD4A11607D
:100E00001146096821F480211160B0F5803F03D0BC
:100E1000B0F5802F0ED106E0C649096841F4803153
:100E2000C44A116007E0C349096841F4A021C14ADE
:100E3000116000E000BF00BF704710B501460022FE
:100E4000002300204A11012A02D1BA4C236806E08F
:100E5000022A02D1B74C236A01E0B64C636A01F062
:100E60001F02012494401C400CB1012000E000202E
:100E700010BD38B5002000900024002500BF3120AF
:100E8000FFF7DBFF05460098401C00900098B0F586
:100E9000A06F01D0002DF2D03120FFF7CEFF08B1B6
:100EA000012400E00024204638BD01460020A14A6C
:100EB000106820F0F80040EAC10010607047A049B7
:100EC00008607047024600209A4B586820F47C1056
:100ED00042EA01031843974B5860704798490866E7
:100EE000704701460020934A506820F003000843F1
:100EF000506070478F48406800F00C007047014612
:100F000000208C4A506820F0F00008435060704781
:100F100001460020874A506820F4E0600843506092
:100F2000704701460020834A506820F4605040EA30
:100F3000C1005060704729B17E4A527A02437D4B0E
:100F40005A7204E07B4A527A82437A4B5A72704753
:100F50007B49D8310860704701460020754A5068C7
:100F600020F440400843506070470021714A20320D
:100F70001170704A82F82010012802D004280AD18A
:100F800004E001216B4A2032117005E00521694A15
:100F90002032117000E000BF00BF7047694908604F
:100FA00070476449096A0143624A116270476549A2
:100FB00044390860704730B5002100220024002326
:100FC0005C4D6D6805F00C0121B1042905D008299C
:100FD00023D105E05C4D056022E05B4D05601FE01C
:100FE000544D6D6805F47012524D6D6805F48034EF
:100FF000022505EB92421CB9544D554305600BE0A8
:101000004C4D6D6805F400351DB1504D55430560DC
:1010100002E04D4D5543056002E04B4D056000BFB9
:1010200000BF444D6D6805F0F0010909484D6B5C47
:101030000568DD4045603F4D6D6805F4E061090AD3
:10104000434D6B5C4568DD4085603A4D6D6805F445
:101050006051C90A3E4D6B5C4568DD40C560354D49
:101060006D6805F44041890B3A4D6B5CC568B5FB72
:10107000F3F5056130BD29B12E4A526902432D4B6B
:101080005A6104E02B4A526982432A4B5A617047E5
:1010900029B1284A92690243264B9A6104E0254A05
:1010A00092698243234B9A61704729B1214AD269E0
:1010B0000243204BDA6104E01E4AD26982431D4B91
:1010C000DA61704729B11B4AD2680243194BDA60D2
:1010D00004E0184AD2688243164BDA60704729B19F
:1010E000144A12690243134B1A6104E0114A12694F
:1010F0008243104B1A6170471249403908607047AB
:101100000F49C86470470B49C87170470948406A65
:1011100040F0807007494862704701460020054A48
:1011200092680A400AB1012000E00020704701499E
:1011300088727047001002400000FFF8FFFFF6FEC3
:10114000000042428004424200127A0000093D0041
:10115000180000202800002010B56FF00400FFF7F1
:1011600058FA2E4800682E49B0FBF1F02D4908705E
:101170000846007800EB4001C1EBC0104FF6FF714C
:1011800001EAC0002849088010BD0146254A1278AE
:101190004A434FF0E0235A6100229A611A461269CD
:1011A00042F001021A6100BF4FF0E022106900F026
:1011B00001021AB100F48032002AF5D04FF0E0228B
:1011C000126922F001024FF0E0231A6100229A61B5
:1011D00070470146144A12884A434FF0E0235A618F
:1011E00000229A611A46126942F001021A6100BF98
:1011F0004FF0E022106900F001021AB100F48032D1
:10120000002AF5D04FF0E022126922F001024FF0DF
:10121000E0231A6100229A61704700000400002058
:1012200000127A002C0000202E00002010B586B09D
:101230000446012144F20400FFF72AFF4FF4007036
:10124000ADF8140003208DF8160018208DF8170053
:1012500005A93B48FFF75CFA4FF48060ADF8140035
:1012600004208DF8170005A93548FFF751FA25200D
:101270008DF8000003208DF801008DF80200012098
:101280008DF803006846FFF77AF901940020ADF865
:101290000800ADF80A00ADF80C00ADF810000C2005
:1012A000ADF80E0001A92748FFF7C3FB012240F269
:1012B00025512448FFF755FC01212248FFF745FC42
:1012C00006B010BD10B540F225511E48FFF72EFDA7
:1012D00010B31C48FFF7AAFCC4B21B48008800F4F6
:1012E0000040C8B91848008800F4804060B10A2C5A
:1012F00003D000201449088020E01348008840F4FF
:1013000000401149088019E00D2C06D10E480088D4
:1013100040F480400C49088010E00B480088C0F37E
:101320000D000A490C5408480088401C06490880F2
:1013300008460088C72801DD0020088010BD000095
:101340000008014000380140300000206400002007
:1013500070B503460C4603E014F8015B03F8015B2B
:101360001500A2F10102F7D170BD30B5034601E0CE
:1013700003F8011B1400A2F10102F9D130BD00B540
:1013800058494FF48062C8680021FFF7EEFF5549C5
:101390004FF4804288680021FFF7E7FF01205149A0
:1013A000087400BD0022002106E04E48C06830F8F5
:1013B000110000B1521C491CB1F5007FF5D3642027
:1013C0005043C0F3472070472DE9F0410646002402
:1013D000A0464448007C10B94249086880471EB9BD
:1013E0004FF0FF30BDE8F081C6F34F1506F01F0047
:1013F00008B1681C85B240F2FF141AE03948C06891
:1014000030F8140020B908F101001FFA80F801E05B
:101410004FF00008A8450BD1002705E03148C0680F
:10142000E11920F811507F1CAF42F7D36001D9E7D2
:10143000641E002CE2DA4FF0FF30D3E770B50546AA
:101440002848007C20B9274908688047012070BDE2
:10145000B5F5804F11D269092248C06830F81120D3
:10146000002406E000201F4BDB680E1923F816004D
:10147000641C9442F6DB0020E9E70220E7E770B540
:10148000044604B970BD17488068251A2846FFF73E
:10149000D5FF00BFF6E770B505462846FFF794FF75
:1014A0000446601C08B9002070BD0E4880682044C6
:1014B000FAE770B506460C462046FFF785FF05465D
:1014C000681C08B9002070BD064989684819224681
:1014D0003146FFF73DFF3046FFF7D1FF01488068F6
:1014E0002844F0E734000020F7480068704770B5E2
:1014F00004460D462CB9AC4201D0012070BD00203D
:10150000FCE70DB90120F9E705E0207808B90020D3
:10151000F4E7641C6D1C207801F0ACFA06462878CC
:1015200001F0A8FA8642F0D0207801F0A3FA06462E
:10153000287801F09FFA301AE0E770B5044620469B
:1015400001F014FC451C2846E0490968884706005C
:1015500000D170BD2A462146304601F071FC30466C
:10156000F7E730B9DA49D94A1160DA49DA4A116045
:101570007047016809B1016800E0D549D34A11609C
:10158000416809B1416800E0D249D34A116000BF07
:10159000EEE710B52820CD490968884704461CB1FC
:1015A0002821204601F091FC204610BD70B504466C
:1015B0001EE02568A08900F4807020B9A06810B1F1
:1015C000A068FFF7F3FFA08900F4807028B92069B4
:1015D00018B1C149206909688847206A18B1BE4915
:1015E000206A096888472046BB49096888472C4615
:1015F000002CDED170BD2DE9F04F8BB083468A46BA
:101600000020044605460026B44F0021884689463E
:101610000990012008909AF800002D2802D1B04FBF
:101620000AF1010A9AF80000302801D10AF1010AF2
:101630009AF80000312822DB9AF8000039281EDCD5
:1016400000BF1AF8011BA1F1300003F090FD002249
:10165000A44BCDE906012046294603F0DBFDCDE988
:101660000401DDE9062303F03FFB04460D469AF82A
:101670000000302803DB9AF800003928E1DD9AF8F1
:1016800000002E2830D19AF8010030282CDB9AF87F
:101690000100392828DC0AF1010A00BF1AF8011BF1
:1016A000A1F1300003F063FD00228E4BCDE906016D
:1016B0002046294603F0AEFDCDE90401DDE906230D
:1016C00003F012FB04460D460022844B4046494677
:1016D00003F0C6FF804689469AF80000302803DBF5
:1016E0009AF800003928D9DD9AF80000652803D05F
:1016F0009AF80000452823D10AF1010A9AF800005F
:101700002B2802D10AF1010A08E09AF800002D28DE
:1017100004D14FF0FF3008900AF1010A08E01AF8EE
:10172000010B3038099901EB810100EB4100099070
:101730009AF80000302803DB9AF800003928EEDD23
:10174000DDE9082101FB02F003F011FD42464B46A2
:10175000CDE9000103F0C8FA02460B46CDE90201CB
:101760000020604902F092FD22462B46CDE9060199
:101770003046394603F04EFDCDE90401DDE906238C
:1017800003F048FD04460D46CBE9064520462946B0
:1017900003F0BEFCCBF814000320CBF80C0050463D
:1017A0000BB0BDE8F08F2DE9F05F8146D9E9064521
:1017B000D9F8140003F0DBFC074622462B4603F061
:1017C0004FFF21F0004182460022474B03F0E6FC28
:1017D0001BD8464A464B2046294603F0DFFC14D866
:1017E0000022444B2046294603F012FE0DD8152056
:1017F0003649096888470646002E4CD03EA130463F
:10180000D9F8142001F044F945E040202F49096837
:1018100088470646002E3ED02046294602F0C8FCE6
:10182000074622462B4603F01BFF21F0004182466B
:1018300000222D4B03F0B2FC0FD825F000412746C3
:101840002E4A2F4B384603F0A9FC06D222462B46DF
:101850002CA1304601F01CF91DE025F0004127467F
:101860002A4A2B4B384603F099FC07D325F0004158
:101870000022284B384603F0CBFD06D222462B46E9
:1018800025A1304601F004F905E022462B4623A1AC
:10189000304601F0FDF83046BDE8F09F01460022D9
:1018A0000878302806DB0878392803DC08783038D7
:1018B000024441E00878412832DB087846282FDCD2
:1018C00008783738024437E0480000204C000020F8
:1018D000C9290008272A0008500000200000F03F16
:1018E0000000F0BF000024400000B03C0000C0FF3A
:1018F000FFFFDF410000E0C12564000044F3C2E4C3
:10190000E4E9634C252E3066000000008DEDB5A0A3
:10191000F7C6B03E65CDCD412565000025660000C7
:101920000878612806DB0878662803DC08785738D1
:10193000024401E0002070471201491C0878302859
:1019400006DB0878392803DC08783038024415E0D3
:101950000878412806DB0878462803DC0878373801
:1019600002440BE00878612806DB0878662803DC6F
:1019700008785738024401E00020DCE71201491CD6
:101980000878302806DB0878392803DC08783038F6
:10199000024415E00878412806DB0878462803DC75
:1019A0000878373802440BE00878612806DB0878AD
:1019B000662803DC08785738024401E00020BAE7C3
:1019C0001201491C0878302806DB0878392803DC26
:1019D00008783038024415E00878412806DB08789A
:1019E000462803DC0878373802440BE00878612881
:1019F00006DB0878662803DC08785738024401E0E3
:101A0000002098E7104696E72DE9F05F8346884668
:101A100008F10104002798F80000222805D0F748B3
:101A2000C0F800800020BDE8F09F04E014F8011B1E
:101A30005C2900D1641C2078222804D0207810B1C1
:101A4000781C0700F2D1781CED4909688847814667
:101A5000B9F1000F01D10020E5E708F101044D467E
:101A60009EE020785C2804D014F8010B05F8010BE7
:101A700096E0641C2078722818D006DC622809D011
:101A800066280BD06E287DD10CE0742812D0752802
:101A9000F9D113E0082005F8010B7FE00C2005F8D0
:101AA000010B7BE00A2005F8010B77E00D2005F81B
:101AB000010B73E0092005F8010B6FE0601CFFF7D4
:101AC000EDFE0646241DB6F55C4F02D3B6F5604F19
:101AD00000D306B962E0B6F5584F1CD3B6F55C4F9B
:101AE00019D260785C2802D1A078752800D055E022
:101AF000E01CFFF7D3FE8246A41DBAF55C4F02D36B
:101B0000BAF5604F00D349E0C6F30901504661F3CE
:101B10009F2000F580360427802E01D2012708E09F
:101B2000B6F5006F01D2022703E0B6F5803F00D280
:101B300003273D44012F20D0022F15D0032F0AD0B8
:101B4000042F24D106F0BF0040F08001681E054636
:101B50000170B60900BF06F0BF0040F08001681EAA
:101B600005460170B60900BF06F0BF0040F08001D5
:101B7000681E05460170B60900BFA248C05D30432B
:101B8000C1B200E006E0681E0546017000BF00BF5C
:101B90003D4403E0207805F8010B00BF00BF641C42
:101BA0002078222803D0207800287FF45AAF002024
:101BB00028702078222800D1641CCBF810900420D3
:101BC000CBF80C0020462EE72DE9F04707464FF0F2
:101BD00000082FB9AFF2D020FFF7AFFCBDE8F087C7
:101BE0003D460DE0494688A001F092F810B108F199
:101BF000010804E0B9F1200F01DA08F105086D1CB5
:101C000095F80090B9F1000F04D008F101005FEAE7
:101C10000008E7D108F103007949096888470646BA
:101C20000EB90020DAE734463D46222004F8010BC5
:101C300047E028781F280ADD2878222807D028784E
:101C40005C2804D015F8010B04F8010B39E05C2086
:101C500004F8010B15F8011B89460C2919D006DC84
:101C6000082912D0092920D00A2922D115E00D29EE
:101C700017D0222905D05C291BD15C2004F8010B68
:101C80001EE0222004F8010B1AE0622004F8010B88
:101C900016E0662004F8010B12E06E2004F8010B38
:101CA0000EE0722004F8010B0AE0742004F8010B26
:101CB00006E04A4656A1204600F0EAFE641D00BF39
:101CC00000BF28780028B4D1222004F8010B00209E
:101CD00004F8010B304681E710B504462069FFF790
:101CE00073FF10BD00E0401C20B1017811B10178F4
:101CF0002029F8DD70472DE9F04706460C4620788C
:101D00007B2804D03D4804600020BDE8F087062011
:101D1000F060601CFFF7E6FF044620787D2801D1C3
:101D2000601CF2E7FFF735FC0546B060B06808B903
:101D30000020EAE72046FFF7D5FF804641462846C7
:101D4000FFF762FE0746FFF7CDFF04460CB90020FF
:101D5000DBE7286928620020286120783A2803D030
:101D6000264804600020D0E7601CFFF7BBFF8046D8
:101D70004146284600F0A7F80746FFF7B3FF0446A0
:101D80000CB90020C1E731E0FFF703FC070000D1E8
:101D9000BBE72F607D603D46601CFFF7A3FF8146D7
:101DA00049462846FFF730FE8046FFF79BFF044672
:101DB0000CB90020A9E72869286200202861207852
:101DC0003A2803D00D48046000209EE7601CFFF70E
:101DD00089FF81464946284600F075F88046FFF79E
:101DE00081FF04460CB900208FE700BF20782C2823
:101DF000CAD020787D280FD1601C86E748000020DB
:101E00004C0000200A5A0008225C080C0A0D090048
:101E10007525303478000000FE480460002074E727
:101E20002DE9F04705460C4620785B2804D0F94898
:101E300004600020BDE8F0870520E860601CFFF723
:101E400051FF044620785D2801D1601CF2E7FFF7BE
:101E5000A0FB0646A860A86808B90020EAE720466B
:101E6000FFF740FF80464146304600F02CF8074619
:101E7000FFF738FF04460CB90020DBE717E0FFF757
:101E800088FB070000D1D5E737607E603E46601CC6
:101E9000FFF728FF81464946304600F014F8804697
:101EA000FFF720FF04460CB90020C3E700BF2078ED
:101EB0002C28E4D020785D2801D1601CBAE7D548F1
:101EC00004600020B6E770B505460C460CB900204A
:101ED00070BD0422D0A1204600F067FF18B902208F
:101EE000E860201DF4E70522CDA1204600F05DFF4B
:101EF00018B90020E860601DEAE70422CAA1204664
:101F000000F053FF20B90120E8606861201DDFE781
:101F10002078222804D121462846FFF775FDD7E70F
:101F200020782D2805D02078302807DB2078392824
:101F300004DC21462846FFF75EFBC9E720785B28D2
:101F400004D121462846FFF76BFFC1E720787B28A4
:101F500004D121462846FFF7CEFEB9E7AD4804601C
:101F60000020B5E72DE9F04780460D4616460024CF
:101F7000FFF70FFB07460020A64908600FB9BDE830
:101F8000F0874046FFF7AEFE814649463846FFF7E8
:101F90009AFF044624B93846FFF708FB0020EEE715
:101FA00066B12046FFF79EFE0446207830B13846E1
:101FB000FFF7FCFA974804600020E0E705B12C60C9
:101FC0003846DCE710B50446002211462046FFF7EC
:101FD000C9FF10BD2DE9F74F88B0884616464FF06F
:101FE0000009CA46002007900720049000250898A1
:101FF0008068029000270020019003E07F1C029877
:102000000068029002980028F8D14FBB16B108F181
:10201000040100E0032108468549096888470790C4
:10202000079818B900200BB0BDE8F08F079C7B2003
:1020300004F8010B66B10A2004F8010B002503E047
:10204000092004F8010B6D1CA8F10100A842F7DC7F
:102050007D2004F8010B002004F8010B0798E2E74B
:10206000B8007349096888478146B9F1000F01D16A
:102070000020D8E7B8006E49096888478246BAF15F
:10208000000F05D148466B49096888470020CAE718
:10209000B900484600F019FFB900504600F015FF9E
:1020A00008988068029008F1010816B1049840442D
:1020B00004902DE00299086AFFF786FD05904AF822
:1020C000250032464146029800F07DF929466D1CF4
:1020D000069049F821000598A8B1069898B106988D
:1020E00000F044FE8346059800F040FE0BEB000133
:1020F000891C16B108F1020000E000200144049898
:102100000844049001E001200190029800680290C8
:1021100002980028CED1019820B945490498096851
:1021200088470790079808B9012001900198F0B1FD
:10213000002510E05AF8250020B15AF825003D4945
:102140000968884759F8250020B159F82500394910
:10215000096888476D1CBD42ECDB5046354909686B
:102160008847484633490968884700205BE77B2158
:10217000079801700798441C16B10A2004F8010B57
:102180000020207000253EE05EB10020039005E0B5
:10219000092004F8010B0398401C03900398404564
:1021A000F6DB5AF82510204600F0BCFD5AF8250051
:1021B00000F0DCFD04443A2004F8010B16B10920BC
:1021C00004F8010B59F82510204600F0ABFD59F832
:1021D000250000F0CBFD0444781EA84202D02C203C
:1021E00004F8010B16B10A2004F8010B002020703E
:1021F0005AF825000F490968884759F825000D4904
:10220000096888476D1CBD42BEDB50460949096814
:10221000884711E0480000206E756C6C00000000DB
:1022200066616C73650000007472756500000000E3
:102230004C000020500000204846F84909688847B3
:102240004EB1002503E0092004F8010B6D1CA8F134
:102250000100A842F7DC7D2004F8010B002004F8FF
:10226000010B0798DFE62DE9F74F82B083464FF068
:10227000000805200190DBF80890002700250020C9
:10228000009002E07F1CD9F80090B9F1000FF9D15D
:102290007FB90320E249096888478046B8F1000FFA
:1022A00003D0E0A1404600F03DFD404605B0BDE84A
:1022B000F08FB800DA490968884706460EB9002051
:1022C000F4E7B900304600F000FEDBF808901FE0AC
:1022D000DDE90312491C484600F075F8824629469C
:1022E0006D1C46F821A0BAF1000F0DD0504600F049
:1022F0003DFD801C049909B1012100E00021014449
:1023000001980844019001E001200090D9F8009064
:10231000B9F1000F02D000980028D9D0009820B958
:10232000BF490198096888478046B8F1000F01D17C
:1023300001200090009890B1002508E056F8250093
:1023400020B156F82500B549096888476D1CBD4283
:10235000F4DB3046B149096888470020A6E75B20D6
:1023600088F8000008F101040020207000251CE01E
:1023700056F82510204600F0D5FC56F8250000F050
:10238000F5FC0444781EA84209D02C2004F8010B67
:10239000049810B1202004F8010B0020207056F89A
:1023A00025009E49096888476D1CBD42E0DB304628
:1023B0009A49096888475D2004F8010B002004F859
:1023C000010B404672E72DE9F04104460D461646E2
:1023D000002714B90020BDE8F081207B07282FD208
:1023E000DFE800F00A1004161B202700AFF2D81017
:1023F000FFF7A3F8074623E0AFF2DC10FFF79DF8E4
:1024000007461DE0AFF2E010FFF797F8074617E028
:102410002046FFF7C8F9074612E02046FFF75CFCAC
:1024200007460DE0324629462046FFF71CFF0746C7
:1024300006E0324629462046FFF7CCFD074600BF9E
:1024400000BF3846C7E710B50446012200212046E8
:10245000FFF7B9FF10BD10B5044600221146204613
:10246000FFF7B1FF10BD01468A68002001E0401C63
:102470001268002AFBD170470246906801E0491EAD
:10248000006808B10029FADC704770B505460E46B1
:10249000AC6800E024682CB13146206AFFF727F8C9
:1024A0000028F7D1204670BD01604860704770B5C4
:1024B0000546FFF76EF804460CB9002070BD2822CF
:1024C00029462046FEF744FF00202062E06840F4E1
:1024D0008070E0600020606020602046EEE770B50C
:1024E00005460E46AC6806B970BD0CB9AE6009E091
:1024F00000E0246814B120680028FAD13146204653
:10250000FFF7D2FF00BFEFE770B506460D46144651
:1025100004B970BD206A18B14049206A096888472B
:102520002846FFF70AF8206221463046FFF7D7FF1A
:1025300000BFEEE770B505460C462046FFF7B7FF33
:10254000064631462846FFF7CAFF70BD2DE9F04127
:1025500005460E4614462046FFF7A9FF07463A46B1
:1025600031462846FFF7D0FFBDE8F08110B502469E
:102570000B46916801E009685B1E09B1002BFADC8B
:1025800009B9002010BD486810B1D1E900042060ED
:10259000086810B1D1E9004060609068884201D1BC
:1025A000086890600020086048600846EAE770B557
:1025B00004460D4629462046FFF7D8FF0646FEF79B
:1025C000F5FF70BD2DE9F04105460F460026AC68C9
:1025D00001E0761C24682CB13946206AFEF787FF9B
:1025E0000028F6D12CB131462846FFF7BFFFBDE8E1
:1025F000F0810020FBE770B504460D4629462046D1
:10260000FFF7E0FF0646FEF7D1FF70BD2DE9F04170
:1026100006460F461446B56808E00000500000204A
:102620004C0000205B5D00002D687F1E0DB1002F67
:10263000FADC0DB9BDE8F081286820606868606048
:10264000206808B120684460B068A84201D1B46035
:1026500001E0606804600020686028602846FEF79A
:10266000A5FF00BFE6E72DE9F04105460E461746F7
:102670004FF00008AC6802E008F1010824682CB1B2
:102680003146206AFEF733FF0028F5D144B13046C9
:10269000FEF753FF38623A4641462846FFF7B6FF39
:1026A000BDE8F08110B5FEF774FF04460CB10220BE
:1026B000E060204610BD10B5FEF76BFF04460CB17C
:1026C0000120E060204610BD10B5FEF762FF044611
:1026D0000CB10020E060204610BD70B50546FEF745
:1026E00058FF044624B10DB1012000E00020E06055
:1026F000204670BD70B505460E46FEF74AFF0446FB
:1027000044B10320E060C4E906562846314602F091
:10271000FFFC6061204670BD70B50546FEF739FFCD
:1027200004462CB10420E0602846FEF706FF206135
:10273000204670BD10B5FEF72CFF04460CB10520F5
:10274000E060204610BD10B5FEF723FF04460CB133
:102750000620E060204610BD2DE9F05F81468A46E4
:102760000025AB46FFF7E6FF0646002410E059F8C7
:10277000240002F0FCFC0746FFF7BCFF05460CB93D
:10278000B56003E029465846FFF78EFEAB46641C51
:102790000EB15445EBDB3046BDE8F09F2DE9F05F0C
:1027A00081468A460025AB46FFF7C4FF0646002453
:1027B00010E059F8240003F03DF80746FFF79AFFB0
:1027C00005460CB9B56003E029465846FFF76CFE94
:1027D000AB46641C0EB15445EBDB3046BDE8F09FC0
:1027E0002DE9F047074688460025A946FFF7A2FFD6
:1027F0000646002410E007EBC400D0E90021104693
:10280000FFF778FF05460CB9B56003E02946484656
:10281000FFF74AFEA946641C0EB14445EBDB304687
:10282000BDE8F0872DE9F047074688460025A94610
:10283000FFF780FF064600240DE057F82400FFF75D
:102840006BFF05460CB9B56003E029464846FFF723
:102850002BFEA946641C0EB14445EEDB3046BDE8B4
:10286000F0872DE9F047054689464FF0000815B975
:102870000020BDE8F087FEF78CFE04460CB900206E
:10288000F7E7E86820F48070E06068696061D5E986
:102890000601C4E90601286950B12869FEF74DFE1A
:1028A0002061206920B92046FEF780FE0020E0E785
:1028B000286A50B1286AFEF740FE2062206A20B9DB
:1028C0002046FEF773FE0020D3E7B9F1000F01D1D7
:1028D0002046CEE7AF6816E001213846FFF7C1FF7A
:1028E000064626B92046FEF761FE0020C1E7B8F192
:1028F000000F05D0C8F80060C6F80480B04601E0BB
:10290000A660B0463F68002FE6D12046B1E70146F9
:1029100055E00278202A01D1401C50E00278092AB3
:1029200001D1401C4BE002780D2A01D1401C46E049
:1029300002780A2A01D1401C41E002782F2A0BD1EB
:1029400042782F2A08D100E0401C0278002A36D0B5
:1029500002780A2A33D0F7E702782F2A0ED142787C
:102960002A2A0BD100E0401C02782AB102782A2AD8
:10297000F9D142782F2AF6D1801C20E00278222A51
:1029800019D110F8012B01F8012B0AE002785C2A1A
:1029900003D110F8012B01F8012B10F8012B01F8DD
:1029A000012B027812B10278222AEFD110F8012B04
:1029B00001F8012B03E010F8012B01F8012B02783C
:1029C000002AA6D10A70704770B5064600F0B0FA2A
:1029D000056806F10B0020F00704B4429CBF0020FC
:1029E00070BD2B466A68BAB11068A04210D304F1DA
:1029F000080188423CBF5068586007D351681019DD
:102A000041601168091B016058601460101D70BDA1
:102A100013465268002AE7D12146284600F090FA72
:102A20000028DED170BD70B50446051F00F080FAA5
:102A30000068002C14BF446870BD002C18BFAC4265
:102A40003CBF20466468F8D301680A18AA4218BF40
:102A5000456003D12A680546114401602868411980
:102A6000A1421CBF6C6070BD616869602168084448
:102A7000286070BD10B5044600F052FA0068005D91
:102A8000C00602D504F1200010BD204610BD000094
:102A90000FB41CB5074B06AA7B4469460090059805
:102AA00000F00FFD0020694600F01EFD1CBC5DF823
:102AB00014FB00004D0A000070B5044685690068EB
:102AC000C10601D5302600E02026C00707D070BD22
:102AD000D4E9012130469047206A401C20626D1ED7
:102AE000F6D570BD70B5044685690078C00707D17A
:102AF00070BDD4E9012120209047206A401C20624B
:102B00006D1EF6D570BD00002DE9F041064600248B
:102B100010687529314616A510D0AFF30080002843
:102B200002DA404213A507E031688A0701D512A5F1
:102B300002E0490704D511A5012401E0AFF30080AC
:102B400000210A2206F1240709E0B0FBF2FCB0FBE9
:102B5000F2F302FB1C00303078541846491C002860
:102B6000F3D123462A463046BDE8F04100F03DBA95
:102B7000000000002D0000002B00000020000000DD
:102B800070B504460D4621461068AFF300802188D9
:102B9000090502D50F4A7A4402E00E4A7A440E3201
:102BA000002104F1240305E000F00F060009965D02
:102BB0005E54491C0028F7D120780023000704D573
:102BC000702D02D009B1022311322046BDE87040B9
:102BD00000F00BBA772E00002DE9F05F894604461D
:102BE0004FF0000ADFF824B1FB44C0F820A02046D3
:102BF000E168884700287DD0252806D0D4E9012146
:102C00009047206A401C2062F1E700255F4620467D
:102C1000E16888472028064607DB312E05D2B8191F
:102C200010F8200C08B10543F1E7A80701D525F0FD
:102C30000405C4F81CA00027C4F818A02A2E09D047
:102C4000304601F0ADFA38B304EB8708303EC8F8DF
:102C5000186019E059F8041B204604EB87029161C3
:102C6000E1688847012F064618D1E069002820DA7C
:102C700025F020051DE0D8F8180000EB800006EBD9
:102C800040003038C8F818002046E16888470646FA
:102C900001F086FA0028EED1012F0AD02E2E08D19D
:102CA0002046E16888477F1C0646022F45F0200534
:102CB000C4DBA069002803DA404245F00105A061A9
:102CC000E80701D025F01005A6B1A6F141001928AA
:102CD00002D8203645F400654A4631462046256034
:102CE0004D46FDF75FFA60B1012807D0ED1D25F0D4
:102CF000070000E007E000F1080978E705F10409A2
:102D000075E730467AE7206ABDE8F09F4D2E000057
:102D1000401ECAB210F8011F8A4202D00029F9D120
:102D20000020704740EA0103024630B59B0710D1EE
:102D30004FF0013400E008C208C91D1B9D4315EA8D
:102D4000C41FF8D013F0FF0102F8011B0DD01B0ABD
:102D5000F8E711F8013B002B02F8013B05D011F810
:102D6000013B002B02F8013BF3D130BD10B5431CF1
:102D700002E010F8011B71B18107FAD14FF0013266
:102D800002C88C1A8C4314EAC211F9D0C01A0A0680
:102D900003D0C01E10BDC01A10BD0A0401D0801E91
:102DA00010BD0902FCD0401E10BD40EA010370B501
:102DB0009B072ED14FF00136042A2AD308C810C928
:102DC0009D1B9D43121F15EAC61517D0D8B2E1B25C
:102DD000401A50EA056110D198B2A1B2401A50EAE7
:102DE00005410AD123F07F4024F07F41401A50EA88
:102DF000052102D1180EA0EB146070BDA342DBD0F8
:102E000018BA21BA884201D9012070BD4FF0FF30B5
:102E100070BD0AB9002070BD10F8013B11F8014BDC
:102E200063B1A3420AD1521E08D010F8013B11F839
:102E3000014B1BB1A34201D1521EEDD1181B70BD35
:102E4000032A40F2308010F0030C00F0158011F8D6
:102E5000013BBCF1020F624498BF11F801CB00F8AE
:102E6000013B38BF11F8013BA2F1040298BF00F802
:102E700001CB38BF00F8013B11F0030300F03983A8
:102E8000083AC0F0088051F8043B083A51F804CBE6
:102E9000A0E80810F5E7121D5CBF51F8043B40F8AC
:102EA000043BAFF30080D20724BF11F8013B11F8B7
:102EB00001CB48BF11F8012B24BF00F8013B00F8FB
:102EC00001CB48BF00F8012B70474FF0000200B55E
:102ED000134694469646203922BFA0E80C50A0E83D
:102EE0000C50B1F12001BFF4F7AF090728BFA0E8EB
:102EF0000C5048BF0CC05DF804EB890028BF40F8B7
:102F0000042B08BF704748BF20F8022B11F0804FF8
:102F100018BF00F8012B70477047704770470000DA
:102F200010B500F01DFB001D10BD00BF651D0000A9
:102F3000004870473445002070477047704770471D
:102F400038B504460A4600206946AFF300800028E1
:102F500008BF38BD02460099204600F009FB012059
:102F600038BD012000F012BCF8B5AFF30080054673
:102F700000200C46102000BF0646A819A0420DD91B
:102F8000324669460020AFF30080070008BF00F01A
:102F9000FDFB0098A04218BF0546C419FFF7C8FF03
:102FA00005600746F01D20F007004619284600F08E
:102FB0000AF8B44208BFF8BDA21B31463868BDE824
:102FC000F84000F0D5BA00210160C0E90110704757
:102FD0001020704710B500F0C7FA006810BD10B59A
:102FE000044600F0C1FA046010BD2DE9F0470D461B
:102FF00099469246044600F124080168880604D5E3
:10300000E06921F01001216000E00120A84201DD0B
:10301000471B00E00027A1697A1902EB0900081A92
:10302000A0612078C00602D42046FFF745FD0026A7
:1030300008E0D4E901211AF806009047206A401CF4
:10304000761C20624E45F4DB2078C0060AD5204667
:10305000FFF732FD06E0D4E9012130209047206AD5
:10306000401C2062381EA7F10107F4DC07E0D4E918
:10307000012118F805009047206A401C2062281E94
:10308000A5F10105F3DC2046FFF72CFD20780006B2
:1030900002D50220BDE8F0870120FBE770472DE94B
:1030A000FF4F0C461E464FF0FF378BB0D2E90001B0
:1030B000DDF860800A908A46C1F30A5505B93D469D
:1030C000002108464FF00000BAF1000F00F4400064
:1030D00005DA00EB80004FF4400101EA50004FEAAE
:1030E0009059B9F1010F00DDB9460A9850EA4A003B
:1030F0000ED044F61050A5F2FF3545432F14B8F119
:10310000000F1ED07542291E1EDDC9F100021CE011
:10311000B8F1010F4FF0000001D0302103E0F2437D
:1031200005E02154401CB042FBDB30460022002168
:1031300021540B99C1F80880C1E900200FB0BDE807
:10314000F08FBD1B6D1CDEE74A4600DA694206A817
:1031500000F0AEFA06AB93E8070003AB83E8070084
:1031600050460A9900F0D8FB8DE80700A0F5005002
:103170001F3800900398002D09DD42F21F014A46D6
:10318000084403A90390684600F037FE08E0A0F564
:1031900000504A461F3803A90390684600F041FEDC
:1031A0008DE807000004000C03D04FF0FF30410809
:1031B00000E01046B8F1000F03D00022009215463F
:1031C0001EE0751E05D400F0EDF9303262556D1E1B
:1031D000F9D5B3460122084302D000227F1C04E047
:1031E0002078302801D100227F1E002A099786D03E
:1031F0001DE0112D07DA00F0D5F9303262556D1C53
:1032000050EA0102F5D1084302D00098C8B10EE09F
:103210000021681E05E0235C625C63542254401E5A
:10322000491C8142F7DBAB46A81B401E09900020D9
:1032300004F80B000B98099AC0F80880C0E9002B2D
:103240007CE711264FF0000859E72DE9F04F88463A
:103250000446D21D22F0070191B0D1E90001CDE969
:103260000A0100F014FF02460B98C00F01D02D2078
:1032700007E02068810701D52B2002E0202101EA28
:10328000C000032A099001D0072A05DB0346414606
:10329000204600F0CDF90BE12078800601D5E069E9
:1032A00000E00620B8F1650F814606D0B8F1660F40
:1032B00018D0B8F1670F70D131E00020B9F1110FCB
:1032C000009001DB112301E009F101030AAA01A921
:1032D0000CA8FFF7E4FEDDE90C70002609F10105FA
:1032E000834647E001204B4600904FF000470AAA72
:1032F00001A90CA8FFF7D3FEDDE90DB00C995D46DE
:10330000002610B909F101000D18B9EB050003D42E
:10331000C0F1FF3609F10105A5EB09002BE0B9F179
:10332000010F01DA4FF001090020B9F1110F0090EF
:10333000484601DD112300E003460AAA01A90CA8B2
:10334000FFF7ADFEDDE90C704D4600268346207880
:1033500000070AD4AB4500DA5D4601A8012D04DD63
:10336000411911F8011C302907D04F4502DA17F135
:10337000040F04DA012082460FE06D1EEEE7002FF5
:1033800002DCED1B3E4403E0781CA84200DD7D1CFE
:10339000B81B00F1010A4FF000472078000703D462
:1033A000AA4501DB4FF0FF3A0021B7F1004F0DF1C4
:1033B00043088DF8431024D002202B23002F01DA7C
:1033C0007F422D230A21021EA0F1010000DC5FB123
:1033D00097FBF1FC97FBF1F201FB1C7C17460CF10B
:1033E000300C08F801CDEEE7A8F101000370218848
:1033F000090501D5452100E06521A0F1010800F88B
:10340000011C09980FA9A1EB0807FF1D00B10120BD
:10341000411901EBEA70A1693844081A401EA06105
:103420002078C00602D42046FFF746FB099828B151
:10343000D4E901219047206A401C20622078C00610
:1034400022D52046FFF738FB1EE0002E04DBB345F3
:1034500002DD01A8805D00E03020D4E90121904721
:10346000206A401C2062761CAAF101005FEA000A73
:103470000AD100F075F8C0680168405CD4E9012108
:103480009047206A401C2062281EA5F10105DCDC63
:1034900007E0D4E9012118F8010B9047206A401C8D
:1034A0002062381EA7F10107F3DC2046FFF71AFB64
:1034B000032011B043E6000001694A1C026108784C
:1034C000704700B58FB0CDE9013100210591054964
:1034D0007944CDE9031011466846FFF77DFB0FB034
:1034E00000BD0000E5FFFFFF0A6802F8010B0A605B
:1034F000704710B5203AC0F00B80B1E81850203A60
:10350000A0E81850B1E81850A0E81850BFF4F5AF83
:103510005FEA027C24BFB1E81850A0E8185044BF0D
:1035200018C918C0BDE810405FEA827C24BF51F87A
:10353000043B40F8043B08BF7047D20728BF31F86E
:10354000023B48BF11F8012B28BF20F8023B48BFBF
:1035500000F8012B70470000004870472C45002000
:10356000004870474C450020004870472C4500201B
:10357000034640688C46002818BF88423CBF03467B
:103580004068F8D318681844884207D00CF103004B
:1035900020F00700001D411A521A0146081D0A605A
:1035A000FFF741BA30B5B0F10A024FEA900E71F15F
:1035B00000034EEA817EB0EB0E0061EB91014FEA11
:1035C000101E4EEA017E10EB0E0041EB11114FEA86
:1035D000102E4EEA016E10EB0E0041EB11214FEA66
:1035E000104E4EEA014E10EB0E0041EB1141401817
:1035F00041F100014FEAD00040EA41704FEAD101A9
:1036000010EB80054FEA810444EA907444EB010416
:103610006D1944EB0404521BA3414FF0000348BF53
:103620000A3200D530BD401C41F1000130BD000020
:103630002DE9F0411F46044603260168072A01F4DC
:10364000006004DB08B116A505E016A503E008B18B
:1036500015A500E015A521F010002060A069C01E8E
:10366000A0610FB1401EA0612046FFF725FA4FB1BF
:10367000D4E9012138469047206A401C2062C01CD2
:10368000206206E0206AFAE7D4E9012115F8010B6F
:103690009047761EF8D22046FFF724FABDE8F08165
:1036A0004E414E006E616E00494E4600696E6600E6
:1036B0002DE9F047814616468AB0334878440DC854
:1036C0008DE80D0030487844801C03AC0DC884E8B8
:1036D0000D0041F69B300844372190FBF1F290FB3E
:1036E000F1F5A5F1800501FB12041B3C02D56442F3
:1036F000012000E00020DFF890A080460027FA4477
:10370000AAF1BE0A0DE0E00709D03246684607EB91
:1037100047010AEB810100F084FB8DE8070064108B
:103720007F1C002CEFD1184F7F44AC3F18E0E80716
:1037300014D007EB04100DF1180A90E80E008AE887
:103740000E00C068F04201D198190890324606A9CF
:1037500003A800F066FB03AB83E807006D10641C50
:10376000002DE4D132466946B8F1000F03A802D01B
:1037700000F043FB01E000F054FBC9E90001C9F887
:1037800008200AB0BDE8F0879C24000010B500F0C6
:1037900035F8BDE8104000F02CB870477546FFF7CB
:1037A000DBFEAE4605006946534620F0070085461D
:1037B00018B020B5FCF7CCFEBDE820404FF0000665
:1037C0004FF000074FF000084FF0000B21F0070109
:1037D000AC46ACE8C009ACE8C009ACE8C009ACE84C
:1037E000C0098D4670470446AFF300802046FCF7C1
:1037F00006FD002801D000F069B8704710B5012817
:1038000005D0002103A000F067F8012010BD09A138
:10381000F8E7000053494752544D454D3A204F7543
:1038200074206F662068656170206D656D6F7279B8
:10383000000000003A2048656170206D656D6F7270
:103840007920636F72727570746564004FF0013C8B
:1038500050F8042B51F8043B9A4221D1A2EB0C03FF
:10386000934313EACC1317D150F8042B51F8043BBF
:103870009A4215D1A2EB0C03934313EACC130BD15C
:1038800050F8042B51F8043B9A4209D1A2EB0C03E7
:10389000934313EACC13DBD04FF00000704700BF16
:1038A000D01A01BAB1FA81F101F0180122FA01F03F
:1038B000CB40C1F12001DBB2C0B2C01A2CFA01F337
:1038C000D11A914311EAC311E6D17047014918207A
:1038D000ABBEFEE72600020070B505460C460A2086
:1038E00000E06D1C00F011F835B128780028F8D1FF
:1038F00002E0641C00F009F814B120780028F8D127
:10390000BDE870400A20AFF3008008B569468DF825
:1039100000000320ABBE08BD5FEA400C08BF91F079
:10392000000F4FEA8C234FEAC12243EA51514FEA7C
:103930001C5018BF00F5F0404FEA300018BF41F0AE
:1039400000415FEA6C5C00F02980BCF1FF3F08BFDA
:1039500040F080407047130C06BF12044FF0100C6B
:103960004FF0000C130E04BF12020CF1080C130FE1
:1039700004BF12010CF1040C930F04BF92000CF170
:10398000020CD30F04BF52000CF1010C11464FF092
:103990000002A0F11F00A0EB0C00704711F0004FD7
:1039A00008BF704731F000413FF4D5AF0B0C06BFA4
:1039B00009044FF0100C4FF0000C0B0E04BF09026D
:1039C0000CF1080C0B0F04BF09010CF1040C8B0F58
:1039D00004BF89000CF1020CCB0F04BF49000CF1AD
:1039E000010CCCF12003A0EB0C0022FA03F302FA45
:1039F0000CF241EA030100F10100704720F07F4C16
:103A000080EA030023F07F47ACEB070303F57C5308
:103A100000F0004003F1FF032DE980494FEA154B08
:103A200009B44FEA144325EA0B4E24EA03480FF287
:103A3000042606EB132749083E785FEA320203FBAF
:103A40000667C7F5000707FB06F64FEA54374FEA4B
:103A5000D64606F1020607FB066CCCF1005C4FEA85
:103A60001C472CEA074C07FB06F40CFB06F504EB9D
:103A700015464FEA961634BF00204FF000404FEA3B
:103A8000D13706FB07FC4FEA1C4C0CFB0BF7D21B93
:103A900003FB0CF761EB07010CFB0EF7B0EB0740E3
:103AA00072EB17420CFB08F734BFA2EB0742B2EBF4
:103AB000074261EB17414FEA0C444FEA910706FBBE
:103AC00007FC4FEA1C4C0CFB0BF7B0EBC74072EB4A
:103AD000573203FB0CF734BFA2EBC742B2EBC7422D
:103AE00061EB57310CFB0EF7B0EBC70072EB57726E
:103AF0000CFB08F734BFA2EBC702B2EBC70261EBC5
:103B00005771039F4FEA816141EA921104EBCC04A3
:103B10004FEAD1374FEA826206FB07FC42EA901275
:103B20004FEA80604FEA1C4C0CFB0BF7D21B03FBE7
:103B30000CF761EB07010CFB0EF7B0EB074072EBE3
:103B400017420CFB08F734BFA2EB0742B2EB074267
:103B500061EB17414FEA8C554FEA910704EB9C2427
:103B600006FB07FC4FEA1C4C0CFB0BF7B0EBC74005
:103B700072EB573203FB0CF734BFA2EBC742B2EB38
:103B8000C74261EB57310CFB0EF7B0EBC70072EB8D
:103B900057720CFB08F734BFA2EBC702B2EBC702A7
:103BA00061EB577115EB4C254FEA816141EA9211A7
:103BB0004FEA82624FEAD13742EA901206FB07FCD5
:103BC00044F100044FEA80604FEA1C4C0CFB0BF7F9
:103BD000D21B03FB0CF761EB07010CFB0EF7B0EBFC
:103BE000074072EB17420CFB08F734BFA2EB074209
:103BF000B2EB074261EB174115EB1C154FEA81311F
:103C000041EA92414FEA823242EA90424FEA8030E2
:103C10004FEA0C7644F1000448EA03434EEA0B48AD
:103C20004FF0000EB2EB080C71EB030724BF6246A5
:103C300039464EEB0E0E4FF0000B00185241494131
:103C40004BEB0B0BB2EB080C71EB03077BF1000B9A
:103C500024BF624639464EEB0E0E4FF0000B0018A3
:103C6000524149414BEB0B0BB2EB080C71EB0307D4
:103C70007BF1000B24BF624639464EEB0E0E51EA33
:103C8000020718BF46F0010616EB0E7655F100024A
:103C900054F1000103D5BDE88901BDE80088BDE805
:103CA0008901BDE80048B619524141EB0101A3F179
:103CB0000103704780807F7E7D7C7B7A7978777680
:103CC00076757473727171706F6E6E6D6C6C6B6AF9
:103CD0006A69686867666665646463636261616097
:103CE000605F5F5E5E5D5D5C5C5B5B5A5A59595814
:103CF000585757565655555554545353525252517E
:103D0000515050504F4F4F4E4E4D4D4D4C4C4C4BD3
:103D10004B4B4A4A4A49494948484847474747461A
:103D20004646454545444444444343434342424256
:103D300042414141002B26D4770021D01CB54FEAE7
:103D4000370703B44FF010004FF010014FF00000A0
:103D50000FBCBDE810400BF1010BBBF1010F08BF18
:103D60005FEA170722BF12F1010211F101014FF0C2
:103D7000004143F1000300F0004043EA00007047B7
:103D8000F9D35708DAE746EA064613F1400F4FEA3F
:103D900016461FDD13F1200FDFBF16430A46002130
:103DA00020335B42C8D0C3F1200746EA064602FA38
:103DB00007F74FEA164646EA0706C3F1200722FA3C
:103DC00003F201FA07F721FA03F14FF0000342EA88
:103DD0000702B1E746EA020646EA06464FEA1646F9
:103DE00046EA0106BCBF46EA0646360C4FF0000321
:103DF0004FF000024FF000019EE72DE9C0489346C6
:103E000030B491E8380007C831EA400C48BF34EAC2
:103E1000430C03D5FFF7F2FDFFF78CFFF0BCBDE8C4
:103E200000882DE9C048934630B491E8380007C8AF
:103E300010F0804F08BF13F0804F03D100F005F859
:103E4000FFF778FFF0BCBDE8008820F07F4780EAEC
:103E5000030023F07F4C07EB0C03A3F57C5300F029
:103E60000040A3F1FE0392F0000F00F0B38095F044
:103E7000000F00F077802DE901494FEA11404FEA29
:103E8000144621EA004800FB06FC24EA064708FB2A
:103E900006F607FB08F800FB07F718EB06484CEBA3
:103EA000164C4FEA124B18EB07484FEA15464CEBFD
:103EB000174022EA0B4E0BFB06FC25EA06470EFBD9
:103EC00006F607FB0EFE0BFB07F71EEB064E4CEB50
:103ED000164C4FF000061EEB074E4CEB174B18EB41
:103EE0000B0840F1000018EB0E0B58EB000840F1F6
:103EF00000008F1A4FF000013CBFC943661B14BF7E
:103F0000B5EB040C00213CBFC943F61B4FEA174434
:103F10004EEA8E0E27EA04454FEA1C4704FB07626F
:103F20002CEA074C05FB07F70CFB05F604FB0CFC21
:103F300016EB074642EB174216EB0C4642EB1C42CF
:103F40001BEB060658EB0202414146EA9E0601D5EC
:103F5000BDE80189B619524141EB0101A3F101030A
:103F6000BDE801894FEA14454FEA114724EA0546A6
:103F700021EA074C05FB07F406FB07F70CFB06F1EB
:103F800005FB0CFC11EB074144EB17444FEA1247C9
:103F900011EB0C4144EB1C4422EA074C05FB07F2F1
:103FA00006FB07F70CFB06F605FB0CFC16EB0746B9
:103FB00042EB174216EB0C4642EB1C456A1854F1D3
:103FC000000148BF7047B619524141EB0101A3F10E
:103FD0000103704795F0000F37D04FEA11424FEAC6
:103FE000144721EA024624EA074C02FB07F106FBCC
:103FF00007F70CFB06F402FB0CFC14EB074441EB47
:1040000017414FEA154714EB0C4441EB1C4125EADC
:10401000074C02FB07F506FB07F70CFB06F602FB55
:104020000CFC16EB074645EB174516EB0C4645EB2B
:104030001C42121951F1000148BF7047B619524194
:1040400041EB0101A3F1010370474FEA14454FEA28
:10405000114724EA054621EA074C05FB07F106FB58
:1040600007F70CFB06F24FF0000605FB0CFC12EB09
:10407000074241EB174112EB0C4251EB1C4148BF88
:104080007047921841EB0101A3F101037047490009
:1040900050EAC12018BF04204A0D18BF40F00100AB
:1040A00040F2FF72B2EB515F08BF40F002000128FE
:1040B00008BF052070472DE9F0414F1E00EBC701F6
:1040C0000446D1E9000115461E4637F006020DD020
:1040D0002A46334601F09EF87F1E04EBC703D3E95E
:1040E000002300F001FE37F00602F1D1022F25D0A7
:1040F000042F13D0062F18BFBDE8F0812A4633469F
:1041000001F088F8D4E90A2300F0EEFD2A46334690
:1041100001F080F8D4E9082300F0E6FD2A46334692
:1041200001F078F8D4E9062300F0DEFD2A46334694
:1041300001F070F8D4E9042300F0D6FD2A46334696
:1041400001F068F8D4E9022300F0CEFD2A46334698
:1041500001F060F8D4E90023BDE8F04100F0C4BDEF
:10416000002213461046014900F07ABE0000F03FDD
:1041700000F0BABD002213461046114600F070BE92
:1041800040F2013200204FF0E04101F0F8BB0000A6
:10419000024A0020110701F0F2BB000001FDFFFF01
:1041A00030380A2801D201207047002070470000F3
:1041B0002DE9F041C1F30A52A2F2FF362F4A304BEB
:1041C0000D460446142E2FDA002E12DA00F08CFD74
:1041D0000022134601F01CF94CD2002DA4BF00248C
:1041E000254647DA25F00040204318BF254D41D031
:1041F00018E0DFF894C02CFA06F705EA070C5CEA31
:10420000040C08BFBDE8F08100F06EFD00221346EB
:1042100001F0FEF82ED2002D03DA4FF48010F040AA
:104220000544BD43002425E0332EC8BFBDE8F0811E
:10423000A6F1140C4FF0FF3727FA0CF73C4208BFE9
:10424000BDE8F08101F01AF90022134601F0E0F810
:1042500010D2002D0DDA142E08BF6D1C09D0C6F146
:104260003400012101FA00F02044A04238BF6D1C47
:104270000446BC4329462046BDE8F0819C75008871
:104280003CE4377E0000F0BFFFFF0F002DE9F04D4A
:1042900016460F4694B01C4621F0004123F0004220
:1042A000002814BF4FF0010C4FF0000C0CEB470C32
:1042B000FE4B0CEB03054FEA630C65452BD3350031
:1042C00018BF012505EB44051D44F94B9D4222D33F
:1042D000F84B52EA060C02D09F4205D148B914B0FF
:1042E00000201946BDE8F08D002808BF4FF0000CF3
:1042F00001D04FF0010C0CEB470313F5001F0AD857
:10430000002E14BF4FF0010C4FF0000C0CEB4403D7
:1043100013F5001F07D914B0324623463946BDE8CD
:10432000F04DFFF725BFDFF890834FF0000A002F14
:10433000B8BF424523DAE14B9A42A8BF4FF0020AC8
:104340001DDADC4B93421ADCDD4B03EB2253142BBA
:1043500008DDC3F1340C26FA0CF303FA0CFCB44567
:104360000DD108E05EB9C3F1140C22FA0CF303FA84
:104370000CFC944503D103F00103C3F1020A51EA96
:1043800000031BD1002C19DA002F18BFBAF1020F5D
:1043900002D0BAF1010F07D00220FEF720FE14B0C0
:1043A000BDE8F04DFFF7DCBE0220FEF718FEFFF778
:1043B000D7FE14B081F00041BDE8F08D330070D11C
:1043C000424525D107F1804212F5801201BF002835
:1043D0000020B84914B008BFBDE8F08DB548884248
:1043E00007DC002CA1BF1846214614B0BDE8F08DB3
:1043F00007E0002CBFBF184684F0004114B0BDE8B0
:10440000F08DB0497944D1E9000114B0BDE8F08DD8
:10441000DFF8A0C262452AD1002C24DA39B1414527
:1044200017D1002804BF002002461CD106E040B18D
:104430000220FEF7D4FDFFF7A3FE0A46394600F03E
:10444000D7BA9D4A394614B0002062F31E01BDE878
:10445000F08D08DA14B03B46BDE8F04D024600206E
:10446000614600F0FDBC14B03946BDE8F08D414511
:1044700017DAB4F1804F0CD0A4F10053B3F1FF531D
:104480000FD13B1E0DDB14B01946BDE8F04D00F016
:10449000D9BB3B4614B00246BDE8F04D194600F0CA
:1044A000B9BE050027F000433AD1E1B1414537D10B
:1044B000002F06DD002CA1BF0020414614B0BDE84E
:1044C000F08D002F01DD002C1FDB002F16DA002CF1
:1044D00014DBBAF1010F4FF0000014BF76497A499E
:1044E00014B0BDE8F08DBAF1020F18BF002F0CD048
:1044F000BAF1010F09D1002F07DA0BE0002FB8BF86
:10450000002C0DDABAF1010F04D0002014B00146DE
:10451000BDE8F08D14B000204FF00041BDE8F08DF3
:104520004FF0010808EBE77CCDF814C05CEA0A0CF8
:104530000DD0DFF898C162457EDDDFF894C1654B90
:10454000624512DD8B420ADB002C18DB23E00120E0
:10455000FEF745FD14B0BDE8F04DFFF70BBE554A20
:104560008A4202DC002C0ADC15E0994202DA002CB7
:1045700011DA04E04F4B994219DD002C0BDD0220CB
:10458000FEF72DFDFFF7FCFD4B4A14B061F31E0250
:104590001146BDE8F08D0220FEF721FDFFF7F8FD82
:1045A000444A14B061F31E021146BDE8F08D0022AA
:1045B000394601F055F807460D466FF0010201F04B
:1045C000DEF94FF05532444B00F058FF3A462B4687
:1045D00000F020FE0022414B00F050FF80468B4649
:1045E0003A462B461046194600F014FE42465B46FA
:1045F00000F010FE88460E904FF0C042384B38460F
:10460000294600F007FE83460091364A344B414666
:104610000E9800F0FFFD80460191334A334B384637
:10462000294600F0F7FD4246019B01F019F80D46BE
:1046300002460B460C9000E011E05846009900F04D
:1046400053FB002788465A463846009B01F008F87D
:104650002B460C9A00F012FF024600F079B90020B8
:10466000B1F5801F07DA35222846194601F087F98F
:1046700005466FF0340000EB2150A0F2FF300190AE
:10468000C1F3130040F07F6141F04051029118499D
:104690008842D8BF4FF0000B35DD16498142C8BFB4
:1046A0004FF0010B2FDC4FF0000B25E0FFFF1F0048
:1046B000FFFF0F000000F03F0000F07F00004043CC
:1046C00001FCFFFFD01600000000F0FF0000E041F9
:1046D0000000F043FFFFEF3F5555D53F0000E03F9E
:1046E0004715F73FFE822B6544DF5DF80BAE543E65
:1046F0008E9803007AB60B000198401C0190029836
:10470000A0F580100290FF480299784400EBCB009E
:104710000991D0E9002328460B93129200F0A0FFE4
:1047200000910A9028460B9B129A099900F0DCFA36
:1047300002460B460020F44900F092FBCDE90C0143
:104740000B46024600990A9800F064FD0690EF4877
:104750008846002778440299006810904FF0005076
:1047600040EA610000EB8B4000F5002102910B9BB9
:10477000129A109800F074FF2A46099B00F07EFE02
:104780003A46434600F046FD0891129038464146AD
:10479000029B109A00F03EFD009B0A9A00F06EFE0C
:1047A000089B129A00F05CFFDDE90C2300F032FD5B
:1047B0000B91069A129043461046194600F02AFDC6
:1047C00005460246D2480B460A9106217844FFF777
:1047D00072FC0A9B2A46089102901046194600F086
:1047E00019FD089B029A00F015FD05460991434604
:1047F00038461946069A00F077FA0B9B129A00F099
:1048000009FD2A46099B00F06FFACDE908013A46F6
:1048100043461046194600F0FDFC0A910022BD4BAC
:10482000009000F061FADDE9082300F05DFA0D4622
:104830003A46B84B384600F013FF0A9B009A00F046
:104840000FFFDDE9082300F019FECDE908013A4623
:104850002B461046414600F0DDFC00910A90DDE950
:1048600008014346069A00F0D5FC069088462B4680
:104870003A460B99129800F0CDFC4346069A00F098
:1048800033FA80460B4602460D9100990A9800F0D3
:104890002BFA00200F460546009B0A9A00F0E0FE26
:1048A00042460D9B00F0EAFD88460E904FF06042B4
:1048B000994B2846394600F0ADFC02910090974A8A
:1048C000954B41460E9800F0A5FC80460391944A12
:1048D000944B2846394600F09DFC4246039B00F06D
:1048E00003FA914A7A4402EBCB03D3E9002300F0A8
:1048F000FBF905460791019800F039FC0C900391F3
:104900002A46079B0299009800F0EEF9874A7A44FC
:1049100002EBCB03D3E900239346019300F0E4F9C3
:10492000039B0C9A00F0E0F9002788463846039B69
:104930000C9A00F095FE5A46019B00F091FE029BF6
:10494000009A00F08DFE2A46079B00F097FD024674
:104950000020069005986C4DAAF10103184301D17F
:10496000734D069000200B4604903046214600F01F
:1049700051FC82468B46234630461946049A00F085
:104980006FFE3A46434600F045FC52465B4600F057
:10499000ABF906468A463A4643462146049800F05B
:1049A00039FC04460F463246534600F09DF9614AF1
:1049B0008B46914221DBABEB020353EA000210D19C
:1049C00022463B4600F04CFE804603915A4A5B4B20
:1049D0003046514600F088F94246039B00F018FD2E
:1049E00027D20220FEF7FBFAFFF7CAFB0A46294648
:1049F00014B062F31E01BDE8F08D514B2BF0004264
:104A00009A4216D34F4A0BEB020353EA000208D135
:104A100022463B4600F024FE3246534600F0F8FCA6
:104A200007D80220FEF7DBFAFFF7B2FB0A46294659
:104A3000DEE72BF000404449444A01EB20514FF09F
:104A40000008824223DA481C4FF4801121FA00F05A
:104A500058443F4AC0F30A517A443E4BA1F2FF3119
:104A6000CB4020EA0303C0F3130040F4801CC1F1E3
:104A7000140012682CFA00F8BBF1000FB8BFC8F19F
:104A800000082046394600F0EBFD04460F4622465A
:104A90003B463046514600F027F94FF0000B5A468E
:104AA0002D4B5846039100F0B5FB00910A902B4A1C
:104AB0002B4B5846039900F0ADFB0491029022461F
:104AC0003B465846039900F0CBFD3246534600F072
:104AD000D5FC244A244B00F09DFB049B029A00F075
:104AE00003F907468A46009B0A9A00F0FDF804463F
:104AF0000E46009B0A9A00F0B3FD3A46534600F07A
:104B0000BDFC33E0421300000000F03F80130000C2
:104B1000B01200000000084009C7EE3FFD033ADC78
:104B2000F5015B14E02F3EBE881100004E1100001D
:104B30000000F0BF00009040FE822B654715973CB7
:104B400000CC904000346F3F01FCFFFF0000E03FCD
:104B50007C100000FFFF0F00432EE63F396CA80CCD
:104B6000615C20BEEF39FAFE422EE63F0746224640
:104B700033460F911046194600F04CFB834602461F
:104B80002E488A460B4605217844FFF794FA5A4688
:104B9000534600F03FFB2246334600F06FFC82464E
:104BA0008B463A46204631460F9B00F033FB3A468F
:104BB0000F9B00F099F80F460A9000224FF08043B7
:104BC0005046594600F04CFD0391009052465B461A
:104BD0002046314600F01EFB039B009A00F040F98E
:104BE0003B460A9A00F03CFD2246334600F038FD71
:104BF0000022134B00F042FC0E46044601EB085124
:104C00000815002810DC42462046314600F0B7FE69
:104C1000FFF73DFA042808BFFFF7BAFA42462046DC
:104C2000314600F0ACFE044606980B4614B022460E
:104C30002946BDE8F04D00F0EDBA0000240F000059
:104C40000000F03F2DE9F04106460F4600F022FC3F
:104C500004000D4618BF0120284320F00040C0F199
:104C60007F6000F1E040C00F0ED0301C18BF012063
:104C7000384320F00040C0F17F6000F1E040C00FF9
:104C800004BF0120FEF7ABF920462946BDE8F081BC
:104C900010B500290AD00878002807D005487844C4
:104CA000FEF7D4FD002801D0002010BD0248784452
:104CB00010BD0000F60E0000EE0E000010B5002939
:104CC0000AD00878002807D005487844FEF7BEFDD2
:104CD000002801D0002010BD0248784410BD00001B
:104CE000DA0F0000D20F000010B591EA030F48BFA1
:104CF00083F0004300F1BC84841A71EB030C05D2ED
:104D0000121943EB0C03001B61EB0C01DFF824E1EB
:104D10004FEA1154A4EB135C1EEA430F18BF9EEA3E
:104D2000445F73D023EA0E03DCF1200E21EA045124
:104D300043F4801332D322FA0CFE10EB0E0023FA58
:104D40000CFE41EB0E01CCF1200E03FA0EFE10EB2F
:104D50000E0051F10001B1F5801FCCF1200E32D2CE
:104D600001EB045112FA0EF2BDE8104058BF704733
:104D7000401C38BF5FEA420218BF7047002814BFCA
:104D800020F0010041F100014FEA410313F5001F3B
:104D900038BF7047A1F1C04100F034BB012A43EB9A
:104DA0000302ACF1200CDCF11F0E32BF4FF0000EFD
:104DB00023FA0CF310EB030041EB0451B4EB115F49
:104DC000D0D0A1EB045101F5801149085FEA300011
:104DD00001EB04510ED350F1000038BF12FA0EFE61
:104DE00008D1BDE81040C9E7401C38BF5FEA420265
:104DF000CAD1C3E7BDE810404FEA410313F5001FD5
:104E000038BF7047A1F1C04100F0FCBA9EEA445F90
:104E100008D011EA5E0FBDE8104004BF01F0004168
:104E200000207047BDE8104070B500F09DFA00BF4B
:104E300064FBBE3E0000E0FF02494FF0000000F0BE
:104E40006CBD00BF0000F87F491058BFC1F1404160
:104E50005B1058BFC3F140438B42EFF300807047B3
:104E60002DE9C04130B4DFF8A0C23CEA111418BFEC
:104E70003CEA131400F0EC8081EA03051CEA1114EB
:104E800044EAD57418BF1CEA131500F0C780A4EBE0
:104E900005044FF0004545EAC12145EAC32341EA34
:104EA000505143EA525304F17F74994204F500349F
:104EB0004FEAC0204FEAC22208BF904200F09C8017
:104EC0004FEA13650FF24016765D4FEA134506FB75
:104ED00005F7C7F1807706FB07F74FEAD737A7FB3F
:104EE00003687642C8F58038A7FB06CE38BFA8F124
:104EF000010807FB08E64FF0000EA6FB028CE6FB5C
:104F000003CEDCF1000CCEF1004E38BFAEF1010E45
:104F1000A6FB0C584FF000074FF00005E6FB0E878C
:104F2000A1FB08C6A0FB07CE16EB0E0645F1000557
:104F3000E1FB076515F1E04E7EBFA4F580345FEA22
:104F400046066D4116F1800745F100054FEA172727
:104F50004FEA066647EA0567A6F1DE46B6F1805FCE
:104F60004FEA15251FD9384624F0010C05EBC47112
:104F7000BCF1FE6F01EB0C1102D8F0BCBDE8008162
:104F800024425CBF01F5801E9EEAC47F02D4F0BCBF
:104F9000BDE80081244238D4F0BCA1F1C041BDE895
:104FA000004100F02FBA4FEAD22242EA43524FEAC0
:104FB000D323A7FB02864FEAD02040EA415007FBEB
:104FC00003661EEA0E0F4FEAD12105FB026658BFA9
:104FD000A6EB0056B6EB00564FEA520E4EEAC37EE1
:104FE00018EB0E0E56EB530EBDD518EB02085E41C2
:104FF0007F1C55F10005B6E74FF480154FF0000710
:105000004FF000064FF00008ADE7F0BC4FF0000095
:1050100001F1C04101F00041BDE8008111EA0C1F1F
:105020000CEA131500D00CE013EA0C1F00F02580E9
:105030004FF00000F0BC81EA030101F00041BDE83F
:105040000081F0BCBDE8004181EA030100F0DAB95B
:10505000F0BCBDE8004170B500F086F9097EFC3E69
:1050600000F007B881EA03014FF0000001F00041B1
:10507000704781EA030100F0C5B9F0BCBDE800410A
:105080004FF0000021497047FFFDFBF9F7F5F4F2FE
:10509000F0EEEDEBE9E8E6E4E3E1E0DEDDDBDAD8D3
:1050A000D7D5D4D3D1D0CFCDCCCBCAC8C7C6C5C431
:1050B000C2C1C0BFBEBDBCBBBAB9B8B7B6B5B4B348
:1050C000B2B1B0AFAEADACABAAA9A8A8A7A6A5A433
:1050D000A3A3A2A1A09F9F9E9D9C9C9B9A999998F7
:1050E0009797969595949393929191908F8F8E8E9A
:1050F0008D8C8C8B8B8A8989888887878685858427
:1051000084838382828181800000FF070000F87F12
:105110004FEA41034FEA5353A3F58063D3F11E03D3
:10512000C8BFD3F1210C0CDD4FF0004242EAC1228E
:1051300042EA505232FA03FC8CEAE17CACEBE170BB
:105140007047102BC4BF0020704703F5787CBCF17A
:10515000FF3F04D06FF0004282EA2100704770B533
:1051600000F002F94992248000207047F2E710F025
:10517000004248BF4042B0FA80F310FA03F10AD06F
:10518000C3F11D0303F580634FEA415002EB035264
:1051900002EBD12170474FF00000704751EA030C39
:1051A00017D41CF5801F58BFBCF5801F00F1068086
:1051B000994218BF704708BF9042704707D711F552
:1051C000801F58BF13F5801F19D499427047894238
:1051D00070471CF5801F08D5BCF5801FF7D58B42A2
:1051E00018BF704708BF824270474FF4001C1CEB89
:1051F000410F38BF1CEB430F01D28B42704770B593
:1052000000F0B2F8922449004FF000514FF0805363
:10521000FFF71ABEDFF848C170B51CEA111E1EBFA9
:105220001CEA13159EEA0C0F95EA0C0F00F06F8034
:1052300081EA030423EA4C134EEAD47E21EA4C119E
:1052400041F4801143F48013AE44A1FB024CA0FB57
:105250000365AEF17F7E361955EB0C05A1FB034CBF
:105260004CF10003A0FB021C16EB0C06654153F148
:105270000003094218BF46F0010613F4007F0BD16A
:105280004FEA03314FEA0530340341EA155140EA51
:1052900016506FF003020AE04FEAC3214FEAC5201F
:1052A000F40241EA555140EA56506FF0020202EB17
:1052B0002E4201EB025585EACE710AD05FEA440C1A
:1052C00018BF24F0004450F1000041F1000120EA31
:1052D000D47040F2FE7C624500D270BDA84214BF7B
:1052E0004FF080444FF04044002E08BF0024BEF130
:1052F000806FA8BFA1F1C041BDE8704080F28280FC
:105300004FF0000001F1C04101F0004170479EEAFA
:105310000C0F0CEA131518BF95EA0C0F06D04FF0CE
:10532000000081EA030E0EF0004170BD00F01CF891
:105330008900013E00F007B800F009B84FEA430CBD
:105340005FEA5C5C08D081EA030100F05BB84FEAD9
:10535000410C5FEA5C5CF6D14FF0000001497047F8
:105360000000FF070000F87F0EF1020E2EF0030E82
:105370005EF8046B364205D4012A43EB030515F5AC
:10538000001F12D8012841EB010C1CF5001F0CD89E
:105390000ED14FEAD17C15F5001F0CEB4C0C0CF133
:1053A000020C08BF4CEBD37C04E04FF0080C01E08A
:1053B0004FEAD37C0CEB4C0526FA05F606F00706FF
:1053C000B6F1040C06D20EEB860CBDE870404CF032
:1053D000010C6047DFE80CF0090B02024FF00041BE
:1053E0004FF00000A1F5002170BD194610460128BC
:1053F00051EB010418BFD4F5001484BF002001F064
:10540000004170BD0808A0F500114FEA3101704756
:1054100053EA010C17D41CF5801F58BFBCF5801F40
:1054200000F106808B4218BF704708BF8242704768
:1054300007D713F5801F58BF11F5801F19D48B4271
:1054400070479B4270471CF5801F08D5BCF5801F34
:10545000F7D5994218BF704708BF904270474FF484
:10546000001C1CEB430F38BF1CEB410F01D29942CB
:1054700070470FB40CBC03BCFFF7C1BE91EA030F29
:1054800010B581F000413FF537AC83F0004300F0E8
:10549000EFB800002DE9F04101F5801CBCF5001FBC
:1054A000C0F2C3804FEA115C21EA0C510CF1FD0CF3
:1054B00041F480115FEA5C0C0CF5C07C01D3400024
:1054C00049413DA4890241EA905187028E0E0A0C9F
:1054D000A45D04FB04F602FB06F6C6F14046A4FBFD
:1054E0000662F60D46EA422606FB06F4A4FB0123FB
:1054F0005242C3F1404338BF5B1EA6FB0242002468
:10550000E6FB0324D20B42EA4446A6FB0623A1FB9A
:1055100002E2A3FB07E4A4184FF0000252F10002DC
:10552000E3FB01426442C2F1404E38BFAEF1010ECE
:10553000A6FB04234FF00002E6FB0E32A2FB03465B
:105540004FF00004B61954F10004E2FB0264A1FB21
:1055500006E6A4FB07E816EB08064FF0000858F132
:105560000008E4FB01687642C8F1405838BFA8F152
:105570000108A2FB06E4A3FB08E52D194FF0000487
:1055800054F10004E2FB0854A1FB05E6A7FB04E884
:1055900018EB06084FF0000656F10006E1FB048602
:1055A00018F1200556F10006A809A8F11B08B10959
:1055B00008F03F08B8F10A0F40EA86601CD901EBF9
:1055C0000C51BDE8F08100BFFCF5EEE8E2DDD8D378
:1055D000CFCBC7C3C0BDB9B6B4B1AEACA9A7A5A364
:1055E000A19F9D9B9A9896959392908F8D8C8B8975
:1055F0008887868584838281A0FB006800FB01F296
:1056000008EB4208B8EB872807D5341858EB01049B
:10561000D5D5401C51F10001D1E7341A78EB0104D3
:10562000CDD4401E71F10001C9E75FEA4C0C5FEA7E
:105630009C5C0DD105D34FF0000001F00041BDE8A6
:10564000F081BDE8F04170B5FFF78EFE6DDBFFBE67
:10565000BDE8F0414FF00000004970470000F87FBE
:1056600010B591EA030F48BF83F000433FF544AB08
:10567000841A71EB030C07D212198CF0004C43EB27
:105680000C03001B61EB0C01DFF8A4E14FEA11549D
:10569000A4EB135C1EEA430F18BF9EEA445F00F0C0
:1056A000B08023EA6E03524221EA0451C3EB6E0339
:1056B00038BF5B1EDCF1200E25D322FA0CFE10EB66
:1056C0000E0043FA0CFE41EB0E01CCF1200E03FA62
:1056D0000EFE10EB0E0051F10001CCF1200E29D48A
:1056E00012FA0EF201EB0451BDE8104058BF7047AA
:1056F000401C1CBFB2F1004F704700280CBF491C72
:1057000020F00100704712EB020E43EB030218BFBA
:105710004FF0010E4EEA4202ACF1200CDCF11E0EFD
:1057200054D943FA0CFE10EB0E0051F1FF31CCF1CD
:105730001E0ED5D50EF1010E12FA0EFE404141EBC0
:10574000010101EB445C5FEA5C5C10D910EBDE7098
:1057500001EB045138BFBEF1004FBDE8104018BF47
:10576000704700280CBF491C20F00100704730D260
:105770004FEAD42C11F5001124F400641BD0B1FAC7
:1057800081F20B3AA41AA41ED2F12003914030FA00
:1057900003F31943904001EBCC71002C01EB045151
:1057A000BDE81040A8BF704701F1C0414FF00000B4
:1057B00001F000417047B0FA80F310FA03F100D114
:1057C00010BDE41A173C4805C90AE4E701EB04518F
:1057D00010BD491001EB0451BDE810404FEA300004
:1057E00002E04FF0000170474A0008BF0042F8D0C5
:1057F000B2F5001F28BF704701F000414FF00000D4
:1058000070479EEA445F07D011EA5E0FBDE8104082
:1058100004BF002100207047BDE8104070B5FFF7BD
:10582000A3FD00BF40DFF63E83F000411046704705
:105830000000E0FF43004FEAD30C4FEA3C0C43402A
:105840001FBF40070CF1605113F0FE4F70471CF072
:10585000006F03D100200CF0004170470CF00043B2
:1058600043EA507010B540EACC0000F00EF800BFDB
:10587000000000924FEA0001FFF7C4BD4FF0004165
:105880004FF00000A1F5002170470EF1020E2EF03E
:10589000030E5EF8044B244204D44FEA4102B2F1F5
:1058A0007F4F11D84FEA4003B3F17F4F0CD80ED190
:1058B0004FEAD07CB2F17F4F0CEB4C0C0CF1020C98
:1058C00008BF4CEBD17C04E04FF0080C01E04FEA3C
:1058D000D17C0CEB4C0324FA03F404F00704B4F17C
:1058E000040C06D20EEB840CBDE810404CF0010C09
:1058F0006047DFE80CF0070802024FF00040A0F517
:10590000800010BD0846420018BFD2F1807288BFE7
:1059100000F0004010BDFDF798BC0CF00F03092B00
:1059200008BF082000F059800A2B0BD0082B18BFA5
:10593000704708BF1CF0400F0AD04FF000004FF036
:10594000000170471CF0400F18BF4FF00040704737
:105950001CF0100F08D020F0704300F07F4242EAA4
:10596000D3014FEA4370704700F0604021F07F425E
:1059700042EA000201F07F4040EA727070474FF047
:10598000FF0C4CF4E06C1CEA11531CBF9CEA030CA6
:105990009445C2BFDA4201EB02517047002B0DD093
:1059A000BCF1000F0FD0002A01F00041A4BF41F06C
:1059B000E04141F07F614FF00000704701F000418D
:1059C0004FF00000704750EA01334FF09B0C18BFB6
:1059D0004CF0806C7FF430AA70471CF4801F11D00B
:1059E0001CF4E02F03D06FEACC31490070474FF030
:1059F0004050EFF3008222F0704242EA000282F34C
:105A0000008870474FF0000070470000C0E0F0F8D9
:105A1000FC3031323334353637383941424344452E
:105A200046403058003031323334353637383961FA
:105A3000626364656640307800040000080000007E
:105A40000000000002000100001000000000000043
:105A5000000000000000F03F000000000000F83FE0
:105A600000000000000000000000004003B8E23F1A
:105A7000000000000000000006D0CF43EBFD4C3ECC
:105A8000033333333333E33FFFAB6FDBB66DDB3FC1
:105A90004D268F515555D53F01411DA96074D13F09
:105AA00065DBC9934A86CD3FEF4E454A287ECA3F03
:105AB0003E5555555555C53F93BDBE166CC166BF85
:105AC0002CDE25AF6A56113FF16BD2C541BDBBBE7E
:105AD000D0A4BE726937663E0000000000000000DE
