:020000040800F2
:10000000A8040020ED010008F1010008F301000838
:10001000F5010008F7010008F901000800000000E0
:10002000000000000000000000000000FB010008CC
:10003000FD01000800000000FF01000801020008A7
:100040000B0D000803020008030200080302000869
:100050000302000803020008A10A000803020008C6
:10006000030200080302000803020008030200085C
:10007000030200080302000803020008030200084C
:10008000030200080302000803020008030200083C
:10009000030200080302000803020008030200082C
:1000A000030200080302000803020008030200081C
:1000B000F5470008650D0008030200080302000868
:1000C00003020008030200080302000803020008FC
:1000D00003020008A9080008030200080302000840
:1000E000830B0008030200080302000800F002F876
:1000F00000F06DF80AA090E8000C82448344AAF155
:100100000107DA4501D100F062F8AFF2090EBAE852
:100110000F0013F0010F18BFFB1A43F0010318473B
:10012000E46A0000046B00000A444FF0000C10F871
:10013000013B13F0070408BF10F8014B1D1108BF65
:1001400010F8015B641E05D010F8016B641E01F805
:10015000016BF9D113F0080F1EBF10F8014BAD1C55
:100160000C1B09D16D1E58BF01F801CBFAD505E073
:1001700014F8016B01F8016B6D1EF9D59142D6D3CD
:10018000704700000023002400250026103A28BFF5
:1001900078C1FBD8520728BF30C148BF0B607047F9
:1001A000642905F0BB80752905F0B880782905F031
:1001B000ED80632905F06682732905F06B820020CB
:1001C00070471FB5AFF300801FBD10B510BD05F01F
:1001D00071FA1146FFF7F5FF00F091F805F08FFA7C
:1001E000FFF7F3FF00F052FB30BF00000848004764
:1001F000FEE7FEE7FEE7FEE7FEE7FEE7FEE7FEE7D7
:10020000FEE7FEE703480449024A044B704700003A
:10021000ED000008A8020020A8040020A802002089
:1002200070B591480078022868D1042000F098FF4A
:100230000021084605F06AFA00F098FE00208B497C
:1002400008608B49C1F8900188492839086001206D
:10025000086000200860012084491C390860834937
:100260002839086000242DE04FF08830814908606B
:1002700000207F49C1F884017E4808300068C5B27B
:100280000120C1F884012D020020C1F884017A48C0
:10029000D0F8080CC0B20543012074492839086021
:1002A0004FF0333073490860881574490861400085
:1002B000486170480C30056080204861086180000A
:1002C0000861641CB4F5963FCED3012067490860ED
:1002D00000206749C1F88401012064492839086079
:1002E000C0036749086000205F49087065480078CE
:1002F000401C64490870002000F032FF70BD1CB53E
:10030000092000F069FA4FF41651482000F007FB6D
:10031000482000F0FBF803F073FC00F081FB01F0D3
:100320000FF959488088A0F5D041043905D1F02053
:10033000554908804FF4A0704880544841684820CF
:1003400088474FF478405249088052A31022CDE9E3
:100350000023C8231A4632213C2003F012FC50A38C
:100360001022CDE90023C8231A4646213C2003F081
:1003700008FC4EA31022CDE90023C8231A465A21B7
:100380003C2003F0FEFB4DA31022CDE90023C8233F
:100390001A466E213C2003F0F4FB4BA31022CDE95A
:1003A0000023C8231A4682213C2003F0EAFB4BA31A
:1003B0001022CDE90023C8231A4696213C2003F0E1
:1003C000E0FB18E049A31022CDE90023C8231A4618
:1003D00096213C2003F0D5FBC82000F0AEF84FF684
:1003E000FF730093F623EF22E6213C2003F034F95B
:1003F000C82000F0A2F803F003FC0028E2D13FA3DC
:100400001022CDE90023C8231A4696213C2003F090
:10041000B8FB40F2DC5000F090F841F61F4142F288
:10042000107000F0B6FC00F0D2FB4FF4A073F02285
:10043000AE210A2003F030FD00200C49086011E0D5
:10044000FFF7EEFE0F48007884420BD00D48047889
:1004500006480C38006808B9012000E00020034974
:100460000C390860ECE700000C000020AC012142D0
:1004700000002142000C014000000140001001403A
:10048000140401400E0000203802002084000020E7
:10049000100000204D696E692053544D3332000026
:1004A0004F563736373020544553540041544F4D42
:1004B00040414C49454E54454B00000032303132EA
:1004C0002F31302F333100005573652055534D4186
:1004D000525420546F205365742100004F56373614
:1004E000373020496E69742E2E2E00004F56373655
:1004F0003730204572726F72212100004F56373617
:10050000373020496E6974204F4B00004FF0E021D6
:10051000096921F004014FF0E02211610146C21780
:1005200000EB5272D2101F4B1A70194609784FF423
:100530007A7251439A1C118070471A4A921C128891
:1005400042434FF0E0235A6100229A6101221A616E
:1005500000BF4FF0E022116911F0010F02D011F439
:10056000803FF6D000224FF0E0231A619A61704775
:100570000C4A127842434FF0E0235A6100229A61FC
:1005800001221A6100BF4FF0E022116911F0010F42
:1005900002D011F4803FF6D000224FF0E0231A6120
:1005A0009A61704700000020AC4A0A400243AC4BFD
:1005B0001A607047072323EA00021202A84B1B1D92
:1005C00019684FF6FF031940A64B194311434FF02A
:1005D000E023C3F80C1D70472DE9F04704460D4693
:1005E00016461F463046F11706EB91714FEAA109F6
:1005F000F11706EB91718910A6EB810101F0FF0A5A
:10060000042101EBCA0000F0FF0A3846FFF7D2FFD1
:10061000C7F1040004FA00F80F203841284040EAEE
:10062000080808F00F08202E09DA8F480068012119
:10063000B14008434FF0E021C1F800010BE08A48C7
:10064000001D0168A6F120020120904001434FF0F7
:10065000E020C0F80411854850F8290008FA0AF192
:100660000143824840F82910BDE8F08770B50D4677
:10067000CE1701EB9676B310CE1701EB9676B61037
:10068000A1EB8606B606340E794DAD6945F001053D
:10069000774EB5614FEAB63555F823600F25A54072
:1006A000AE43744D45F8236055F8235000FA04F624
:1006B0003543704E46F823506F4D2E6801258D400E
:1006C0002E436C4D083DC5F8006412F0010F09D0AF
:1006D000694D0C352E6801258D402E43654D083D32
:1006E000C5F80C6412F0020F09D0634D08352E686E
:1006F00001258D402E435F4D083DC5F8086470BD4F
:1007000000B500205A490861C860142048610020E3
:100710008861C8610846006840F00100086008462A
:1007200040685649084052494860084600685449A4
:1007300008404F4908600846006820F4802008609F
:100740000846406820F4FE004860002088600021D0
:100750004FF00060FFF728FF00BD10B5404808309B
:10076000006840F004004FF0E021C1F8100D40484F
:10077000C06940F080503E49C8614248406840F43A
:100780008070404948600846006840F004000860F6
:100790000846006840F002000860FFF725FD10BD24
:1007A0003048001D2E49091D086070470146084663
:1007B00049062F4A926942F001022D4B9A612D4A57
:1007C000083A526822F0E0622A4B083B5A601A4607
:1007D00052680A435A60704730B504460025FFF757
:1007E0008FFF2348006840F480302149086000BF33
:1007F0001F480068400CFBD04FF480601C494860E3
:10080000A01EC4B20846406840EA844048600846DA
:10081000406840F4803048601B48006840F0320077
:10082000194908601248006840F08070104908605B
:1008300000BF0F480068400EFBD00D48406840F0F4
:1008400002000B49486005E009484068C0F387058D
:1008500005F00305022DF7D130BD000080FFFF1F1A
:1008600008ED00E00000FA0500E100E000E400E02F
:100870000010024008000140000401400000FFF8A1
:10088000FFFFF6FE0070004000200240014600BF5E
:10089000704700BF5A4A128812F0400FFAD0C2B215
:1008A000574B1B1D1A8070475549098811F0200FBE
:1008B00034D05349091D0988C8B25249098811F436
:1008C000004F2BD14F49098811F4804F0CD00A28D2
:1008D00003D000214B4A118020E04A49098841F4A5
:1008E0000041484A118019E00D2806D14549098880
:1008F00041F48041434A118010E042490988C1F324
:100900000D01414A50543F490988491C3D4A118014
:1009100011460988C72901DD0021118070472DE9A2
:10092000F05F04460D46280105F021F9814637495C
:1009300004FB01F005F01BF98246494604F0E0FF94
:100940000646304605F0CEF887B2384605F00FF976
:100950008346314605F0B9F982464FF0834105F0F0
:100960000BF9814605F0BEF880463F0107EB080011
:1009700087B22748806940F004002549886108460D
:10098000806940F4804088612248006820F47F60DC
:100990002149C1F804080846D0F8040840F40B6067
:1009A000C1F804081A48C06840F480401849C8607B
:1009B0000846C06820F48040C8601848A0F808784D
:1009C0000F480C30008842F20C0108431349A1F88B
:1009D0000C080846B0F80C0840F48070A1F80C0828
:1009E0000846B0F80C0840F0200005490C3108809A
:1009F0000223252203210846FFF7EEFDBDE8F09F04
:100A000000380140040000207001002040420F0027
:100A10000010024004080140000001400030014085
:100A20001B48806940F004001949886108468069C4
:100A300040F0200088611748006820F00F00164938
:100A4000C1F804080846D0F8040840F00300C1F8D3
:100A500004080846D0F80C0840F48070C1F80C086F
:100A60000E48D0F8000420F470600C49C1F800046E
:100A70000846D0F8000440F44070C1F8000408466D
:100A8000D0F80C0440F00400C1F80C0470470000DA
:100A90000010024004080140000001400010014025
:100AA00010B50A20FFF749FD5F480068012812D100
:100AB0005D48A030006808B9012000E000205A49D4
:100AC000A03108605948D0F8880108B9012000E039
:100AD00000205749086001205649086010BD10B534
:100AE0005548806940F00400534988610220FFF7AF
:100AF0005DFE5248006820F00F005149C1F800081F
:100B00000846D0F8000840F00800C1F800084B483B
:100B1000001D00684B4908404949C1F8040847488E
:100B2000001D0068484908434549C1F804080846C3
:100B3000D0F80C0840F40050C1F80C080846D0F872
:100B40000C0840F40040C1F80C08022200210846BD
:100B5000FFF78CFD01220D210020FFF787FD012208
:100B60000F210020FFF782FD0223062219461846B6
:100B7000FFF732FD0223282201211846FFF72CFD42
:100B800010BD2C48006810F4004F1BD02F4800788F
:100B9000022817DA2D48007858B900202249803100
:100BA000086001202A49C1F880011F49B03108605E
:100BB00003E000201C49B031086024480078401C44
:100BC000224908704FF400401A490860704710B578
:100BD0001948806940F00400174988610120FFF737
:100BE000E5FD1648001D006820F070401449C1F86A
:100BF00004080846D0F8040840F00040C1F8040892
:100C00000846D0F80C0840F40040C1F80C08012256
:100C10000F210020FFF72AFD022328220121184678
:100C2000FFF7DAFC10BD00000001214200802242E3
:100C30008881224214040140001002400008014053
:100C400000000140FFFF0F0F000080800C0000201B
:100C50000000214245F255523B4B1A601A46506043
:100C600091604AF6AA221A604CF6CC421A6070478C
:100C70004AF6AA2034490860704770B504460D460C
:100C800016463248C06940F400603049C8613049B6
:100C9000097804EA01002E4908702E48006840EAED
:100CA000C6102D49C1F8040C0846D0F8040C40F4D5
:100CB0000070C1F8040C274800684FF680710840A6
:100CC0002549C1F8040C0846D0F8040C2843C1F8A3
:100CD000040C2048001F00681D49097841F080017C
:100CE00008431D49C1F8000C0223002203211846C5
:100CF000FFF772FC70BD1749091F096800F07F02F9
:100D00001143154AC2F8001C704710B5114800681D
:100D100000F07F031048D0F8000C00F07F049C42E4
:100D200003DA0B480078FFF7E6FF00200949091DA8
:100D300008600A48D0F8880108B9012000E00020C6
:100D40000749086010BD000000300040001002405C
:100D50000D000020042C00400020004000802242B2
:100D60008881224210B54948008810F0010F07D051
:100D70004748017847A004F071FA00204449087000
:100D80004248008820F001004FF08041A1F8100493
:100D900010BD70B504460D464248C06940F00200DF
:100DA0004049C86139481C3004808804A0F82854A0
:100DB000B0F80C0440F001008904A1F80C040846C6
:100DC000B0F80C0440F04000A1F80C040846B0F85C
:100DD000000440F00100A1F8000402231D220321B9
:100DE0000120FFF7F9FB70BD2E4AD26942F00202E2
:100DF0002C4BDA612C4A126822F00F022B4BC3F8FD
:100E000004281A46D2F8042842F00402C3F8042841
:100E10001A46D2F8002822F07042C3F800281A4679
:100E2000D2F8002842F03042C3F800281A46D2F81F
:100E30000C2842F08002C3F80C289A03A2F82C0474
:100E4000A2F82814B2F8182442F4E0429B03A3F855
:100E500018241A46B2F8182442F40062A3F81824A1
:100E60001A46B2F8202442F01002084B10331A80C0
:100E7000DA13D303A3F80024D203B2F8002442F01B
:100E80000102024B103B1A80704700001004004022
:100E90000E0000206672616D653A25646670730D00
:100EA0000A00000000100240040801400000014058
:100EB0004FF48071FF4A516149005161FE49086059
:100EC00080215161116189001161704710B54FF0A7
:100ED0008830F9490C390860F849C1F8040C002041
:100EE000F54908608815F3490861400048614020D1
:100EF0004861F3488088A0F50941893902D1022070
:100F0000FFF736FB4020EB490861EB48001F006803
:100F100084B2481508614FF03330E849C1F8000C3D
:100F2000E549083908604FF6FF70E449C1F80C0C38
:100F3000204610BD10B504460B462046FFF7B8FF0B
:100F40004FF48070DB49086140004861DA48036073
:100F50008020486108618000086110BD10B504461A
:100F60002046FFF7A5FFFFF7B1FF10BD00B5D4493C
:100F7000C879FFF79DFF00BD4FF48071CD4A116124
:100F800049005161CC49086080215161116189009B
:100F90001161704730B5014601F01F04C1F34513DC
:100FA000CA0AE50205EB43151544A8B230BD2DE988
:100FB000F04104460D46C2480088A04203DDC04807
:100FC0004088A84202DC0020BDE8F0812946204686
:100FD00004F09CFBBA488088A0F51341413905D044
:100FE000B7488088A0F5D041043903D12E20FFF7FF
:100FF0005FFF02E02220FFF75BFF4FF08830AE4931
:101000000C390860AD49C1F8040C4FF6FF70AA49CD
:1010100008608815A7490861400048614020486180
:101020000120FFF7A5FA4020A2490861486101208C
:10103000FFF79EFA40209F4908619F48001F006803
:1010400086B29F488088A0F5134141390BD14020DA
:101050009849486108619848001F00681FFA80F8A5
:10106000F7B23F020DE096488088A0F5D0410439E0
:1010700007D140208F49486108618F48001F0068F0
:1010800086B24FF400708B4908614FF033308A49C3
:101090000C3908608949C1F8040C4FF6FF70C1F89B
:1010A0000C0C87488088A0F51341253917D0844857
:1010B0008088A0F58A41353911D081488088A0F513
:1010C0008A4131390BD07E488088A0F509418939A1
:1010D00005D07B488088A0F53541053901D13046DF
:1010E00072E777488088A0F51341413907D1F012A3
:1010F000C002B91240EA411040EAE82064E73046F5
:10110000FFF748FF60E700B56D488088A0F5134100
:10111000413905D06A488088A0F5D041043903D10F
:101120002920FFF7C5FE04E040F273110720FFF706
:1011300001FF00BD00B562488088A0F51341413928
:1011400005D05F488088A0F5D041043903D128201C
:10115000FFF7AEFE03E000210720FFF7EBFE00BD26
:10116000F0B50446002500275548807901281ED196
:1011700053488088A0F5D041043918D0082C15D2E6
:10118000DFE804F00406080A0C0E101206240DE035
:1011900007240BE0042409E0052407E0012405E00E
:1011A000002403E0032401E0022400BF00BF444800
:1011B0008088A0F51341413905D041488088A0F5C9
:1011C000D041043975D1082C1CD2DFE804F00406A4
:1011D000090C0F12151800BF14E045F0800511E04E
:1011E00045F040050EE045F0C0050BE045F0200558
:1011F00008E045F0600505E045F0A00502E045F097
:10120000E00500BF00BF362745F008052C48808860
:10121000A0F5D041043901D145F0020529463846F0
:10122000FFF788FE15F0200F0DD0254800882449CF
:101230004988884214DA2248068840882049088074
:10124000084646800CE01E4800881D4949888842AF
:1012500006DD1B48068840881949088008464680F4
:101260001749087AFFF724FE4FF48070114908618E
:101270004000486100201049086080200D49486105
:10128000086180000861401008614000486100204A
:101290000A49C1F80C0C80200649486108618000A9
:1012A0000861401008614000486105480088401E00
:1012B00008E061E0001001400C0C0140000001401A
:1012C000380200200012FF4908608020FE49486172
:1012D0000861800008614010086140004861FB48D7
:1012E0000088401EC0B2F74908608020F649486176
:1012F000086180000861F549487AFFF7D9FD4FF48D
:101300008070F1490861400048610020ED490860A3
:101310008020ED4948610861800008614010086143
:10132000400048610020E74908608020E6494861A4
:101330000861800008614010086140004861E3488E
:101340004088401E0012DF4908608020DE49486165
:101350000861800008614010086140004861DB4876
:101360004088401EC0B2D74908608020D6494861F5
:1013700008618000086131E0082C1CD2DFE804F02D
:1013800004070A0D0F12151845F0300513E045F05B
:10139000100510E045F020050DE000BF0BE045F022
:1013A000380508E045F0280505E045F0180502E09D
:1013B00045F0080500BF00BFC4488088A0F509417A
:1013C000893904D1112746F24000054302E0032782
:1013D00045F4805529463846FFF7ACFDF0BD70B5A1
:1013E00004460D462946204604F090F9FFF7BEFD5D
:1013F0004FF48070B449086140004861B4480088E7
:10140000B04908608020B0494861086180000861E7
:1014100070BD10B50446002C3DD1AC498871F02058
:1014200008804FF4A070488008468088A0F51341DA
:10143000413905D0A5488088A0F5D041043914D1A0
:101440002C20A249C8712A2008722B204872084615
:101450008088A0F5D04104394ED14FF4A0709B494B
:1014600008804FF4F070488046E098488088A0F5E6
:101470000941893907D122209449C8714E20087248
:101480004F20487238E022209049C871202008720D
:101490002120487230E08D488088A0F5D041043981
:1014A0002AD00120894988714FF4A0700880F0206B
:1014B000488008468088A0F51341413907D12C2087
:1014C0008249C8712A2008722B20487214E07F4894
:1014D0008088A0F50941893907D122207B49C8714C
:1014E0004F2008724E20487206E022207749C871CA
:1014F00021200872202048720020FFF731FE10BD25
:1015000070B504460026714805884088454300218F
:10151000084604F0FBF8FFF729FD00BF0DE04FF48B
:101520008070694908614000486166480460802015
:101530004861086180000861761CAE42EFD370BD3F
:1015400010B56448806940F0080062498861084627
:10155000806940F0100088610846806940F0010011
:1015600088610120FFF722F9574840686FF30B00AC
:10157000554948600846406840F2333108435249B3
:1015800048600846006820F07F4008600846006810
:1015900040F04C5008600846C06840F4F860C860ED
:1015A0004FF033304749083908604B49C1F8000C07
:1015B0004FF6FF70434908603220FEF7BEFF01215D
:1015C0000020FFF7B7FC3220FEF7B7FF0020FFF73F
:1015D000C5FC3E49888008468088FF280ADB08460B
:1015E0008088A0F57F41FF3904D038488088B0F565
:1015F000134F45D1D320FFF75BFCFFF767FCFFF7E4
:1016000065FCFFF763FC3149888008468088000646
:10161000000C8880FFF75AFC2C49898808432B4925
:10162000888008468088A0F51341413918D0BF2032
:10163000FFF73EFCFFF74AFCFFF748FCFFF746FCCC
:10164000FFF744FC21498880084680880006000C8A
:101650008880FFF73BFC1D49898808431B49888027
:101660001A488088A0F51341413909D0174880886D
:10167000A0F5D041043903D049F2413013498880A4
:101680001248818815A003F0E9FD10488088A0F574
:10169000134141397ED1CF20FFF70AFC4FF480700F
:1016A000094908614000486100200649086080201F
:1016B00005494861086180000861401008614000E8
:1016C000486113E00C0C014000100140380200207A
:1016D000100000200010024000000140204C434454
:1016E0002049443A25780D0A00000000C120FF4936
:1016F000C1F80C0C8020FE49486108618000086137
:1017000040100861400048613020FA49086080209C
:10171000F7494861086180000861ED20FFF7C8FBC8
:101720004FF48070F2490861400048616420F1493B
:1017300008608020EE49486108618000086140101F
:101740000861400048610320EA4908608020E849B8
:1017500048610861800008614010086140004861EC
:101760001220E44908608020E14948610861800056
:10177000086140100861400048618120DD4908602F
:101780008020DB494861086180000861E820FFF79C
:101790008FFB00E091E34FF48070D5490861400071
:1017A00048618520D34908608020D149486108619B
:1017B0008000086140100861400048611020CD4958
:1017C00008608020CA4948610861800008614010B3
:1017D0000861400048617A20C64908608020C449F9
:1017E0004861086180000861CB20FFF761FB4FF47E
:1017F0008070BF490861400048613920BD490860D8
:101800008020BB4948610861800008614010086180
:10181000400048612C20B74908608020B4494861E5
:1018200008618000086140100861400048610020A4
:10183000B04908608020AE494861086180000861B5
:1018400040100861400048613420AA4908608020A7
:10185000A7494861086180000861401008614000A4
:1018600048610220A34908608020A14948610861BD
:1018700080000861F720FFF71BFB4FF480709C4944
:1018800008614000486120209A49086080209849FA
:101890004861086180000861EA20FFF709FB4FF406
:1018A00080709349086140004861002091490860B8
:1018B00080208F49486108618000086140100861FC
:1018C0004000486100208B490860802088494861B9
:1018D000086180000861C020FFF7EAFA4FF48070C9
:1018E00083490861400048611B20824908608020CC
:1018F0007F494861086180000861C120FFF7D8FA7C
:101900004FF480707A4908614000486101207949AC
:101910000860802076494861086180000861C52020
:10192000FFF7C6FA4FF480707149086140004861C2
:1019300030207049086080206D494861086180004E
:101940000861401008614000486130206749C1F8D3
:101950000C0C802066494861086180000861C7203E
:10196000FFF7A6FA4FF480706149086140004861B2
:10197000B7206049086080205D49486108618000A7
:1019800008613620FFF794FA4FF4807058490861D7
:101990004000486148205749086080205449486108
:1019A0000861800008613A20FFF782FA4FF48070E6
:1019B0004F4908614000486155204E490860802029
:1019C0004B494861086180000861B120FFF770FA57
:1019D0004FF4807046490861400048610020454945
:1019E0000860802042494861086180000861401019
:1019F0000861400048611A203E49086080203C4947
:101A00004861086180000861B620FFF751FA4FF481
:101A1000807037490861400048610A2035490860F4
:101A200080203349486108618000086140100861E6
:101A300040004861A2202F49086080202C4948615D
:101A4000086180000861F220FFF732FA4FF48070DD
:101A5000274908614000486100202649086080202D
:101A6000234948610861800008612620FFF720FAB9
:101A70004FF480701E4908614000486101201D49F3
:101A8000086080201A494861086180000861E020F0
:101A9000FFF70EFA4FF48070154908614000486165
:101AA0000F201449086080201149486108618000B6
:101AB000086140100861400048612A200D49086013
:101AC00080200B494861086180000861401008616E
:101AD0004000486128200749086080200449486187
:101AE0000861800008614010086105E000000140C5
:101AF000001001400C0C0140400048610820FF49E3
:101B000008608020FE49486108618000086140103B
:101B10000861400048610E20F84908608020F849BB
:101B20004861086180000861401008614000486118
:101B30000820F24908608020F1494861086180006E
:101B4000086140100861400048615420EB4908607A
:101B50008020EB49486108618000086140100861FD
:101B600040004861A920E54908608020E4494861B7
:101B7000086180000861401008614000486143200E
:101B8000DE4908608020DE49486108618000086104
:101B900040100861400048610A20D8490860802050
:101BA000D749486108618000086140100861400021
:101BB00048610F20D14908608020D14948610861FF
:101BC0008000086140100861400048610020CD4954
:101BD000C1F80C0C8020CA49486108618000086186
:101BE00040100861400048610020C449086080201E
:101BF000C3494861086180000861401008614000E5
:101C000048610020BD4908608020BD4948610861E5
:101C10008000086140100861400048610020B74919
:101C200008608020B6494861086180000861E120B1
:101C3000FFF73EF94FF48070B149086140004861F8
:101C40000020AE4908608020AD49486108618000ED
:101C5000086140100861400048611520A7490860EC
:101C60008020A74948610861800008614010086130
:101C7000400048611720A14908608020A0494861C0
:101C80000861800008614010086140004861072039
:101C90009A49086080209A4948610861800008617B
:101CA000401008614000486111209449086080207C
:101CB0009349486108618000086140100861400054
:101CC000486106208D49086080208D49486108617F
:101CD0008000086140100861400048612B2087495E
:101CE00008608020864948610861800008614010D2
:101CF0000861400048615620804908608020804982
:101D00004861086180000861401008614000486136
:101D10003C207A4908608020794948610861800048
:101D2000086140100861400048610520734908605F
:101D30008020734948610861800008614010086193
:101D40004000486110206D49086080206C4948615E
:101D500008618000086140100861400048610F2060
:101D60006649086080206649486108618000086112
:101D700040100861400048613F20604908608020B1
:101D80005F494861086180000861401008614000B7
:101D900048613F20594908608020594948610861DD
:101DA0008000086140100861400048610F205349DD
:101DB00008608020524948610861800008612B203A
:101DC000FFF776F84FF480704D4908614000486194
:101DD00000204A4908608020494948610861800024
:101DE00008614010086140004861002043490860D4
:101DF0008020434948610861800008614010086103
:101E00004000486101203F49C1F80C0C80203C494A
:101E10004861086180000861401008614000486125
:101E20003F203649086080203549486108618000BC
:101E300008612A20FFF73CF84FF4807030490861B0
:101E40004000486100202D49086080202C494861ED
:101E5000086180000861401008614000486100206E
:101E60002649086080202649486108618000086191
:101E7000401008614000486100202049086080202F
:101E80001F494861086180000861401008614000F6
:101E90004861EF20194908608020194948610861AC
:101EA000800008611120FFF703F87820FEF745FB5A
:101EB0002920FEF7FDFF01F0C4BB13488088A0F580
:101EC000D04104397ED11120FEF7F2FF1420FEF735
:101ED00034FBD020FEF7ECFF4FF480700849086116
:101EE0004000486107200549086080200449486196
:101EF0000861800008614010086107E00C0C014097
:101F000000100140000001403802002040004861FC
:101F10004220FF49C1F80C0C8020FE49486108614D
:101F20008000086140100861400048611D20FA49A6
:101F300008608020F7494861086180000861D1206D
:101F4000FEF7B6FF4FF48070F24908614000486127
:101F50000020F14908608020EE4948610861800056
:101F6000086140100861400048611A20EA49086091
:101F70008020E849486108618000086140100861DC
:101F8000400048610920E44908608020E149486137
:101F9000086180000861D220FEF78AFF4FF480704C
:101FA000DC490861400048610120DB49086080206D
:101FB000D84948610861800008614010086140000C
:101FC000486100E0DAE12220D34908608020D1494D
:101FD0004861086180000861C020FEF769FF4FF486
:101FE0008070CC490861400048611020CA490860EF
:101FF0008020C8494861086180000861401008617C
:10200000400048613B20C44908608020C1494861C4
:1020100008618000086140100861400048610020AC
:10202000BD4908608020BB494861086180000861A3
:1020300040100861400048610220B74908608020D4
:10204000B44948610861800008614010086140009F
:1020500048611120B04908608020AE49486108619C
:1020600080000861C520FEF723FF4FF48070A94966
:102070000861400048610320A74908608020A54905
:102080004861086180000861C820FEF711FF4FF425
:102090008070A04908614000486100209E490860A6
:1020A00080209C49486108618000086140100861F7
:1020B0004000486125209849086080209549486182
:1020C00008618000086140100861400048612120DB
:1020D0009149086080208F4948610861800008614B
:1020E000401008614000486105208B49086080204D
:1020F000884948610861800008614010086140001B
:102100004861002084490860802082494861086154
:102110008000086140100861400048610A207E4943
:10212000086080207B494861086180000861401098
:102130000861400048616520774908608020754942
:1021400048610861800008614010086140004861F2
:1021500025206F49C1F80C0C80206E494861086148
:1021600080000861401008614000486177206A499A
:10217000086080206749486108618000086140105C
:10218000086140004861502063490860802061492F
:1021900048610861800008614010086140004861A2
:1021A0000F205D49086080205A494861086180001D
:1021B00008614010086140004861002056490860ED
:1021C000802054494861086180000861F820FEF7CA
:1021D0006FFE4FF480704F49086140004861012054
:1021E0004D49086080204B494861086180000861C2
:1021F000FE20FEF75DFE4FF4807046490861400006
:1022000048610020444908608020424948610861D3
:1022100080000861401008614000486102203E498A
:10222000086080203B4948610861800008612020E7
:10223000FEF73EFE3620FEF73BFE4FF48070354938
:102240000861400048610820334908608020314916
:1022500048610861800008613A20FEF729FE4FF4CA
:1022600080702C4908614000486155202A49086067
:102270008020284948610861800008612B20FEF712
:1022800017FE4FF480702349086140004861002028
:102290002149086080201F49486108618000086169
:1022A000401008614000486100201B490860802000
:1022B00018494861086180000861401008614000C9
:1022C0004861012014490860802012494861086172
:1022D0008000086140100861400048613F200E49BD
:1022E000086080200B4948610861800008612A204D
:1022F000FEF7DEFD4FF4807006490861400048613A
:10230000002005490860802002494861086105E015
:1023100000000140001001400C0C014080000861E9
:1023200040100861400048610020FF49086080209B
:10233000FE49486108618000086140100861400062
:1023400048610120F84908608020F8494861086127
:10235000800008614010086140004861DF20F249B8
:1023600008608020F1494861086180000861782098
:10237000FEF7E3F82920FEF79BFD9CE5EC488088FA
:10238000A0F5134125397ED147F6F001E520FEF78F
:10239000D1FD4FF480710120FEF7CCFD4FF4E061D8
:1023A0000220FEF7C7FD41F230010320FEF7C2FD17
:1023B00000210420FEF7BEFD40F202210820FEF7B6
:1023C000B9FD00210920FEF7B5FD00210A20FEF726
:1023D000B1FD00210C20FEF7ADFD00210D20FEF720
:1023E000A9FD00210F20FEF7A5FD00211020FEF71A
:1023F000A1FD07211120FEF79DFD00211220FEF70F
:1024000099FD00211320FEF795FD00210720FEF71E
:1024100091FD41F290611020FEF78CFD40F22721E2
:102420001120FEF787FD9D211220FEF783FD4FF45A
:10243000C8511320FEF77EFD25212920FEF77AFDE5
:102440000D212B20FEF776FD07213020FEF772FDCF
:1024500040F203313120FEF76DFD03213220FEF7FB
:1024600069FD40F206213520FEF764FD0821362083
:10247000FEF760FD40F206413720FEF75BFD4FF4AA
:102480004171382000E057E0FEF754FD0721392064
:10249000FEF750FD40F202613C20FEF74BFD0821A3
:1024A0003D20FEF747FD00215020FEF743FDEF21C0
:1024B0005120FEF73FFD00215220FEF73BFD40F288
:1024C0003F115320FEF736FD4FF427416020FEF701
:1024D00031FD01216120FEF72DFD00216A20FEF76C
:1024E00029FD00218020FEF725FD00218120FEF737
:1024F00021FD00218220FEF71DFD00218320FEF733
:1025000019FD00218420FEF715FD00218520FEF72E
:1025100011FD10219020FEF70DFD4FF4C0619220B7
:10252000FEF708FD40F233110720FEF703FD2221DC
:102530000020FEF7FFFCBEE47D488088A0F5134133
:1025400028397ED141F28F01EC20FEF7F3FC41F2F5
:102550003421EF20FEF7EEFC4FF480710120FEF7EE
:10256000E9FC4FF4E0610220FEF7E4FC41F23001A7
:102570000320FEF7DFFC00210420FEF7DBFC40F225
:1025800002210820FEF7D6FC00210920FEF7D2FC2C
:1025900000210A20FEF7CEFC01210C20FEF7CAFC28
:1025A00000210D20FEF7C6FC00210F20FEF7C2FC23
:1025B00000211020FEF7BEFC07211120FEF7BAFC17
:1025C00000211220FEF7B6FC00211320FEF7B2FC1A
:1025D00001210720FEF7AEFC3220FDF7AEFF41F2ED
:1025E00090411020FEF7A6FC40F227211120FEF7B3
:1025F000A1FC3220FDF7A1FF8A211220FEF79AFCF0
:102600003220FDF79AFF4FF4D0511320FEF792FCD1
:1026100006212920FEF78EFC0D212B20FEF78AFCD7
:102620003220FDF78AFF00212020FEF783FC0021E5
:102630002120FEF77FFC3220FDF77FFF00213020B4
:1026400000E07BE0FEF776FC40F204613120FEF70B
:1026500071FC40F205313220FEF76CFC0021352080
:10266000FEF768FC40F609413620FEF763FC4FF4A4
:1026700001713720FEF75EFC40F201313820FEF791
:1026800059FC40F207713920FEF754FC00213C2030
:10269000FEF750FC40F60A213D20FEF74BFC3220AD
:1026A000FDF74BFF00215020FEF744FCEF215120A5
:1026B000FEF740FC00215220FEF73CFC40F23F11A7
:1026C0005320FEF737FC4FF427416020FEF732FC21
:1026D00001216120FEF72EFC00216A20FEF72AFC72
:1026E00000218020FEF726FC00218120FEF722FC3D
:1026F00000218220FEF71EFC00218320FEF71AFC39
:1027000000218420FEF716FC00218520FEF712FC34
:1027100010219020FEF70EFC4FF4C0619220FEF7CE
:1027200009FC40F2331105E00C0C0140001001409F
:10273000380200200720FEF7FDFB1EE6FF488088D8
:10274000A0F5134120397ED10846FEF7F3FB4FF484
:1027500080710120FEF7EEFB4FF4E0610220FEF7EE
:10276000E9FB41F230010320FEF7E4FB00210420E5
:10277000FEF7E0FB40F202210820FEF7DBFB002120
:102780000920FEF7D7FB00210A20FEF7D3FB012129
:102790000C20FEF7CFFB00210D20FEF7CBFB002124
:1027A0000F20FEF7C7FB3220FDF7C7FE40F20111F4
:1027B0000720FEF7BFFB3220FDF7BFFE4FF4865126
:1027C0001020FEF7B7FB07211120FEF7B3FB4FF4F3
:1027D00088711220FEF7AEFB4FF430611320FEF734
:1027E000A9FB00212920FEF7A5FB44F210012B20B4
:1027F000FEF7A0FB00215020FEF79CFBEF215120AB
:10280000FEF798FB00215220FEF794FB40F23F11A7
:102810005320FEF78FFB4FF41C516020FEF78AFB1C
:1028200001216120FEF786FB00216A20FEF782FB72
:1028300000218020FEF77EFB00218120FEF77AFB3D
:102840000021822000E02CE0FEF774FB00218320B1
:10285000FEF770FB00218420FEF76CFB0021852031
:10286000FEF768FB10219020FEF764FB0021922008
:10287000FEF760FB01219320FEF75CFB4FF48871AB
:102880009520FEF757FB00219720FEF753FB002110
:102890009820FEF74FFB40F273110720FEF74AFB2A
:1028A0006BE5A6488088A0F5134131397DD141F20E
:1028B0001401E720FEF73EFB4FF480710120FEF784
:1028C00039FB4FF400710220FEF734FB41F238016E
:1028D0000320FEF72FFB40F202210820FEF72AFB1F
:1028E00000210920FEF726FB00210A20FEF722FB2B
:1028F00000210C20FEF71EFB00210D20FEF71AFB25
:1029000000210F20FEF716FB00211020FEF712FB1E
:1029100007211120FEF70EFB00211220FEF70AFB13
:1029200000211320FEF706FBC820FDF706FE41F24A
:1029300090611020FEF7FEFA40F227211120FEF7E9
:10294000F9FA3220FDF7F9FD0C211220FEF7F2FA18
:102950003220FDF7F2FD4FF400611320FEF7EAFA92
:1029600011212920FEF7E6FA0B212B20FEF7E2FACF
:102970003220FDF7E2FD00212020FEF7DBFA40F2D5
:102980003F112120FEF7D6FA00213020FEF7D2FABF
:102990004FF483713120FEF7CDFA00213220FEF78B
:1029A000C9FA4FF40171352000E064E0FEF7C2FA85
:1029B00041F20A613620FEF7BDFA40F20771372076
:1029C000FEF7B8FA4FF483713820FEF7B3FA40F2FD
:1029D00007713920FEF7AEFA40F202413C20FEF7C3
:1029E000A9FA40F60F413D20FEF7A4FA002150203D
:1029F000FEF7A0FAEF215120FEF79CFA00215220A9
:102A0000FEF798FA40F23F115320FEF793FA4FF485
:102A10001C516020FEF78EFA01216120FEF78AFA30
:102A200000216A20FEF786FA00218020FEF782FA54
:102A300000218120FEF77EFA00218220FEF77AFA3B
:102A400000218320FEF776FA00218420FEF772FA37
:102A500000218520FEF76EFA10219020FEF76AFA19
:102A60004FF4C0619220FEF765FA40F2331107205F
:102A7000FEF760FA81E431488088A0F5A841083962
:102A80007DD14FF480710120FEF754FA4FF4E061DC
:102A90000220FEF74FFA41F230010320FEF74AFA16
:102AA00000210420FEF746FA40F207210820FEF735
:102AB00041FA00210920FEF73DFA00210A20FEF725
:102AC00039FA00210C20FEF735FA00210D20FEF71F
:102AD00031FA00210F20FEF72DFA1420FDF72DFD0D
:102AE00041F2B0611020FEF725FA01211120FEF716
:102AF00021FA01211720FEF71DFA4FF49C711220D4
:102B0000FEF718FA4FF400611320FEF713FA0921BB
:102B10002920FEF70FFA09212A20FEF70BFA0021DF
:102B2000A420FEF707FA00215020FEF703FAEF2158
:102B30005120FEF7FFF90021522001E03802002069
:102B4000FEF7F8F940F23F115320FEF7F3F94FF486
:102B50001C516020FEF7EEF901216120FEF7EAF931
:102B600000216A20FEF7E6F900218020FEF7E2F955
:102B700000218120FEF7DEF90021822000E027E01D
:102B8000FEF7D8F900218320FEF7D4F90021842034
:102B9000FEF7D0F900218520FEF7CCF91321902013
:102BA000FEF7C8F900219220FEF7C4F90321932013
:102BB000FEF7C0F94FF488719520FEF7BBF940F29B
:102BC00073110720FEF7B6F93220FDF7B6FCB2E428
:102BD000FF488088A0F5A85105397ED10720FEF76F
:102BE000A9F93220FDF7A9FC4FF48E711220FEF7EF
:102BF000A1F90121A420FEF79DF90F210820FEF77D
:102C000099F908210A20FEF795F908210D20FEF711
:102C100091F940F207713020FEF78CF9072131203D
:102C2000FEF788F940F203613220FEF783F94FF492
:102C3000E0613320FEF77EF940F202213420FEF7F6
:102C400079F902213520FEF775F941F60F7136202A
:102C5000FEF770F940F207713720FEF76BF900219B
:102C60003820FEF767F900213920FEF763F940F2BA
:102C700007713A20FEF75EF900213B20FEF75AF972
:102C800007213C20FEF756F900213D20FEF752F9BE
:102C90003220FDF752FC01210720FEF74BF90121FC
:102CA0001720FEF747F93220FDF747FC4FF4BD51DE
:102CB0001020FEF73FF940F217211120FEF73AF9F4
:102CC0004FF48F711220FEF735F94FF47061132025
:102CD000FEF730F900212A2000E093E0FEF72AF900
:102CE0000A212920FEF726F94FF49F711220FEF7E2
:102CF00021F900215020FEF71DF9EF215120FEF7A8
:102D000019F900215220FEF715F940F23F11532026
:102D1000FEF710F94FF41C516020FEF70BF901216A
:102D20006120FEF707F900216A20FEF703F9002170
:102D30008020FEF7FFF800218120FEF7FBF800213C
:102D40008220FEF7F7F800218320FEF7F3F8002138
:102D50008420FEF7EFF800218520FEF7EBF8132121
:102D60009020FEF7E7F84FF440719220FEF7E2F86A
:102D700005219320FEF7DEF800219520FEF7DAF812
:102D800000219720FEF7D6F800219820FEF7D2F810
:102D90004FF480710120FEF7CDF84FF4E06102207E
:102DA000FEF7C8F841F238010320FEF7C3F800210E
:102DB0000420FEF7BFF800210C20FEF7BBF800212D
:102DC0000F20FEF7B7F800212020FEF7B3F800210E
:102DD0002120FEF7AFF821210720FEF7ABF81420E1
:102DE000FDF7ABFB61210720FEF7A4F81420FDF7E7
:102DF000A4FB40F273110720FEF79CF81420FDF7A6
:102E00009CFB9AE472488088A0F5354105397DD154
:102E10000846FEF78FF800210846FEF78BF80021E0
:102E20000846FEF787F800210846FEF783F80121DF
:102E3000A420FEF77FF81420FDF77FFB4FF41C5110
:102E40006020FEF777F840F202210820FEF772F8C2
:102E50004FF405713020FEF76DF843F21571312003
:102E6000FEF768F840F204613220FEF763F840F69E
:102E700016613320FEF75EF842F211213420FEF78E
:102E800059F84FF4A8513520FEF754F848F207518D
:102E90003620FEF74FF841F207413720FEF74AF897
:102EA00041F203413820FEF745F820213920FEF792
:102EB00041F81A219020FEF73DF800211020FEF77E
:102EC00039F807211120FEF735F800211220FEF70E
:102ED00031F800211320FEF72DF81420FDF72DFB0B
:102EE0004FF4E6611020FEF725F840F2371111206B
:102EF000FEF720F81420FDF720FB4FF4DC711220C0
:102F0000FEF718F81420FDF718FB00E086E04FF4F8
:102F100070611320FEF70EF880212A20FEF70AF8D0
:102F200048212920FEF706F81420FDF706FB4FF490
:102F300080710120FDF7FEFF4FF4E0610220FDF7F4
:102F4000F9FF41F238010320FDF7F4FF40F20221BE
:102F50000820FDF7EFFF00210A20FDF7EBFF00211D
:102F60000C20FDF7E7FF00210D20FDF7E3FF3021E6
:102F70000E20FDF7DFFF00215020FDF7DBFFEF21E2
:102F80005120FDF7D7FF00215220FDF7D3FF40F27B
:102F90003F115320FDF7CEFF4FF41C516020FDF789
:102FA000C9FF01216120FDF7C5FF00216A20FDF75F
:102FB000C1FF11219020FDF7BDFF4FF4C0619220A9
:102FC000FDF7B8FF40F202419320FDF7B3FF01E0A7
:102FD0003802002002219420FDF7ACFF1420FDF7F9
:102FE000ACFA01210720FDF7A5FF1420FDF7A5FA93
:102FF00061210720FDF79EFF40F273110720FDF7C6
:1030000099FF00212020FDF795FF00212120FDF7E9
:1030100091FF22210020FDF78DFF12E3FF488088F9
:10302000A0F5454105397DD10846FDF783FF002114
:103030000846FDF77FFF1420FDF77FFA00210846C0
:10304000FDF778FF00210846FDF774FF00210846D0
:10305000FDF770FF00210846FDF76CFF0121A42059
:10306000FDF768FF1420FDF768FA4FF41C5160204B
:10307000FDF760FF40F606010820FDF75BFF40F218
:1030800003713020FDF756FF01213120FDF752FF7B
:1030900004213220FDF74EFF4FF481713320FDF7FC
:1030A00049FF4FF440713420FDF744FF40F2031113
:1030B0003520FDF73FFF1F213620FDF73BFF40F293
:1030C00003713720FDF736FF01213820FDF732FF6D
:1030D00004213920FDF72EFF15219020FDF72AFF4E
:1030E0004FF482611020FDF725FF40F247211120A7
:1030F000FDF720FF4FF4DE711220FDF71BFF4FF4A8
:1031000060611320FDF716FF7820FDF716FA4FF4E3
:1031100080710120FDF70EFF4FF400710220FDF7D2
:1031200009FF00E050E041F230010320FDF702FF0B
:1031300008210A20FDF7FEFE00210C20FDF7FAFE13
:1031400020210E20FDF7F6FE00210F20FDF7F2FEF4
:1031500000212020FDF7EEFE00212120FDF7EAFEF0
:103160003D212A20FDF7E6FE1420FDF7E6F92D218A
:103170002920FDF7DFFE00215020FDF7DBFE4DF298
:10318000EF015120FDF7D6FE00215220FDF7D2FEBF
:1031900040F23F115320FDF7CDFE00216120FDF7E5
:1031A000C9FE00216A20FDF7C5FE4FF44071922050
:1031B000FDF7C0FE05219320FDF7BCFE4FF48071A2
:1031C0000720FDF7B7FE3CE294488088A0F509414E
:1031D00089397DD101210020FDF7ACFE4AF6A4011A
:1031E0000320FDF7A7FE00210C20FDF7A3FE40F60B
:1031F0000C010D20FDF79EFE4FF42C510E20FDF723
:1032000099FEB0211E20FDF795FE42F63F310120C8
:10321000FDF790FE4FF4C0610220FDF78BFE002108
:103220001020FDF787FE46F278011120FDF782FE9F
:1032300000210520FDF77EFE00210620FDF77AFE25
:103240004EF61C711620FDF775FE03211720FDF7C1
:1032500071FE40F233210720FDF76CFE00210B20A8
:10326000FDF768FE00210F20FDF764FE00214120DC
:10327000FDF760FE00214220FDF75CFE00214820A2
:10328000FDF758FE40F23F114920FDF753FE0021A3
:103290004A20FDF74FFE00214B20FDF74BFE4FF477
:1032A0006F414420FDF746FE00214520FDF742FE18
:1032B00040F23F114620FDF73DFE40F207713020FD
:1032C000FDF738FE4FF401713120FDF733FE00E0C9
:1032D0003DE04FF401713220FDF72CFE40F2025127
:1032E0003320FDF727FE40F207513420FDF722FE80
:1032F0004FF401713520FDF71DFE4FF401713620AA
:10330000FDF718FE40F202513720FDF713FE40F2A0
:1033100002313A20FDF70EFE40F202313B20FDF76C
:1033200009FE00212320FDF705FE00212420FDF7E2
:1033300001FE4FF400412520FDF7FCFD00214F2048
:10334000FDF7F8FD00214E20FDF7F4FD79E133484B
:103350008088A0F58A4131397ED101210020FDF716
:10336000E9FD0A20FDF7E9F841F228611020FDF798
:10337000E1FD0E211220FDF7DDFD40F6392113207D
:10338000FDF7D8FD0A20FDF7D8F840211120FDF700
:10339000D1FD50211520FDF7CDFD0A20FDF7CDF818
:1033A0001E211220FDF7C6FD0A20FDF7C6F84FF4D6
:1033B000B1511020FDF7BEFD42F639211320FDF773
:1033C000B9FD0A20FDF7B9F84FF480710120FDF72F
:1033D000B1FD4FF440710220FDF7ACFD41F2380120
:1033E0000320FDF7A7FD40F202210820FDF7A2FD12
:1033F00008210A20FDF79EFD00213020FDF79AFDEF
:1034000040F202413120FDF795FD4FF483713220E7
:10341000FDF790FD40F20351332001E03802002017
:10342000FDF788FD4FF482713420FDF783FD40F2F3
:1034300001313520FDF77EFD40F207713620FDF7A2
:1034400079FD40F205313720FDF774FD4FF402712C
:103450003820FDF76FFD00E03EE040F60B713920AB
:10346000FDF768FD02214120FDF764FD4FF41C517A
:103470006020FDF75FFD01216120FDF75BFD4FF44A
:1034800004719020FDF756FD4FF485719220FDF7F1
:1034900051FD04219320FDF74DFD4FF48071A020D4
:1034A000FDF748FD01210720FDF744FD21210720FC
:1034B000FDF740FD23210720FDF73CFD33210720C8
:1034C000FDF738FD40F233110720FDF733FD0021F1
:1034D000A020FDF72FFDB4E0FC488088A0F58A41CC
:1034E0003539F8D130211520FDF724FD10219A201F
:1034F000FDF720FD20211120FDF71CFD43F228419E
:103500001020FDF717FD02211220FDF713FD41F2F7
:1035100038011320FDF70EFD2820FDF70EF81221CB
:103520000846FDF707FD2820FDF707F843F2204184
:103530001020FDF7FFFC43F238011320FDF7FAFCE1
:103540004620FCF7FAFF00213020FDF7F3FC40F2A3
:1035500002413120FDF7EEFC40F207313220FDF749
:10356000E9FC4FF441713320FDF7E4FC04213420E1
:10357000FDF7E0FC40F201413520FDF7DBFC40F2B5
:1035800007713620FDF7D6FC40F205313720FDF7F4
:10359000D1FC4FF4C2613820FDF7CCFC4FF4C2617E
:1035A0003920FDF7C7FC4FF480710120FDF7C2FC04
:1035B0004FF440710220FDF7BDFC41F230010320C1
:1035C000FDF7B8FC40F608010820FDF7B3FC082120
:1035D0000A20FDF7AFFC4FF41C516020FDF7AAFC58
:1035E00001216120FDF7A6FC4FF49F719020FDF7AB
:1035F000A1FC4FF480719220FDF79CFC4FF4807188
:103600009320FDF797FC4FF44051A020FDF792FC6A
:103610001021A320FDF78EFC01210720FDF78AFC75
:1036200021210720FDF786FC23210720FDF782FCDE
:1036300033210720FDF77EFC40F233110720FDF710
:1036400079FC0020FDF7E5FE0120A14908604FF656
:10365000FF70FDF755FF10BD2DE9F05F04460D46E4
:1036600016461F46DDF828804FF0000B301B401C2B
:103670001FFA80FBA94620E04946204602F046F8A2
:10368000FDF774FC4FF0000A11E04FF4807091498F
:103690000861400048619048C0F80C8C8020486167
:1036A0000861800008610AF101001FFA80FADA451A
:1036B000EBDB09F101001FFA80F9B945DCDDBDE85B
:1036C000F09F2DE9FF4F85B004460D4616460020B9
:1036D00004900390A6EB04080898A0EB0509A34604
:1036E0000095B8F1000F02DD012001900AE0B8F169
:1036F000000F02D10020019004E04FF0FF30019054
:10370000C8F10008B9F1000F02DD4FF0010A09E02D
:10371000B9F1000F02D14FF0000A03E04FF0FF3A79
:10372000C9F10009C84502DDCDF8088001E0CDF8F7
:103730000890002722E0009881B21FFA8BF0FDF775
:103740004EFE049840440490039848440390029924
:103750000498884205DD04990298081A049001989B
:103760008344DDE90210884206DDDDE90210401ADB
:103770000390009850440090781C87B20298401C37
:103780008742D8DD09B0BDE8F08F2DE9F04104464D
:103790000D4616461F462B46324629462046FFF761
:1037A00090FF3B46224629462046FFF78AFF3B46CC
:1037B000324639462046FFF784FF3B4632462946CB
:1037C0003046FFF77EFFBDE8F0812DE9F047044663
:1037D0000D4616460027B0460320A0EB460954E0EC
:1037E000EA1B91B2A4EB080290B2FDF7F8FDEA1BC8
:1037F00091B204EB080290B2FDF7F1FD05EB08026F
:1038000091B2E21B90B2FDF7EAFDEA1B91B2A4EB84
:10381000080290B2FDF7E3FDA5EB080291B2E21BAE
:1038200090B2FDF7DCFDEA1991B204EB080290B208
:10383000FDF7D5FDA5EB080291B2E21990B2FDF7B4
:10384000CEFD05EB080291B2E21990B2FDF7C7FD7B
:10385000EA1991B2A4EB080290B2FDF7C0FD7F1CFB
:10386000B9F1000F03DAB800801D814406E0A7EB30
:10387000080080000A308144A8F1010805EB080225
:1038800091B2E21990B2FDF7AAFD4745A8DDBDE867
:10389000F0872DE9F84F04460D4616461F46009561
:1038A0000E48B0F800B0A6F12000C6B20A98002871
:1038B0005DD1824658E00C2F14D106EB4600084932
:1038C00001EB800010F80A8011E0000038020020AF
:1038D000A801224200100140000001401000002019
:1038E0001E5F0008C14800EB061010F80A804FF078
:1038F000000931E018F0800F03D0BD48A0F800B0F7
:1039000003E0BC480088BA49088029462046FDF7F4
:1039100066FD4FEA48604FEA1068681C85B2B648F9
:103920000088A04204DCB248A0F800B0BDE8F88FDF
:103930000098281AB8420BD1009D601C84B2AE4892
:103940000088A04203DCAA48A0F800B0EEE706E039
:1039500009F1010000F0FF09B9F1080FCADB00BF4F
:103960000AF1010000F0FF0ABA45A4DB47E04FF07E
:10397000000A42E00C2F07D106EB46009F4901EBFD
:10398000800010F80A8004E0984800EB061010F858
:103990000A804FF0000928E018F0800F03D0294674
:1039A0002046FDF71CFD4FEA48604FEA1068681C8E
:1039B00085B291484088A04203DC8D48A0F800B051
:1039C000B4E70098281AB8420BD1009D601C84B25D
:1039D00089480088A04203DC8548A0F800B0A5E72C
:1039E00006E009F1010000F0FF09B9F1080FD3DB8F
:1039F00000BF0AF1010000F0FF0ABA45BADB7C48BB
:103A0000A0F800B092E710B50246012000E0504354
:103A10000B00A1F10104E1B2F9D110BD2DE9FF4F76
:103A200081B0044615461E460E9F4FF0000AD04650
:103A30003EE0A6EB0800401EC1B20A20FFF7E3FFFC
:103A4000B5FBF0F00A21B0FBF1F201FB120000F02F
:103A5000FF09BAF1000F16D1701E404513DDB9F110
:103A6000000F0ED10023BB4607EBD771491001FBB5
:103A7000084188B200933B4620220299FFF709FFD4
:103A800012E04FF0010A0023BB4607EBD771491043
:103A900001FB084188B200933B4609F13001CAB2EC
:103AA0000299FFF7F6FE00BF08F1010000F0FF08E1
:103AB000B045BEDB05B0BDE8F08F2DE9FF4F83B008
:103AC000044615461E46DDE9107800200290814626
:103AD00052E0A6EB0900401EC1B20A20FFF793FF97
:103AE000B5FBF0F00A21B0FBF1F201FB120000F08F
:103AF000FF0A029850BB701E484527DDBAF1000F3F
:103B000022D118F0800F0FD008F00103BB4607EB5D
:103B1000D771491001FB094188B200933B4630221E
:103B20000499FFF7B6FE0EE008F00103BB4607EB71
:103B3000D771491001FB094188B200933B4620220E
:103B40000499FFF7A6FE13E00120029008F001039C
:103B5000BB4607EBD771491001FB094188B20093BE
:103B60003B460AF13001CAB20499FFF792FE00BF4A
:103B700009F1010000F0FF09B145AADB07B0BDE87B
:103B8000F08F2DE9F84F04460D4616461F46DDE935
:103B90000A8904F0FF0A301986B2781987B219E051
:103BA000B44203DB544605EB080085B2BD4200DB9E
:103BB00018E00023009399F8002043462946204648
:103BC000FFF767FE404608EBD87104EB61018CB249
:103BD00009F1010999F800007E2803DC99F800003A
:103BE0002028DDDA00BFBDE8F88F000092630008EE
:103BF0001000002012000020380200201E5F000884
:103C000070B50025C948806940F00400C749886143
:103C10000846806940F008008861C5480068C549C9
:103C20000840C549C1F80008C1480068C3490843B5
:103C3000C149C1F800080846D0F80C0840F010004F
:103C4000C1F80C080846D0F80C0840F00300C1F891
:103C50000C08B748001D0068B9490840B649C1F8CA
:103C60000408B348001D0068B6490843B249C1F8CA
:103C700004080846D0F80C0840F44040C1F80C088D
:103C80000846D0F80C0840F4C050C1F80C080120D8
:103C9000FCF78CFD00F05AF98021122000F042FA66
:103CA00008B1012070BD3220FCF747FC0B2000F06A
:103CB00058FA0446732C01D00220F3E70A2000F0E2
:103CC00050FA0446762C01D00220EBE700250DE0E7
:103CD0009D4A02EB450251789B4A12F8150000F00C
:103CE00021FA0220FCF729FC681C85B2732DEFD362
:103CF0000020D7E72DE9F0410446E72500260027FC
:103D0000012C06D0022C08D0032C0AD0042C10D190
:103D10000BE0E5255A265C270BE0E52558266027B1
:103D200007E0E52584264C2703E0E5259626402775
:103D300000BF00BF2946132000F0F4F931460120EE
:103D400000F0F0F93946022000F0ECF9BDE8F0810E
:103D50002DE9F0410446802522265E2734B1012C4E
:103D600008D0032C0AD0042C10D10BE040251126DA
:103D70002F270BE066251B264B2707E099252826D1
:103D8000712703E0C02533268D2700BF00BF2946D9
:103D90004F2000F0C7F92946502000F0C3F9002158
:103DA000512000F0BFF93146522000F0BBF93946EE
:103DB000532000F0B7F92946542000F0B3F99E21B2
:103DC000582000F0AFF9BDE8F08170B50446002539
:103DD00034B1012C06D0032C06D0042C08D105E008
:103DE000B02505E0982503E0182501E0302500BF47
:103DF00000BF2946552000F095F970BD70B5044606
:103E0000402534B1012C06D0032C06D0042C08D157
:103E100005E0302505E0382503E0502501E0602568
:103E200000BF00BF2946562000F07CF970BD2DE987
:103E3000F04104460425C0268027072C1DD2DFE868
:103E400004F01C04080C1014180024258026802778
:103E500013E01425802680270FE01425C026802734
:103E60000BE014254026402707E014258026C027B4
:103E700003E01425A026402700BF00BF29463A20B2
:103E800000F050F93146682000F04CF939466720BF
:103E900000F048F9BDE8F0812DE9F04704460D46F1
:103EA00016461F4604EB46001FFA80F805EB470054
:103EB0001FFA80F9B9F5447F03DDA9F544701FFAB4
:103EC00080F9032000F04DF982460AF0F00A08F06C
:103ED0000301204661F39F0040EA0A0A514603208D
:103EE00000F020F9C4F38701192000F01BF9C8F392
:103EF00087011A2000F016F9322000F032F98246CC
:103F00000AF0C00A09F00701284661F3DF0040EA21
:103F10000A0AC5F3C701172000F004F9C9F3C70165
:103F2000182000F0FFF8BDE8F08700000010024004
:103F30000008014000FFF0FF0000014033000300D3
:103F4000FF0FF00000300383826900089848806901
:103F500040F01000964988619648006820F47F0080
:103F6000944908600846006840F44C100860084610
:103F7000C06840F03000C8600846006820F4700057
:103F800008600846006840F440100860704710B5AB
:103F90000120894908608949C1F890013220FCF765
:103FA000E7FA0020844908603220FCF7E1FA00209B
:103FB0008249C1F8900110BD10B500207E4908600B
:103FC0003220FCF7D5FA01207C49C1F8900132205B
:103FD000FCF7CEFA0120784908603220FCF7C8FAD5
:103FE00010BD10B53220FCF7C3FA012072490860F9
:103FF0007249C1F890013220FCF7BAFA00206E49EC
:10400000091F08603220FCF7B3FA00206B49C1F8A1
:1040100094013220FCF7ACFA10BD70B504460025BF
:104020001BE014F0800F03D001206349086002E018
:104030000020614908606006040E3220FCF798FAFF
:1040400001205D49091F08603220FCF791FA002029
:104050005A49C1F89001681CC5B2082DE1DB5548EA
:10406000006820F47000534908600846006840F476
:10407000000008603220FCF77BFA01204E49091F3E
:1040800008603220FCF774FA4C48D0F8140108B1EB
:10409000012600E0002600204749091F0860454826
:1040A000006820F47000434908600846006840F446
:1040B00040100860304670BD70B500243D4800686F
:1040C00020F470003B4908600846006840F4000096
:1040D0000860082517E03220FCF74AFA012036492B
:1040E000091F08606006040E3448D0F8140108B1B6
:1040F000601CC4B23220FCF73BFA00202E49091F95
:104100000860681EC5B2002DE5DC2A48006820F46E
:104110007000284908600846006840F440100860B4
:10412000204670BD70B504460D460026FFF72FFFF0
:104130004220FFF772FF00B101266420FCF718FA55
:104140002046FFF76AFF00B101266420FCF710FA51
:104150002846FFF762FF00B10126FFF72DFF30462A
:1041600070BD70B504460025FFF711FF4220FFF730
:1041700054FF6420FCF7FCF92046FFF74EFF642053
:10418000FCF7F6F9FFF718FF6420FCF7F1F9FFF7E9
:10419000FEFE4320FFF741FF6420FCF7E9F9FFF73B
:1041A0008BFF0546FFF71DFFFFF706FF284670BD92
:1041B00000100240001001409401224200002242FF
:1041C00010B58CB004461E230BAA03A9204600F0AC
:1041D00014FE0090009810B101200CB010BD9DF8A5
:1041E0002C00044400200B900EE060489DF82C2029
:1041F00050F8221003A800F057FD00B908E09DF820
:104200002C00401CC0B20B909DF82C000828ECDB61
:1042100000BF9DF82C0007287ED2DFE800F00405DF
:10422000395B8BA6A50000BF51A001F017F851A083
:1042300001F014F85FA001F011F86EA001F00EF883
:104240007CA001F00BF88BA001F008F899A001F018
:1042500005F8A6A001F002F8ABA000F0FFFFB0A0A7
:1042600000F0FCFFB4A000F0F9FFB9A000F0F6FFE9
:10427000BDA000F0F3FFC3A000F0F0FFCEA000F05F
:10428000EDFFDAA000F0EAFFE5A000F0E7FFAEE204
:1042900037A000F0E3FFF2A000F0E0FF00200B9059
:1042A0000EE0FF4800689DF82C2000EBC20041683A
:1042B000FCA000F0D3FF9DF82C00401CC0B20B9076
:1042C000F748007D9DF82C108842EADC28A000F019
:1042D000C5FF8CE226A000F0C1FFF4A000F0BEFFF5
:1042E00000200B901CE0EE4909689DF82C2001EBA2
:1042F000C20101AB02AA486803A900F0A3FDE84887
:1043000000689DF82C1050F8312003A9F7A000F0A8
:10431000A5FF9DF82C0000E067E2401CC0B20B90A6
:10432000DF48007D9DF82C108842DCDC10A000F0F6
:1043300095FF5CE20EA000F091FF0BAA03A92046B6
:1043400000F08CFE9DF82C0060B9694603A800F0CF
:10435000DEFC0B909DF82C0028B9E9A0009900F034
:104360007DFFE2E1DFE1D1E111E2E3E114000020B1
:104370000D0A00002D2D2D2D2D2D2D2D2D2D2D2D0A
:104380002D2D2D2D2D2D2D2D2D2D2D2D55534D41DB
:1043900052542056322E382D2D2D2D2D2D2D2D2DD4
:1043A0002D2D2D2D2D2D2D2D2D2D2D2D2D2D2D204A
:1043B0000D0A00002020202055534D415254CAC7F9
:1043C000D3C9414C49454E54454BBFAAB7A2B5C4C9
:1043D000D2BBB8F6C1E9C7C9B5C4B4AEBFDAB5F748
:1043E000CAD4BBA5BDBBD7E9BCFE2CCDA8B9FD2066
:1043F0000D0A0000CBFC2CC4E3BFC9D2D4CDA8B9B0
:10440000FDB4AEBFDAD6FACAD6B5F7D3C3B3CCD0B3
:10441000F2C0EFC3E6B5C4C8CEBACEBAAFCAFD2C5F
:10442000B2A2D6B4D0D02ED2F2B4CB2CC4E3BFC942
:104430000D0A0000D2D4CBE6D2E2B8FCB8C4BAAFC1
:10444000CAFDB5C4CAE4C8EBB2CECAFD28D6A7B32C
:10445000D6CAFDD7D62831302F3136BDF8D6C62979
:10446000A1A2D7D6B7FBB4AEA1A2BAAFCAFDC8EB22
:104470000D0A0000BFDAB5D8D6B7B5C8D7F7CEAAAF
:10448000B2CECAFD292CB5A5B8F6BAAFCAFDD7EE93
:10449000B6E0D6A7B3D63130B8F6CAE4C8EBB2CE90
:1044A000CAFD2CB2A2D6A7B3D6BAAFCAFDB7B52003
:1044B0000D0A0000BBD8D6B5CFD4CABE2ED0C2D408
:1044C000F6B2CECAFDCFD4CABEBDF8D6C6C9E8D6AC
:1044D000C3B9A6C4DC2CD0C2D4F6BDF8D6C6D7AAC0
:1044E000BBBBB9A6C4DC2E0D0A000000BCBCCAF5DB
:1044F000D6A7B3D63A7777772E6F70656E656476F8
:104500002E636F6D0D0A000055534D415254D3D0A8
:1045100036B8F6CFB5CDB3C3FCC1EE3A0D0A0000F4
:104520003F3A20202020BBF1C8A1B0EFD6FAD0C579
:10453000CFA20D0A0000000068656C703A20BBF144
:10454000C8A1B0EFD6FAD0C5CFA20D0A0000000076
:104550006C6973743A20BFC9D3C3B5C4BAAFCAFD7E
:10456000C1D0B1ED0D0A0A0069643A202020BFC90C
:10457000D3C3BAAFCAFDB5C44944C1D0B1ED0D0A29
:104580000A0000006865783A2020B2CECAFD3136B4
:10459000BDF8D6C6CFD4CABE2CBAF3B8FABFD5B8C8
:1045A000F12BCAFDD7D6BCB4D6B4D0D0BDF8D6C690
:1045B000D7AABBBB0D0A0A006465633A2020B2CEBD
:1045C000CAFD3130BDF8D6C6CFD4CABE2CBAF3B8B6
:1045D000FABFD5B8F12BCAFDD7D6BCB4D6B4D0D06B
:1045E000BDF8D6C6D7AABBBB0D0A0A00C7EBB0B44C
:1045F000D5D5B3CCD0F2B1E0D0B4B8F1CABDCAE4DD
:10460000C8EBBAAFCAFDC3FBBCB0B2CECAFDB2A202
:10461000D2D4BBD8B3B5BCFCBDE1CAF82E0D0A009C
:104620002D2D2D2D2D2D2D2D2D2D2D2D2D2D2D2DBA
:104630002D2D2D2D2D2D2D2D2D2D414C49454E54FB
:10464000454B2D2D2D2D2D2D2D2D2D2D2D2D2D2D64
:104650002D2D2D2D2D2D2D2D2D2D2D200D0A000034
:104660002D2D2D2D2D2D2D2D2D2D2D2D2D2D2D2D7A
:104670002D2D2D2D2D2D2D2D2DBAAFCAFDC7E5B514
:10468000A52D2D2D2D2D2D2D2D2D2D2D2D2D2D2DE2
:104690002D2D2D2D2D2D2D2D2D2D2D2D200D0A00C7
:1046A0008400002025730D0A000000002D2D2D2D03
:1046B0002D2D2D2D2D2D2D2D2D2D2D2D2D2D2D2D2A
:1046C0002D2D2D2D2DBAAFCAFD204944202D2D2D85
:1046D0002D2D2D2D2D2D2D2D2D2D2D2D2D2D2D2D0A
:1046E0002D2D2D2D2D2D2D2D200D0A00257320690A
:1046F000642069733A0D0A3058253038580D0A0085
:104700004845583A305825580D0A00009DF82C00AD
:10471000042801D0022060E5F8A000F09FFD0120F0
:10472000FB49C87501E0022057E5AFF2BC3000F04C
:1047300095FD5CE0AFF2C83000F090FD0BAA03A934
:10474000204600F08BFC9DF82C00C8B9694603A8F0
:1047500000F0DDFA0B909DF82C0020B9EDA0009937
:1047600000F07CFD0EE09DF82C00042801D0022012
:1047700033E5EBA000F072FD0020E549C87501E0CB
:1047800002202AE5AFF2184000F068FD2FE0AFF2FA
:10479000204000F063FD0BAA03A9204600F05EFC58
:1047A0009DF82C00D8B9694603A800F0B0FA0B9028
:1047B0009DF82C0088B9D648C07D012806D1009804
:1047C00001460268DBA000F049FD0AE000980146BE
:1047D0000268DCA000F042FD03E00220FDE40220BC
:1047E000FBE4D7A000F03AFD01E00120F5E400BFB2
:1047F0000020F2E410B54FF08040008A10F0010F65
:1048000002D0C349086980474FF08040008A20F0F9
:1048100001004FF08041088210BD70B504460D467E
:10482000CB48C06940F00100C949C861880484854B
:104830000585808940F001008904888108468089C7
:1048400040F0400088810846008840F00100088060
:1048500002231C2203210846FBF7BEFE70BD10B5E3
:10486000044604EBC40000EB04100122C2EB8000FC
:1048700081B24FF47A70FFF7D0FF0120A449C875C8
:1048800010BD30B595B0044613AB12AA09A9204655
:1048900000F0D8FA054615B1284615B030BD002005
:1048A000149026E09A4909689DF8502001EBC20156
:1048B00013AB11AA486801A900F0C4FA05460DB16E
:1048C0002846EAE709A901A800F0EEF960B99DF8C9
:1048D00044009DF84810884201DD0220DDE79DF884
:1048E00050008B4988750AE09DF85000401CC0B20A
:1048F00014908748007D9DF850108842D2DC00BF9C
:104900008348007D9DF85010884201D10420C4E7FF
:1049100014A9204600F00CFC05460DB12846BCE762
:104920009DF850007A4948750020B6E7F0B59BB075
:104930007748847D007DA04201DC1BB0F0BD744946
:10494000096801EBC40107AB08AA486809A900F08F
:1049500079FA09A97FA000F081FC002544E06C48A9
:10496000018B0120A84001421BD022217BA000F036
:1049700075FC284600F0CFFB6549243147183946BD
:1049800077A000F06BFC222174A000F067FC2846A1
:1049900000F0C1FB5E492431084411A941F825000B
:1049A00018E0284600F0B7FB59492431085811A9EE
:1049B00041F825005648C07D30B911A850F825109F
:1049C00068A000F04BFC05E011A850F8251066A087
:1049D00000F044FC9DF82000401EA84202D064A0D4
:1049E00000F03CFC681CC5B29DF820008542B6DB97
:1049F00060A000F033FC4648407D0B280DD2DFE874
:104A000000F0060D151E27323F4E5D6CBB0040497D
:104A1000096851F8340080470646C0E03C4A1268F5
:104A200052F83410119888470646B8E0384B1B6896
:104A300053F83420DDE9110190470646AFE0344FCA
:104A40003F6857F8343011A807C898470646A6E0D3
:104A5000DFF8BCC0DCF800C05CF8347011A80FC8E7
:104A6000B84706469BE0159BDFF8A4C00093DCF82E
:104A700000C05CF8347011A80FC8B84706468EE035
:104A8000DDE91523DFF888C0CDE90023DCF800C09C
:104A90005CF8347011A80FC8B84706467FE015A926
:104AA0000EC9DFF86CC08DE80E00DCF800C05CF8C1
:104AB000347011A80FC8B847064670E015A80FC893
:104AC000DFF84CC08DE80F00DCF800C05CF83470F3
:104AD00011A80FC8B847064661E016A80FC801AF75
:104AE0000FC7159BDFF828C00093DCF800C05CF806
:104AF000347011A80FC8B847064650E03136BDF8EB
:104B0000D6C6B2CECAFDCFD4CABE210D0A0000005F
:104B1000840000204445433A256C750D0A000000CE
:104B20003130BDF8D6C6B2CECAFDCFD4CABE210D33
:104B30000A0000002A2830582558293D30582558A9
:104B40000D0A00002A282564293D25640D0A00006D
:104B5000001002400D0A25732800000025630000A4
:104B600025730000256C75003058255800000000A2
:104B70002C0000002900000017A80FC802AF0FC7C3
:104B8000DDE91523DFF8C8C0CDE90023DCF800C05B
:104B90005CF8347011A80FC8B847064600BF00BFC4
:104BA0009DF81C0001280CD12948C07D20B9314650
:104BB00028A000F053FB07E0314628A000F04EFB90
:104BC00002E025A000F04AFBB7E670B52648008851
:104BD00010F4004F35D024480088C5B20020234986
:104BE00048551B4881682148884704461CB9184924
:104BF000C868804722E01D48FFF7E2FA0546012D0C
:104C000000D02C46002C19D0012C06D0022C08D044
:104C1000032C0AD0042C10D10BE015A000F01EFBD1
:104C20000BE016A000F01AFB07E017A000F016FB3F
:104C300003E018A000F012FB00BF00BF00200A49EB
:104C4000088070BD01460868704701607047000029
:104C5000840000203D256C753B0D0A003D30582531
:104C6000583B0D0A000000000400002070010020E5
:104C7000BAAFCAFDB4EDCEF3210D0A00B2CECAFD23
:104C8000B4EDCEF3210D0A00B2CECAFDCCABB6E036
:104C9000210D0A00CEB4D5D2B5BDC6A5C5E4B5C4B4
:104CA000BAAFCAFD210D0A0002460AE010780B785F
:104CB000984201D001207047107800B902E0521CE0
:104CC000491CF3E700BF0020F5E706E002780A7010
:104CD000027802B902E0401C491CF7E700BF7047A8
:104CE0000146002005E00A7802B903E0421CD0B278
:104CF000491CF8E700BF704710B50246012000E0EC
:104D000050430B00A1F10104E1B2F9D110BD2DE92E
:104D1000F04304460D4600274FF00A09A046002044
:104D2000286027E098F80000392803DC98F8000094
:104D300030280DDA98F80000462803DC98F80000C7
:104D4000412805DA98F8000058280AD1012F08D127
:104D500098F80000412801DB4FF01009781CC7B219
:104D600006E098F8000000B905E00120BDE8F083F6
:104D700008F10108D6E700BFA046B9F1100F12D123
:104D8000032F01DA0220F1E798F80000302808D15B
:104D900098F80100582804D108F10208B81EC7B2DB
:104DA00004E00320E2E70FB90420DFE721E00FB1C0
:104DB000781EC7B298F80000392808DC98F800007F
:104DC000302804DB98F80000A0F1300603E098F8E2
:104DD0000000A0F1370639464846FFF78DFF2968E5
:104DE00006FB0010286008F1010898F8000000B9DF
:104DF00000E0DCE700BF0020B8E710B50446002063
:104E000010700BE020780870641C491C1078401C5E
:104E100010701078984201DB012010BD2078202806
:104E200002D020780028EDD100200870F5E7014677
:104E3000491C00E0491C0878202801D10029F9D13B
:104E4000087870472DE9FF4F86B004460D461E4690
:104E50004FF00008002005908246012004900020B9
:104E600001900090A1462AE099F80000202820D067
:104E7000009800F07F0005281BDA009818B9009808
:104E800040F080000090009800F07F00042804D1DA
:104E900099F800002A2800D015E099F80000009940
:104EA00001F07F0102AA50540098401CC0B200904B
:104EB00003E00098852800D105E009F1010999F87F
:104EC00000000028D0D100BF009888B100200099D0
:104ED00001F07F0102AA5054DCA102A8FFF7E4FE12
:104EE00010B90020307001E00120307000200090E7
:104EF0000027A14616E009F10109781CC7B299F80C
:104F00000000202803D099F800002A280AD148463A
:104F1000FFF78DFF8346BBF1280F03D0BBF12A0FAB
:104F200000D0059799F80000282803D099F80000D0
:104F30000028E0D1A146059810B10598401C814495
:104F40000027BB4671E099F8000008B901276DE021
:104F500099F80000282807D1BBF1000F04D108F10F
:104F6000010000F0FF081FE099F8000029280FD188
:104F7000BBF1000F0CD1B8F1000F04D0A8F1010073
:104F800000F0FF0800E00127B8F1000F0CD14DE060
:104F900099F80000222807D1BBF1000F01D10120B0
:104FA00000E0002000F0FF0BB8F1000F08D199F8E5
:104FB0000000202837D099F8000028706D1C32E0DE
:104FC00099F800002C2806D1012004900098401C7C
:104FD000C0B2009019E099F80000202815D099F887
:104FE0000000282811D0009858B90198052808DA3F
:104FF00099F8000002A9019A88540198401CC0B297
:1050000001900498401CC0B20490B8F1010F0AD17D
:105010000498022807D10498401CC0B204900AF1F9
:10502000010000F0FF0A09F101098CE700BFBAF1A5
:10503000010F0AD1002002A9019A885483A102A875
:10504000FFF732FE08B94FF0000A089880F800A078
:105050000020287038460AB0BDE8F08FF0B503464E
:1050600000200024002500264FE01F782C2F01D1BE
:1050700006B901241F78292F01D01F780FB906B96E
:1050800044E0002D34D11F78302F02DB1F78392FF8
:1050900011DD1F78612F02DB1F78662F0BDD1F7873
:1050A000412F02DB1F78462F05DD1F78582F02D0D5
:1050B0001F78782F0CD104B128E01F78612F03DB13
:1050C0001F78203F0F7001E01F780F70491C19E016
:1050D0001F78222F04D104B118E00125012611E028
:1050E0001F78202F0ED01F782C2F0BD0FF250DE01E
:1050F0001F78222F00D1002604B107E016B11F78D7
:105100000F70491C471CF8B25B1CAEE700BF0027BC
:105110000F701570F0BD01460020002205E04D4BD8
:105120009B5C0344D8B2531CDAB28A42F7DB704767
:105130002DE9F043B5B004460D464FF000080026B7
:1051400004E0002143488155701CC6B20A2EF8DBEA
:1051500006E0641C207818B9012035B0BDE8F08362
:1051600020782828F5D1641C69E034AA69462046D5
:10517000FFF774FF064634449DF8D00020B10128A3
:105180002CD0FF2854D151E09DF8000028B333A95A
:105190006846FFF7BCFD06460EB10220DDE740463B
:1051A000FFF7B9FF2B490A31339A0A50A1F12400C5
:1051B000018B012000FA08F0814326481A38018348
:1051C00004211A3000F8081008F1010000F0FF086F
:1051D000B8F10A0F01DD0320BFE729E06846FFF7B9
:1051E0007FFD401CC7B24046FFF795FF19490A31C1
:1051F00000EB010949466846FFF767FD15481A3874
:10520000018B012000FA08F0014388B211491A39D4
:105210000883104800F8087008F1010000F0FF084A
:10522000B8F10A0F01DD032097E701E0022094E7BF
:1052300000BF2078292801D0207800B900E094E749
:1052400000BF85F80080002087E70000766F696462
:10525000000000009E000020704700000FB4054AC7
:10526000054910B503AB7944029800F0EEF910BC83
:105270005DF814FB0800002029B6FFFF70B5044656
:10528000856900683026C10600D42026C00709D1F0
:1052900006E0D4E9012130469047206A401C206294
:1052A0006D1EF6D570BD70B5044685690068C007EF
:1052B00009D006E0D4E9012120209047206A401C53
:1052C00020626D1EF6D570BD70B505460C46012AEC
:1052D00001D101200BE02868800600D5EA69002092
:1052E00000E0401C904202D2215C0029F9D1A9695A
:1052F0002618091AA961296A014428462962FFF77C
:10530000BDFF04E0D5E9012114F8010B9047B44238
:10531000F8D32846FFF7C7FF70BD00002DE9F04124
:105320008046002610687529414614A511D0AFF3B8
:105330000080002802DA404211A508E0D8F80010E9
:105340008A0701D50FA502E0490704D50EA501265D
:1053500001E0AFF30080002408F1240704E000F02E
:105360009DF930313955641C0028F8D133462A465E
:1053700021464046BDE8F04100F00AB900000000B7
:105380002D0000002B0000002000000070B5044636
:105390000D4621461068AFF300802168090502D54B
:1053A000104A7A4402E00F4A7A440E32002104F196
:1053B000240306E000F00F064FEA1010965D5E54DD
:1053C000491C0028F6D120680023000704D5702D61
:1053D00002D009B1113202232046BDE8704000F02E
:1053E000D7B80000C21600002DE9F05F4FF0000BA7
:1053F000054689464FF0010AC0F820B02846E96802
:10540000884700287ED0252802D0D5E90121B0E0C8
:105410005C4F00267F442846E968884720280446D8
:1054200007DB312C05D2381910F8200C08B10643DF
:10543000F1E7B00701D526F00406C5F81CB0002737
:10544000C5F818B02A2C10D1284659F8041B05EBD2
:1054500087029161E9688847012F044628D1E869ED
:10546000002830DA26F020062DE0A4F13000524664
:105470000A2801461AD2CAB105EB87009246804637
:10548000816108E0D8F8180000EB800004EB4000D0
:105490003038C8F818002846E9688847044650465E
:1054A000A4F130010A2901D20028EBD1012F0AD042
:1054B0002E2C08D12846E96888477F1C0446022F15
:1054C00046F02006BEDBA869002803DA404246F019
:1054D0000106A861F00701D026F010066C2C01D05F
:1054E000682C18D127462846E9688847B842044600
:1054F0000BD180206C2F00D0C000E96806432846FD
:10550000884700E03AE0044615E040206C2F00D0C8
:10551000800006430FE04C2C05D06A2C03D0742C7D
:1055200001D07A2C07D158464C2CE6D080206A2C2A
:10553000E3D00020E1E70CB3A4F14100192802D820
:10554000203446F400664A46214628462E604E46E0
:10555000FAF726FE50B1012802D106F104094DE701
:10556000F61D26F0070000F1080947E7D5E90121FB
:1055700020469047286A401C28623FE7286ABDE819
:10558000F09F000078160000704770477047704722
:105590002DE9F0470D4604469246994600F124084D
:1055A0000168880604D5E06921F01001216000E05F
:1055B00001200027A84200DD471BA1697A1902EBF0
:1055C0000900081AA0612068C00602D42046FFF72F
:1055D00055FE002608E0D4E901211AF8060090479C
:1055E000206A401C761C20624E45F4DB2068C00611
:1055F0000AD52046FFF742FE06E0D4E9012130201B
:105600009047206A401C2062381EA7F10107F4DC95
:1056100007E0D4E9012118F805009047206A401CF2
:105620002062281EA5F10105F3DC2046FFF73BFEB2
:1056300021680220090600D40120BDE8F08700009F
:1056400001694A1C02610878704710B50C4619467A
:1056500090B0CDE9024200220692044A7A44CDE994
:10566000042001A8FFF7C0FE10B010BDE1FFFFFF4E
:1056700010B5436913B1AFF3008001E0FFF724FEDA
:10568000012010BD126800F124010A7000224A7046
:105690000122EDE711684FF0FF32E9E74FF00A0110
:1056A000B0FBF1F202FB1101104670470048704751
:1056B000440200207546FFF7F9FFAE460500694633
:1056C000534620F00700854618B020B5FAF79AFD3A
:1056D000BDE820404FF000064FF000074FF00008F3
:1056E0004FF0000B21F00701AC46ACE8C009ACE874
:1056F000C009ACE8C009ACE8C0098D467047044653
:10570000AFF300802046FAF76BFD000030B5044689
:105710000D4631488088A0F51341413905D02E4807
:105720008088A0F5D041043941D12B49087AFBF794
:10573000BFFB4FF480702949086140004861201286
:105740002749086080202549486108618000086178
:105750004010086140004861E0B22249C1F80C0CD9
:1057600080201E4948610861800008611A49487A12
:10577000FBF79EFB4FF480701849086140004861B8
:105780002812174908608020144948610861800088
:1057900008614010086140004861E8B210490860A3
:1057A00080200E49486108618000086112E00A48C3
:1057B0008079012804D108480088401E001B84B26B
:1057C0000549087A2146FBF7B5FB0349487A294683
:1057D000FBF7B0FB30BD0000380200200010014094
:1057E0000C0C01400000014090EA010F48BF81F01D
:1057F000004100F17C82421A3CBF801A89184FEAAE
:10580000D0524FF07F4C1CEA410FA2EBD15318BF8E
:105810009CEA026F00F040804FF0004C4CEA002000
:105820004CEA012121FA03FC10EB0C0C23D202F10B
:10583000FF325FEA1C2040EBC25038BF70471CF0BB
:105840007F0F4FEA400C18BFBCF17F4F38BF704745
:10585000C3F12003994008BF20F00100BCF17F4F45
:1058600038BF7047A0F1C0404FF0FF0141EAD0516E
:105870004FEAC15070474FEA3C00000A40EBC2506B
:1058800028BF1CF0FF0F4FEA400CE1D018BFBCF15D
:105890007F4F38BF7047E5E79CEA026F05D010EAFA
:1058A0005C0F08BF00F000407047BCEB410F4FEAAF
:1058B000400228BF9445DFF828C0C0F01580AFF340
:1058C0000080B2EB410F05D012F1807F08BF704716
:1058D0000846704790EA010F58BF7047014870476B
:1058E000010000040000C07F014800F0CEBA0000B3
:1058F0000000C07F014800F0C8BA00000000C07F6F
:105900004FF47F0C1CEAD0121EBF1CEAD11392EA9E
:105910000C0F93EA0C0F00F0A58090EA010F48BF2E
:1059200042F4807240F4000C41F400002CF07F41FE
:1059300020F07F4000B58142A2EB03020FF2401C31
:10594000ACEB504EC0F100009EF800E04FEA4E0E66
:1059500000FB0EFC38BF49004FEA2C1C02F5FA028E
:105960000CFB0EF34FEACE1E4FEA112C4FEAC12179
:105970000EEB635E0EFB0CFC4FEA1C5300FB0311A5
:105980004FEA112C4FEA01310EFB0CFC02F4807E31
:1059900042EB22424FEADC4C00FB0C11C14228BF13
:1059A00009184CEB0333012924BF4EF0020E4EF0D0
:1059B000804E10EB410F24BF4EF0010E4EF0804E92
:1059C00008BF4EF0040E4EF008015DF804EB43EB07
:1059D000C25018BFB2F57C0F38BF704741EAC071A2
:1059E00008BF20F00100B2F57C0F38BF704729D501
:1059F00012F0F00F1CBF00F1C04000F000407047F3
:105A0000008182838485868788898B8C8D8E8F9197
:105A10009293959697999A9C9D9FA0A2A3A5A7A8BB
:105A2000AAACAEB0B2B3B5B7B9BCBEC0C2C5C7C9E7
:105A3000CCCED1D4D7D9DCDFE2E6E9ECF0F3F7FA4B
:105A4000FE0000004FEA400C0CF1807CBCF17E4F60
:105A500028BF7047B0F1C0404FF07F404CBF4010AE
:105A60004008704790EA010F0CEAD11348BF42F496
:105A70008072624538BF634507D213F47F0F23D08D
:105A800080EA010000F0004070474FF0807C1CEB82
:105A9000400F98BF1CEB410FDFF840C03FF624AF2A
:105AA000AFF300804FF0807C1CEB400F02BF1CEB7B
:105AB000410F0B4870471CEB410F0CBF002020F03A
:105AC000004040EAC250704712F47F0F04BF044800
:105AD000704742F0FF004FEAC050704704000004D6
